{
  "_format": "hh-sol-artifact-1",
  "contractName": "ActionFactory",
  "sourceName": "contracts/ActionFactory.sol",
  "abi": [
    {
      "inputs": [],
      "stateMutability": "nonpayable",
      "type": "constructor"
    },
    {
      "inputs": [
        {
          "internalType": "address",
          "name": "owner",
          "type": "address"
        }
      ],
      "name": "OwnableInvalidOwner",
      "type": "error"
    },
    {
      "inputs": [
        {
          "internalType": "address",
          "name": "account",
          "type": "address"
        }
      ],
      "name": "OwnableUnauthorizedAccount",
      "type": "error"
    },
    {
      "anonymous": false,
      "inputs": [
        {
          "indexed": true,
          "internalType": "address",
          "name": "action",
          "type": "address"
        },
        {
          "indexed": true,
          "internalType": "uint256",
          "name": "id",
          "type": "uint256"
        },
        {
          "indexed": false,
          "internalType": "string",
          "name": "name",
          "type": "string"
        },
        {
          "indexed": false,
          "internalType": "string",
          "name": "unit",
          "type": "string"
        },
        {
          "indexed": false,
          "internalType": "uint256",
          "name": "pricePerUnit",
          "type": "uint256"
        },
        {
          "indexed": false,
          "internalType": "address",
          "name": "deviceAddress",
          "type": "address"
        },
        {
          "indexed": false,
          "internalType": "address",
          "name": "_organisationAddress",
          "type": "address"
        }
      ],
      "name": "ActionCreated",
      "type": "event"
    },
    {
      "anonymous": false,
      "inputs": [
        {
          "indexed": true,
          "internalType": "address",
          "name": "previousOwner",
          "type": "address"
        },
        {
          "indexed": true,
          "internalType": "address",
          "name": "newOwner",
          "type": "address"
        }
      ],
      "name": "OwnershipTransferred",
      "type": "event"
    },
    {
      "anonymous": false,
      "inputs": [
        {
          "indexed": false,
          "internalType": "address",
          "name": "actionAddress",
          "type": "address"
        },
        {
          "indexed": false,
          "internalType": "uint256",
          "name": "id",
          "type": "uint256"
        },
        {
          "indexed": false,
          "internalType": "string",
          "name": "name",
          "type": "string"
        },
        {
          "indexed": false,
          "internalType": "uint256",
          "name": "amount",
          "type": "uint256"
        }
      ],
      "name": "PayedAction",
      "type": "event"
    },
    {
      "inputs": [
        {
          "internalType": "uint256",
          "name": "",
          "type": "uint256"
        }
      ],
      "name": "Actions",
      "outputs": [
        {
          "internalType": "uint256",
          "name": "id",
          "type": "uint256"
        },
        {
          "internalType": "address payable",
          "name": "ActionAddress",
          "type": "address"
        },
        {
          "internalType": "string",
          "name": "name",
          "type": "string"
        },
        {
          "internalType": "string",
          "name": "unit",
          "type": "string"
        },
        {
          "internalType": "uint256",
          "name": "price",
          "type": "uint256"
        },
        {
          "internalType": "address",
          "name": "deviceAddress",
          "type": "address"
        },
        {
          "internalType": "address",
          "name": "deviceOwner",
          "type": "address"
        },
        {
          "internalType": "address",
          "name": "organisationAddress",
          "type": "address"
        }
      ],
      "stateMutability": "view",
      "type": "function"
    },
    {
      "inputs": [
        {
          "internalType": "uint256",
          "name": "_id",
          "type": "uint256"
        },
        {
          "internalType": "address",
          "name": "_from",
          "type": "address"
        },
        {
          "internalType": "address",
          "name": "_to",
          "type": "address"
        },
        {
          "internalType": "uint256",
          "name": "_amount",
          "type": "uint256"
        }
      ],
      "name": "Balancetransfer",
      "outputs": [
        {
          "internalType": "bool",
          "name": "",
          "type": "bool"
        }
      ],
      "stateMutability": "nonpayable",
      "type": "function"
    },
    {
      "inputs": [
        {
          "internalType": "string",
          "name": "_name",
          "type": "string"
        },
        {
          "internalType": "string",
          "name": "_unit",
          "type": "string"
        },
        {
          "internalType": "uint256",
          "name": "_pricePerUnit",
          "type": "uint256"
        },
        {
          "internalType": "address payable",
          "name": "_deviceAddress",
          "type": "address"
        },
        {
          "internalType": "address",
          "name": "_deviceOwner",
          "type": "address"
        },
        {
          "internalType": "address",
          "name": "_organisationAddress",
          "type": "address"
        }
      ],
      "name": "createAction",
      "outputs": [
        {
          "internalType": "address",
          "name": "",
          "type": "address"
        }
      ],
      "stateMutability": "nonpayable",
      "type": "function"
    },
    {
      "inputs": [
        {
          "internalType": "address",
          "name": "_deviceAddress",
          "type": "address"
        }
      ],
      "name": "getActions",
      "outputs": [
        {
          "components": [
            {
              "internalType": "uint256",
              "name": "id",
              "type": "uint256"
            },
            {
              "internalType": "address payable",
              "name": "ActionAddress",
              "type": "address"
            },
            {
              "internalType": "string",
              "name": "name",
              "type": "string"
            },
            {
              "internalType": "string",
              "name": "unit",
              "type": "string"
            },
            {
              "internalType": "uint256",
              "name": "price",
              "type": "uint256"
            },
            {
              "internalType": "address",
              "name": "deviceAddress",
              "type": "address"
            },
            {
              "internalType": "address",
              "name": "deviceOwner",
              "type": "address"
            },
            {
              "internalType": "address",
              "name": "organisationAddress",
              "type": "address"
            }
          ],
          "internalType": "struct ActionFactory.ActionInfo[]",
          "name": "",
          "type": "tuple[]"
        }
      ],
      "stateMutability": "view",
      "type": "function"
    },
    {
      "inputs": [
        {
          "internalType": "address",
          "name": "_actionAddress",
          "type": "address"
        },
        {
          "internalType": "uint256",
          "name": "_id",
          "type": "uint256"
        },
        {
          "internalType": "string",
          "name": "_name",
          "type": "string"
        },
        {
          "internalType": "uint256",
          "name": "_amount",
          "type": "uint256"
        }
      ],
      "name": "logPayedAction",
      "outputs": [],
      "stateMutability": "nonpayable",
      "type": "function"
    },
    {
      "inputs": [],
      "name": "owner",
      "outputs": [
        {
          "internalType": "address",
          "name": "",
          "type": "address"
        }
      ],
      "stateMutability": "view",
      "type": "function"
    },
    {
      "inputs": [],
      "name": "renounceOwnership",
      "outputs": [],
      "stateMutability": "nonpayable",
      "type": "function"
    },
    {
      "inputs": [
        {
          "internalType": "address payable",
          "name": "_balanceAddress",
          "type": "address"
        }
      ],
      "name": "setBalanceContract",
      "outputs": [],
      "stateMutability": "nonpayable",
      "type": "function"
    },
    {
      "inputs": [
        {
          "internalType": "address",
          "name": "newOwner",
          "type": "address"
        }
      ],
      "name": "transferOwnership",
      "outputs": [],
      "stateMutability": "nonpayable",
      "type": "function"
    },
    {
      "inputs": [
        {
          "internalType": "uint256",
          "name": "_actionId",
          "type": "uint256"
        },
        {
          "internalType": "uint256",
          "name": "_newPrice",
          "type": "uint256"
        }
      ],
      "name": "updateActionPrice",
      "outputs": [],
      "stateMutability": "nonpayable",
      "type": "function"
    }
  ],
  "bytecode": "0x608060405260016002553480156200001657600080fd5b5033600073ffffffffffffffffffffffffffffffffffffffff168173ffffffffffffffffffffffffffffffffffffffff16036200008d5760006040517f1e4fbdf7000000000000000000000000000000000000000000000000000000008152600401620000849190620001ae565b60405180910390fd5b6200009e81620000a560201b60201c565b50620001cb565b60008060009054906101000a900473ffffffffffffffffffffffffffffffffffffffff169050816000806101000a81548173ffffffffffffffffffffffffffffffffffffffff021916908373ffffffffffffffffffffffffffffffffffffffff1602179055508173ffffffffffffffffffffffffffffffffffffffff168173ffffffffffffffffffffffffffffffffffffffff167f8be0079c531659141344cd1fd0a4f28419497f9722a3daafe3b4186f6b6457e060405160405180910390a35050565b600073ffffffffffffffffffffffffffffffffffffffff82169050919050565b6000620001968262000169565b9050919050565b620001a88162000189565b82525050565b6000602082019050620001c560008301846200019d565b92915050565b613e8b80620001db6000396000f3fe60806040523480156200001157600080fd5b5060043610620000ac5760003560e01c80638ccc0f92116200006f5780638ccc0f9214620001695780638da5cb5b146200019f578063b4272ce914620001c1578063f2fde38b14620001fe578063f7d2bed2146200021e57620000ac565b806329ebacd314620000b157806337e4312914620000e75780636e9163c71462000107578063715018a6146200013d578063898786ac1462000149575b600080fd5b620000cf6004803603810190620000c9919062001555565b6200023e565b604051620000de919062001640565b60405180910390f35b620001056004803603810190620000ff91906200165d565b62000539565b005b6200012560048036038101906200011f9190620016ee565b620005ef565b6040516200013491906200177d565b60405180910390f35b6200014762000792565b005b6200016760048036038101906200016191906200179a565b620007aa565b005b620001876004803603810190620001819190620017cc565b620007f8565b60405162000196919062001a51565b60405180910390f35b620001a962000bec565b604051620001b8919062001640565b60405180910390f35b620001df6004803603810190620001d9919062001a75565b62000c15565b604051620001f598979695949392919062001b1b565b60405180910390f35b6200021c6004803603810190620002169190620017cc565b62000dfd565b005b6200023c600480360381019062000236919062001bb7565b62000e8a565b005b60008060025488888888600360009054906101000a900473ffffffffffffffffffffffffffffffffffffffff1660405162000279906200124f565b6200028a9695949392919062001bfe565b604051809103906000f080158015620002a7573d6000803e3d6000fd5b5090506002548173ffffffffffffffffffffffffffffffffffffffff167fe81310ec773657d634a70519a2263baac2b0d0aa7dfebad87ffc0e52e188a26e8a8a8a8a89604051620002fd95949392919062001ce4565b60405180910390a360405180610100016040528060025481526020018273ffffffffffffffffffffffffffffffffffffffff1681526020018981526020018881526020018781526020018673ffffffffffffffffffffffffffffffffffffffff1681526020018573ffffffffffffffffffffffffffffffffffffffff1681526020018473ffffffffffffffffffffffffffffffffffffffff168152506001600060025481526020019081526020016000206000820151816000015560208201518160010160006101000a81548173ffffffffffffffffffffffffffffffffffffffff021916908373ffffffffffffffffffffffffffffffffffffffff160217905550604082015181600201908162000416919062001f7b565b5060608201518160030190816200042e919062001f7b565b506080820151816004015560a08201518160050160006101000a81548173ffffffffffffffffffffffffffffffffffffffff021916908373ffffffffffffffffffffffffffffffffffffffff16021790555060c08201518160060160006101000a81548173ffffffffffffffffffffffffffffffffffffffff021916908373ffffffffffffffffffffffffffffffffffffffff16021790555060e08201518160070160006101000a81548173ffffffffffffffffffffffffffffffffffffffff021916908373ffffffffffffffffffffffffffffffffffffffff16021790555090505060026000815480929190620005269062002091565b9190505550809150509695505050505050565b8373ffffffffffffffffffffffffffffffffffffffff163373ffffffffffffffffffffffffffffffffffffffff1614620005aa576040517f08c379a0000000000000000000000000000000000000000000000000000000008152600401620005a19062002154565b60405180910390fd5b7f3b043dd6bdb2e9b6036db332096cbc51cf9f4e21c658bd57a14bbbb17c3b88c484848484604051620005e1949392919062002176565b60405180910390a150505050565b60006001600086815260200190815260200160002060010160009054906101000a900473ffffffffffffffffffffffffffffffffffffffff1673ffffffffffffffffffffffffffffffffffffffff163373ffffffffffffffffffffffffffffffffffffffff161462000698576040517f08c379a00000000000000000000000000000000000000000000000000000000081526004016200068f9062002240565b60405180910390fd5b6000600360009054906101000a900473ffffffffffffffffffffffffffffffffffffffff1673ffffffffffffffffffffffffffffffffffffffff1663a606b94a8686866040518463ffffffff1660e01b8152600401620006fb9392919062002262565b6020604051808303816000875af11580156200071b573d6000803e3d6000fd5b505050506040513d601f19601f82011682018060405250810190620007419190620022d0565b90508062000786576040517f08c379a00000000000000000000000000000000000000000000000000000000081526004016200077d9062002378565b60405180910390fd5b80915050949350505050565b6200079c620010f3565b620007a8600062001183565b565b620007b4620010f3565b80600360006101000a81548173ffffffffffffffffffffffffffffffffffffffff021916908373ffffffffffffffffffffffffffffffffffffffff16021790555050565b6060600060016002546200080d91906200239a565b67ffffffffffffffff81111562000829576200082862001329565b5b6040519080825280602002602001820160405280156200086657816020015b620008526200125d565b815260200190600190039081620008485790505b5090506000600190505b60025481101562000be2578373ffffffffffffffffffffffffffffffffffffffff166001600083815260200190815260200160002060050160009054906101000a900473ffffffffffffffffffffffffffffffffffffffff1673ffffffffffffffffffffffffffffffffffffffff160362000bd4576001600082815260200190815260200160002060405180610100016040529081600082015481526020016001820160009054906101000a900473ffffffffffffffffffffffffffffffffffffffff1673ffffffffffffffffffffffffffffffffffffffff1673ffffffffffffffffffffffffffffffffffffffff168152602001600282018054620009769062001d7e565b80601f0160208091040260200160405190810160405280929190818152602001828054620009a49062001d7e565b8015620009f55780601f10620009c957610100808354040283529160200191620009f5565b820191906000526020600020905b815481529060010190602001808311620009d757829003601f168201915b5050505050815260200160038201805462000a109062001d7e565b80601f016020809104026020016040519081016040528092919081815260200182805462000a3e9062001d7e565b801562000a8f5780601f1062000a635761010080835404028352916020019162000a8f565b820191906000526020600020905b81548152906001019060200180831162000a7157829003601f168201915b50505050508152602001600482015481526020016005820160009054906101000a900473ffffffffffffffffffffffffffffffffffffffff1673ffffffffffffffffffffffffffffffffffffffff1673ffffffffffffffffffffffffffffffffffffffff1681526020016006820160009054906101000a900473ffffffffffffffffffffffffffffffffffffffff1673ffffffffffffffffffffffffffffffffffffffff1673ffffffffffffffffffffffffffffffffffffffff1681526020016007820160009054906101000a900473ffffffffffffffffffffffffffffffffffffffff1673ffffffffffffffffffffffffffffffffffffffff1673ffffffffffffffffffffffffffffffffffffffff16815250508260018362000bb491906200239a565b8151811062000bc85762000bc7620023d5565b5b60200260200101819052505b808060010191505062000870565b5080915050919050565b60008060009054906101000a900473ffffffffffffffffffffffffffffffffffffffff16905090565b60016020528060005260406000206000915090508060000154908060010160009054906101000a900473ffffffffffffffffffffffffffffffffffffffff169080600201805462000c669062001d7e565b80601f016020809104026020016040519081016040528092919081815260200182805462000c949062001d7e565b801562000ce55780601f1062000cb95761010080835404028352916020019162000ce5565b820191906000526020600020905b81548152906001019060200180831162000cc757829003601f168201915b50505050509080600301805462000cfc9062001d7e565b80601f016020809104026020016040519081016040528092919081815260200182805462000d2a9062001d7e565b801562000d7b5780601f1062000d4f5761010080835404028352916020019162000d7b565b820191906000526020600020905b81548152906001019060200180831162000d5d57829003601f168201915b5050505050908060040154908060050160009054906101000a900473ffffffffffffffffffffffffffffffffffffffff16908060060160009054906101000a900473ffffffffffffffffffffffffffffffffffffffff16908060070160009054906101000a900473ffffffffffffffffffffffffffffffffffffffff16905088565b62000e07620010f3565b600073ffffffffffffffffffffffffffffffffffffffff168173ffffffffffffffffffffffffffffffffffffffff160362000e7c5760006040517f1e4fbdf700000000000000000000000000000000000000000000000000000000815260040162000e73919062001640565b60405180910390fd5b62000e878162001183565b50565b600073ffffffffffffffffffffffffffffffffffffffff166001600084815260200190815260200160002060010160009054906101000a900473ffffffffffffffffffffffffffffffffffffffff1673ffffffffffffffffffffffffffffffffffffffff160362000f32576040517f08c379a000000000000000000000000000000000000000000000000000000000815260040162000f299062002454565b60405180910390fd5b6001600083815260200190815260200160002060070160009054906101000a900473ffffffffffffffffffffffffffffffffffffffff1673ffffffffffffffffffffffffffffffffffffffff166324d7806c336040518263ffffffff1660e01b815260040162000fa3919062001640565b602060405180830381865afa15801562000fc1573d6000803e3d6000fd5b505050506040513d601f19601f8201168201806040525081019062000fe79190620022d0565b62001029576040517f08c379a00000000000000000000000000000000000000000000000000000000081526004016200102090620024ec565b60405180910390fd5b60006001600084815260200190815260200160002060010160009054906101000a900473ffffffffffffffffffffffffffffffffffffffff1690508073ffffffffffffffffffffffffffffffffffffffff166391b7f5ed836040518263ffffffff1660e01b81526004016200109f91906200250e565b600060405180830381600087803b158015620010ba57600080fd5b505af1158015620010cf573d6000803e3d6000fd5b50505050816001600085815260200190815260200160002060040181905550505050565b620010fd62001247565b73ffffffffffffffffffffffffffffffffffffffff166200111d62000bec565b73ffffffffffffffffffffffffffffffffffffffff161462001181576200114362001247565b6040517f118cdaa700000000000000000000000000000000000000000000000000000000815260040162001178919062001640565b60405180910390fd5b565b60008060009054906101000a900473ffffffffffffffffffffffffffffffffffffffff169050816000806101000a81548173ffffffffffffffffffffffffffffffffffffffff021916908373ffffffffffffffffffffffffffffffffffffffff1602179055508173ffffffffffffffffffffffffffffffffffffffff168173ffffffffffffffffffffffffffffffffffffffff167f8be0079c531659141344cd1fd0a4f28419497f9722a3daafe3b4186f6b6457e060405160405180910390a35050565b600033905090565b61192a806200252c83390190565b60405180610100016040528060008152602001600073ffffffffffffffffffffffffffffffffffffffff168152602001606081526020016060815260200160008152602001600073ffffffffffffffffffffffffffffffffffffffff168152602001600073ffffffffffffffffffffffffffffffffffffffff168152602001600073ffffffffffffffffffffffffffffffffffffffff1681525090565b6000604051905090565b600080fd5b600080fd5b600080fd5b600080fd5b6000601f19601f8301169050919050565b7f4e487b7100000000000000000000000000000000000000000000000000000000600052604160045260246000fd5b620013638262001318565b810181811067ffffffffffffffff8211171562001385576200138462001329565b5b80604052505050565b60006200139a620012fa565b9050620013a8828262001358565b919050565b600067ffffffffffffffff821115620013cb57620013ca62001329565b5b620013d68262001318565b9050602081019050919050565b82818337600083830152505050565b6000620014096200140384620013ad565b6200138e565b90508281526020810184848401111562001428576200142762001313565b5b62001435848285620013e3565b509392505050565b600082601f8301126200145557620014546200130e565b5b813562001467848260208601620013f2565b91505092915050565b6000819050919050565b620014858162001470565b81146200149157600080fd5b50565b600081359050620014a5816200147a565b92915050565b600073ffffffffffffffffffffffffffffffffffffffff82169050919050565b6000620014d882620014ab565b9050919050565b620014ea81620014cb565b8114620014f657600080fd5b50565b6000813590506200150a81620014df565b92915050565b60006200151d82620014ab565b9050919050565b6200152f8162001510565b81146200153b57600080fd5b50565b6000813590506200154f8162001524565b92915050565b60008060008060008060c0878903121562001575576200157462001304565b5b600087013567ffffffffffffffff81111562001596576200159562001309565b5b620015a489828a016200143d565b965050602087013567ffffffffffffffff811115620015c857620015c762001309565b5b620015d689828a016200143d565b9550506040620015e989828a0162001494565b9450506060620015fc89828a01620014f9565b93505060806200160f89828a016200153e565b92505060a06200162289828a016200153e565b9150509295509295509295565b6200163a8162001510565b82525050565b60006020820190506200165760008301846200162f565b92915050565b600080600080608085870312156200167a576200167962001304565b5b60006200168a878288016200153e565b94505060206200169d8782880162001494565b935050604085013567ffffffffffffffff811115620016c157620016c062001309565b5b620016cf878288016200143d565b9250506060620016e28782880162001494565b91505092959194509250565b600080600080608085870312156200170b576200170a62001304565b5b60006200171b8782880162001494565b94505060206200172e878288016200153e565b935050604062001741878288016200153e565b9250506060620017548782880162001494565b91505092959194509250565b60008115159050919050565b620017778162001760565b82525050565b60006020820190506200179460008301846200176c565b92915050565b600060208284031215620017b357620017b262001304565b5b6000620017c384828501620014f9565b91505092915050565b600060208284031215620017e557620017e462001304565b5b6000620017f5848285016200153e565b91505092915050565b600081519050919050565b600082825260208201905092915050565b6000819050602082019050919050565b620018358162001470565b82525050565b6200184681620014cb565b82525050565b600081519050919050565b600082825260208201905092915050565b60005b83811015620018885780820151818401526020810190506200186b565b60008484015250505050565b6000620018a1826200184c565b620018ad818562001857565b9350620018bf81856020860162001868565b620018ca8162001318565b840191505092915050565b620018e08162001510565b82525050565b6000610100830160008301516200190160008601826200182a565b5060208301516200191660208601826200183b565b506040830151848203604086015262001930828262001894565b915050606083015184820360608601526200194c828262001894565b91505060808301516200196360808601826200182a565b5060a08301516200197860a0860182620018d5565b5060c08301516200198d60c0860182620018d5565b5060e0830151620019a260e0860182620018d5565b508091505092915050565b6000620019bb8383620018e6565b905092915050565b6000602082019050919050565b6000620019dd82620017fe565b620019e9818562001809565b935083602082028501620019fd856200181a565b8060005b8581101562001a3f578484038952815162001a1d8582620019ad565b945062001a2a83620019c3565b925060208a0199505060018101905062001a01565b50829750879550505050505092915050565b6000602082019050818103600083015262001a6d8184620019d0565b905092915050565b60006020828403121562001a8e5762001a8d62001304565b5b600062001a9e8482850162001494565b91505092915050565b62001ab28162001470565b82525050565b62001ac381620014cb565b82525050565b600082825260208201905092915050565b600062001ae7826200184c565b62001af3818562001ac9565b935062001b0581856020860162001868565b62001b108162001318565b840191505092915050565b60006101008201905062001b33600083018b62001aa7565b62001b42602083018a62001ab8565b818103604083015262001b56818962001ada565b9050818103606083015262001b6c818862001ada565b905062001b7d608083018762001aa7565b62001b8c60a08301866200162f565b62001b9b60c08301856200162f565b62001baa60e08301846200162f565b9998505050505050505050565b6000806040838503121562001bd15762001bd062001304565b5b600062001be18582860162001494565b925050602062001bf48582860162001494565b9150509250929050565b600060c08201905062001c15600083018962001aa7565b818103602083015262001c29818862001ada565b9050818103604083015262001c3f818762001ada565b905062001c50606083018662001aa7565b62001c5f608083018562001ab8565b62001c6e60a083018462001ab8565b979650505050505050565b6000819050919050565b600062001ca462001c9e62001c9884620014ab565b62001c79565b620014ab565b9050919050565b600062001cb88262001c83565b9050919050565b600062001ccc8262001cab565b9050919050565b62001cde8162001cbf565b82525050565b600060a082019050818103600083015262001d00818862001ada565b9050818103602083015262001d16818762001ada565b905062001d27604083018662001aa7565b62001d36606083018562001cd3565b62001d4560808301846200162f565b9695505050505050565b7f4e487b7100000000000000000000000000000000000000000000000000000000600052602260045260246000fd5b6000600282049050600182168062001d9757607f821691505b60208210810362001dad5762001dac62001d4f565b5b50919050565b60008190508160005260206000209050919050565b60006020601f8301049050919050565b600082821b905092915050565b60006008830262001e177fffffffffffffffffffffffffffffffffffffffffffffffffffffffffffffffff8262001dd8565b62001e23868362001dd8565b95508019841693508086168417925050509392505050565b600062001e5c62001e5662001e508462001470565b62001c79565b62001470565b9050919050565b6000819050919050565b62001e788362001e3b565b62001e9062001e878262001e63565b84845462001de5565b825550505050565b600090565b62001ea762001e98565b62001eb481848462001e6d565b505050565b5b8181101562001edc5762001ed060008262001e9d565b60018101905062001eba565b5050565b601f82111562001f2b5762001ef58162001db3565b62001f008462001dc8565b8101602085101562001f10578190505b62001f2862001f1f8562001dc8565b83018262001eb9565b50505b505050565b600082821c905092915050565b600062001f506000198460080262001f30565b1980831691505092915050565b600062001f6b838362001f3d565b9150826002028217905092915050565b62001f86826200184c565b67ffffffffffffffff81111562001fa25762001fa162001329565b5b62001fae825462001d7e565b62001fbb82828562001ee0565b600060209050601f83116001811462001ff3576000841562001fde578287015190505b62001fea858262001f5d565b8655506200205a565b601f198416620020038662001db3565b60005b828110156200202d5784890151825560018201915060208501945060208101905062002006565b868310156200204d578489015162002049601f89168262001f3d565b8355505b6001600288020188555050505b505050505050565b7f4e487b7100000000000000000000000000000000000000000000000000000000600052601160045260246000fd5b60006200209e8262001470565b91507fffffffffffffffffffffffffffffffffffffffffffffffffffffffffffffffff8203620020d357620020d262002062565b5b600182019050919050565b7f4f6e6c792074686520616374696f6e20636f6e74726163742063616e2063616c60008201527f6c20746869732066756e6374696f6e0000000000000000000000000000000000602082015250565b60006200213c602f8362001ac9565b91506200214982620020de565b604082019050919050565b600060208201905081810360008301526200216f816200212d565b9050919050565b60006080820190506200218d60008301876200162f565b6200219c602083018662001aa7565b8181036040830152620021b0818562001ada565b9050620021c1606083018462001aa7565b95945050505050565b7f596f7520617265206e6f7420616c6c6f77656420746f2063616c6c207468697360008201527f2066756e6374696f6e0000000000000000000000000000000000000000000000602082015250565b60006200222860298362001ac9565b91506200223582620021ca565b604082019050919050565b600060208201905081810360008301526200225b8162002219565b9050919050565b60006060820190506200227960008301866200162f565b6200228860208301856200162f565b62002297604083018462001aa7565b949350505050565b620022aa8162001760565b8114620022b657600080fd5b50565b600081519050620022ca816200229f565b92915050565b600060208284031215620022e957620022e862001304565b5b6000620022f984828501620022b9565b91505092915050565b7f736f6d657468696e6720776974682042616c616e63655472617366657220696e60008201527f20416374696f6e466163746f72792077656e742077726f6e6700000000000000602082015250565b60006200236060398362001ac9565b91506200236d8262002302565b604082019050919050565b60006020820190508181036000830152620023938162002351565b9050919050565b6000620023a78262001470565b9150620023b48362001470565b9250828203905081811115620023cf57620023ce62002062565b5b92915050565b7f4e487b7100000000000000000000000000000000000000000000000000000000600052603260045260246000fd5b7f416374696f6e20646f6573206e6f742065786973740000000000000000000000600082015250565b60006200243c60158362001ac9565b9150620024498262002404565b602082019050919050565b600060208201905081810360008301526200246f816200242d565b9050919050565b7f206e6f2041646d696e4e4654202d3e206e6f7420616c6c6f77656420746f206360008201527f726561746520616e204465766963650000000000000000000000000000000000602082015250565b6000620024d4602f8362001ac9565b9150620024e18262002476565b604082019050919050565b600060208201905081810360008301526200250781620024c5565b9050919050565b600060208201905062002525600083018462001aa7565b9291505056fe60806040523480156200001157600080fd5b506040516200192a3803806200192a8339818101604052810190620000379190620004f0565b33600073ffffffffffffffffffffffffffffffffffffffff168173ffffffffffffffffffffffffffffffffffffffff1603620000ad5760006040517f1e4fbdf7000000000000000000000000000000000000000000000000000000008152600401620000a49190620005ef565b60405180910390fd5b620000be81620001f960201b60201c565b503373ffffffffffffffffffffffffffffffffffffffff163373ffffffffffffffffffffffffffffffffffffffff1614620000f857600080fd5b8560018190555084600290816200011091906200084d565b5083600390816200012291906200084d565b508260048190555081600560006101000a81548173ffffffffffffffffffffffffffffffffffffffff021916908373ffffffffffffffffffffffffffffffffffffffff16021790555080600660006101000a81548173ffffffffffffffffffffffffffffffffffffffff021916908373ffffffffffffffffffffffffffffffffffffffff16021790555033600760006101000a81548173ffffffffffffffffffffffffffffffffffffffff021916908373ffffffffffffffffffffffffffffffffffffffff16021790555050505050505062000934565b60008060009054906101000a900473ffffffffffffffffffffffffffffffffffffffff169050816000806101000a81548173ffffffffffffffffffffffffffffffffffffffff021916908373ffffffffffffffffffffffffffffffffffffffff1602179055508173ffffffffffffffffffffffffffffffffffffffff168173ffffffffffffffffffffffffffffffffffffffff167f8be0079c531659141344cd1fd0a4f28419497f9722a3daafe3b4186f6b6457e060405160405180910390a35050565b6000604051905090565b600080fd5b600080fd5b6000819050919050565b620002e681620002d1565b8114620002f257600080fd5b50565b6000815190506200030681620002db565b92915050565b600080fd5b600080fd5b6000601f19601f8301169050919050565b7f4e487b7100000000000000000000000000000000000000000000000000000000600052604160045260246000fd5b620003618262000316565b810181811067ffffffffffffffff8211171562000383576200038262000327565b5b80604052505050565b600062000398620002bd565b9050620003a6828262000356565b919050565b600067ffffffffffffffff821115620003c957620003c862000327565b5b620003d48262000316565b9050602081019050919050565b60005b8381101562000401578082015181840152602081019050620003e4565b60008484015250505050565b6000620004246200041e84620003ab565b6200038c565b90508281526020810184848401111562000443576200044262000311565b5b62000450848285620003e1565b509392505050565b600082601f83011262000470576200046f6200030c565b5b8151620004828482602086016200040d565b91505092915050565b600073ffffffffffffffffffffffffffffffffffffffff82169050919050565b6000620004b8826200048b565b9050919050565b620004ca81620004ab565b8114620004d657600080fd5b50565b600081519050620004ea81620004bf565b92915050565b60008060008060008060c0878903121562000510576200050f620002c7565b5b60006200052089828a01620002f5565b965050602087015167ffffffffffffffff811115620005445762000543620002cc565b5b6200055289828a0162000458565b955050604087015167ffffffffffffffff811115620005765762000575620002cc565b5b6200058489828a0162000458565b94505060606200059789828a01620002f5565b9350506080620005aa89828a01620004d9565b92505060a0620005bd89828a01620004d9565b9150509295509295509295565b6000620005d7826200048b565b9050919050565b620005e981620005ca565b82525050565b6000602082019050620006066000830184620005de565b92915050565b600081519050919050565b7f4e487b7100000000000000000000000000000000000000000000000000000000600052602260045260246000fd5b600060028204905060018216806200065f57607f821691505b60208210810362000675576200067462000617565b5b50919050565b60008190508160005260206000209050919050565b60006020601f8301049050919050565b600082821b905092915050565b600060088302620006df7fffffffffffffffffffffffffffffffffffffffffffffffffffffffffffffffff82620006a0565b620006eb8683620006a0565b95508019841693508086168417925050509392505050565b6000819050919050565b60006200072e620007286200072284620002d1565b62000703565b620002d1565b9050919050565b6000819050919050565b6200074a836200070d565b62000762620007598262000735565b848454620006ad565b825550505050565b600090565b620007796200076a565b620007868184846200073f565b505050565b5b81811015620007ae57620007a26000826200076f565b6001810190506200078c565b5050565b601f821115620007fd57620007c7816200067b565b620007d28462000690565b81016020851015620007e2578190505b620007fa620007f18562000690565b8301826200078b565b50505b505050565b600082821c905092915050565b6000620008226000198460080262000802565b1980831691505092915050565b60006200083d83836200080f565b9150826002028217905092915050565b62000858826200060c565b67ffffffffffffffff81111562000874576200087362000327565b5b62000880825462000646565b6200088d828285620007b2565b600060209050601f831160018114620008c55760008415620008b0578287015190505b620008bc85826200082f565b8655506200092c565b601f198416620008d5866200067b565b60005b82811015620008ff57848901518255600182019150602085019450602081019050620008d8565b868310156200091f57848901516200091b601f8916826200080f565b8355505b6001600288020188555050505b505050505050565b610fe680620009446000396000f3fe6080604052600436106100745760003560e01c80638da5cb5b1161004e5780638da5cb5b146102d557806391b7f5ed14610300578063c6326dd014610329578063f2fde38b1461035457610265565b80631297de081461026a57806349109a4014610293578063715018a6146102be57610265565b366102655760045434101561008857600080fd5b6000600560009054906101000a900473ffffffffffffffffffffffffffffffffffffffff1673ffffffffffffffffffffffffffffffffffffffff16638da5cb5b6040518163ffffffff1660e01b8152600401602060405180830381865afa1580156100f7573d6000803e3d6000fd5b505050506040513d601f19601f8201168201806040525081019061011b91906109df565b73ffffffffffffffffffffffffffffffffffffffff163460405161013e90610a3d565b60006040518083038185875af1925050503d806000811461017b576040519150601f19603f3d011682016040523d82523d6000602084013e610180565b606091505b50509050806101c4576040517f08c379a00000000000000000000000000000000000000000000000000000000081526004016101bb90610aaf565b60405180910390fd5b600760009054906101000a900473ffffffffffffffffffffffffffffffffffffffff1673ffffffffffffffffffffffffffffffffffffffff166337e43129306001546002600454346102169190610b37565b6040518563ffffffff1660e01b81526004016102359493929190610c7f565b600060405180830381600087803b15801561024f57600080fd5b505af1158015610263573d6000803e3d6000fd5b005b600080fd5b34801561027657600080fd5b50610291600480360381019061028c9190610cf7565b61037d565b005b34801561029f57600080fd5b506102a861067e565b6040516102b59190610d24565b60405180910390f35b3480156102ca57600080fd5b506102d361072e565b005b3480156102e157600080fd5b506102ea610742565b6040516102f79190610d3f565b60405180910390f35b34801561030c57600080fd5b5061032760048036038101906103229190610cf7565b61076b565b005b34801561033557600080fd5b5061033e61077d565b60405161034b9190610db9565b60405180910390f35b34801561036057600080fd5b5061037b60048036038101906103769190610de9565b6107a3565b005b600454600660009054906101000a900473ffffffffffffffffffffffffffffffffffffffff1673ffffffffffffffffffffffffffffffffffffffff1663f8b2cb4f336040518263ffffffff1660e01b81526004016103db9190610d3f565b602060405180830381865afa1580156103f8573d6000803e3d6000fd5b505050506040513d601f19601f8201168201806040525081019061041c9190610e2b565b101561045d576040517f08c379a000000000000000000000000000000000000000000000000000000000815260040161045490610ea4565b60405180910390fd5b6000600760009054906101000a900473ffffffffffffffffffffffffffffffffffffffff1673ffffffffffffffffffffffffffffffffffffffff16636e9163c760015433600560009054906101000a900473ffffffffffffffffffffffffffffffffffffffff1673ffffffffffffffffffffffffffffffffffffffff16638da5cb5b6040518163ffffffff1660e01b8152600401602060405180830381865afa15801561050e573d6000803e3d6000fd5b505050506040513d601f19601f8201168201806040525081019061053291906109df565b600454876105409190610ec4565b6040518563ffffffff1660e01b815260040161055f9493929190610f06565b6020604051808303816000875af115801561057e573d6000803e3d6000fd5b505050506040513d601f19601f820116820180604052508101906105a29190610f83565b9050806105e4576040517f08c379a00000000000000000000000000000000000000000000000000000000081526004016105db90610aaf565b60405180910390fd5b600760009054906101000a900473ffffffffffffffffffffffffffffffffffffffff1673ffffffffffffffffffffffffffffffffffffffff166337e43129306001546002866040518563ffffffff1660e01b81526004016106489493929190610c7f565b600060405180830381600087803b15801561066257600080fd5b505af1158015610676573d6000803e3d6000fd5b505050505050565b6000600454600660009054906101000a900473ffffffffffffffffffffffffffffffffffffffff1673ffffffffffffffffffffffffffffffffffffffff1663f8b2cb4f336040518263ffffffff1660e01b81526004016106de9190610d3f565b602060405180830381865afa1580156106fb573d6000803e3d6000fd5b505050506040513d601f19601f8201168201806040525081019061071f9190610e2b565b6107299190610b37565b905090565b610736610829565b61074060006108b0565b565b60008060009054906101000a900473ffffffffffffffffffffffffffffffffffffffff16905090565b610773610829565b8060048190555050565b600560009054906101000a900473ffffffffffffffffffffffffffffffffffffffff1681565b6107ab610829565b600073ffffffffffffffffffffffffffffffffffffffff168173ffffffffffffffffffffffffffffffffffffffff160361081d5760006040517f1e4fbdf70000000000000000000000000000000000000000000000000000000081526004016108149190610d3f565b60405180910390fd5b610826816108b0565b50565b610831610974565b73ffffffffffffffffffffffffffffffffffffffff1661084f610742565b73ffffffffffffffffffffffffffffffffffffffff16146108ae57610872610974565b6040517f118cdaa70000000000000000000000000000000000000000000000000000000081526004016108a59190610d3f565b60405180910390fd5b565b60008060009054906101000a900473ffffffffffffffffffffffffffffffffffffffff169050816000806101000a81548173ffffffffffffffffffffffffffffffffffffffff021916908373ffffffffffffffffffffffffffffffffffffffff1602179055508173ffffffffffffffffffffffffffffffffffffffff168173ffffffffffffffffffffffffffffffffffffffff167f8be0079c531659141344cd1fd0a4f28419497f9722a3daafe3b4186f6b6457e060405160405180910390a35050565b600033905090565b600080fd5b600073ffffffffffffffffffffffffffffffffffffffff82169050919050565b60006109ac82610981565b9050919050565b6109bc816109a1565b81146109c757600080fd5b50565b6000815190506109d9816109b3565b92915050565b6000602082840312156109f5576109f461097c565b5b6000610a03848285016109ca565b91505092915050565b600081905092915050565b50565b6000610a27600083610a0c565b9150610a3282610a17565b600082019050919050565b6000610a4882610a1a565b9150819050919050565b600082825260208201905092915050565b7f5472616e73666572206661696c65640000000000000000000000000000000000600082015250565b6000610a99600f83610a52565b9150610aa482610a63565b602082019050919050565b60006020820190508181036000830152610ac881610a8c565b9050919050565b6000819050919050565b7f4e487b7100000000000000000000000000000000000000000000000000000000600052601260045260246000fd5b7f4e487b7100000000000000000000000000000000000000000000000000000000600052601160045260246000fd5b6000610b4282610acf565b9150610b4d83610acf565b925082610b5d57610b5c610ad9565b5b828204905092915050565b610b71816109a1565b82525050565b610b8081610acf565b82525050565b7f4e487b7100000000000000000000000000000000000000000000000000000000600052602260045260246000fd5b60006002820490506001821680610bcd57607f821691505b602082108103610be057610bdf610b86565b5b50919050565b60008190508160005260206000209050919050565b60008154610c0881610bb5565b610c128186610a52565b94506001821660008114610c2d5760018114610c4357610c76565b60ff198316865281151560200286019350610c76565b610c4c85610be6565b60005b83811015610c6e57815481890152600182019150602081019050610c4f565b808801955050505b50505092915050565b6000608082019050610c946000830187610b68565b610ca16020830186610b77565b8181036040830152610cb38185610bfb565b9050610cc26060830184610b77565b95945050505050565b610cd481610acf565b8114610cdf57600080fd5b50565b600081359050610cf181610ccb565b92915050565b600060208284031215610d0d57610d0c61097c565b5b6000610d1b84828501610ce2565b91505092915050565b6000602082019050610d396000830184610b77565b92915050565b6000602082019050610d546000830184610b68565b92915050565b6000819050919050565b6000610d7f610d7a610d7584610981565b610d5a565b610981565b9050919050565b6000610d9182610d64565b9050919050565b6000610da382610d86565b9050919050565b610db381610d98565b82525050565b6000602082019050610dce6000830184610daa565b92915050565b600081359050610de3816109b3565b92915050565b600060208284031215610dff57610dfe61097c565b5b6000610e0d84828501610dd4565b91505092915050565b600081519050610e2581610ccb565b92915050565b600060208284031215610e4157610e4061097c565b5b6000610e4f84828501610e16565b91505092915050565b7f496e73756666696369656e742042616c616e6365000000000000000000000000600082015250565b6000610e8e601483610a52565b9150610e9982610e58565b602082019050919050565b60006020820190508181036000830152610ebd81610e81565b9050919050565b6000610ecf82610acf565b9150610eda83610acf565b9250828202610ee881610acf565b91508282048414831517610eff57610efe610b08565b5b5092915050565b6000608082019050610f1b6000830187610b77565b610f286020830186610b68565b610f356040830185610b68565b610f426060830184610b77565b95945050505050565b60008115159050919050565b610f6081610f4b565b8114610f6b57600080fd5b50565b600081519050610f7d81610f57565b92915050565b600060208284031215610f9957610f9861097c565b5b6000610fa784828501610f6e565b9150509291505056fea264697066735822122071e5174a50f184b51f836daf3a03566a30455381815cb653ee4c8954b19f655b64736f6c63430008180033a264697066735822122011e22340c7eec7d8231258dff2a549eb0f1a3de548cc28a574535f7ee77b362264736f6c63430008180033",
  "linkReferences": {},
  "deployedLinkReferences": {}
}