{
  "_format": "hh-sol-artifact-1",
  "contractName": "Action",
  "sourceName": "contracts/Action.sol",
  "abi": [
    {
      "inputs": [
        {
          "internalType": "uint256",
          "name": "_id",
          "type": "uint256"
        },
        {
          "internalType": "string",
          "name": "_name",
          "type": "string"
        },
        {
          "internalType": "string",
          "name": "_unit",
          "type": "string"
        },
        {
          "internalType": "uint256",
          "name": "_pricePerUnit",
          "type": "uint256"
        },
        {
          "internalType": "address payable",
          "name": "_deviceAddress",
          "type": "address"
        },
        {
          "internalType": "address payable",
          "name": "_balanceAddress",
          "type": "address"
        }
      ],
      "stateMutability": "nonpayable",
      "type": "constructor"
    },
    {
      "inputs": [
        {
          "internalType": "address",
          "name": "owner",
          "type": "address"
        }
      ],
      "name": "OwnableInvalidOwner",
      "type": "error"
    },
    {
      "inputs": [
        {
          "internalType": "address",
          "name": "account",
          "type": "address"
        }
      ],
      "name": "OwnableUnauthorizedAccount",
      "type": "error"
    },
    {
      "anonymous": false,
      "inputs": [
        {
          "indexed": true,
          "internalType": "address",
          "name": "previousOwner",
          "type": "address"
        },
        {
          "indexed": true,
          "internalType": "address",
          "name": "newOwner",
          "type": "address"
        }
      ],
      "name": "OwnershipTransferred",
      "type": "event"
    },
    {
      "inputs": [],
      "name": "device",
      "outputs": [
        {
          "internalType": "contract Device",
          "name": "",
          "type": "address"
        }
      ],
      "stateMutability": "view",
      "type": "function"
    },
    {
      "inputs": [],
      "name": "getName",
      "outputs": [
        {
          "internalType": "string",
          "name": "",
          "type": "string"
        }
      ],
      "stateMutability": "view",
      "type": "function"
    },
    {
      "inputs": [],
      "name": "getPricePerUnit",
      "outputs": [
        {
          "internalType": "uint256",
          "name": "",
          "type": "uint256"
        }
      ],
      "stateMutability": "view",
      "type": "function"
    },
    {
      "inputs": [],
      "name": "getUnit",
      "outputs": [
        {
          "internalType": "string",
          "name": "",
          "type": "string"
        }
      ],
      "stateMutability": "view",
      "type": "function"
    },
    {
      "inputs": [],
      "name": "owner",
      "outputs": [
        {
          "internalType": "address",
          "name": "",
          "type": "address"
        }
      ],
      "stateMutability": "view",
      "type": "function"
    },
    {
      "inputs": [
        {
          "internalType": "uint256",
          "name": "_amount",
          "type": "uint256"
        }
      ],
      "name": "payActionWithBalance",
      "outputs": [],
      "stateMutability": "nonpayable",
      "type": "function"
    },
    {
      "inputs": [],
      "name": "possibleActionsAmount",
      "outputs": [
        {
          "internalType": "uint256",
          "name": "",
          "type": "uint256"
        }
      ],
      "stateMutability": "view",
      "type": "function"
    },
    {
      "inputs": [],
      "name": "renounceOwnership",
      "outputs": [],
      "stateMutability": "nonpayable",
      "type": "function"
    },
    {
      "inputs": [
        {
          "internalType": "string",
          "name": "_name",
          "type": "string"
        }
      ],
      "name": "setName",
      "outputs": [],
      "stateMutability": "nonpayable",
      "type": "function"
    },
    {
      "inputs": [
        {
          "internalType": "uint256",
          "name": "_price",
          "type": "uint256"
        }
      ],
      "name": "setPrice",
      "outputs": [],
      "stateMutability": "nonpayable",
      "type": "function"
    },
    {
      "inputs": [
        {
          "internalType": "string",
          "name": "_unit",
          "type": "string"
        }
      ],
      "name": "setUnit",
      "outputs": [],
      "stateMutability": "nonpayable",
      "type": "function"
    },
    {
      "inputs": [
        {
          "internalType": "address",
          "name": "newOwner",
          "type": "address"
        }
      ],
      "name": "transferOwnership",
      "outputs": [],
      "stateMutability": "nonpayable",
      "type": "function"
    },
    {
      "stateMutability": "payable",
      "type": "receive"
    }
  ],
  "bytecode": "0x60806040523480156200001157600080fd5b5060405162001fec38038062001fec8339818101604052810190620000379190620004b7565b33600073ffffffffffffffffffffffffffffffffffffffff168173ffffffffffffffffffffffffffffffffffffffff1603620000ad5760006040517f1e4fbdf7000000000000000000000000000000000000000000000000000000008152600401620000a49190620005b6565b60405180910390fd5b620000be81620001c060201b60201c565b50856001819055508460029081620000d7919062000814565b508360039081620000e9919062000814565b508260048190555081600560006101000a81548173ffffffffffffffffffffffffffffffffffffffff021916908373ffffffffffffffffffffffffffffffffffffffff16021790555080600660006101000a81548173ffffffffffffffffffffffffffffffffffffffff021916908373ffffffffffffffffffffffffffffffffffffffff16021790555033600760006101000a81548173ffffffffffffffffffffffffffffffffffffffff021916908373ffffffffffffffffffffffffffffffffffffffff160217905550505050505050620008fb565b60008060009054906101000a900473ffffffffffffffffffffffffffffffffffffffff169050816000806101000a81548173ffffffffffffffffffffffffffffffffffffffff021916908373ffffffffffffffffffffffffffffffffffffffff1602179055508173ffffffffffffffffffffffffffffffffffffffff168173ffffffffffffffffffffffffffffffffffffffff167f8be0079c531659141344cd1fd0a4f28419497f9722a3daafe3b4186f6b6457e060405160405180910390a35050565b6000604051905090565b600080fd5b600080fd5b6000819050919050565b620002ad8162000298565b8114620002b957600080fd5b50565b600081519050620002cd81620002a2565b92915050565b600080fd5b600080fd5b6000601f19601f8301169050919050565b7f4e487b7100000000000000000000000000000000000000000000000000000000600052604160045260246000fd5b6200032882620002dd565b810181811067ffffffffffffffff821117156200034a5762000349620002ee565b5b80604052505050565b60006200035f62000284565b90506200036d82826200031d565b919050565b600067ffffffffffffffff82111562000390576200038f620002ee565b5b6200039b82620002dd565b9050602081019050919050565b60005b83811015620003c8578082015181840152602081019050620003ab565b60008484015250505050565b6000620003eb620003e58462000372565b62000353565b9050828152602081018484840111156200040a5762000409620002d8565b5b62000417848285620003a8565b509392505050565b600082601f830112620004375762000436620002d3565b5b815162000449848260208601620003d4565b91505092915050565b600073ffffffffffffffffffffffffffffffffffffffff82169050919050565b60006200047f8262000452565b9050919050565b620004918162000472565b81146200049d57600080fd5b50565b600081519050620004b18162000486565b92915050565b60008060008060008060c08789031215620004d757620004d66200028e565b5b6000620004e789828a01620002bc565b965050602087015167ffffffffffffffff8111156200050b576200050a62000293565b5b6200051989828a016200041f565b955050604087015167ffffffffffffffff8111156200053d576200053c62000293565b5b6200054b89828a016200041f565b94505060606200055e89828a01620002bc565b93505060806200057189828a01620004a0565b92505060a06200058489828a01620004a0565b9150509295509295509295565b60006200059e8262000452565b9050919050565b620005b08162000591565b82525050565b6000602082019050620005cd6000830184620005a5565b92915050565b600081519050919050565b7f4e487b7100000000000000000000000000000000000000000000000000000000600052602260045260246000fd5b600060028204905060018216806200062657607f821691505b6020821081036200063c576200063b620005de565b5b50919050565b60008190508160005260206000209050919050565b60006020601f8301049050919050565b600082821b905092915050565b600060088302620006a67fffffffffffffffffffffffffffffffffffffffffffffffffffffffffffffffff8262000667565b620006b2868362000667565b95508019841693508086168417925050509392505050565b6000819050919050565b6000620006f5620006ef620006e98462000298565b620006ca565b62000298565b9050919050565b6000819050919050565b6200071183620006d4565b620007296200072082620006fc565b84845462000674565b825550505050565b600090565b6200074062000731565b6200074d81848462000706565b505050565b5b8181101562000775576200076960008262000736565b60018101905062000753565b5050565b601f821115620007c4576200078e8162000642565b620007998462000657565b81016020851015620007a9578190505b620007c1620007b88562000657565b83018262000752565b50505b505050565b600082821c905092915050565b6000620007e960001984600802620007c9565b1980831691505092915050565b6000620008048383620007d6565b9150826002028217905092915050565b6200081f82620005d3565b67ffffffffffffffff8111156200083b576200083a620002ee565b5b6200084782546200060d565b6200085482828562000779565b600060209050601f8311600181146200088c576000841562000877578287015190505b620008838582620007f6565b865550620008f3565b601f1984166200089c8662000642565b60005b82811015620008c6578489015182556001820191506020850194506020810190506200089f565b86831015620008e65784890151620008e2601f891682620007d6565b8355505b6001600288020188555050505b505050505050565b6116e1806200090b6000396000f3fe6080604052600436106100ab5760003560e01c8063a7cc53f511610064578063a7cc53f51461038b578063c47f0027146103b6578063c6326dd0146103df578063da92adcb1461040a578063e55186a114610433578063f2fde38b1461045e5761029c565b806317d7de7c146102a157806349109a40146102cc578063715018a6146102f75780638221b09d1461030e5780638da5cb5b1461033757806391b7f5ed146103625761029c565b3661029c576004543410156100bf57600080fd5b6000600560009054906101000a900473ffffffffffffffffffffffffffffffffffffffff1673ffffffffffffffffffffffffffffffffffffffff16638da5cb5b6040518163ffffffff1660e01b8152600401602060405180830381865afa15801561012e573d6000803e3d6000fd5b505050506040513d601f19601f820116820180604052508101906101529190610c5c565b73ffffffffffffffffffffffffffffffffffffffff163460405161017590610cba565b60006040518083038185875af1925050503d80600081146101b2576040519150601f19603f3d011682016040523d82523d6000602084013e6101b7565b606091505b50509050806101fb576040517f08c379a00000000000000000000000000000000000000000000000000000000081526004016101f290610d2c565b60405180910390fd5b600760009054906101000a900473ffffffffffffffffffffffffffffffffffffffff1673ffffffffffffffffffffffffffffffffffffffff166337e431293060015460026004543461024d9190610db4565b6040518563ffffffff1660e01b815260040161026c9493929190610efc565b600060405180830381600087803b15801561028657600080fd5b505af115801561029a573d6000803e3d6000fd5b005b600080fd5b3480156102ad57600080fd5b506102b6610487565b6040516102c39190610fc7565b60405180910390f35b3480156102d857600080fd5b506102e1610519565b6040516102ee9190610fe9565b60405180910390f35b34801561030357600080fd5b5061030c6105c9565b005b34801561031a57600080fd5b5061033560048036038101906103309190611139565b6105dd565b005b34801561034357600080fd5b5061034c6105f8565b6040516103599190611182565b60405180910390f35b34801561036e57600080fd5b50610389600480360381019061038491906111c9565b610621565b005b34801561039757600080fd5b506103a0610633565b6040516103ad9190610fe9565b60405180910390f35b3480156103c257600080fd5b506103dd60048036038101906103d89190611139565b61063d565b005b3480156103eb57600080fd5b506103f4610658565b6040516104019190611255565b60405180910390f35b34801561041657600080fd5b50610431600480360381019061042c91906111c9565b61067e565b005b34801561043f57600080fd5b5061044861097f565b6040516104559190610fc7565b60405180910390f35b34801561046a57600080fd5b5061048560048036038101906104809190611285565b610a11565b005b60606002805461049690610e32565b80601f01602080910402602001604051908101604052809291908181526020018280546104c290610e32565b801561050f5780601f106104e45761010080835404028352916020019161050f565b820191906000526020600020905b8154815290600101906020018083116104f257829003601f168201915b5050505050905090565b6000600454600660009054906101000a900473ffffffffffffffffffffffffffffffffffffffff1673ffffffffffffffffffffffffffffffffffffffff1663f8b2cb4f336040518263ffffffff1660e01b81526004016105799190611182565b602060405180830381865afa158015610596573d6000803e3d6000fd5b505050506040513d601f19601f820116820180604052508101906105ba91906112c7565b6105c49190610db4565b905090565b6105d1610a97565b6105db6000610b1e565b565b6105e5610a97565b80600390816105f49190611481565b5050565b60008060009054906101000a900473ffffffffffffffffffffffffffffffffffffffff16905090565b610629610a97565b8060048190555050565b6000600454905090565b610645610a97565b80600290816106549190611481565b5050565b600560009054906101000a900473ffffffffffffffffffffffffffffffffffffffff1681565b600454600660009054906101000a900473ffffffffffffffffffffffffffffffffffffffff1673ffffffffffffffffffffffffffffffffffffffff1663f8b2cb4f336040518263ffffffff1660e01b81526004016106dc9190611182565b602060405180830381865afa1580156106f9573d6000803e3d6000fd5b505050506040513d601f19601f8201168201806040525081019061071d91906112c7565b101561075e576040517f08c379a00000000000000000000000000000000000000000000000000000000081526004016107559061159f565b60405180910390fd5b6000600760009054906101000a900473ffffffffffffffffffffffffffffffffffffffff1673ffffffffffffffffffffffffffffffffffffffff16636e9163c760015433600560009054906101000a900473ffffffffffffffffffffffffffffffffffffffff1673ffffffffffffffffffffffffffffffffffffffff16638da5cb5b6040518163ffffffff1660e01b8152600401602060405180830381865afa15801561080f573d6000803e3d6000fd5b505050506040513d601f19601f820116820180604052508101906108339190610c5c565b6004548761084191906115bf565b6040518563ffffffff1660e01b81526004016108609493929190611601565b6020604051808303816000875af115801561087f573d6000803e3d6000fd5b505050506040513d601f19601f820116820180604052508101906108a3919061167e565b9050806108e5576040517f08c379a00000000000000000000000000000000000000000000000000000000081526004016108dc90610d2c565b60405180910390fd5b600760009054906101000a900473ffffffffffffffffffffffffffffffffffffffff1673ffffffffffffffffffffffffffffffffffffffff166337e43129306001546002866040518563ffffffff1660e01b81526004016109499493929190610efc565b600060405180830381600087803b15801561096357600080fd5b505af1158015610977573d6000803e3d6000fd5b505050505050565b60606003805461098e90610e32565b80601f01602080910402602001604051908101604052809291908181526020018280546109ba90610e32565b8015610a075780601f106109dc57610100808354040283529160200191610a07565b820191906000526020600020905b8154815290600101906020018083116109ea57829003601f168201915b5050505050905090565b610a19610a97565b600073ffffffffffffffffffffffffffffffffffffffff168173ffffffffffffffffffffffffffffffffffffffff1603610a8b5760006040517f1e4fbdf7000000000000000000000000000000000000000000000000000000008152600401610a829190611182565b60405180910390fd5b610a9481610b1e565b50565b610a9f610be2565b73ffffffffffffffffffffffffffffffffffffffff16610abd6105f8565b73ffffffffffffffffffffffffffffffffffffffff1614610b1c57610ae0610be2565b6040517f118cdaa7000000000000000000000000000000000000000000000000000000008152600401610b139190611182565b60405180910390fd5b565b60008060009054906101000a900473ffffffffffffffffffffffffffffffffffffffff169050816000806101000a81548173ffffffffffffffffffffffffffffffffffffffff021916908373ffffffffffffffffffffffffffffffffffffffff1602179055508173ffffffffffffffffffffffffffffffffffffffff168173ffffffffffffffffffffffffffffffffffffffff167f8be0079c531659141344cd1fd0a4f28419497f9722a3daafe3b4186f6b6457e060405160405180910390a35050565b600033905090565b6000604051905090565b600080fd5b600080fd5b600073ffffffffffffffffffffffffffffffffffffffff82169050919050565b6000610c2982610bfe565b9050919050565b610c3981610c1e565b8114610c4457600080fd5b50565b600081519050610c5681610c30565b92915050565b600060208284031215610c7257610c71610bf4565b5b6000610c8084828501610c47565b91505092915050565b600081905092915050565b50565b6000610ca4600083610c89565b9150610caf82610c94565b600082019050919050565b6000610cc582610c97565b9150819050919050565b600082825260208201905092915050565b7f5472616e73666572206661696c65640000000000000000000000000000000000600082015250565b6000610d16600f83610ccf565b9150610d2182610ce0565b602082019050919050565b60006020820190508181036000830152610d4581610d09565b9050919050565b6000819050919050565b7f4e487b7100000000000000000000000000000000000000000000000000000000600052601260045260246000fd5b7f4e487b7100000000000000000000000000000000000000000000000000000000600052601160045260246000fd5b6000610dbf82610d4c565b9150610dca83610d4c565b925082610dda57610dd9610d56565b5b828204905092915050565b610dee81610c1e565b82525050565b610dfd81610d4c565b82525050565b7f4e487b7100000000000000000000000000000000000000000000000000000000600052602260045260246000fd5b60006002820490506001821680610e4a57607f821691505b602082108103610e5d57610e5c610e03565b5b50919050565b60008190508160005260206000209050919050565b60008154610e8581610e32565b610e8f8186610ccf565b94506001821660008114610eaa5760018114610ec057610ef3565b60ff198316865281151560200286019350610ef3565b610ec985610e63565b60005b83811015610eeb57815481890152600182019150602081019050610ecc565b808801955050505b50505092915050565b6000608082019050610f116000830187610de5565b610f1e6020830186610df4565b8181036040830152610f308185610e78565b9050610f3f6060830184610df4565b95945050505050565b600081519050919050565b60005b83811015610f71578082015181840152602081019050610f56565b60008484015250505050565b6000601f19601f8301169050919050565b6000610f9982610f48565b610fa38185610ccf565b9350610fb3818560208601610f53565b610fbc81610f7d565b840191505092915050565b60006020820190508181036000830152610fe18184610f8e565b905092915050565b6000602082019050610ffe6000830184610df4565b92915050565b600080fd5b600080fd5b7f4e487b7100000000000000000000000000000000000000000000000000000000600052604160045260246000fd5b61104682610f7d565b810181811067ffffffffffffffff821117156110655761106461100e565b5b80604052505050565b6000611078610bea565b9050611084828261103d565b919050565b600067ffffffffffffffff8211156110a4576110a361100e565b5b6110ad82610f7d565b9050602081019050919050565b82818337600083830152505050565b60006110dc6110d784611089565b61106e565b9050828152602081018484840111156110f8576110f7611009565b5b6111038482856110ba565b509392505050565b600082601f8301126111205761111f611004565b5b81356111308482602086016110c9565b91505092915050565b60006020828403121561114f5761114e610bf4565b5b600082013567ffffffffffffffff81111561116d5761116c610bf9565b5b6111798482850161110b565b91505092915050565b60006020820190506111976000830184610de5565b92915050565b6111a681610d4c565b81146111b157600080fd5b50565b6000813590506111c38161119d565b92915050565b6000602082840312156111df576111de610bf4565b5b60006111ed848285016111b4565b91505092915050565b6000819050919050565b600061121b61121661121184610bfe565b6111f6565b610bfe565b9050919050565b600061122d82611200565b9050919050565b600061123f82611222565b9050919050565b61124f81611234565b82525050565b600060208201905061126a6000830184611246565b92915050565b60008135905061127f81610c30565b92915050565b60006020828403121561129b5761129a610bf4565b5b60006112a984828501611270565b91505092915050565b6000815190506112c18161119d565b92915050565b6000602082840312156112dd576112dc610bf4565b5b60006112eb848285016112b2565b91505092915050565b60006020601f8301049050919050565b600082821b905092915050565b6000600883026113417fffffffffffffffffffffffffffffffffffffffffffffffffffffffffffffffff82611304565b61134b8683611304565b95508019841693508086168417925050509392505050565b600061137e61137961137484610d4c565b6111f6565b610d4c565b9050919050565b6000819050919050565b61139883611363565b6113ac6113a482611385565b848454611311565b825550505050565b600090565b6113c16113b4565b6113cc81848461138f565b505050565b5b818110156113f0576113e56000826113b9565b6001810190506113d2565b5050565b601f8211156114355761140681610e63565b61140f846112f4565b8101602085101561141e578190505b61143261142a856112f4565b8301826113d1565b50505b505050565b600082821c905092915050565b60006114586000198460080261143a565b1980831691505092915050565b60006114718383611447565b9150826002028217905092915050565b61148a82610f48565b67ffffffffffffffff8111156114a3576114a261100e565b5b6114ad8254610e32565b6114b88282856113f4565b600060209050601f8311600181146114eb57600084156114d9578287015190505b6114e38582611465565b86555061154b565b601f1984166114f986610e63565b60005b82811015611521578489015182556001820191506020850194506020810190506114fc565b8683101561153e578489015161153a601f891682611447565b8355505b6001600288020188555050505b505050505050565b7f496e73756666696369656e742042616c616e6365000000000000000000000000600082015250565b6000611589601483610ccf565b915061159482611553565b602082019050919050565b600060208201905081810360008301526115b88161157c565b9050919050565b60006115ca82610d4c565b91506115d583610d4c565b92508282026115e381610d4c565b915082820484148315176115fa576115f9610d85565b5b5092915050565b60006080820190506116166000830187610df4565b6116236020830186610de5565b6116306040830185610de5565b61163d6060830184610df4565b95945050505050565b60008115159050919050565b61165b81611646565b811461166657600080fd5b50565b60008151905061167881611652565b92915050565b60006020828403121561169457611693610bf4565b5b60006116a284828501611669565b9150509291505056fea2646970667358221220d326e00e9896f3bd875bb4122e5003cc11c05cb55058d9ca3c5eeb115d9f5dcb64736f6c63430008180033",
  "linkReferences": {},
  "deployedLinkReferences": {}
}