{
  "_format": "hh-sol-artifact-1",
  "contractName": "ActionFactory",
  "sourceName": "contracts/ActionFactory.sol",
  "abi": [
    {
      "inputs": [],
      "stateMutability": "nonpayable",
      "type": "constructor"
    },
    {
      "inputs": [
        {
          "internalType": "address",
          "name": "owner",
          "type": "address"
        }
      ],
      "name": "OwnableInvalidOwner",
      "type": "error"
    },
    {
      "inputs": [
        {
          "internalType": "address",
          "name": "account",
          "type": "address"
        }
      ],
      "name": "OwnableUnauthorizedAccount",
      "type": "error"
    },
    {
      "anonymous": false,
      "inputs": [
        {
          "indexed": true,
          "internalType": "address",
          "name": "action",
          "type": "address"
        },
        {
          "indexed": true,
          "internalType": "uint256",
          "name": "id",
          "type": "uint256"
        },
        {
          "indexed": false,
          "internalType": "string",
          "name": "name",
          "type": "string"
        },
        {
          "indexed": false,
          "internalType": "string",
          "name": "unit",
          "type": "string"
        },
        {
          "indexed": false,
          "internalType": "uint256",
          "name": "pricePerUnit",
          "type": "uint256"
        },
        {
          "indexed": false,
          "internalType": "address",
          "name": "deviceAddress",
          "type": "address"
        },
        {
          "indexed": false,
          "internalType": "address",
          "name": "_organisationAddress",
          "type": "address"
        }
      ],
      "name": "ActionCreated",
      "type": "event"
    },
    {
      "anonymous": false,
      "inputs": [
        {
          "indexed": true,
          "internalType": "address",
          "name": "previousOwner",
          "type": "address"
        },
        {
          "indexed": true,
          "internalType": "address",
          "name": "newOwner",
          "type": "address"
        }
      ],
      "name": "OwnershipTransferred",
      "type": "event"
    },
    {
      "inputs": [
        {
          "internalType": "uint256",
          "name": "",
          "type": "uint256"
        }
      ],
      "name": "Actions",
      "outputs": [
        {
          "internalType": "uint256",
          "name": "id",
          "type": "uint256"
        },
        {
          "internalType": "address",
          "name": "ActionAddress",
          "type": "address"
        },
        {
          "internalType": "string",
          "name": "name",
          "type": "string"
        },
        {
          "internalType": "string",
          "name": "unit",
          "type": "string"
        },
        {
          "internalType": "uint256",
          "name": "price",
          "type": "uint256"
        },
        {
          "internalType": "address",
          "name": "deviceAddress",
          "type": "address"
        },
        {
          "internalType": "address",
          "name": "deviceOwner",
          "type": "address"
        },
        {
          "internalType": "address",
          "name": "organisationAddress",
          "type": "address"
        }
      ],
      "stateMutability": "view",
      "type": "function"
    },
    {
      "inputs": [
        {
          "internalType": "uint256",
          "name": "_id",
          "type": "uint256"
        },
        {
          "internalType": "address",
          "name": "_from",
          "type": "address"
        },
        {
          "internalType": "address",
          "name": "_to",
          "type": "address"
        },
        {
          "internalType": "uint256",
          "name": "_amount",
          "type": "uint256"
        }
      ],
      "name": "Balancetransfer",
      "outputs": [],
      "stateMutability": "nonpayable",
      "type": "function"
    },
    {
      "inputs": [
        {
          "internalType": "string",
          "name": "_name",
          "type": "string"
        },
        {
          "internalType": "string",
          "name": "_unit",
          "type": "string"
        },
        {
          "internalType": "uint256",
          "name": "_pricePerUnit",
          "type": "uint256"
        },
        {
          "internalType": "address payable",
          "name": "_deviceAddress",
          "type": "address"
        },
        {
          "internalType": "address",
          "name": "_deviceOwner",
          "type": "address"
        },
        {
          "internalType": "address",
          "name": "_organisationAddress",
          "type": "address"
        }
      ],
      "name": "createAction",
      "outputs": [
        {
          "internalType": "address",
          "name": "",
          "type": "address"
        }
      ],
      "stateMutability": "nonpayable",
      "type": "function"
    },
    {
      "inputs": [
        {
          "internalType": "address",
          "name": "_deviceAddress",
          "type": "address"
        }
      ],
      "name": "getActions",
      "outputs": [
        {
          "components": [
            {
              "internalType": "uint256",
              "name": "id",
              "type": "uint256"
            },
            {
              "internalType": "address",
              "name": "ActionAddress",
              "type": "address"
            },
            {
              "internalType": "string",
              "name": "name",
              "type": "string"
            },
            {
              "internalType": "string",
              "name": "unit",
              "type": "string"
            },
            {
              "internalType": "uint256",
              "name": "price",
              "type": "uint256"
            },
            {
              "internalType": "address",
              "name": "deviceAddress",
              "type": "address"
            },
            {
              "internalType": "address",
              "name": "deviceOwner",
              "type": "address"
            },
            {
              "internalType": "address",
              "name": "organisationAddress",
              "type": "address"
            }
          ],
          "internalType": "struct ActionFactory.ActionInfo[]",
          "name": "",
          "type": "tuple[]"
        }
      ],
      "stateMutability": "view",
      "type": "function"
    },
    {
      "inputs": [],
      "name": "owner",
      "outputs": [
        {
          "internalType": "address",
          "name": "",
          "type": "address"
        }
      ],
      "stateMutability": "view",
      "type": "function"
    },
    {
      "inputs": [],
      "name": "renounceOwnership",
      "outputs": [],
      "stateMutability": "nonpayable",
      "type": "function"
    },
    {
      "inputs": [
        {
          "internalType": "address payable",
          "name": "_balanceAddress",
          "type": "address"
        }
      ],
      "name": "setBalanceContract",
      "outputs": [],
      "stateMutability": "nonpayable",
      "type": "function"
    },
    {
      "inputs": [
        {
          "internalType": "address",
          "name": "newOwner",
          "type": "address"
        }
      ],
      "name": "transferOwnership",
      "outputs": [],
      "stateMutability": "nonpayable",
      "type": "function"
    },
    {
      "inputs": [
        {
          "internalType": "uint256",
          "name": "_actionId",
          "type": "uint256"
        },
        {
          "internalType": "uint256",
          "name": "_newPrice",
          "type": "uint256"
        }
      ],
      "name": "updateActionPrice",
      "outputs": [],
      "stateMutability": "nonpayable",
      "type": "function"
    }
  ],
  "bytecode": "0x608060405260016002553480156200001657600080fd5b5033600073ffffffffffffffffffffffffffffffffffffffff168173ffffffffffffffffffffffffffffffffffffffff16036200008d5760006040517f1e4fbdf7000000000000000000000000000000000000000000000000000000008152600401620000849190620001ae565b60405180910390fd5b6200009e81620000a560201b60201c565b50620001cb565b60008060009054906101000a900473ffffffffffffffffffffffffffffffffffffffff169050816000806101000a81548173ffffffffffffffffffffffffffffffffffffffff021916908373ffffffffffffffffffffffffffffffffffffffff1602179055508173ffffffffffffffffffffffffffffffffffffffff168173ffffffffffffffffffffffffffffffffffffffff167f8be0079c531659141344cd1fd0a4f28419497f9722a3daafe3b4186f6b6457e060405160405180910390a35050565b600073ffffffffffffffffffffffffffffffffffffffff82169050919050565b6000620001968262000169565b9050919050565b620001a88162000189565b82525050565b6000602082019050620001c560008301846200019d565b92915050565b61355380620001db6000396000f3fe60806040523480156200001157600080fd5b5060043610620000a05760003560e01c80638ccc0f92116200006f5780638ccc0f9214620001275780638da5cb5b146200015d578063b4272ce9146200017f578063f2fde38b14620001bc578063f7d2bed214620001dc57620000a0565b806329ebacd314620000a55780636e9163c714620000db578063715018a614620000fb578063898786ac1462000107575b600080fd5b620000c36004803603810190620000bd9190620013fc565b620001fc565b604051620000d29190620014e7565b60405180910390f35b620000f96004803603810190620000f3919062001504565b620004f7565b005b6200010562000639565b005b6200012560048036038101906200011f919062001576565b62000651565b005b6200014560048036038101906200013f9190620015a8565b6200069f565b6040516200015491906200181c565b60405180910390f35b6200016762000a93565b604051620001769190620014e7565b60405180910390f35b6200019d600480360381019062000197919062001840565b62000abc565b604051620001b3989796959493929190620018d5565b60405180910390f35b620001da6004803603810190620001d49190620015a8565b62000ca4565b005b620001fa6004803603810190620001f4919062001971565b62000d31565b005b60008060025488888888600360009054906101000a900473ffffffffffffffffffffffffffffffffffffffff166040516200023790620010f6565b6200024896959493929190620019c9565b604051809103906000f08015801562000265573d6000803e3d6000fd5b5090506002548173ffffffffffffffffffffffffffffffffffffffff167fe81310ec773657d634a70519a2263baac2b0d0aa7dfebad87ffc0e52e188a26e8a8a8a8a89604051620002bb95949392919062001aaf565b60405180910390a360405180610100016040528060025481526020018273ffffffffffffffffffffffffffffffffffffffff1681526020018981526020018881526020018781526020018673ffffffffffffffffffffffffffffffffffffffff1681526020018573ffffffffffffffffffffffffffffffffffffffff1681526020018473ffffffffffffffffffffffffffffffffffffffff168152506001600060025481526020019081526020016000206000820151816000015560208201518160010160006101000a81548173ffffffffffffffffffffffffffffffffffffffff021916908373ffffffffffffffffffffffffffffffffffffffff1602179055506040820151816002019081620003d4919062001d46565b506060820151816003019081620003ec919062001d46565b506080820151816004015560a08201518160050160006101000a81548173ffffffffffffffffffffffffffffffffffffffff021916908373ffffffffffffffffffffffffffffffffffffffff16021790555060c08201518160060160006101000a81548173ffffffffffffffffffffffffffffffffffffffff021916908373ffffffffffffffffffffffffffffffffffffffff16021790555060e08201518160070160006101000a81548173ffffffffffffffffffffffffffffffffffffffff021916908373ffffffffffffffffffffffffffffffffffffffff16021790555090505060026000815480929190620004e49062001e5c565b9190505550809150509695505050505050565b6001600085815260200190815260200160002060010160009054906101000a900473ffffffffffffffffffffffffffffffffffffffff1673ffffffffffffffffffffffffffffffffffffffff163373ffffffffffffffffffffffffffffffffffffffff16146200059e576040517f08c379a0000000000000000000000000000000000000000000000000000000008152600401620005959062001f1f565b60405180910390fd5b600360009054906101000a900473ffffffffffffffffffffffffffffffffffffffff1673ffffffffffffffffffffffffffffffffffffffff1663a606b94a8484846040518463ffffffff1660e01b8152600401620005ff9392919062001f41565b600060405180830381600087803b1580156200061a57600080fd5b505af11580156200062f573d6000803e3d6000fd5b5050505050505050565b6200064362000f9a565b6200064f60006200102a565b565b6200065b62000f9a565b80600360006101000a81548173ffffffffffffffffffffffffffffffffffffffff021916908373ffffffffffffffffffffffffffffffffffffffff16021790555050565b606060006001600254620006b4919062001f7e565b67ffffffffffffffff811115620006d057620006cf620011d0565b5b6040519080825280602002602001820160405280156200070d57816020015b620006f962001104565b815260200190600190039081620006ef5790505b5090506000600190505b60025481101562000a89578373ffffffffffffffffffffffffffffffffffffffff166001600083815260200190815260200160002060050160009054906101000a900473ffffffffffffffffffffffffffffffffffffffff1673ffffffffffffffffffffffffffffffffffffffff160362000a7b576001600082815260200190815260200160002060405180610100016040529081600082015481526020016001820160009054906101000a900473ffffffffffffffffffffffffffffffffffffffff1673ffffffffffffffffffffffffffffffffffffffff1673ffffffffffffffffffffffffffffffffffffffff1681526020016002820180546200081d9062001b49565b80601f01602080910402602001604051908101604052809291908181526020018280546200084b9062001b49565b80156200089c5780601f1062000870576101008083540402835291602001916200089c565b820191906000526020600020905b8154815290600101906020018083116200087e57829003601f168201915b50505050508152602001600382018054620008b79062001b49565b80601f0160208091040260200160405190810160405280929190818152602001828054620008e59062001b49565b8015620009365780601f106200090a5761010080835404028352916020019162000936565b820191906000526020600020905b8154815290600101906020018083116200091857829003601f168201915b50505050508152602001600482015481526020016005820160009054906101000a900473ffffffffffffffffffffffffffffffffffffffff1673ffffffffffffffffffffffffffffffffffffffff1673ffffffffffffffffffffffffffffffffffffffff1681526020016006820160009054906101000a900473ffffffffffffffffffffffffffffffffffffffff1673ffffffffffffffffffffffffffffffffffffffff1673ffffffffffffffffffffffffffffffffffffffff1681526020016007820160009054906101000a900473ffffffffffffffffffffffffffffffffffffffff1673ffffffffffffffffffffffffffffffffffffffff1673ffffffffffffffffffffffffffffffffffffffff16815250508260018362000a5b919062001f7e565b8151811062000a6f5762000a6e62001fb9565b5b60200260200101819052505b808060010191505062000717565b5080915050919050565b60008060009054906101000a900473ffffffffffffffffffffffffffffffffffffffff16905090565b60016020528060005260406000206000915090508060000154908060010160009054906101000a900473ffffffffffffffffffffffffffffffffffffffff169080600201805462000b0d9062001b49565b80601f016020809104026020016040519081016040528092919081815260200182805462000b3b9062001b49565b801562000b8c5780601f1062000b605761010080835404028352916020019162000b8c565b820191906000526020600020905b81548152906001019060200180831162000b6e57829003601f168201915b50505050509080600301805462000ba39062001b49565b80601f016020809104026020016040519081016040528092919081815260200182805462000bd19062001b49565b801562000c225780601f1062000bf65761010080835404028352916020019162000c22565b820191906000526020600020905b81548152906001019060200180831162000c0457829003601f168201915b5050505050908060040154908060050160009054906101000a900473ffffffffffffffffffffffffffffffffffffffff16908060060160009054906101000a900473ffffffffffffffffffffffffffffffffffffffff16908060070160009054906101000a900473ffffffffffffffffffffffffffffffffffffffff16905088565b62000cae62000f9a565b600073ffffffffffffffffffffffffffffffffffffffff168173ffffffffffffffffffffffffffffffffffffffff160362000d235760006040517f1e4fbdf700000000000000000000000000000000000000000000000000000000815260040162000d1a9190620014e7565b60405180910390fd5b62000d2e816200102a565b50565b600073ffffffffffffffffffffffffffffffffffffffff166001600084815260200190815260200160002060010160009054906101000a900473ffffffffffffffffffffffffffffffffffffffff1673ffffffffffffffffffffffffffffffffffffffff160362000dd9576040517f08c379a000000000000000000000000000000000000000000000000000000000815260040162000dd09062002038565b60405180910390fd5b6001600083815260200190815260200160002060070160009054906101000a900473ffffffffffffffffffffffffffffffffffffffff1673ffffffffffffffffffffffffffffffffffffffff166324d7806c336040518263ffffffff1660e01b815260040162000e4a9190620014e7565b602060405180830381865afa15801562000e68573d6000803e3d6000fd5b505050506040513d601f19601f8201168201806040525081019062000e8e919062002097565b62000ed0576040517f08c379a000000000000000000000000000000000000000000000000000000000815260040162000ec7906200213f565b60405180910390fd5b60006001600084815260200190815260200160002060010160009054906101000a900473ffffffffffffffffffffffffffffffffffffffff1690508073ffffffffffffffffffffffffffffffffffffffff166391b7f5ed836040518263ffffffff1660e01b815260040162000f46919062002161565b600060405180830381600087803b15801562000f6157600080fd5b505af115801562000f76573d6000803e3d6000fd5b50505050816001600085815260200190815260200160002060040181905550505050565b62000fa4620010ee565b73ffffffffffffffffffffffffffffffffffffffff1662000fc462000a93565b73ffffffffffffffffffffffffffffffffffffffff1614620010285762000fea620010ee565b6040517f118cdaa70000000000000000000000000000000000000000000000000000000081526004016200101f9190620014e7565b60405180910390fd5b565b60008060009054906101000a900473ffffffffffffffffffffffffffffffffffffffff169050816000806101000a81548173ffffffffffffffffffffffffffffffffffffffff021916908373ffffffffffffffffffffffffffffffffffffffff1602179055508173ffffffffffffffffffffffffffffffffffffffff168173ffffffffffffffffffffffffffffffffffffffff167f8be0079c531659141344cd1fd0a4f28419497f9722a3daafe3b4186f6b6457e060405160405180910390a35050565b600033905090565b61139f806200217f83390190565b60405180610100016040528060008152602001600073ffffffffffffffffffffffffffffffffffffffff168152602001606081526020016060815260200160008152602001600073ffffffffffffffffffffffffffffffffffffffff168152602001600073ffffffffffffffffffffffffffffffffffffffff168152602001600073ffffffffffffffffffffffffffffffffffffffff1681525090565b6000604051905090565b600080fd5b600080fd5b600080fd5b600080fd5b6000601f19601f8301169050919050565b7f4e487b7100000000000000000000000000000000000000000000000000000000600052604160045260246000fd5b6200120a82620011bf565b810181811067ffffffffffffffff821117156200122c576200122b620011d0565b5b80604052505050565b600062001241620011a1565b90506200124f8282620011ff565b919050565b600067ffffffffffffffff821115620012725762001271620011d0565b5b6200127d82620011bf565b9050602081019050919050565b82818337600083830152505050565b6000620012b0620012aa8462001254565b62001235565b905082815260208101848484011115620012cf57620012ce620011ba565b5b620012dc8482856200128a565b509392505050565b600082601f830112620012fc57620012fb620011b5565b5b81356200130e84826020860162001299565b91505092915050565b6000819050919050565b6200132c8162001317565b81146200133857600080fd5b50565b6000813590506200134c8162001321565b92915050565b600073ffffffffffffffffffffffffffffffffffffffff82169050919050565b60006200137f8262001352565b9050919050565b620013918162001372565b81146200139d57600080fd5b50565b600081359050620013b18162001386565b92915050565b6000620013c48262001352565b9050919050565b620013d681620013b7565b8114620013e257600080fd5b50565b600081359050620013f681620013cb565b92915050565b60008060008060008060c087890312156200141c576200141b620011ab565b5b600087013567ffffffffffffffff8111156200143d576200143c620011b0565b5b6200144b89828a01620012e4565b965050602087013567ffffffffffffffff8111156200146f576200146e620011b0565b5b6200147d89828a01620012e4565b95505060406200149089828a016200133b565b9450506060620014a389828a01620013a0565b9350506080620014b689828a01620013e5565b92505060a0620014c989828a01620013e5565b9150509295509295509295565b620014e181620013b7565b82525050565b6000602082019050620014fe6000830184620014d6565b92915050565b60008060008060808587031215620015215762001520620011ab565b5b600062001531878288016200133b565b94505060206200154487828801620013e5565b93505060406200155787828801620013e5565b92505060606200156a878288016200133b565b91505092959194509250565b6000602082840312156200158f576200158e620011ab565b5b60006200159f84828501620013a0565b91505092915050565b600060208284031215620015c157620015c0620011ab565b5b6000620015d184828501620013e5565b91505092915050565b600081519050919050565b600082825260208201905092915050565b6000819050602082019050919050565b620016118162001317565b82525050565b6200162281620013b7565b82525050565b600081519050919050565b600082825260208201905092915050565b60005b838110156200166457808201518184015260208101905062001647565b60008484015250505050565b60006200167d8262001628565b62001689818562001633565b93506200169b81856020860162001644565b620016a681620011bf565b840191505092915050565b600061010083016000830151620016cc600086018262001606565b506020830151620016e1602086018262001617565b5060408301518482036040860152620016fb828262001670565b9150506060830151848203606086015262001717828262001670565b91505060808301516200172e608086018262001606565b5060a08301516200174360a086018262001617565b5060c08301516200175860c086018262001617565b5060e08301516200176d60e086018262001617565b508091505092915050565b6000620017868383620016b1565b905092915050565b6000602082019050919050565b6000620017a882620015da565b620017b48185620015e5565b935083602082028501620017c885620015f6565b8060005b858110156200180a5784840389528151620017e8858262001778565b9450620017f5836200178e565b925060208a01995050600181019050620017cc565b50829750879550505050505092915050565b600060208201905081810360008301526200183881846200179b565b905092915050565b600060208284031215620018595762001858620011ab565b5b600062001869848285016200133b565b91505092915050565b6200187d8162001317565b82525050565b600082825260208201905092915050565b6000620018a18262001628565b620018ad818562001883565b9350620018bf81856020860162001644565b620018ca81620011bf565b840191505092915050565b600061010082019050620018ed600083018b62001872565b620018fc602083018a620014d6565b818103604083015262001910818962001894565b9050818103606083015262001926818862001894565b905062001937608083018762001872565b6200194660a0830186620014d6565b6200195560c0830185620014d6565b6200196460e0830184620014d6565b9998505050505050505050565b600080604083850312156200198b576200198a620011ab565b5b60006200199b858286016200133b565b9250506020620019ae858286016200133b565b9150509250929050565b620019c38162001372565b82525050565b600060c082019050620019e0600083018962001872565b8181036020830152620019f4818862001894565b9050818103604083015262001a0a818762001894565b905062001a1b606083018662001872565b62001a2a6080830185620019b8565b62001a3960a0830184620019b8565b979650505050505050565b6000819050919050565b600062001a6f62001a6962001a638462001352565b62001a44565b62001352565b9050919050565b600062001a838262001a4e565b9050919050565b600062001a978262001a76565b9050919050565b62001aa98162001a8a565b82525050565b600060a082019050818103600083015262001acb818862001894565b9050818103602083015262001ae1818762001894565b905062001af2604083018662001872565b62001b01606083018562001a9e565b62001b106080830184620014d6565b9695505050505050565b7f4e487b7100000000000000000000000000000000000000000000000000000000600052602260045260246000fd5b6000600282049050600182168062001b6257607f821691505b60208210810362001b785762001b7762001b1a565b5b50919050565b60008190508160005260206000209050919050565b60006020601f8301049050919050565b600082821b905092915050565b60006008830262001be27fffffffffffffffffffffffffffffffffffffffffffffffffffffffffffffffff8262001ba3565b62001bee868362001ba3565b95508019841693508086168417925050509392505050565b600062001c2762001c2162001c1b8462001317565b62001a44565b62001317565b9050919050565b6000819050919050565b62001c438362001c06565b62001c5b62001c528262001c2e565b84845462001bb0565b825550505050565b600090565b62001c7262001c63565b62001c7f81848462001c38565b505050565b5b8181101562001ca75762001c9b60008262001c68565b60018101905062001c85565b5050565b601f82111562001cf65762001cc08162001b7e565b62001ccb8462001b93565b8101602085101562001cdb578190505b62001cf362001cea8562001b93565b83018262001c84565b50505b505050565b600082821c905092915050565b600062001d1b6000198460080262001cfb565b1980831691505092915050565b600062001d36838362001d08565b9150826002028217905092915050565b62001d518262001628565b67ffffffffffffffff81111562001d6d5762001d6c620011d0565b5b62001d79825462001b49565b62001d8682828562001cab565b600060209050601f83116001811462001dbe576000841562001da9578287015190505b62001db5858262001d28565b86555062001e25565b601f19841662001dce8662001b7e565b60005b8281101562001df85784890151825560018201915060208501945060208101905062001dd1565b8683101562001e18578489015162001e14601f89168262001d08565b8355505b6001600288020188555050505b505050505050565b7f4e487b7100000000000000000000000000000000000000000000000000000000600052601160045260246000fd5b600062001e698262001317565b91507fffffffffffffffffffffffffffffffffffffffffffffffffffffffffffffffff820362001e9e5762001e9d62001e2d565b5b600182019050919050565b7f596f7520617265206e6f7420616c6c6f77656420746f2063616c6c207468697360008201527f2066756e6374696f6e0000000000000000000000000000000000000000000000602082015250565b600062001f0760298362001883565b915062001f148262001ea9565b604082019050919050565b6000602082019050818103600083015262001f3a8162001ef8565b9050919050565b600060608201905062001f586000830186620014d6565b62001f676020830185620014d6565b62001f76604083018462001872565b949350505050565b600062001f8b8262001317565b915062001f988362001317565b925082820390508181111562001fb35762001fb262001e2d565b5b92915050565b7f4e487b7100000000000000000000000000000000000000000000000000000000600052603260045260246000fd5b7f416374696f6e20646f6573206e6f742065786973740000000000000000000000600082015250565b60006200202060158362001883565b91506200202d8262001fe8565b602082019050919050565b60006020820190508181036000830152620020538162002011565b9050919050565b60008115159050919050565b62002071816200205a565b81146200207d57600080fd5b50565b600081519050620020918162002066565b92915050565b600060208284031215620020b057620020af620011ab565b5b6000620020c08482850162002080565b91505092915050565b7f206e6f2041646d696e4e4654202d3e206e6f7420616c6c6f77656420746f206360008201527f726561746520616e204465766963650000000000000000000000000000000000602082015250565b600062002127602f8362001883565b91506200213482620020c9565b604082019050919050565b600060208201905081810360008301526200215a8162002118565b9050919050565b600060208201905062002178600083018462001872565b9291505056fe60806040523480156200001157600080fd5b506040516200139f3803806200139f8339818101604052810190620000379190620004f0565b33600073ffffffffffffffffffffffffffffffffffffffff168173ffffffffffffffffffffffffffffffffffffffff1603620000ad5760006040517f1e4fbdf7000000000000000000000000000000000000000000000000000000008152600401620000a49190620005ef565b60405180910390fd5b620000be81620001f960201b60201c565b503373ffffffffffffffffffffffffffffffffffffffff163373ffffffffffffffffffffffffffffffffffffffff1614620000f857600080fd5b8560018190555084600290816200011091906200084d565b5083600390816200012291906200084d565b508260048190555081600560006101000a81548173ffffffffffffffffffffffffffffffffffffffff021916908373ffffffffffffffffffffffffffffffffffffffff16021790555080600660006101000a81548173ffffffffffffffffffffffffffffffffffffffff021916908373ffffffffffffffffffffffffffffffffffffffff16021790555033600760006101000a81548173ffffffffffffffffffffffffffffffffffffffff021916908373ffffffffffffffffffffffffffffffffffffffff16021790555050505050505062000934565b60008060009054906101000a900473ffffffffffffffffffffffffffffffffffffffff169050816000806101000a81548173ffffffffffffffffffffffffffffffffffffffff021916908373ffffffffffffffffffffffffffffffffffffffff1602179055508173ffffffffffffffffffffffffffffffffffffffff168173ffffffffffffffffffffffffffffffffffffffff167f8be0079c531659141344cd1fd0a4f28419497f9722a3daafe3b4186f6b6457e060405160405180910390a35050565b6000604051905090565b600080fd5b600080fd5b6000819050919050565b620002e681620002d1565b8114620002f257600080fd5b50565b6000815190506200030681620002db565b92915050565b600080fd5b600080fd5b6000601f19601f8301169050919050565b7f4e487b7100000000000000000000000000000000000000000000000000000000600052604160045260246000fd5b620003618262000316565b810181811067ffffffffffffffff8211171562000383576200038262000327565b5b80604052505050565b600062000398620002bd565b9050620003a6828262000356565b919050565b600067ffffffffffffffff821115620003c957620003c862000327565b5b620003d48262000316565b9050602081019050919050565b60005b8381101562000401578082015181840152602081019050620003e4565b60008484015250505050565b6000620004246200041e84620003ab565b6200038c565b90508281526020810184848401111562000443576200044262000311565b5b62000450848285620003e1565b509392505050565b600082601f83011262000470576200046f6200030c565b5b8151620004828482602086016200040d565b91505092915050565b600073ffffffffffffffffffffffffffffffffffffffff82169050919050565b6000620004b8826200048b565b9050919050565b620004ca81620004ab565b8114620004d657600080fd5b50565b600081519050620004ea81620004bf565b92915050565b60008060008060008060c0878903121562000510576200050f620002c7565b5b60006200052089828a01620002f5565b965050602087015167ffffffffffffffff811115620005445762000543620002cc565b5b6200055289828a0162000458565b955050604087015167ffffffffffffffff811115620005765762000575620002cc565b5b6200058489828a0162000458565b94505060606200059789828a01620002f5565b9350506080620005aa89828a01620004d9565b92505060a0620005bd89828a01620004d9565b9150509295509295509295565b6000620005d7826200048b565b9050919050565b620005e981620005ca565b82525050565b6000602082019050620006066000830184620005de565b92915050565b600081519050919050565b7f4e487b7100000000000000000000000000000000000000000000000000000000600052602260045260246000fd5b600060028204905060018216806200065f57607f821691505b60208210810362000675576200067462000617565b5b50919050565b60008190508160005260206000209050919050565b60006020601f8301049050919050565b600082821b905092915050565b600060088302620006df7fffffffffffffffffffffffffffffffffffffffffffffffffffffffffffffffff82620006a0565b620006eb8683620006a0565b95508019841693508086168417925050509392505050565b6000819050919050565b60006200072e620007286200072284620002d1565b62000703565b620002d1565b9050919050565b6000819050919050565b6200074a836200070d565b62000762620007598262000735565b848454620006ad565b825550505050565b600090565b620007796200076a565b620007868184846200073f565b505050565b5b81811015620007ae57620007a26000826200076f565b6001810190506200078c565b5050565b601f821115620007fd57620007c7816200067b565b620007d28462000690565b81016020851015620007e2578190505b620007fa620007f18562000690565b8301826200078b565b50505b505050565b600082821c905092915050565b6000620008226000198460080262000802565b1980831691505092915050565b60006200083d83836200080f565b9150826002028217905092915050565b62000858826200060c565b67ffffffffffffffff81111562000874576200087362000327565b5b62000880825462000646565b6200088d828285620007b2565b600060209050601f831160018114620008c55760008415620008b0578287015190505b620008bc85826200082f565b8655506200092c565b601f198416620008d5866200067b565b60005b82811015620008ff57848901518255600182019150602085019450602081019050620008d8565b868310156200091f57848901516200091b601f8916826200080f565b8355505b6001600288020188555050505b505050505050565b610a5b80620009446000396000f3fe608060405234801561001057600080fd5b506004361061007d5760003560e01c80638da5cb5b1161005b5780638da5cb5b146100c657806391b7f5ed146100e4578063c6326dd014610100578063f2fde38b1461011e5761007d565b80631297de081461008257806349109a401461009e578063715018a6146100bc575b600080fd5b61009c60048036038101906100979190610688565b61013a565b005b6100a661034f565b6040516100b391906106c4565b60405180910390f35b6100c46103ff565b005b6100ce610413565b6040516100db9190610720565b60405180910390f35b6100fe60048036038101906100f99190610688565b61043c565b005b61010861044e565b604051610115919061079a565b60405180910390f35b610138600480360381019061013391906107e1565b610474565b005b600454600660009054906101000a900473ffffffffffffffffffffffffffffffffffffffff1673ffffffffffffffffffffffffffffffffffffffff1663f8b2cb4f336040518263ffffffff1660e01b81526004016101989190610720565b602060405180830381865afa1580156101b5573d6000803e3d6000fd5b505050506040513d601f19601f820116820180604052508101906101d99190610823565b101561021a576040517f08c379a0000000000000000000000000000000000000000000000000000000008152600401610211906108ad565b60405180910390fd5b600760009054906101000a900473ffffffffffffffffffffffffffffffffffffffff1673ffffffffffffffffffffffffffffffffffffffff16636e9163c760015433600560009054906101000a900473ffffffffffffffffffffffffffffffffffffffff1673ffffffffffffffffffffffffffffffffffffffff16638da5cb5b6040518163ffffffff1660e01b8152600401602060405180830381865afa1580156102c9573d6000803e3d6000fd5b505050506040513d601f19601f820116820180604052508101906102ed91906108e2565b600454866102fb919061093e565b6040518563ffffffff1660e01b815260040161031a9493929190610980565b600060405180830381600087803b15801561033457600080fd5b505af1158015610348573d6000803e3d6000fd5b5050505050565b6000600454600660009054906101000a900473ffffffffffffffffffffffffffffffffffffffff1673ffffffffffffffffffffffffffffffffffffffff1663f8b2cb4f336040518263ffffffff1660e01b81526004016103af9190610720565b602060405180830381865afa1580156103cc573d6000803e3d6000fd5b505050506040513d601f19601f820116820180604052508101906103f09190610823565b6103fa91906109f4565b905090565b6104076104fa565b6104116000610581565b565b60008060009054906101000a900473ffffffffffffffffffffffffffffffffffffffff16905090565b6104446104fa565b8060048190555050565b600560009054906101000a900473ffffffffffffffffffffffffffffffffffffffff1681565b61047c6104fa565b600073ffffffffffffffffffffffffffffffffffffffff168173ffffffffffffffffffffffffffffffffffffffff16036104ee5760006040517f1e4fbdf70000000000000000000000000000000000000000000000000000000081526004016104e59190610720565b60405180910390fd5b6104f781610581565b50565b610502610645565b73ffffffffffffffffffffffffffffffffffffffff16610520610413565b73ffffffffffffffffffffffffffffffffffffffff161461057f57610543610645565b6040517f118cdaa70000000000000000000000000000000000000000000000000000000081526004016105769190610720565b60405180910390fd5b565b60008060009054906101000a900473ffffffffffffffffffffffffffffffffffffffff169050816000806101000a81548173ffffffffffffffffffffffffffffffffffffffff021916908373ffffffffffffffffffffffffffffffffffffffff1602179055508173ffffffffffffffffffffffffffffffffffffffff168173ffffffffffffffffffffffffffffffffffffffff167f8be0079c531659141344cd1fd0a4f28419497f9722a3daafe3b4186f6b6457e060405160405180910390a35050565b600033905090565b600080fd5b6000819050919050565b61066581610652565b811461067057600080fd5b50565b6000813590506106828161065c565b92915050565b60006020828403121561069e5761069d61064d565b5b60006106ac84828501610673565b91505092915050565b6106be81610652565b82525050565b60006020820190506106d960008301846106b5565b92915050565b600073ffffffffffffffffffffffffffffffffffffffff82169050919050565b600061070a826106df565b9050919050565b61071a816106ff565b82525050565b60006020820190506107356000830184610711565b92915050565b6000819050919050565b600061076061075b610756846106df565b61073b565b6106df565b9050919050565b600061077282610745565b9050919050565b600061078482610767565b9050919050565b61079481610779565b82525050565b60006020820190506107af600083018461078b565b92915050565b6107be816106ff565b81146107c957600080fd5b50565b6000813590506107db816107b5565b92915050565b6000602082840312156107f7576107f661064d565b5b6000610805848285016107cc565b91505092915050565b60008151905061081d8161065c565b92915050565b6000602082840312156108395761083861064d565b5b60006108478482850161080e565b91505092915050565b600082825260208201905092915050565b7f496e73756666696369656e742042616c616e6365000000000000000000000000600082015250565b6000610897601483610850565b91506108a282610861565b602082019050919050565b600060208201905081810360008301526108c68161088a565b9050919050565b6000815190506108dc816107b5565b92915050565b6000602082840312156108f8576108f761064d565b5b6000610906848285016108cd565b91505092915050565b7f4e487b7100000000000000000000000000000000000000000000000000000000600052601160045260246000fd5b600061094982610652565b915061095483610652565b925082820261096281610652565b915082820484148315176109795761097861090f565b5b5092915050565b600060808201905061099560008301876106b5565b6109a26020830186610711565b6109af6040830185610711565b6109bc60608301846106b5565b95945050505050565b7f4e487b7100000000000000000000000000000000000000000000000000000000600052601260045260246000fd5b60006109ff82610652565b9150610a0a83610652565b925082610a1a57610a196109c5565b5b82820490509291505056fea264697066735822122089f4dbb2c9c41ebbdd35178286f9762e39b3de27afedc2d68c057e7d76fb0d2564736f6c63430008180033a2646970667358221220a87b23bdc329052f5bfe0efa88691f827cb4f95dee146156acb69cdc8d03df5d64736f6c63430008180033",
  "linkReferences": {},
  "deployedLinkReferences": {}
}