{
  "_format": "hh-sol-artifact-1",
  "contractName": "Action",
  "sourceName": "contracts/Action.sol",
  "abi": [
    {
      "inputs": [
        {
          "internalType": "uint256",
          "name": "_id",
          "type": "uint256"
        },
        {
          "internalType": "string",
          "name": "_name",
          "type": "string"
        },
        {
          "internalType": "string",
          "name": "_unit",
          "type": "string"
        },
        {
          "internalType": "uint256",
          "name": "_pricePerUnit",
          "type": "uint256"
        },
        {
          "internalType": "address payable",
          "name": "_deviceAddress",
          "type": "address"
        }
      ],
      "stateMutability": "nonpayable",
      "type": "constructor"
    },
    {
      "inputs": [
        {
          "internalType": "address",
          "name": "owner",
          "type": "address"
        }
      ],
      "name": "OwnableInvalidOwner",
      "type": "error"
    },
    {
      "inputs": [
        {
          "internalType": "address",
          "name": "account",
          "type": "address"
        }
      ],
      "name": "OwnableUnauthorizedAccount",
      "type": "error"
    },
    {
      "anonymous": false,
      "inputs": [
        {
          "indexed": true,
          "internalType": "address",
          "name": "previousOwner",
          "type": "address"
        },
        {
          "indexed": true,
          "internalType": "address",
          "name": "newOwner",
          "type": "address"
        }
      ],
      "name": "OwnershipTransferred",
      "type": "event"
    },
    {
      "inputs": [],
      "name": "device",
      "outputs": [
        {
          "internalType": "contract Device",
          "name": "",
          "type": "address"
        }
      ],
      "stateMutability": "view",
      "type": "function"
    },
    {
      "inputs": [],
      "name": "getName",
      "outputs": [
        {
          "internalType": "string",
          "name": "",
          "type": "string"
        }
      ],
      "stateMutability": "view",
      "type": "function"
    },
    {
      "inputs": [],
      "name": "getPricePerUnit",
      "outputs": [
        {
          "internalType": "uint256",
          "name": "",
          "type": "uint256"
        }
      ],
      "stateMutability": "view",
      "type": "function"
    },
    {
      "inputs": [],
      "name": "getUnit",
      "outputs": [
        {
          "internalType": "string",
          "name": "",
          "type": "string"
        }
      ],
      "stateMutability": "view",
      "type": "function"
    },
    {
      "inputs": [],
      "name": "owner",
      "outputs": [
        {
          "internalType": "address",
          "name": "",
          "type": "address"
        }
      ],
      "stateMutability": "view",
      "type": "function"
    },
    {
      "inputs": [],
      "name": "renounceOwnership",
      "outputs": [],
      "stateMutability": "nonpayable",
      "type": "function"
    },
    {
      "inputs": [
        {
          "internalType": "string",
          "name": "_name",
          "type": "string"
        }
      ],
      "name": "setName",
      "outputs": [],
      "stateMutability": "nonpayable",
      "type": "function"
    },
    {
      "inputs": [
        {
          "internalType": "uint256",
          "name": "_price",
          "type": "uint256"
        }
      ],
      "name": "setPrice",
      "outputs": [],
      "stateMutability": "nonpayable",
      "type": "function"
    },
    {
      "inputs": [
        {
          "internalType": "string",
          "name": "_unit",
          "type": "string"
        }
      ],
      "name": "setUnit",
      "outputs": [],
      "stateMutability": "nonpayable",
      "type": "function"
    },
    {
      "inputs": [
        {
          "internalType": "address",
          "name": "newOwner",
          "type": "address"
        }
      ],
      "name": "transferOwnership",
      "outputs": [],
      "stateMutability": "nonpayable",
      "type": "function"
    },
    {
      "stateMutability": "payable",
      "type": "receive"
    }
  ],
  "bytecode": "0x60806040523480156200001157600080fd5b5060405162001b4038038062001b40833981810160405281019062000037919062000475565b33600073ffffffffffffffffffffffffffffffffffffffff168173ffffffffffffffffffffffffffffffffffffffff1603620000ad5760006040517f1e4fbdf7000000000000000000000000000000000000000000000000000000008152600401620000a4919062000560565b60405180910390fd5b620000be816200017e60201b60201c565b50846001819055508360029081620000d79190620007be565b508260039081620000e99190620007be565b508160048190555080600560006101000a81548173ffffffffffffffffffffffffffffffffffffffff021916908373ffffffffffffffffffffffffffffffffffffffff16021790555033600660006101000a81548173ffffffffffffffffffffffffffffffffffffffff021916908373ffffffffffffffffffffffffffffffffffffffff1602179055505050505050620008a5565b60008060009054906101000a900473ffffffffffffffffffffffffffffffffffffffff169050816000806101000a81548173ffffffffffffffffffffffffffffffffffffffff021916908373ffffffffffffffffffffffffffffffffffffffff1602179055508173ffffffffffffffffffffffffffffffffffffffff168173ffffffffffffffffffffffffffffffffffffffff167f8be0079c531659141344cd1fd0a4f28419497f9722a3daafe3b4186f6b6457e060405160405180910390a35050565b6000604051905090565b600080fd5b600080fd5b6000819050919050565b6200026b8162000256565b81146200027757600080fd5b50565b6000815190506200028b8162000260565b92915050565b600080fd5b600080fd5b6000601f19601f8301169050919050565b7f4e487b7100000000000000000000000000000000000000000000000000000000600052604160045260246000fd5b620002e6826200029b565b810181811067ffffffffffffffff82111715620003085762000307620002ac565b5b80604052505050565b60006200031d62000242565b90506200032b8282620002db565b919050565b600067ffffffffffffffff8211156200034e576200034d620002ac565b5b62000359826200029b565b9050602081019050919050565b60005b838110156200038657808201518184015260208101905062000369565b60008484015250505050565b6000620003a9620003a38462000330565b62000311565b905082815260208101848484011115620003c857620003c762000296565b5b620003d584828562000366565b509392505050565b600082601f830112620003f557620003f462000291565b5b81516200040784826020860162000392565b91505092915050565b600073ffffffffffffffffffffffffffffffffffffffff82169050919050565b60006200043d8262000410565b9050919050565b6200044f8162000430565b81146200045b57600080fd5b50565b6000815190506200046f8162000444565b92915050565b600080600080600060a086880312156200049457620004936200024c565b5b6000620004a4888289016200027a565b955050602086015167ffffffffffffffff811115620004c857620004c762000251565b5b620004d688828901620003dd565b945050604086015167ffffffffffffffff811115620004fa57620004f962000251565b5b6200050888828901620003dd565b93505060606200051b888289016200027a565b92505060806200052e888289016200045e565b9150509295509295909350565b6000620005488262000410565b9050919050565b6200055a816200053b565b82525050565b60006020820190506200057760008301846200054f565b92915050565b600081519050919050565b7f4e487b7100000000000000000000000000000000000000000000000000000000600052602260045260246000fd5b60006002820490506001821680620005d057607f821691505b602082108103620005e657620005e562000588565b5b50919050565b60008190508160005260206000209050919050565b60006020601f8301049050919050565b600082821b905092915050565b600060088302620006507fffffffffffffffffffffffffffffffffffffffffffffffffffffffffffffffff8262000611565b6200065c868362000611565b95508019841693508086168417925050509392505050565b6000819050919050565b60006200069f62000699620006938462000256565b62000674565b62000256565b9050919050565b6000819050919050565b620006bb836200067e565b620006d3620006ca82620006a6565b8484546200061e565b825550505050565b600090565b620006ea620006db565b620006f7818484620006b0565b505050565b5b818110156200071f5762000713600082620006e0565b600181019050620006fd565b5050565b601f8211156200076e576200073881620005ec565b620007438462000601565b8101602085101562000753578190505b6200076b620007628562000601565b830182620006fc565b50505b505050565b600082821c905092915050565b6000620007936000198460080262000773565b1980831691505092915050565b6000620007ae838362000780565b9150826002028217905092915050565b620007c9826200057d565b67ffffffffffffffff811115620007e557620007e4620002ac565b5b620007f18254620005b7565b620007fe82828562000723565b600060209050601f83116001811462000836576000841562000821578287015190505b6200082d8582620007a0565b8655506200089d565b601f1984166200084686620005ec565b60005b82811015620008705784890151825560018201915060208501945060208101905062000849565b868310156200089057848901516200088c601f89168262000780565b8355505b6001600288020188555050505b505050505050565b61128b80620008b56000396000f3fe6080604052600436106100955760003560e01c8063a7cc53f511610059578063a7cc53f514610419578063c47f002714610444578063c6326dd01461046d578063e55186a114610498578063f2fde38b146104c357610355565b806317d7de7c1461035a578063715018a6146103855780638221b09d1461039c5780638da5cb5b146103c557806391b7f5ed146103f057610355565b366103555760045434101561017857600660009054906101000a900473ffffffffffffffffffffffffffffffffffffffff1673ffffffffffffffffffffffffffffffffffffffff1663d80ab93a3060015433346004546040518663ffffffff1660e01b815260040161010b9594939291906108f8565b600060405180830381600087803b15801561012557600080fd5b505af1158015610139573d6000803e3d6000fd5b505050506040517f08c379a000000000000000000000000000000000000000000000000000000000815260040161016f906109a8565b60405180910390fd5b6000600560009054906101000a900473ffffffffffffffffffffffffffffffffffffffff1673ffffffffffffffffffffffffffffffffffffffff16638da5cb5b6040518163ffffffff1660e01b8152600401602060405180830381865afa1580156101e7573d6000803e3d6000fd5b505050506040513d601f19601f8201168201806040525081019061020b9190610a08565b73ffffffffffffffffffffffffffffffffffffffff163460405161022e90610a66565b60006040518083038185875af1925050503d806000811461026b576040519150601f19603f3d011682016040523d82523d6000602084013e610270565b606091505b50509050806102b4576040517f08c379a00000000000000000000000000000000000000000000000000000000081526004016102ab90610ac7565b60405180910390fd5b600660009054906101000a900473ffffffffffffffffffffffffffffffffffffffff1673ffffffffffffffffffffffffffffffffffffffff166337e43129306001546002600454346103069190610b16565b6040518563ffffffff1660e01b81526004016103259493929190610c40565b600060405180830381600087803b15801561033f57600080fd5b505af1158015610353573d6000803e3d6000fd5b005b600080fd5b34801561036657600080fd5b5061036f6104ec565b60405161037c9190610d0b565b60405180910390f35b34801561039157600080fd5b5061039a61057e565b005b3480156103a857600080fd5b506103c360048036038101906103be9190610e62565b610592565b005b3480156103d157600080fd5b506103da6105ad565b6040516103e79190610eab565b60405180910390f35b3480156103fc57600080fd5b5061041760048036038101906104129190610ef2565b6105d6565b005b34801561042557600080fd5b5061042e6105e8565b60405161043b9190610f1f565b60405180910390f35b34801561045057600080fd5b5061046b60048036038101906104669190610e62565b6105f2565b005b34801561047957600080fd5b5061048261060d565b60405161048f9190610f99565b60405180910390f35b3480156104a457600080fd5b506104ad610633565b6040516104ba9190610d0b565b60405180910390f35b3480156104cf57600080fd5b506104ea60048036038101906104e59190610fc9565b6106c5565b005b6060600280546104fb90610b76565b80601f016020809104026020016040519081016040528092919081815260200182805461052790610b76565b80156105745780601f1061054957610100808354040283529160200191610574565b820191906000526020600020905b81548152906001019060200180831161055757829003601f168201915b5050505050905090565b61058661074b565b61059060006107d2565b565b61059a61074b565b80600390816105a99190611183565b5050565b60008060009054906101000a900473ffffffffffffffffffffffffffffffffffffffff16905090565b6105de61074b565b8060048190555050565b6000600454905090565b6105fa61074b565b80600290816106099190611183565b5050565b600560009054906101000a900473ffffffffffffffffffffffffffffffffffffffff1681565b60606003805461064290610b76565b80601f016020809104026020016040519081016040528092919081815260200182805461066e90610b76565b80156106bb5780601f10610690576101008083540402835291602001916106bb565b820191906000526020600020905b81548152906001019060200180831161069e57829003601f168201915b5050505050905090565b6106cd61074b565b600073ffffffffffffffffffffffffffffffffffffffff168173ffffffffffffffffffffffffffffffffffffffff160361073f5760006040517f1e4fbdf70000000000000000000000000000000000000000000000000000000081526004016107369190610eab565b60405180910390fd5b610748816107d2565b50565b610753610896565b73ffffffffffffffffffffffffffffffffffffffff166107716105ad565b73ffffffffffffffffffffffffffffffffffffffff16146107d057610794610896565b6040517f118cdaa70000000000000000000000000000000000000000000000000000000081526004016107c79190610eab565b60405180910390fd5b565b60008060009054906101000a900473ffffffffffffffffffffffffffffffffffffffff169050816000806101000a81548173ffffffffffffffffffffffffffffffffffffffff021916908373ffffffffffffffffffffffffffffffffffffffff1602179055508173ffffffffffffffffffffffffffffffffffffffff168173ffffffffffffffffffffffffffffffffffffffff167f8be0079c531659141344cd1fd0a4f28419497f9722a3daafe3b4186f6b6457e060405160405180910390a35050565b600033905090565b600073ffffffffffffffffffffffffffffffffffffffff82169050919050565b60006108c98261089e565b9050919050565b6108d9816108be565b82525050565b6000819050919050565b6108f2816108df565b82525050565b600060a08201905061090d60008301886108d0565b61091a60208301876108e9565b61092760408301866108d0565b61093460608301856108e9565b61094160808301846108e9565b9695505050505050565b600082825260208201905092915050565b7f496e73756666696369656e74207061796d656e74000000000000000000000000600082015250565b600061099260148361094b565b915061099d8261095c565b602082019050919050565b600060208201905081810360008301526109c181610985565b9050919050565b6000604051905090565b600080fd5b600080fd5b6109e5816108be565b81146109f057600080fd5b50565b600081519050610a02816109dc565b92915050565b600060208284031215610a1e57610a1d6109d2565b5b6000610a2c848285016109f3565b91505092915050565b600081905092915050565b50565b6000610a50600083610a35565b9150610a5b82610a40565b600082019050919050565b6000610a7182610a43565b9150819050919050565b7f5472616e73666572206661696c65640000000000000000000000000000000000600082015250565b6000610ab1600f8361094b565b9150610abc82610a7b565b602082019050919050565b60006020820190508181036000830152610ae081610aa4565b9050919050565b7f4e487b7100000000000000000000000000000000000000000000000000000000600052601260045260246000fd5b6000610b21826108df565b9150610b2c836108df565b925082610b3c57610b3b610ae7565b5b828204905092915050565b7f4e487b7100000000000000000000000000000000000000000000000000000000600052602260045260246000fd5b60006002820490506001821680610b8e57607f821691505b602082108103610ba157610ba0610b47565b5b50919050565b60008190508160005260206000209050919050565b60008154610bc981610b76565b610bd3818661094b565b94506001821660008114610bee5760018114610c0457610c37565b60ff198316865281151560200286019350610c37565b610c0d85610ba7565b60005b83811015610c2f57815481890152600182019150602081019050610c10565b808801955050505b50505092915050565b6000608082019050610c5560008301876108d0565b610c6260208301866108e9565b8181036040830152610c748185610bbc565b9050610c8360608301846108e9565b95945050505050565b600081519050919050565b60005b83811015610cb5578082015181840152602081019050610c9a565b60008484015250505050565b6000601f19601f8301169050919050565b6000610cdd82610c8c565b610ce7818561094b565b9350610cf7818560208601610c97565b610d0081610cc1565b840191505092915050565b60006020820190508181036000830152610d258184610cd2565b905092915050565b600080fd5b600080fd5b7f4e487b7100000000000000000000000000000000000000000000000000000000600052604160045260246000fd5b610d6f82610cc1565b810181811067ffffffffffffffff82111715610d8e57610d8d610d37565b5b80604052505050565b6000610da16109c8565b9050610dad8282610d66565b919050565b600067ffffffffffffffff821115610dcd57610dcc610d37565b5b610dd682610cc1565b9050602081019050919050565b82818337600083830152505050565b6000610e05610e0084610db2565b610d97565b905082815260208101848484011115610e2157610e20610d32565b5b610e2c848285610de3565b509392505050565b600082601f830112610e4957610e48610d2d565b5b8135610e59848260208601610df2565b91505092915050565b600060208284031215610e7857610e776109d2565b5b600082013567ffffffffffffffff811115610e9657610e956109d7565b5b610ea284828501610e34565b91505092915050565b6000602082019050610ec060008301846108d0565b92915050565b610ecf816108df565b8114610eda57600080fd5b50565b600081359050610eec81610ec6565b92915050565b600060208284031215610f0857610f076109d2565b5b6000610f1684828501610edd565b91505092915050565b6000602082019050610f3460008301846108e9565b92915050565b6000819050919050565b6000610f5f610f5a610f558461089e565b610f3a565b61089e565b9050919050565b6000610f7182610f44565b9050919050565b6000610f8382610f66565b9050919050565b610f9381610f78565b82525050565b6000602082019050610fae6000830184610f8a565b92915050565b600081359050610fc3816109dc565b92915050565b600060208284031215610fdf57610fde6109d2565b5b6000610fed84828501610fb4565b91505092915050565b60006020601f8301049050919050565b600082821b905092915050565b6000600883026110437fffffffffffffffffffffffffffffffffffffffffffffffffffffffffffffffff82611006565b61104d8683611006565b95508019841693508086168417925050509392505050565b600061108061107b611076846108df565b610f3a565b6108df565b9050919050565b6000819050919050565b61109a83611065565b6110ae6110a682611087565b848454611013565b825550505050565b600090565b6110c36110b6565b6110ce818484611091565b505050565b5b818110156110f2576110e76000826110bb565b6001810190506110d4565b5050565b601f8211156111375761110881610ba7565b61111184610ff6565b81016020851015611120578190505b61113461112c85610ff6565b8301826110d3565b50505b505050565b600082821c905092915050565b600061115a6000198460080261113c565b1980831691505092915050565b60006111738383611149565b9150826002028217905092915050565b61118c82610c8c565b67ffffffffffffffff8111156111a5576111a4610d37565b5b6111af8254610b76565b6111ba8282856110f6565b600060209050601f8311600181146111ed57600084156111db578287015190505b6111e58582611167565b86555061124d565b601f1984166111fb86610ba7565b60005b82811015611223578489015182556001820191506020850194506020810190506111fe565b86831015611240578489015161123c601f891682611149565b8355505b6001600288020188555050505b50505050505056fea2646970667358221220816dd29b20cf40d71486f17929b1751bd350cce2244645683346cf4d5da36adc64736f6c63430008180033",
  "linkReferences": {},
  "deployedLinkReferences": {}
}