{
  "_format": "hh-sol-artifact-1",
  "contractName": "Action",
  "sourceName": "contracts/Action.sol",
  "abi": [
    {
      "inputs": [
        {
          "internalType": "uint256",
          "name": "_id",
          "type": "uint256"
        },
        {
          "internalType": "string",
          "name": "_name",
          "type": "string"
        },
        {
          "internalType": "string",
          "name": "_unit",
          "type": "string"
        },
        {
          "internalType": "uint256",
          "name": "_pricePerUnit",
          "type": "uint256"
        },
        {
          "internalType": "address payable",
          "name": "_deviceAddress",
          "type": "address"
        },
        {
          "internalType": "address payable",
          "name": "_balanceAddress",
          "type": "address"
        }
      ],
      "stateMutability": "nonpayable",
      "type": "constructor"
    },
    {
      "inputs": [
        {
          "internalType": "address",
          "name": "owner",
          "type": "address"
        }
      ],
      "name": "OwnableInvalidOwner",
      "type": "error"
    },
    {
      "inputs": [
        {
          "internalType": "address",
          "name": "account",
          "type": "address"
        }
      ],
      "name": "OwnableUnauthorizedAccount",
      "type": "error"
    },
    {
      "anonymous": false,
      "inputs": [
        {
          "indexed": true,
          "internalType": "address",
          "name": "previousOwner",
          "type": "address"
        },
        {
          "indexed": true,
          "internalType": "address",
          "name": "newOwner",
          "type": "address"
        }
      ],
      "name": "OwnershipTransferred",
      "type": "event"
    },
    {
      "inputs": [],
      "name": "device",
      "outputs": [
        {
          "internalType": "contract Device",
          "name": "",
          "type": "address"
        }
      ],
      "stateMutability": "view",
      "type": "function"
    },
    {
      "inputs": [],
      "name": "getName",
      "outputs": [
        {
          "internalType": "string",
          "name": "",
          "type": "string"
        }
      ],
      "stateMutability": "view",
      "type": "function"
    },
    {
      "inputs": [],
      "name": "getPricePerUnit",
      "outputs": [
        {
          "internalType": "uint256",
          "name": "",
          "type": "uint256"
        }
      ],
      "stateMutability": "view",
      "type": "function"
    },
    {
      "inputs": [],
      "name": "getUnit",
      "outputs": [
        {
          "internalType": "string",
          "name": "",
          "type": "string"
        }
      ],
      "stateMutability": "view",
      "type": "function"
    },
    {
      "inputs": [],
      "name": "owner",
      "outputs": [
        {
          "internalType": "address",
          "name": "",
          "type": "address"
        }
      ],
      "stateMutability": "view",
      "type": "function"
    },
    {
      "inputs": [
        {
          "internalType": "uint256",
          "name": "_amount",
          "type": "uint256"
        }
      ],
      "name": "payActionWithBalance",
      "outputs": [],
      "stateMutability": "nonpayable",
      "type": "function"
    },
    {
      "inputs": [],
      "name": "possibleActionsAmount",
      "outputs": [
        {
          "internalType": "uint256",
          "name": "",
          "type": "uint256"
        }
      ],
      "stateMutability": "view",
      "type": "function"
    },
    {
      "inputs": [],
      "name": "renounceOwnership",
      "outputs": [],
      "stateMutability": "nonpayable",
      "type": "function"
    },
    {
      "inputs": [
        {
          "internalType": "string",
          "name": "_name",
          "type": "string"
        }
      ],
      "name": "setName",
      "outputs": [],
      "stateMutability": "nonpayable",
      "type": "function"
    },
    {
      "inputs": [
        {
          "internalType": "uint256",
          "name": "_price",
          "type": "uint256"
        }
      ],
      "name": "setPrice",
      "outputs": [],
      "stateMutability": "nonpayable",
      "type": "function"
    },
    {
      "inputs": [
        {
          "internalType": "string",
          "name": "_unit",
          "type": "string"
        }
      ],
      "name": "setUnit",
      "outputs": [],
      "stateMutability": "nonpayable",
      "type": "function"
    },
    {
      "inputs": [
        {
          "internalType": "address",
          "name": "newOwner",
          "type": "address"
        }
      ],
      "name": "transferOwnership",
      "outputs": [],
      "stateMutability": "nonpayable",
      "type": "function"
    },
    {
      "stateMutability": "payable",
      "type": "receive"
    }
  ],
  "bytecode": "0x60806040523480156200001157600080fd5b506040516200217a3803806200217a8339818101604052810190620000379190620004b7565b33600073ffffffffffffffffffffffffffffffffffffffff168173ffffffffffffffffffffffffffffffffffffffff1603620000ad5760006040517f1e4fbdf7000000000000000000000000000000000000000000000000000000008152600401620000a49190620005b6565b60405180910390fd5b620000be81620001c060201b60201c565b50856001819055508460029081620000d7919062000814565b508360039081620000e9919062000814565b508260048190555081600560006101000a81548173ffffffffffffffffffffffffffffffffffffffff021916908373ffffffffffffffffffffffffffffffffffffffff16021790555080600660006101000a81548173ffffffffffffffffffffffffffffffffffffffff021916908373ffffffffffffffffffffffffffffffffffffffff16021790555033600760006101000a81548173ffffffffffffffffffffffffffffffffffffffff021916908373ffffffffffffffffffffffffffffffffffffffff160217905550505050505050620008fb565b60008060009054906101000a900473ffffffffffffffffffffffffffffffffffffffff169050816000806101000a81548173ffffffffffffffffffffffffffffffffffffffff021916908373ffffffffffffffffffffffffffffffffffffffff1602179055508173ffffffffffffffffffffffffffffffffffffffff168173ffffffffffffffffffffffffffffffffffffffff167f8be0079c531659141344cd1fd0a4f28419497f9722a3daafe3b4186f6b6457e060405160405180910390a35050565b6000604051905090565b600080fd5b600080fd5b6000819050919050565b620002ad8162000298565b8114620002b957600080fd5b50565b600081519050620002cd81620002a2565b92915050565b600080fd5b600080fd5b6000601f19601f8301169050919050565b7f4e487b7100000000000000000000000000000000000000000000000000000000600052604160045260246000fd5b6200032882620002dd565b810181811067ffffffffffffffff821117156200034a5762000349620002ee565b5b80604052505050565b60006200035f62000284565b90506200036d82826200031d565b919050565b600067ffffffffffffffff82111562000390576200038f620002ee565b5b6200039b82620002dd565b9050602081019050919050565b60005b83811015620003c8578082015181840152602081019050620003ab565b60008484015250505050565b6000620003eb620003e58462000372565b62000353565b9050828152602081018484840111156200040a5762000409620002d8565b5b62000417848285620003a8565b509392505050565b600082601f830112620004375762000436620002d3565b5b815162000449848260208601620003d4565b91505092915050565b600073ffffffffffffffffffffffffffffffffffffffff82169050919050565b60006200047f8262000452565b9050919050565b620004918162000472565b81146200049d57600080fd5b50565b600081519050620004b18162000486565b92915050565b60008060008060008060c08789031215620004d757620004d66200028e565b5b6000620004e789828a01620002bc565b965050602087015167ffffffffffffffff8111156200050b576200050a62000293565b5b6200051989828a016200041f565b955050604087015167ffffffffffffffff8111156200053d576200053c62000293565b5b6200054b89828a016200041f565b94505060606200055e89828a01620002bc565b93505060806200057189828a01620004a0565b92505060a06200058489828a01620004a0565b9150509295509295509295565b60006200059e8262000452565b9050919050565b620005b08162000591565b82525050565b6000602082019050620005cd6000830184620005a5565b92915050565b600081519050919050565b7f4e487b7100000000000000000000000000000000000000000000000000000000600052602260045260246000fd5b600060028204905060018216806200062657607f821691505b6020821081036200063c576200063b620005de565b5b50919050565b60008190508160005260206000209050919050565b60006020601f8301049050919050565b600082821b905092915050565b600060088302620006a67fffffffffffffffffffffffffffffffffffffffffffffffffffffffffffffffff8262000667565b620006b2868362000667565b95508019841693508086168417925050509392505050565b6000819050919050565b6000620006f5620006ef620006e98462000298565b620006ca565b62000298565b9050919050565b6000819050919050565b6200071183620006d4565b620007296200072082620006fc565b84845462000674565b825550505050565b600090565b6200074062000731565b6200074d81848462000706565b505050565b5b8181101562000775576200076960008262000736565b60018101905062000753565b5050565b601f821115620007c4576200078e8162000642565b620007998462000657565b81016020851015620007a9578190505b620007c1620007b88562000657565b83018262000752565b50505b505050565b600082821c905092915050565b6000620007e960001984600802620007c9565b1980831691505092915050565b6000620008048383620007d6565b9150826002028217905092915050565b6200081f82620005d3565b67ffffffffffffffff8111156200083b576200083a620002ee565b5b6200084782546200060d565b6200085482828562000779565b600060209050601f8311600181146200088c576000841562000877578287015190505b620008838582620007f6565b865550620008f3565b601f1984166200089c8662000642565b60005b82811015620008c6578489015182556001820191506020850194506020810190506200089f565b86831015620008e65784890151620008e2601f891682620007d6565b8355505b6001600288020188555050505b505050505050565b61186f806200090b6000396000f3fe6080604052600436106100ab5760003560e01c8063a7cc53f511610064578063a7cc53f51461045a578063c47f002714610485578063c6326dd0146104ae578063da92adcb146104d9578063e55186a114610502578063f2fde38b1461052d5761036b565b806317d7de7c1461037057806349109a401461039b578063715018a6146103c65780638221b09d146103dd5780638da5cb5b1461040657806391b7f5ed146104315761036b565b3661036b5760045434101561018e57600760009054906101000a900473ffffffffffffffffffffffffffffffffffffffff1673ffffffffffffffffffffffffffffffffffffffff1663d80ab93a3060015433346004546040518663ffffffff1660e01b8152600401610121959493929190610d13565b600060405180830381600087803b15801561013b57600080fd5b505af115801561014f573d6000803e3d6000fd5b505050506040517f08c379a000000000000000000000000000000000000000000000000000000000815260040161018590610dc3565b60405180910390fd5b6000600560009054906101000a900473ffffffffffffffffffffffffffffffffffffffff1673ffffffffffffffffffffffffffffffffffffffff16638da5cb5b6040518163ffffffff1660e01b8152600401602060405180830381865afa1580156101fd573d6000803e3d6000fd5b505050506040513d601f19601f820116820180604052508101906102219190610e23565b73ffffffffffffffffffffffffffffffffffffffff163460405161024490610e81565b60006040518083038185875af1925050503d8060008114610281576040519150601f19603f3d011682016040523d82523d6000602084013e610286565b606091505b50509050806102ca576040517f08c379a00000000000000000000000000000000000000000000000000000000081526004016102c190610ee2565b60405180910390fd5b600760009054906101000a900473ffffffffffffffffffffffffffffffffffffffff1673ffffffffffffffffffffffffffffffffffffffff166337e431293060015460026004543461031c9190610f60565b6040518563ffffffff1660e01b815260040161033b949392919061108a565b600060405180830381600087803b15801561035557600080fd5b505af1158015610369573d6000803e3d6000fd5b005b600080fd5b34801561037c57600080fd5b50610385610556565b6040516103929190611155565b60405180910390f35b3480156103a757600080fd5b506103b06105e8565b6040516103bd9190611177565b60405180910390f35b3480156103d257600080fd5b506103db610698565b005b3480156103e957600080fd5b5061040460048036038101906103ff91906112c7565b6106ac565b005b34801561041257600080fd5b5061041b6106c7565b6040516104289190611310565b60405180910390f35b34801561043d57600080fd5b5061045860048036038101906104539190611357565b6106f0565b005b34801561046657600080fd5b5061046f610702565b60405161047c9190611177565b60405180910390f35b34801561049157600080fd5b506104ac60048036038101906104a791906112c7565b61070c565b005b3480156104ba57600080fd5b506104c3610727565b6040516104d091906113e3565b60405180910390f35b3480156104e557600080fd5b5061050060048036038101906104fb9190611357565b61074d565b005b34801561050e57600080fd5b50610517610a4e565b6040516105249190611155565b60405180910390f35b34801561053957600080fd5b50610554600480360381019061054f9190611413565b610ae0565b005b60606002805461056590610fc0565b80601f016020809104026020016040519081016040528092919081815260200182805461059190610fc0565b80156105de5780601f106105b3576101008083540402835291602001916105de565b820191906000526020600020905b8154815290600101906020018083116105c157829003601f168201915b5050505050905090565b6000600454600660009054906101000a900473ffffffffffffffffffffffffffffffffffffffff1673ffffffffffffffffffffffffffffffffffffffff1663f8b2cb4f336040518263ffffffff1660e01b81526004016106489190611310565b602060405180830381865afa158015610665573d6000803e3d6000fd5b505050506040513d601f19601f820116820180604052508101906106899190611455565b6106939190610f60565b905090565b6106a0610b66565b6106aa6000610bed565b565b6106b4610b66565b80600390816106c3919061160f565b5050565b60008060009054906101000a900473ffffffffffffffffffffffffffffffffffffffff16905090565b6106f8610b66565b8060048190555050565b6000600454905090565b610714610b66565b8060029081610723919061160f565b5050565b600560009054906101000a900473ffffffffffffffffffffffffffffffffffffffff1681565b600454600660009054906101000a900473ffffffffffffffffffffffffffffffffffffffff1673ffffffffffffffffffffffffffffffffffffffff1663f8b2cb4f336040518263ffffffff1660e01b81526004016107ab9190611310565b602060405180830381865afa1580156107c8573d6000803e3d6000fd5b505050506040513d601f19601f820116820180604052508101906107ec9190611455565b101561082d576040517f08c379a00000000000000000000000000000000000000000000000000000000081526004016108249061172d565b60405180910390fd5b6000600760009054906101000a900473ffffffffffffffffffffffffffffffffffffffff1673ffffffffffffffffffffffffffffffffffffffff16636e9163c760015433600560009054906101000a900473ffffffffffffffffffffffffffffffffffffffff1673ffffffffffffffffffffffffffffffffffffffff16638da5cb5b6040518163ffffffff1660e01b8152600401602060405180830381865afa1580156108de573d6000803e3d6000fd5b505050506040513d601f19601f820116820180604052508101906109029190610e23565b60045487610910919061174d565b6040518563ffffffff1660e01b815260040161092f949392919061178f565b6020604051808303816000875af115801561094e573d6000803e3d6000fd5b505050506040513d601f19601f82011682018060405250810190610972919061180c565b9050806109b4576040517f08c379a00000000000000000000000000000000000000000000000000000000081526004016109ab90610ee2565b60405180910390fd5b600760009054906101000a900473ffffffffffffffffffffffffffffffffffffffff1673ffffffffffffffffffffffffffffffffffffffff166337e43129306001546002866040518563ffffffff1660e01b8152600401610a18949392919061108a565b600060405180830381600087803b158015610a3257600080fd5b505af1158015610a46573d6000803e3d6000fd5b505050505050565b606060038054610a5d90610fc0565b80601f0160208091040260200160405190810160405280929190818152602001828054610a8990610fc0565b8015610ad65780601f10610aab57610100808354040283529160200191610ad6565b820191906000526020600020905b815481529060010190602001808311610ab957829003601f168201915b5050505050905090565b610ae8610b66565b600073ffffffffffffffffffffffffffffffffffffffff168173ffffffffffffffffffffffffffffffffffffffff1603610b5a5760006040517f1e4fbdf7000000000000000000000000000000000000000000000000000000008152600401610b519190611310565b60405180910390fd5b610b6381610bed565b50565b610b6e610cb1565b73ffffffffffffffffffffffffffffffffffffffff16610b8c6106c7565b73ffffffffffffffffffffffffffffffffffffffff1614610beb57610baf610cb1565b6040517f118cdaa7000000000000000000000000000000000000000000000000000000008152600401610be29190611310565b60405180910390fd5b565b60008060009054906101000a900473ffffffffffffffffffffffffffffffffffffffff169050816000806101000a81548173ffffffffffffffffffffffffffffffffffffffff021916908373ffffffffffffffffffffffffffffffffffffffff1602179055508173ffffffffffffffffffffffffffffffffffffffff168173ffffffffffffffffffffffffffffffffffffffff167f8be0079c531659141344cd1fd0a4f28419497f9722a3daafe3b4186f6b6457e060405160405180910390a35050565b600033905090565b600073ffffffffffffffffffffffffffffffffffffffff82169050919050565b6000610ce482610cb9565b9050919050565b610cf481610cd9565b82525050565b6000819050919050565b610d0d81610cfa565b82525050565b600060a082019050610d286000830188610ceb565b610d356020830187610d04565b610d426040830186610ceb565b610d4f6060830185610d04565b610d5c6080830184610d04565b9695505050505050565b600082825260208201905092915050565b7f496e73756666696369656e74207061796d656e74000000000000000000000000600082015250565b6000610dad601483610d66565b9150610db882610d77565b602082019050919050565b60006020820190508181036000830152610ddc81610da0565b9050919050565b6000604051905090565b600080fd5b600080fd5b610e0081610cd9565b8114610e0b57600080fd5b50565b600081519050610e1d81610df7565b92915050565b600060208284031215610e3957610e38610ded565b5b6000610e4784828501610e0e565b91505092915050565b600081905092915050565b50565b6000610e6b600083610e50565b9150610e7682610e5b565b600082019050919050565b6000610e8c82610e5e565b9150819050919050565b7f5472616e73666572206661696c65640000000000000000000000000000000000600082015250565b6000610ecc600f83610d66565b9150610ed782610e96565b602082019050919050565b60006020820190508181036000830152610efb81610ebf565b9050919050565b7f4e487b7100000000000000000000000000000000000000000000000000000000600052601260045260246000fd5b7f4e487b7100000000000000000000000000000000000000000000000000000000600052601160045260246000fd5b6000610f6b82610cfa565b9150610f7683610cfa565b925082610f8657610f85610f02565b5b828204905092915050565b7f4e487b7100000000000000000000000000000000000000000000000000000000600052602260045260246000fd5b60006002820490506001821680610fd857607f821691505b602082108103610feb57610fea610f91565b5b50919050565b60008190508160005260206000209050919050565b6000815461101381610fc0565b61101d8186610d66565b94506001821660008114611038576001811461104e57611081565b60ff198316865281151560200286019350611081565b61105785610ff1565b60005b838110156110795781548189015260018201915060208101905061105a565b808801955050505b50505092915050565b600060808201905061109f6000830187610ceb565b6110ac6020830186610d04565b81810360408301526110be8185611006565b90506110cd6060830184610d04565b95945050505050565b600081519050919050565b60005b838110156110ff5780820151818401526020810190506110e4565b60008484015250505050565b6000601f19601f8301169050919050565b6000611127826110d6565b6111318185610d66565b93506111418185602086016110e1565b61114a8161110b565b840191505092915050565b6000602082019050818103600083015261116f818461111c565b905092915050565b600060208201905061118c6000830184610d04565b92915050565b600080fd5b600080fd5b7f4e487b7100000000000000000000000000000000000000000000000000000000600052604160045260246000fd5b6111d48261110b565b810181811067ffffffffffffffff821117156111f3576111f261119c565b5b80604052505050565b6000611206610de3565b905061121282826111cb565b919050565b600067ffffffffffffffff8211156112325761123161119c565b5b61123b8261110b565b9050602081019050919050565b82818337600083830152505050565b600061126a61126584611217565b6111fc565b90508281526020810184848401111561128657611285611197565b5b611291848285611248565b509392505050565b600082601f8301126112ae576112ad611192565b5b81356112be848260208601611257565b91505092915050565b6000602082840312156112dd576112dc610ded565b5b600082013567ffffffffffffffff8111156112fb576112fa610df2565b5b61130784828501611299565b91505092915050565b60006020820190506113256000830184610ceb565b92915050565b61133481610cfa565b811461133f57600080fd5b50565b6000813590506113518161132b565b92915050565b60006020828403121561136d5761136c610ded565b5b600061137b84828501611342565b91505092915050565b6000819050919050565b60006113a96113a461139f84610cb9565b611384565b610cb9565b9050919050565b60006113bb8261138e565b9050919050565b60006113cd826113b0565b9050919050565b6113dd816113c2565b82525050565b60006020820190506113f860008301846113d4565b92915050565b60008135905061140d81610df7565b92915050565b60006020828403121561142957611428610ded565b5b6000611437848285016113fe565b91505092915050565b60008151905061144f8161132b565b92915050565b60006020828403121561146b5761146a610ded565b5b600061147984828501611440565b91505092915050565b60006020601f8301049050919050565b600082821b905092915050565b6000600883026114cf7fffffffffffffffffffffffffffffffffffffffffffffffffffffffffffffffff82611492565b6114d98683611492565b95508019841693508086168417925050509392505050565b600061150c61150761150284610cfa565b611384565b610cfa565b9050919050565b6000819050919050565b611526836114f1565b61153a61153282611513565b84845461149f565b825550505050565b600090565b61154f611542565b61155a81848461151d565b505050565b5b8181101561157e57611573600082611547565b600181019050611560565b5050565b601f8211156115c35761159481610ff1565b61159d84611482565b810160208510156115ac578190505b6115c06115b885611482565b83018261155f565b50505b505050565b600082821c905092915050565b60006115e6600019846008026115c8565b1980831691505092915050565b60006115ff83836115d5565b9150826002028217905092915050565b611618826110d6565b67ffffffffffffffff8111156116315761163061119c565b5b61163b8254610fc0565b611646828285611582565b600060209050601f8311600181146116795760008415611667578287015190505b61167185826115f3565b8655506116d9565b601f19841661168786610ff1565b60005b828110156116af5784890151825560018201915060208501945060208101905061168a565b868310156116cc57848901516116c8601f8916826115d5565b8355505b6001600288020188555050505b505050505050565b7f496e73756666696369656e742042616c616e6365000000000000000000000000600082015250565b6000611717601483610d66565b9150611722826116e1565b602082019050919050565b600060208201905081810360008301526117468161170a565b9050919050565b600061175882610cfa565b915061176383610cfa565b925082820261177181610cfa565b9150828204841483151761178857611787610f31565b5b5092915050565b60006080820190506117a46000830187610d04565b6117b16020830186610ceb565b6117be6040830185610ceb565b6117cb6060830184610d04565b95945050505050565b60008115159050919050565b6117e9816117d4565b81146117f457600080fd5b50565b600081519050611806816117e0565b92915050565b60006020828403121561182257611821610ded565b5b6000611830848285016117f7565b9150509291505056fea26469706673582212202d61f0db5c009a4ee27271426c9772ee5e3476cb8455901c9fa5b5d03a2364df64736f6c63430008180033",
  "linkReferences": {},
  "deployedLinkReferences": {}
}