{
  "_format": "hh-sol-artifact-1",
  "contractName": "ActionFactory",
  "sourceName": "contracts/ActionFactory.sol",
  "abi": [
    {
      "inputs": [],
      "stateMutability": "nonpayable",
      "type": "constructor"
    },
    {
      "inputs": [
        {
          "internalType": "address",
          "name": "owner",
          "type": "address"
        }
      ],
      "name": "OwnableInvalidOwner",
      "type": "error"
    },
    {
      "inputs": [
        {
          "internalType": "address",
          "name": "account",
          "type": "address"
        }
      ],
      "name": "OwnableUnauthorizedAccount",
      "type": "error"
    },
    {
      "anonymous": false,
      "inputs": [
        {
          "indexed": true,
          "internalType": "address",
          "name": "action",
          "type": "address"
        },
        {
          "indexed": true,
          "internalType": "uint256",
          "name": "id",
          "type": "uint256"
        },
        {
          "indexed": false,
          "internalType": "string",
          "name": "name",
          "type": "string"
        },
        {
          "indexed": false,
          "internalType": "string",
          "name": "unit",
          "type": "string"
        },
        {
          "indexed": false,
          "internalType": "uint256",
          "name": "pricePerUnit",
          "type": "uint256"
        },
        {
          "indexed": false,
          "internalType": "address",
          "name": "deviceAddress",
          "type": "address"
        },
        {
          "indexed": false,
          "internalType": "address",
          "name": "_organisationAddress",
          "type": "address"
        }
      ],
      "name": "ActionCreated",
      "type": "event"
    },
    {
      "anonymous": false,
      "inputs": [
        {
          "indexed": true,
          "internalType": "uint256",
          "name": "id",
          "type": "uint256"
        }
      ],
      "name": "ActionDeleted",
      "type": "event"
    },
    {
      "anonymous": false,
      "inputs": [
        {
          "indexed": true,
          "internalType": "uint256",
          "name": "id",
          "type": "uint256"
        },
        {
          "indexed": false,
          "internalType": "string",
          "name": "newName",
          "type": "string"
        },
        {
          "indexed": false,
          "internalType": "string",
          "name": "newUnit",
          "type": "string"
        },
        {
          "indexed": false,
          "internalType": "uint256",
          "name": "newPrice",
          "type": "uint256"
        }
      ],
      "name": "ActionUpdated",
      "type": "event"
    },
    {
      "anonymous": false,
      "inputs": [
        {
          "indexed": false,
          "internalType": "address",
          "name": "actionAddress",
          "type": "address"
        },
        {
          "indexed": false,
          "internalType": "uint256",
          "name": "actionId",
          "type": "uint256"
        },
        {
          "indexed": false,
          "internalType": "address",
          "name": "payer",
          "type": "address"
        },
        {
          "indexed": false,
          "internalType": "uint256",
          "name": "amountPaid",
          "type": "uint256"
        },
        {
          "indexed": false,
          "internalType": "uint256",
          "name": "pricePerUnit",
          "type": "uint256"
        }
      ],
      "name": "InsufficientPayment",
      "type": "event"
    },
    {
      "anonymous": false,
      "inputs": [
        {
          "indexed": true,
          "internalType": "address",
          "name": "previousOwner",
          "type": "address"
        },
        {
          "indexed": true,
          "internalType": "address",
          "name": "newOwner",
          "type": "address"
        }
      ],
      "name": "OwnershipTransferred",
      "type": "event"
    },
    {
      "anonymous": false,
      "inputs": [
        {
          "indexed": false,
          "internalType": "address",
          "name": "actionAddress",
          "type": "address"
        },
        {
          "indexed": false,
          "internalType": "uint256",
          "name": "id",
          "type": "uint256"
        },
        {
          "indexed": false,
          "internalType": "string",
          "name": "name",
          "type": "string"
        },
        {
          "indexed": false,
          "internalType": "uint256",
          "name": "amount",
          "type": "uint256"
        }
      ],
      "name": "PayedAction",
      "type": "event"
    },
    {
      "inputs": [
        {
          "internalType": "uint256",
          "name": "",
          "type": "uint256"
        }
      ],
      "name": "Actions",
      "outputs": [
        {
          "internalType": "uint256",
          "name": "id",
          "type": "uint256"
        },
        {
          "internalType": "address payable",
          "name": "ActionAddress",
          "type": "address"
        },
        {
          "internalType": "string",
          "name": "name",
          "type": "string"
        },
        {
          "internalType": "string",
          "name": "unit",
          "type": "string"
        },
        {
          "internalType": "uint256",
          "name": "price",
          "type": "uint256"
        },
        {
          "internalType": "address",
          "name": "deviceAddress",
          "type": "address"
        },
        {
          "internalType": "address",
          "name": "deviceOwner",
          "type": "address"
        },
        {
          "internalType": "address",
          "name": "organisationAddress",
          "type": "address"
        }
      ],
      "stateMutability": "view",
      "type": "function"
    },
    {
      "inputs": [
        {
          "internalType": "string",
          "name": "_name",
          "type": "string"
        },
        {
          "internalType": "string",
          "name": "_unit",
          "type": "string"
        },
        {
          "internalType": "uint256",
          "name": "_pricePerUnit",
          "type": "uint256"
        },
        {
          "internalType": "address payable",
          "name": "_deviceAddress",
          "type": "address"
        },
        {
          "internalType": "address",
          "name": "_deviceOwner",
          "type": "address"
        },
        {
          "internalType": "address",
          "name": "_organisationAddress",
          "type": "address"
        }
      ],
      "name": "createAction",
      "outputs": [
        {
          "internalType": "address",
          "name": "",
          "type": "address"
        }
      ],
      "stateMutability": "nonpayable",
      "type": "function"
    },
    {
      "inputs": [
        {
          "internalType": "uint256",
          "name": "_actionId",
          "type": "uint256"
        }
      ],
      "name": "deleteAction",
      "outputs": [],
      "stateMutability": "nonpayable",
      "type": "function"
    },
    {
      "inputs": [
        {
          "internalType": "address",
          "name": "_deviceAddress",
          "type": "address"
        }
      ],
      "name": "getActions",
      "outputs": [
        {
          "components": [
            {
              "internalType": "uint256",
              "name": "id",
              "type": "uint256"
            },
            {
              "internalType": "address payable",
              "name": "ActionAddress",
              "type": "address"
            },
            {
              "internalType": "string",
              "name": "name",
              "type": "string"
            },
            {
              "internalType": "string",
              "name": "unit",
              "type": "string"
            },
            {
              "internalType": "uint256",
              "name": "price",
              "type": "uint256"
            },
            {
              "internalType": "address",
              "name": "deviceAddress",
              "type": "address"
            },
            {
              "internalType": "address",
              "name": "deviceOwner",
              "type": "address"
            },
            {
              "internalType": "address",
              "name": "organisationAddress",
              "type": "address"
            }
          ],
          "internalType": "struct ActionFactory.ActionInfo[]",
          "name": "",
          "type": "tuple[]"
        }
      ],
      "stateMutability": "view",
      "type": "function"
    },
    {
      "inputs": [
        {
          "internalType": "address",
          "name": "_actionAddress",
          "type": "address"
        },
        {
          "internalType": "uint256",
          "name": "_id",
          "type": "uint256"
        },
        {
          "internalType": "address",
          "name": "_payer",
          "type": "address"
        },
        {
          "internalType": "uint256",
          "name": "_amountPaid",
          "type": "uint256"
        },
        {
          "internalType": "uint256",
          "name": "_pricePerUnit",
          "type": "uint256"
        }
      ],
      "name": "logInsufficientPayment",
      "outputs": [],
      "stateMutability": "nonpayable",
      "type": "function"
    },
    {
      "inputs": [
        {
          "internalType": "address",
          "name": "_actionAddress",
          "type": "address"
        },
        {
          "internalType": "uint256",
          "name": "_id",
          "type": "uint256"
        },
        {
          "internalType": "string",
          "name": "_name",
          "type": "string"
        },
        {
          "internalType": "uint256",
          "name": "_amount",
          "type": "uint256"
        }
      ],
      "name": "logPayedAction",
      "outputs": [],
      "stateMutability": "nonpayable",
      "type": "function"
    },
    {
      "inputs": [],
      "name": "owner",
      "outputs": [
        {
          "internalType": "address",
          "name": "",
          "type": "address"
        }
      ],
      "stateMutability": "view",
      "type": "function"
    },
    {
      "inputs": [],
      "name": "renounceOwnership",
      "outputs": [],
      "stateMutability": "nonpayable",
      "type": "function"
    },
    {
      "inputs": [
        {
          "internalType": "address",
          "name": "newOwner",
          "type": "address"
        }
      ],
      "name": "transferOwnership",
      "outputs": [],
      "stateMutability": "nonpayable",
      "type": "function"
    },
    {
      "inputs": [
        {
          "internalType": "uint256",
          "name": "_actionId",
          "type": "uint256"
        },
        {
          "internalType": "string",
          "name": "_newName",
          "type": "string"
        }
      ],
      "name": "updateActionName",
      "outputs": [],
      "stateMutability": "nonpayable",
      "type": "function"
    },
    {
      "inputs": [
        {
          "internalType": "uint256",
          "name": "_actionId",
          "type": "uint256"
        },
        {
          "internalType": "uint256",
          "name": "_newPrice",
          "type": "uint256"
        }
      ],
      "name": "updateActionPrice",
      "outputs": [],
      "stateMutability": "nonpayable",
      "type": "function"
    },
    {
      "inputs": [
        {
          "internalType": "uint256",
          "name": "_actionId",
          "type": "uint256"
        },
        {
          "internalType": "string",
          "name": "_newUnit",
          "type": "string"
        }
      ],
      "name": "updateActionUnit",
      "outputs": [],
      "stateMutability": "nonpayable",
      "type": "function"
    }
  ],
  "bytecode": "0x608060405260016002553480156200001657600080fd5b5033600073ffffffffffffffffffffffffffffffffffffffff168173ffffffffffffffffffffffffffffffffffffffff16036200008d5760006040517f1e4fbdf7000000000000000000000000000000000000000000000000000000008152600401620000849190620001ae565b60405180910390fd5b6200009e81620000a560201b60201c565b50620001cb565b60008060009054906101000a900473ffffffffffffffffffffffffffffffffffffffff169050816000806101000a81548173ffffffffffffffffffffffffffffffffffffffff021916908373ffffffffffffffffffffffffffffffffffffffff1602179055508173ffffffffffffffffffffffffffffffffffffffff168173ffffffffffffffffffffffffffffffffffffffff167f8be0079c531659141344cd1fd0a4f28419497f9722a3daafe3b4186f6b6457e060405160405180910390a35050565b600073ffffffffffffffffffffffffffffffffffffffff82169050919050565b6000620001968262000169565b9050919050565b620001a88162000189565b82525050565b6000602082019050620001c560008301846200019d565b92915050565b6149ec80620001db6000396000f3fe60806040523480156200001157600080fd5b5060043610620000c45760003560e01c80638da5cb5b116200007b5780638da5cb5b14620001a1578063b4272ce914620001c3578063d80ab93a1462000200578063df7dfef71462000220578063f2fde38b1462000240578063f7d2bed2146200026057620000c4565b806329ebacd314620000c957806337e4312914620000ff578063715018a6146200011f578063734f107d146200012b57806380479db1146200014b5780638ccc0f92146200016b575b600080fd5b620000e76004803603810190620000e1919062001d77565b62000280565b604051620000f6919062001e62565b60405180910390f35b6200011d600480360381019062000117919062001e7f565b62000557565b005b620001296200060d565b005b62000149600480360381019062000143919062001f10565b62000625565b005b62000169600480360381019062000163919062001f10565b62000902565b005b62000189600480360381019062000183919062001f76565b62000bdf565b604051620001989190620021fb565b60405180910390f35b620001ab62000fd3565b604051620001ba919062001e62565b60405180910390f35b620001e16004803603810190620001db91906200221f565b62000ffc565b604051620001f7989796959493929190620022c5565b60405180910390f35b6200021e600480360381019062000218919062002361565b620011e4565b005b6200023e60048036038101906200023891906200221f565b6200129d565b005b6200025e600480360381019062000258919062001f76565b62001552565b005b6200027e6004803603810190620002789190620023e9565b620015df565b005b60008060025488888888604051620002989062001a0c565b620002a895949392919062002430565b604051809103906000f080158015620002c5573d6000803e3d6000fd5b5090506002548173ffffffffffffffffffffffffffffffffffffffff167fe81310ec773657d634a70519a2263baac2b0d0aa7dfebad87ffc0e52e188a26e8a8a8a8a896040516200031b95949392919062002506565b60405180910390a360405180610100016040528060025481526020018273ffffffffffffffffffffffffffffffffffffffff1681526020018981526020018881526020018781526020018673ffffffffffffffffffffffffffffffffffffffff1681526020018573ffffffffffffffffffffffffffffffffffffffff1681526020018473ffffffffffffffffffffffffffffffffffffffff168152506001600060025481526020019081526020016000206000820151816000015560208201518160010160006101000a81548173ffffffffffffffffffffffffffffffffffffffff021916908373ffffffffffffffffffffffffffffffffffffffff16021790555060408201518160020190816200043491906200279d565b5060608201518160030190816200044c91906200279d565b506080820151816004015560a08201518160050160006101000a81548173ffffffffffffffffffffffffffffffffffffffff021916908373ffffffffffffffffffffffffffffffffffffffff16021790555060c08201518160060160006101000a81548173ffffffffffffffffffffffffffffffffffffffff021916908373ffffffffffffffffffffffffffffffffffffffff16021790555060e08201518160070160006101000a81548173ffffffffffffffffffffffffffffffffffffffff021916908373ffffffffffffffffffffffffffffffffffffffff160217905550905050600260008154809291906200054490620028b3565b9190505550809150509695505050505050565b8373ffffffffffffffffffffffffffffffffffffffff163373ffffffffffffffffffffffffffffffffffffffff1614620005c8576040517f08c379a0000000000000000000000000000000000000000000000000000000008152600401620005bf9062002976565b60405180910390fd5b7f3b043dd6bdb2e9b6036db332096cbc51cf9f4e21c658bd57a14bbbb17c3b88c484848484604051620005ff949392919062002998565b60405180910390a150505050565b62000617620018b0565b62000623600062001940565b565b600073ffffffffffffffffffffffffffffffffffffffff166001600084815260200190815260200160002060010160009054906101000a900473ffffffffffffffffffffffffffffffffffffffff1673ffffffffffffffffffffffffffffffffffffffff1603620006cd576040517f08c379a0000000000000000000000000000000000000000000000000000000008152600401620006c49062002a3c565b60405180910390fd5b6001600083815260200190815260200160002060070160009054906101000a900473ffffffffffffffffffffffffffffffffffffffff1673ffffffffffffffffffffffffffffffffffffffff166324d7806c336040518263ffffffff1660e01b81526004016200073e919062001e62565b602060405180830381865afa1580156200075c573d6000803e3d6000fd5b505050506040513d601f19601f8201168201806040525081019062000782919062002a9b565b620007c4576040517f08c379a0000000000000000000000000000000000000000000000000000000008152600401620007bb9062002b43565b60405180910390fd5b60006001600084815260200190815260200160002060010160009054906101000a900473ffffffffffffffffffffffffffffffffffffffff1690508073ffffffffffffffffffffffffffffffffffffffff1663c47f0027836040518263ffffffff1660e01b81526004016200083a919062002b65565b600060405180830381600087803b1580156200085557600080fd5b505af11580156200086a573d6000803e3d6000fd5b50505050816001600085815260200190815260200160002060020190816200089391906200279d565b50827f644e9d034dd944506dc587697e37033685c32dfa06f6c4a03ec93eb06e33412083600160008781526020019081526020016000206003016001600088815260200190815260200160002060040154604051620008f59392919062002c19565b60405180910390a2505050565b600073ffffffffffffffffffffffffffffffffffffffff166001600084815260200190815260200160002060010160009054906101000a900473ffffffffffffffffffffffffffffffffffffffff1673ffffffffffffffffffffffffffffffffffffffff1603620009aa576040517f08c379a0000000000000000000000000000000000000000000000000000000008152600401620009a19062002a3c565b60405180910390fd5b6001600083815260200190815260200160002060070160009054906101000a900473ffffffffffffffffffffffffffffffffffffffff1673ffffffffffffffffffffffffffffffffffffffff166324d7806c336040518263ffffffff1660e01b815260040162000a1b919062001e62565b602060405180830381865afa15801562000a39573d6000803e3d6000fd5b505050506040513d601f19601f8201168201806040525081019062000a5f919062002a9b565b62000aa1576040517f08c379a000000000000000000000000000000000000000000000000000000000815260040162000a989062002b43565b60405180910390fd5b60006001600084815260200190815260200160002060010160009054906101000a900473ffffffffffffffffffffffffffffffffffffffff1690508073ffffffffffffffffffffffffffffffffffffffff16638221b09d836040518263ffffffff1660e01b815260040162000b17919062002b65565b600060405180830381600087803b15801562000b3257600080fd5b505af115801562000b47573d6000803e3d6000fd5b505050508160016000858152602001908152602001600020600301908162000b7091906200279d565b50827f644e9d034dd944506dc587697e37033685c32dfa06f6c4a03ec93eb06e3341206001600086815260200190815260200160002060020184600160008881526020019081526020016000206004015460405162000bd29392919062002c64565b60405180910390a2505050565b60606000600160025462000bf4919062002caf565b67ffffffffffffffff81111562000c105762000c0f62001b4b565b5b60405190808252806020026020018201604052801562000c4d57816020015b62000c3962001a1a565b81526020019060019003908162000c2f5790505b5090506000600190505b60025481101562000fc9578373ffffffffffffffffffffffffffffffffffffffff166001600083815260200190815260200160002060050160009054906101000a900473ffffffffffffffffffffffffffffffffffffffff1673ffffffffffffffffffffffffffffffffffffffff160362000fbb576001600082815260200190815260200160002060405180610100016040529081600082015481526020016001820160009054906101000a900473ffffffffffffffffffffffffffffffffffffffff1673ffffffffffffffffffffffffffffffffffffffff1673ffffffffffffffffffffffffffffffffffffffff16815260200160028201805462000d5d90620025a0565b80601f016020809104026020016040519081016040528092919081815260200182805462000d8b90620025a0565b801562000ddc5780601f1062000db05761010080835404028352916020019162000ddc565b820191906000526020600020905b81548152906001019060200180831162000dbe57829003601f168201915b5050505050815260200160038201805462000df790620025a0565b80601f016020809104026020016040519081016040528092919081815260200182805462000e2590620025a0565b801562000e765780601f1062000e4a5761010080835404028352916020019162000e76565b820191906000526020600020905b81548152906001019060200180831162000e5857829003601f168201915b50505050508152602001600482015481526020016005820160009054906101000a900473ffffffffffffffffffffffffffffffffffffffff1673ffffffffffffffffffffffffffffffffffffffff1673ffffffffffffffffffffffffffffffffffffffff1681526020016006820160009054906101000a900473ffffffffffffffffffffffffffffffffffffffff1673ffffffffffffffffffffffffffffffffffffffff1673ffffffffffffffffffffffffffffffffffffffff1681526020016007820160009054906101000a900473ffffffffffffffffffffffffffffffffffffffff1673ffffffffffffffffffffffffffffffffffffffff1673ffffffffffffffffffffffffffffffffffffffff16815250508260018362000f9b919062002caf565b8151811062000faf5762000fae62002cea565b5b60200260200101819052505b808060010191505062000c57565b5080915050919050565b60008060009054906101000a900473ffffffffffffffffffffffffffffffffffffffff16905090565b60016020528060005260406000206000915090508060000154908060010160009054906101000a900473ffffffffffffffffffffffffffffffffffffffff16908060020180546200104d90620025a0565b80601f01602080910402602001604051908101604052809291908181526020018280546200107b90620025a0565b8015620010cc5780601f10620010a057610100808354040283529160200191620010cc565b820191906000526020600020905b815481529060010190602001808311620010ae57829003601f168201915b505050505090806003018054620010e390620025a0565b80601f01602080910402602001604051908101604052809291908181526020018280546200111190620025a0565b8015620011625780601f10620011365761010080835404028352916020019162001162565b820191906000526020600020905b8154815290600101906020018083116200114457829003601f168201915b5050505050908060040154908060050160009054906101000a900473ffffffffffffffffffffffffffffffffffffffff16908060060160009054906101000a900473ffffffffffffffffffffffffffffffffffffffff16908060070160009054906101000a900473ffffffffffffffffffffffffffffffffffffffff16905088565b8473ffffffffffffffffffffffffffffffffffffffff163373ffffffffffffffffffffffffffffffffffffffff161462001255576040517f08c379a00000000000000000000000000000000000000000000000000000000081526004016200124c9062002976565b60405180910390fd5b7f8ab75cdcff4e39b9a617b80edc7c91acb3ec54d4376e2a9afc8d892818560a0e85858585856040516200128e95949392919062002d19565b60405180910390a15050505050565b600073ffffffffffffffffffffffffffffffffffffffff166001600083815260200190815260200160002060010160009054906101000a900473ffffffffffffffffffffffffffffffffffffffff1673ffffffffffffffffffffffffffffffffffffffff160362001345576040517f08c379a00000000000000000000000000000000000000000000000000000000081526004016200133c9062002a3c565b60405180910390fd5b6001600082815260200190815260200160002060070160009054906101000a900473ffffffffffffffffffffffffffffffffffffffff1673ffffffffffffffffffffffffffffffffffffffff166324d7806c336040518263ffffffff1660e01b8152600401620013b6919062001e62565b602060405180830381865afa158015620013d4573d6000803e3d6000fd5b505050506040513d601f19601f82011682018060405250810190620013fa919062002a9b565b6200143c576040517f08c379a0000000000000000000000000000000000000000000000000000000008152600401620014339062002dec565b60405180910390fd5b600160008281526020019081526020016000206000808201600090556001820160006101000a81549073ffffffffffffffffffffffffffffffffffffffff021916905560028201600062001491919062001ab7565b600382016000620014a3919062001ab7565b60048201600090556005820160006101000a81549073ffffffffffffffffffffffffffffffffffffffff02191690556006820160006101000a81549073ffffffffffffffffffffffffffffffffffffffff02191690556007820160006101000a81549073ffffffffffffffffffffffffffffffffffffffff02191690555050807f87415f1e67c6a1a1afee712e93e735be84ddfbec3dec17a1fdc129907f68c50860405160405180910390a250565b6200155c620018b0565b600073ffffffffffffffffffffffffffffffffffffffff168173ffffffffffffffffffffffffffffffffffffffff1603620015d15760006040517f1e4fbdf7000000000000000000000000000000000000000000000000000000008152600401620015c8919062001e62565b60405180910390fd5b620015dc8162001940565b50565b600073ffffffffffffffffffffffffffffffffffffffff166001600084815260200190815260200160002060010160009054906101000a900473ffffffffffffffffffffffffffffffffffffffff1673ffffffffffffffffffffffffffffffffffffffff160362001687576040517f08c379a00000000000000000000000000000000000000000000000000000000081526004016200167e9062002a3c565b60405180910390fd5b6001600083815260200190815260200160002060070160009054906101000a900473ffffffffffffffffffffffffffffffffffffffff1673ffffffffffffffffffffffffffffffffffffffff166324d7806c336040518263ffffffff1660e01b8152600401620016f8919062001e62565b602060405180830381865afa15801562001716573d6000803e3d6000fd5b505050506040513d601f19601f820116820180604052508101906200173c919062002a9b565b6200177e576040517f08c379a0000000000000000000000000000000000000000000000000000000008152600401620017759062002b43565b60405180910390fd5b60006001600084815260200190815260200160002060010160009054906101000a900473ffffffffffffffffffffffffffffffffffffffff1690508073ffffffffffffffffffffffffffffffffffffffff166391b7f5ed836040518263ffffffff1660e01b8152600401620017f4919062002e0e565b600060405180830381600087803b1580156200180f57600080fd5b505af115801562001824573d6000803e3d6000fd5b50505050816001600085815260200190815260200160002060040181905550827f644e9d034dd944506dc587697e37033685c32dfa06f6c4a03ec93eb06e334120600160008681526020019081526020016000206002016001600087815260200190815260200160002060030185604051620018a39392919062002e2b565b60405180910390a2505050565b620018ba62001a04565b73ffffffffffffffffffffffffffffffffffffffff16620018da62000fd3565b73ffffffffffffffffffffffffffffffffffffffff16146200193e576200190062001a04565b6040517f118cdaa700000000000000000000000000000000000000000000000000000000815260040162001935919062001e62565b60405180910390fd5b565b60008060009054906101000a900473ffffffffffffffffffffffffffffffffffffffff169050816000806101000a81548173ffffffffffffffffffffffffffffffffffffffff021916908373ffffffffffffffffffffffffffffffffffffffff1602179055508173ffffffffffffffffffffffffffffffffffffffff168173ffffffffffffffffffffffffffffffffffffffff167f8be0079c531659141344cd1fd0a4f28419497f9722a3daafe3b4186f6b6457e060405160405180910390a35050565b600033905090565b611b408062002e7783390190565b60405180610100016040528060008152602001600073ffffffffffffffffffffffffffffffffffffffff168152602001606081526020016060815260200160008152602001600073ffffffffffffffffffffffffffffffffffffffff168152602001600073ffffffffffffffffffffffffffffffffffffffff168152602001600073ffffffffffffffffffffffffffffffffffffffff1681525090565b50805462001ac590620025a0565b6000825580601f1062001ad9575062001afa565b601f01602090049060005260206000209081019062001af9919062001afd565b5b50565b5b8082111562001b1857600081600090555060010162001afe565b5090565b6000604051905090565b600080fd5b600080fd5b600080fd5b600080fd5b6000601f19601f8301169050919050565b7f4e487b7100000000000000000000000000000000000000000000000000000000600052604160045260246000fd5b62001b858262001b3a565b810181811067ffffffffffffffff8211171562001ba75762001ba662001b4b565b5b80604052505050565b600062001bbc62001b1c565b905062001bca828262001b7a565b919050565b600067ffffffffffffffff82111562001bed5762001bec62001b4b565b5b62001bf88262001b3a565b9050602081019050919050565b82818337600083830152505050565b600062001c2b62001c258462001bcf565b62001bb0565b90508281526020810184848401111562001c4a5762001c4962001b35565b5b62001c5784828562001c05565b509392505050565b600082601f83011262001c775762001c7662001b30565b5b813562001c8984826020860162001c14565b91505092915050565b6000819050919050565b62001ca78162001c92565b811462001cb357600080fd5b50565b60008135905062001cc78162001c9c565b92915050565b600073ffffffffffffffffffffffffffffffffffffffff82169050919050565b600062001cfa8262001ccd565b9050919050565b62001d0c8162001ced565b811462001d1857600080fd5b50565b60008135905062001d2c8162001d01565b92915050565b600062001d3f8262001ccd565b9050919050565b62001d518162001d32565b811462001d5d57600080fd5b50565b60008135905062001d718162001d46565b92915050565b60008060008060008060c0878903121562001d975762001d9662001b26565b5b600087013567ffffffffffffffff81111562001db85762001db762001b2b565b5b62001dc689828a0162001c5f565b965050602087013567ffffffffffffffff81111562001dea5762001de962001b2b565b5b62001df889828a0162001c5f565b955050604062001e0b89828a0162001cb6565b945050606062001e1e89828a0162001d1b565b935050608062001e3189828a0162001d60565b92505060a062001e4489828a0162001d60565b9150509295509295509295565b62001e5c8162001d32565b82525050565b600060208201905062001e79600083018462001e51565b92915050565b6000806000806080858703121562001e9c5762001e9b62001b26565b5b600062001eac8782880162001d60565b945050602062001ebf8782880162001cb6565b935050604085013567ffffffffffffffff81111562001ee35762001ee262001b2b565b5b62001ef18782880162001c5f565b925050606062001f048782880162001cb6565b91505092959194509250565b6000806040838503121562001f2a5762001f2962001b26565b5b600062001f3a8582860162001cb6565b925050602083013567ffffffffffffffff81111562001f5e5762001f5d62001b2b565b5b62001f6c8582860162001c5f565b9150509250929050565b60006020828403121562001f8f5762001f8e62001b26565b5b600062001f9f8482850162001d60565b91505092915050565b600081519050919050565b600082825260208201905092915050565b6000819050602082019050919050565b62001fdf8162001c92565b82525050565b62001ff08162001ced565b82525050565b600081519050919050565b600082825260208201905092915050565b60005b838110156200203257808201518184015260208101905062002015565b60008484015250505050565b60006200204b8262001ff6565b62002057818562002001565b93506200206981856020860162002012565b620020748162001b3a565b840191505092915050565b6200208a8162001d32565b82525050565b600061010083016000830151620020ab600086018262001fd4565b506020830151620020c0602086018262001fe5565b5060408301518482036040860152620020da82826200203e565b91505060608301518482036060860152620020f682826200203e565b91505060808301516200210d608086018262001fd4565b5060a08301516200212260a08601826200207f565b5060c08301516200213760c08601826200207f565b5060e08301516200214c60e08601826200207f565b508091505092915050565b600062002165838362002090565b905092915050565b6000602082019050919050565b6000620021878262001fa8565b62002193818562001fb3565b935083602082028501620021a78562001fc4565b8060005b85811015620021e95784840389528151620021c7858262002157565b9450620021d4836200216d565b925060208a01995050600181019050620021ab565b50829750879550505050505092915050565b600060208201905081810360008301526200221781846200217a565b905092915050565b60006020828403121562002238576200223762001b26565b5b6000620022488482850162001cb6565b91505092915050565b6200225c8162001c92565b82525050565b6200226d8162001ced565b82525050565b600082825260208201905092915050565b6000620022918262001ff6565b6200229d818562002273565b9350620022af81856020860162002012565b620022ba8162001b3a565b840191505092915050565b600061010082019050620022dd600083018b62002251565b620022ec602083018a62002262565b818103604083015262002300818962002284565b9050818103606083015262002316818862002284565b905062002327608083018762002251565b6200233660a083018662001e51565b6200234560c083018562001e51565b6200235460e083018462001e51565b9998505050505050505050565b600080600080600060a0868803121562002380576200237f62001b26565b5b6000620023908882890162001d60565b9550506020620023a38882890162001cb6565b9450506040620023b68882890162001d60565b9350506060620023c98882890162001cb6565b9250506080620023dc8882890162001cb6565b9150509295509295909350565b6000806040838503121562002403576200240262001b26565b5b6000620024138582860162001cb6565b9250506020620024268582860162001cb6565b9150509250929050565b600060a08201905062002447600083018862002251565b81810360208301526200245b818762002284565b9050818103604083015262002471818662002284565b905062002482606083018562002251565b62002491608083018462002262565b9695505050505050565b6000819050919050565b6000620024c6620024c0620024ba8462001ccd565b6200249b565b62001ccd565b9050919050565b6000620024da82620024a5565b9050919050565b6000620024ee82620024cd565b9050919050565b6200250081620024e1565b82525050565b600060a082019050818103600083015262002522818862002284565b9050818103602083015262002538818762002284565b905062002549604083018662002251565b620025586060830185620024f5565b62002567608083018462001e51565b9695505050505050565b7f4e487b7100000000000000000000000000000000000000000000000000000000600052602260045260246000fd5b60006002820490506001821680620025b957607f821691505b602082108103620025cf57620025ce62002571565b5b50919050565b60008190508160005260206000209050919050565b60006020601f8301049050919050565b600082821b905092915050565b600060088302620026397fffffffffffffffffffffffffffffffffffffffffffffffffffffffffffffffff82620025fa565b620026458683620025fa565b95508019841693508086168417925050509392505050565b60006200267e62002678620026728462001c92565b6200249b565b62001c92565b9050919050565b6000819050919050565b6200269a836200265d565b620026b2620026a98262002685565b84845462002607565b825550505050565b600090565b620026c9620026ba565b620026d68184846200268f565b505050565b5b81811015620026fe57620026f2600082620026bf565b600181019050620026dc565b5050565b601f8211156200274d576200271781620025d5565b6200272284620025ea565b8101602085101562002732578190505b6200274a6200274185620025ea565b830182620026db565b50505b505050565b600082821c905092915050565b6000620027726000198460080262002752565b1980831691505092915050565b60006200278d83836200275f565b9150826002028217905092915050565b620027a88262001ff6565b67ffffffffffffffff811115620027c457620027c362001b4b565b5b620027d08254620025a0565b620027dd82828562002702565b600060209050601f83116001811462002815576000841562002800578287015190505b6200280c85826200277f565b8655506200287c565b601f1984166200282586620025d5565b60005b828110156200284f5784890151825560018201915060208501945060208101905062002828565b868310156200286f57848901516200286b601f8916826200275f565b8355505b6001600288020188555050505b505050505050565b7f4e487b7100000000000000000000000000000000000000000000000000000000600052601160045260246000fd5b6000620028c08262001c92565b91507fffffffffffffffffffffffffffffffffffffffffffffffffffffffffffffffff8203620028f557620028f462002884565b5b600182019050919050565b7f4f6e6c792074686520616374696f6e20636f6e74726163742063616e2063616c60008201527f6c20746869732066756e6374696f6e0000000000000000000000000000000000602082015250565b60006200295e602f8362002273565b91506200296b8262002900565b604082019050919050565b6000602082019050818103600083015262002991816200294f565b9050919050565b6000608082019050620029af600083018762001e51565b620029be602083018662002251565b8181036040830152620029d2818562002284565b9050620029e3606083018462002251565b95945050505050565b7f416374696f6e20646f6573206e6f742065786973740000000000000000000000600082015250565b600062002a2460158362002273565b915062002a3182620029ec565b602082019050919050565b6000602082019050818103600083015262002a578162002a15565b9050919050565b60008115159050919050565b62002a758162002a5e565b811462002a8157600080fd5b50565b60008151905062002a958162002a6a565b92915050565b60006020828403121562002ab45762002ab362001b26565b5b600062002ac48482850162002a84565b91505092915050565b7f4e6f2041646d696e4e4654202d3e206e6f7420616c6c6f77656420746f20757060008201527f646174652074686520616374696f6e0000000000000000000000000000000000602082015250565b600062002b2b602f8362002273565b915062002b388262002acd565b604082019050919050565b6000602082019050818103600083015262002b5e8162002b1c565b9050919050565b6000602082019050818103600083015262002b81818462002284565b905092915050565b6000815462002b9881620025a0565b62002ba4818662002273565b9450600182166000811462002bc2576001811462002bd95762002c10565b60ff19831686528115156020028601935062002c10565b62002be485620025d5565b60005b8381101562002c085781548189015260018201915060208101905062002be7565b808801955050505b50505092915050565b6000606082019050818103600083015262002c35818662002284565b9050818103602083015262002c4b818562002b89565b905062002c5c604083018462002251565b949350505050565b6000606082019050818103600083015262002c80818662002b89565b9050818103602083015262002c96818562002284565b905062002ca7604083018462002251565b949350505050565b600062002cbc8262001c92565b915062002cc98362001c92565b925082820390508181111562002ce45762002ce362002884565b5b92915050565b7f4e487b7100000000000000000000000000000000000000000000000000000000600052603260045260246000fd5b600060a08201905062002d30600083018862001e51565b62002d3f602083018762002251565b62002d4e604083018662001e51565b62002d5d606083018562002251565b62002d6c608083018462002251565b9695505050505050565b7f4e6f2041646d696e4e4654202d3e206e6f7420616c6c6f77656420746f20646560008201527f6c6574652074686520616374696f6e0000000000000000000000000000000000602082015250565b600062002dd4602f8362002273565b915062002de18262002d76565b604082019050919050565b6000602082019050818103600083015262002e078162002dc5565b9050919050565b600060208201905062002e25600083018462002251565b92915050565b6000606082019050818103600083015262002e47818662002b89565b9050818103602083015262002e5d818562002b89565b905062002e6e604083018462002251565b94935050505056fe60806040523480156200001157600080fd5b5060405162001b4038038062001b40833981810160405281019062000037919062000475565b33600073ffffffffffffffffffffffffffffffffffffffff168173ffffffffffffffffffffffffffffffffffffffff1603620000ad5760006040517f1e4fbdf7000000000000000000000000000000000000000000000000000000008152600401620000a4919062000560565b60405180910390fd5b620000be816200017e60201b60201c565b50846001819055508360029081620000d79190620007be565b508260039081620000e99190620007be565b508160048190555080600560006101000a81548173ffffffffffffffffffffffffffffffffffffffff021916908373ffffffffffffffffffffffffffffffffffffffff16021790555033600660006101000a81548173ffffffffffffffffffffffffffffffffffffffff021916908373ffffffffffffffffffffffffffffffffffffffff1602179055505050505050620008a5565b60008060009054906101000a900473ffffffffffffffffffffffffffffffffffffffff169050816000806101000a81548173ffffffffffffffffffffffffffffffffffffffff021916908373ffffffffffffffffffffffffffffffffffffffff1602179055508173ffffffffffffffffffffffffffffffffffffffff168173ffffffffffffffffffffffffffffffffffffffff167f8be0079c531659141344cd1fd0a4f28419497f9722a3daafe3b4186f6b6457e060405160405180910390a35050565b6000604051905090565b600080fd5b600080fd5b6000819050919050565b6200026b8162000256565b81146200027757600080fd5b50565b6000815190506200028b8162000260565b92915050565b600080fd5b600080fd5b6000601f19601f8301169050919050565b7f4e487b7100000000000000000000000000000000000000000000000000000000600052604160045260246000fd5b620002e6826200029b565b810181811067ffffffffffffffff82111715620003085762000307620002ac565b5b80604052505050565b60006200031d62000242565b90506200032b8282620002db565b919050565b600067ffffffffffffffff8211156200034e576200034d620002ac565b5b62000359826200029b565b9050602081019050919050565b60005b838110156200038657808201518184015260208101905062000369565b60008484015250505050565b6000620003a9620003a38462000330565b62000311565b905082815260208101848484011115620003c857620003c762000296565b5b620003d584828562000366565b509392505050565b600082601f830112620003f557620003f462000291565b5b81516200040784826020860162000392565b91505092915050565b600073ffffffffffffffffffffffffffffffffffffffff82169050919050565b60006200043d8262000410565b9050919050565b6200044f8162000430565b81146200045b57600080fd5b50565b6000815190506200046f8162000444565b92915050565b600080600080600060a086880312156200049457620004936200024c565b5b6000620004a4888289016200027a565b955050602086015167ffffffffffffffff811115620004c857620004c762000251565b5b620004d688828901620003dd565b945050604086015167ffffffffffffffff811115620004fa57620004f962000251565b5b6200050888828901620003dd565b93505060606200051b888289016200027a565b92505060806200052e888289016200045e565b9150509295509295909350565b6000620005488262000410565b9050919050565b6200055a816200053b565b82525050565b60006020820190506200057760008301846200054f565b92915050565b600081519050919050565b7f4e487b7100000000000000000000000000000000000000000000000000000000600052602260045260246000fd5b60006002820490506001821680620005d057607f821691505b602082108103620005e657620005e562000588565b5b50919050565b60008190508160005260206000209050919050565b60006020601f8301049050919050565b600082821b905092915050565b600060088302620006507fffffffffffffffffffffffffffffffffffffffffffffffffffffffffffffffff8262000611565b6200065c868362000611565b95508019841693508086168417925050509392505050565b6000819050919050565b60006200069f62000699620006938462000256565b62000674565b62000256565b9050919050565b6000819050919050565b620006bb836200067e565b620006d3620006ca82620006a6565b8484546200061e565b825550505050565b600090565b620006ea620006db565b620006f7818484620006b0565b505050565b5b818110156200071f5762000713600082620006e0565b600181019050620006fd565b5050565b601f8211156200076e576200073881620005ec565b620007438462000601565b8101602085101562000753578190505b6200076b620007628562000601565b830182620006fc565b50505b505050565b600082821c905092915050565b6000620007936000198460080262000773565b1980831691505092915050565b6000620007ae838362000780565b9150826002028217905092915050565b620007c9826200057d565b67ffffffffffffffff811115620007e557620007e4620002ac565b5b620007f18254620005b7565b620007fe82828562000723565b600060209050601f83116001811462000836576000841562000821578287015190505b6200082d8582620007a0565b8655506200089d565b601f1984166200084686620005ec565b60005b82811015620008705784890151825560018201915060208501945060208101905062000849565b868310156200089057848901516200088c601f89168262000780565b8355505b6001600288020188555050505b505050505050565b61128b80620008b56000396000f3fe6080604052600436106100955760003560e01c8063a7cc53f511610059578063a7cc53f514610419578063c47f002714610444578063c6326dd01461046d578063e55186a114610498578063f2fde38b146104c357610355565b806317d7de7c1461035a578063715018a6146103855780638221b09d1461039c5780638da5cb5b146103c557806391b7f5ed146103f057610355565b366103555760045434101561017857600660009054906101000a900473ffffffffffffffffffffffffffffffffffffffff1673ffffffffffffffffffffffffffffffffffffffff1663d80ab93a3060015433346004546040518663ffffffff1660e01b815260040161010b9594939291906108f8565b600060405180830381600087803b15801561012557600080fd5b505af1158015610139573d6000803e3d6000fd5b505050506040517f08c379a000000000000000000000000000000000000000000000000000000000815260040161016f906109a8565b60405180910390fd5b6000600560009054906101000a900473ffffffffffffffffffffffffffffffffffffffff1673ffffffffffffffffffffffffffffffffffffffff16638da5cb5b6040518163ffffffff1660e01b8152600401602060405180830381865afa1580156101e7573d6000803e3d6000fd5b505050506040513d601f19601f8201168201806040525081019061020b9190610a08565b73ffffffffffffffffffffffffffffffffffffffff163460405161022e90610a66565b60006040518083038185875af1925050503d806000811461026b576040519150601f19603f3d011682016040523d82523d6000602084013e610270565b606091505b50509050806102b4576040517f08c379a00000000000000000000000000000000000000000000000000000000081526004016102ab90610ac7565b60405180910390fd5b600660009054906101000a900473ffffffffffffffffffffffffffffffffffffffff1673ffffffffffffffffffffffffffffffffffffffff166337e43129306001546002600454346103069190610b16565b6040518563ffffffff1660e01b81526004016103259493929190610c40565b600060405180830381600087803b15801561033f57600080fd5b505af1158015610353573d6000803e3d6000fd5b005b600080fd5b34801561036657600080fd5b5061036f6104ec565b60405161037c9190610d0b565b60405180910390f35b34801561039157600080fd5b5061039a61057e565b005b3480156103a857600080fd5b506103c360048036038101906103be9190610e62565b610592565b005b3480156103d157600080fd5b506103da6105ad565b6040516103e79190610eab565b60405180910390f35b3480156103fc57600080fd5b5061041760048036038101906104129190610ef2565b6105d6565b005b34801561042557600080fd5b5061042e6105e8565b60405161043b9190610f1f565b60405180910390f35b34801561045057600080fd5b5061046b60048036038101906104669190610e62565b6105f2565b005b34801561047957600080fd5b5061048261060d565b60405161048f9190610f99565b60405180910390f35b3480156104a457600080fd5b506104ad610633565b6040516104ba9190610d0b565b60405180910390f35b3480156104cf57600080fd5b506104ea60048036038101906104e59190610fc9565b6106c5565b005b6060600280546104fb90610b76565b80601f016020809104026020016040519081016040528092919081815260200182805461052790610b76565b80156105745780601f1061054957610100808354040283529160200191610574565b820191906000526020600020905b81548152906001019060200180831161055757829003601f168201915b5050505050905090565b61058661074b565b61059060006107d2565b565b61059a61074b565b80600390816105a99190611183565b5050565b60008060009054906101000a900473ffffffffffffffffffffffffffffffffffffffff16905090565b6105de61074b565b8060048190555050565b6000600454905090565b6105fa61074b565b80600290816106099190611183565b5050565b600560009054906101000a900473ffffffffffffffffffffffffffffffffffffffff1681565b60606003805461064290610b76565b80601f016020809104026020016040519081016040528092919081815260200182805461066e90610b76565b80156106bb5780601f10610690576101008083540402835291602001916106bb565b820191906000526020600020905b81548152906001019060200180831161069e57829003601f168201915b5050505050905090565b6106cd61074b565b600073ffffffffffffffffffffffffffffffffffffffff168173ffffffffffffffffffffffffffffffffffffffff160361073f5760006040517f1e4fbdf70000000000000000000000000000000000000000000000000000000081526004016107369190610eab565b60405180910390fd5b610748816107d2565b50565b610753610896565b73ffffffffffffffffffffffffffffffffffffffff166107716105ad565b73ffffffffffffffffffffffffffffffffffffffff16146107d057610794610896565b6040517f118cdaa70000000000000000000000000000000000000000000000000000000081526004016107c79190610eab565b60405180910390fd5b565b60008060009054906101000a900473ffffffffffffffffffffffffffffffffffffffff169050816000806101000a81548173ffffffffffffffffffffffffffffffffffffffff021916908373ffffffffffffffffffffffffffffffffffffffff1602179055508173ffffffffffffffffffffffffffffffffffffffff168173ffffffffffffffffffffffffffffffffffffffff167f8be0079c531659141344cd1fd0a4f28419497f9722a3daafe3b4186f6b6457e060405160405180910390a35050565b600033905090565b600073ffffffffffffffffffffffffffffffffffffffff82169050919050565b60006108c98261089e565b9050919050565b6108d9816108be565b82525050565b6000819050919050565b6108f2816108df565b82525050565b600060a08201905061090d60008301886108d0565b61091a60208301876108e9565b61092760408301866108d0565b61093460608301856108e9565b61094160808301846108e9565b9695505050505050565b600082825260208201905092915050565b7f496e73756666696369656e74207061796d656e74000000000000000000000000600082015250565b600061099260148361094b565b915061099d8261095c565b602082019050919050565b600060208201905081810360008301526109c181610985565b9050919050565b6000604051905090565b600080fd5b600080fd5b6109e5816108be565b81146109f057600080fd5b50565b600081519050610a02816109dc565b92915050565b600060208284031215610a1e57610a1d6109d2565b5b6000610a2c848285016109f3565b91505092915050565b600081905092915050565b50565b6000610a50600083610a35565b9150610a5b82610a40565b600082019050919050565b6000610a7182610a43565b9150819050919050565b7f5472616e73666572206661696c65640000000000000000000000000000000000600082015250565b6000610ab1600f8361094b565b9150610abc82610a7b565b602082019050919050565b60006020820190508181036000830152610ae081610aa4565b9050919050565b7f4e487b7100000000000000000000000000000000000000000000000000000000600052601260045260246000fd5b6000610b21826108df565b9150610b2c836108df565b925082610b3c57610b3b610ae7565b5b828204905092915050565b7f4e487b7100000000000000000000000000000000000000000000000000000000600052602260045260246000fd5b60006002820490506001821680610b8e57607f821691505b602082108103610ba157610ba0610b47565b5b50919050565b60008190508160005260206000209050919050565b60008154610bc981610b76565b610bd3818661094b565b94506001821660008114610bee5760018114610c0457610c37565b60ff198316865281151560200286019350610c37565b610c0d85610ba7565b60005b83811015610c2f57815481890152600182019150602081019050610c10565b808801955050505b50505092915050565b6000608082019050610c5560008301876108d0565b610c6260208301866108e9565b8181036040830152610c748185610bbc565b9050610c8360608301846108e9565b95945050505050565b600081519050919050565b60005b83811015610cb5578082015181840152602081019050610c9a565b60008484015250505050565b6000601f19601f8301169050919050565b6000610cdd82610c8c565b610ce7818561094b565b9350610cf7818560208601610c97565b610d0081610cc1565b840191505092915050565b60006020820190508181036000830152610d258184610cd2565b905092915050565b600080fd5b600080fd5b7f4e487b7100000000000000000000000000000000000000000000000000000000600052604160045260246000fd5b610d6f82610cc1565b810181811067ffffffffffffffff82111715610d8e57610d8d610d37565b5b80604052505050565b6000610da16109c8565b9050610dad8282610d66565b919050565b600067ffffffffffffffff821115610dcd57610dcc610d37565b5b610dd682610cc1565b9050602081019050919050565b82818337600083830152505050565b6000610e05610e0084610db2565b610d97565b905082815260208101848484011115610e2157610e20610d32565b5b610e2c848285610de3565b509392505050565b600082601f830112610e4957610e48610d2d565b5b8135610e59848260208601610df2565b91505092915050565b600060208284031215610e7857610e776109d2565b5b600082013567ffffffffffffffff811115610e9657610e956109d7565b5b610ea284828501610e34565b91505092915050565b6000602082019050610ec060008301846108d0565b92915050565b610ecf816108df565b8114610eda57600080fd5b50565b600081359050610eec81610ec6565b92915050565b600060208284031215610f0857610f076109d2565b5b6000610f1684828501610edd565b91505092915050565b6000602082019050610f3460008301846108e9565b92915050565b6000819050919050565b6000610f5f610f5a610f558461089e565b610f3a565b61089e565b9050919050565b6000610f7182610f44565b9050919050565b6000610f8382610f66565b9050919050565b610f9381610f78565b82525050565b6000602082019050610fae6000830184610f8a565b92915050565b600081359050610fc3816109dc565b92915050565b600060208284031215610fdf57610fde6109d2565b5b6000610fed84828501610fb4565b91505092915050565b60006020601f8301049050919050565b600082821b905092915050565b6000600883026110437fffffffffffffffffffffffffffffffffffffffffffffffffffffffffffffffff82611006565b61104d8683611006565b95508019841693508086168417925050509392505050565b600061108061107b611076846108df565b610f3a565b6108df565b9050919050565b6000819050919050565b61109a83611065565b6110ae6110a682611087565b848454611013565b825550505050565b600090565b6110c36110b6565b6110ce818484611091565b505050565b5b818110156110f2576110e76000826110bb565b6001810190506110d4565b5050565b601f8211156111375761110881610ba7565b61111184610ff6565b81016020851015611120578190505b61113461112c85610ff6565b8301826110d3565b50505b505050565b600082821c905092915050565b600061115a6000198460080261113c565b1980831691505092915050565b60006111738383611149565b9150826002028217905092915050565b61118c82610c8c565b67ffffffffffffffff8111156111a5576111a4610d37565b5b6111af8254610b76565b6111ba8282856110f6565b600060209050601f8311600181146111ed57600084156111db578287015190505b6111e58582611167565b86555061124d565b601f1984166111fb86610ba7565b60005b82811015611223578489015182556001820191506020850194506020810190506111fe565b86831015611240578489015161123c601f891682611149565b8355505b6001600288020188555050505b50505050505056fea2646970667358221220816dd29b20cf40d71486f17929b1751bd350cce2244645683346cf4d5da36adc64736f6c63430008180033a26469706673582212204b5add119bfcfcf3393d3279e9e031eaf6af60e07c28e91d86fb6bc52f83d3fb64736f6c63430008180033",
  "linkReferences": {},
  "deployedLinkReferences": {}
}