{
  "_format": "hh-sol-artifact-1",
  "contractName": "ActionFactory",
  "sourceName": "contracts/ActionFactory.sol",
  "abi": [
    {
      "inputs": [],
      "stateMutability": "nonpayable",
      "type": "constructor"
    },
    {
      "inputs": [
        {
          "internalType": "address",
          "name": "owner",
          "type": "address"
        }
      ],
      "name": "OwnableInvalidOwner",
      "type": "error"
    },
    {
      "inputs": [
        {
          "internalType": "address",
          "name": "account",
          "type": "address"
        }
      ],
      "name": "OwnableUnauthorizedAccount",
      "type": "error"
    },
    {
      "anonymous": false,
      "inputs": [
        {
          "indexed": true,
          "internalType": "address",
          "name": "action",
          "type": "address"
        },
        {
          "indexed": true,
          "internalType": "uint256",
          "name": "id",
          "type": "uint256"
        },
        {
          "indexed": false,
          "internalType": "string",
          "name": "name",
          "type": "string"
        },
        {
          "indexed": false,
          "internalType": "string",
          "name": "unit",
          "type": "string"
        },
        {
          "indexed": false,
          "internalType": "uint256",
          "name": "pricePerUnit",
          "type": "uint256"
        },
        {
          "indexed": false,
          "internalType": "address",
          "name": "deviceAddress",
          "type": "address"
        },
        {
          "indexed": false,
          "internalType": "address",
          "name": "_organisationAddress",
          "type": "address"
        }
      ],
      "name": "ActionCreated",
      "type": "event"
    },
    {
      "anonymous": false,
      "inputs": [
        {
          "indexed": true,
          "internalType": "uint256",
          "name": "id",
          "type": "uint256"
        }
      ],
      "name": "ActionDeleted",
      "type": "event"
    },
    {
      "anonymous": false,
      "inputs": [
        {
          "indexed": true,
          "internalType": "uint256",
          "name": "id",
          "type": "uint256"
        },
        {
          "indexed": false,
          "internalType": "string",
          "name": "newName",
          "type": "string"
        },
        {
          "indexed": false,
          "internalType": "string",
          "name": "newUnit",
          "type": "string"
        },
        {
          "indexed": false,
          "internalType": "uint256",
          "name": "newPrice",
          "type": "uint256"
        }
      ],
      "name": "ActionUpdated",
      "type": "event"
    },
    {
      "anonymous": false,
      "inputs": [
        {
          "indexed": false,
          "internalType": "address",
          "name": "actionAddress",
          "type": "address"
        },
        {
          "indexed": false,
          "internalType": "uint256",
          "name": "actionId",
          "type": "uint256"
        },
        {
          "indexed": false,
          "internalType": "address",
          "name": "payer",
          "type": "address"
        },
        {
          "indexed": false,
          "internalType": "uint256",
          "name": "amountPaid",
          "type": "uint256"
        },
        {
          "indexed": false,
          "internalType": "uint256",
          "name": "pricePerUnit",
          "type": "uint256"
        }
      ],
      "name": "InsufficientPayment",
      "type": "event"
    },
    {
      "anonymous": false,
      "inputs": [
        {
          "indexed": true,
          "internalType": "address",
          "name": "previousOwner",
          "type": "address"
        },
        {
          "indexed": true,
          "internalType": "address",
          "name": "newOwner",
          "type": "address"
        }
      ],
      "name": "OwnershipTransferred",
      "type": "event"
    },
    {
      "anonymous": false,
      "inputs": [
        {
          "indexed": false,
          "internalType": "address",
          "name": "actionAddress",
          "type": "address"
        },
        {
          "indexed": false,
          "internalType": "uint256",
          "name": "id",
          "type": "uint256"
        },
        {
          "indexed": false,
          "internalType": "string",
          "name": "name",
          "type": "string"
        },
        {
          "indexed": false,
          "internalType": "uint256",
          "name": "amount",
          "type": "uint256"
        }
      ],
      "name": "PayedAction",
      "type": "event"
    },
    {
      "inputs": [
        {
          "internalType": "uint256",
          "name": "",
          "type": "uint256"
        }
      ],
      "name": "Actions",
      "outputs": [
        {
          "internalType": "uint256",
          "name": "id",
          "type": "uint256"
        },
        {
          "internalType": "address payable",
          "name": "ActionAddress",
          "type": "address"
        },
        {
          "internalType": "string",
          "name": "name",
          "type": "string"
        },
        {
          "internalType": "string",
          "name": "unit",
          "type": "string"
        },
        {
          "internalType": "uint256",
          "name": "price",
          "type": "uint256"
        },
        {
          "internalType": "address",
          "name": "deviceAddress",
          "type": "address"
        },
        {
          "internalType": "address",
          "name": "deviceOwner",
          "type": "address"
        },
        {
          "internalType": "address",
          "name": "organisationAddress",
          "type": "address"
        }
      ],
      "stateMutability": "view",
      "type": "function"
    },
    {
      "inputs": [
        {
          "internalType": "uint256",
          "name": "_id",
          "type": "uint256"
        },
        {
          "internalType": "address",
          "name": "_from",
          "type": "address"
        },
        {
          "internalType": "address",
          "name": "_to",
          "type": "address"
        },
        {
          "internalType": "uint256",
          "name": "_amount",
          "type": "uint256"
        }
      ],
      "name": "Balancetransfer",
      "outputs": [
        {
          "internalType": "bool",
          "name": "",
          "type": "bool"
        }
      ],
      "stateMutability": "nonpayable",
      "type": "function"
    },
    {
      "inputs": [
        {
          "internalType": "string",
          "name": "_name",
          "type": "string"
        },
        {
          "internalType": "string",
          "name": "_unit",
          "type": "string"
        },
        {
          "internalType": "uint256",
          "name": "_pricePerUnit",
          "type": "uint256"
        },
        {
          "internalType": "address payable",
          "name": "_deviceAddress",
          "type": "address"
        },
        {
          "internalType": "address",
          "name": "_deviceOwner",
          "type": "address"
        },
        {
          "internalType": "address",
          "name": "_organisationAddress",
          "type": "address"
        }
      ],
      "name": "createAction",
      "outputs": [
        {
          "internalType": "address",
          "name": "",
          "type": "address"
        }
      ],
      "stateMutability": "nonpayable",
      "type": "function"
    },
    {
      "inputs": [
        {
          "internalType": "uint256",
          "name": "_actionId",
          "type": "uint256"
        }
      ],
      "name": "deleteAction",
      "outputs": [],
      "stateMutability": "nonpayable",
      "type": "function"
    },
    {
      "inputs": [
        {
          "internalType": "address",
          "name": "_deviceAddress",
          "type": "address"
        }
      ],
      "name": "getActions",
      "outputs": [
        {
          "components": [
            {
              "internalType": "uint256",
              "name": "id",
              "type": "uint256"
            },
            {
              "internalType": "address payable",
              "name": "ActionAddress",
              "type": "address"
            },
            {
              "internalType": "string",
              "name": "name",
              "type": "string"
            },
            {
              "internalType": "string",
              "name": "unit",
              "type": "string"
            },
            {
              "internalType": "uint256",
              "name": "price",
              "type": "uint256"
            },
            {
              "internalType": "address",
              "name": "deviceAddress",
              "type": "address"
            },
            {
              "internalType": "address",
              "name": "deviceOwner",
              "type": "address"
            },
            {
              "internalType": "address",
              "name": "organisationAddress",
              "type": "address"
            }
          ],
          "internalType": "struct ActionFactory.ActionInfo[]",
          "name": "",
          "type": "tuple[]"
        }
      ],
      "stateMutability": "view",
      "type": "function"
    },
    {
      "inputs": [
        {
          "internalType": "address",
          "name": "_actionAddress",
          "type": "address"
        },
        {
          "internalType": "uint256",
          "name": "_id",
          "type": "uint256"
        },
        {
          "internalType": "address",
          "name": "_payer",
          "type": "address"
        },
        {
          "internalType": "uint256",
          "name": "_amountPaid",
          "type": "uint256"
        },
        {
          "internalType": "uint256",
          "name": "_pricePerUnit",
          "type": "uint256"
        }
      ],
      "name": "logInsufficientPayment",
      "outputs": [],
      "stateMutability": "nonpayable",
      "type": "function"
    },
    {
      "inputs": [
        {
          "internalType": "address",
          "name": "_actionAddress",
          "type": "address"
        },
        {
          "internalType": "uint256",
          "name": "_id",
          "type": "uint256"
        },
        {
          "internalType": "string",
          "name": "_name",
          "type": "string"
        },
        {
          "internalType": "uint256",
          "name": "_amount",
          "type": "uint256"
        }
      ],
      "name": "logPayedAction",
      "outputs": [],
      "stateMutability": "nonpayable",
      "type": "function"
    },
    {
      "inputs": [],
      "name": "owner",
      "outputs": [
        {
          "internalType": "address",
          "name": "",
          "type": "address"
        }
      ],
      "stateMutability": "view",
      "type": "function"
    },
    {
      "inputs": [],
      "name": "renounceOwnership",
      "outputs": [],
      "stateMutability": "nonpayable",
      "type": "function"
    },
    {
      "inputs": [
        {
          "internalType": "address payable",
          "name": "_balanceAddress",
          "type": "address"
        }
      ],
      "name": "setBalanceContract",
      "outputs": [],
      "stateMutability": "nonpayable",
      "type": "function"
    },
    {
      "inputs": [
        {
          "internalType": "address",
          "name": "newOwner",
          "type": "address"
        }
      ],
      "name": "transferOwnership",
      "outputs": [],
      "stateMutability": "nonpayable",
      "type": "function"
    },
    {
      "inputs": [
        {
          "internalType": "uint256",
          "name": "_actionId",
          "type": "uint256"
        },
        {
          "internalType": "string",
          "name": "_newName",
          "type": "string"
        }
      ],
      "name": "updateActionName",
      "outputs": [],
      "stateMutability": "nonpayable",
      "type": "function"
    },
    {
      "inputs": [
        {
          "internalType": "uint256",
          "name": "_actionId",
          "type": "uint256"
        },
        {
          "internalType": "uint256",
          "name": "_newPrice",
          "type": "uint256"
        }
      ],
      "name": "updateActionPrice",
      "outputs": [],
      "stateMutability": "nonpayable",
      "type": "function"
    },
    {
      "inputs": [
        {
          "internalType": "uint256",
          "name": "_actionId",
          "type": "uint256"
        },
        {
          "internalType": "string",
          "name": "_newUnit",
          "type": "string"
        }
      ],
      "name": "updateActionUnit",
      "outputs": [],
      "stateMutability": "nonpayable",
      "type": "function"
    }
  ],
  "bytecode": "0x608060405260016002553480156200001657600080fd5b5033600073ffffffffffffffffffffffffffffffffffffffff168173ffffffffffffffffffffffffffffffffffffffff16036200008d5760006040517f1e4fbdf7000000000000000000000000000000000000000000000000000000008152600401620000849190620001ae565b60405180910390fd5b6200009e81620000a560201b60201c565b50620001cb565b60008060009054906101000a900473ffffffffffffffffffffffffffffffffffffffff169050816000806101000a81548173ffffffffffffffffffffffffffffffffffffffff021916908373ffffffffffffffffffffffffffffffffffffffff1602179055508173ffffffffffffffffffffffffffffffffffffffff168173ffffffffffffffffffffffffffffffffffffffff167f8be0079c531659141344cd1fd0a4f28419497f9722a3daafe3b4186f6b6457e060405160405180910390a35050565b600073ffffffffffffffffffffffffffffffffffffffff82169050919050565b6000620001968262000169565b9050919050565b620001a88162000189565b82525050565b6000602082019050620001c560008301846200019d565b92915050565b61551c80620001db6000396000f3fe60806040523480156200001157600080fd5b5060043610620001005760003560e01c80638ccc0f921162000099578063d80ab93a116200006f578063d80ab93a1462000292578063df7dfef714620002b2578063f2fde38b14620002d2578063f7d2bed214620002f25762000100565b80638ccc0f9214620001fd5780638da5cb5b1462000233578063b4272ce914620002555762000100565b8063715018a611620000db578063715018a61462000191578063734f107d146200019d57806380479db114620001bd578063898786ac14620001dd5762000100565b806329ebacd3146200010557806337e43129146200013b5780636e9163c7146200015b575b600080fd5b6200012360048036038101906200011d91906200201e565b62000312565b60405162000132919062002109565b60405180910390f35b62000159600480360381019062000153919062002126565b6200060d565b005b620001796004803603810190620001739190620021b7565b620006c3565b60405162000188919062002246565b60405180910390f35b6200019b62000866565b005b620001bb6004803603810190620001b5919062002263565b6200087e565b005b620001db6004803603810190620001d5919062002263565b62000b5b565b005b620001fb6004803603810190620001f59190620022c9565b62000e38565b005b6200021b6004803603810190620002159190620022fb565b62000e86565b6040516200022a919062002580565b60405180910390f35b6200023d6200127a565b6040516200024c919062002109565b60405180910390f35b6200027360048036038101906200026d9190620025a4565b620012a3565b604051620002899897969594939291906200264a565b60405180910390f35b620002b06004803603810190620002aa9190620026e6565b6200148b565b005b620002d06004803603810190620002ca9190620025a4565b62001544565b005b620002f06004803603810190620002ea9190620022fb565b620017f9565b005b6200031060048036038101906200030a91906200276e565b62001886565b005b60008060025488888888600360009054906101000a900473ffffffffffffffffffffffffffffffffffffffff166040516200034d9062001cb3565b6200035e96959493929190620027b5565b604051809103906000f0801580156200037b573d6000803e3d6000fd5b5090506002548173ffffffffffffffffffffffffffffffffffffffff167fe81310ec773657d634a70519a2263baac2b0d0aa7dfebad87ffc0e52e188a26e8a8a8a8a89604051620003d19594939291906200289b565b60405180910390a360405180610100016040528060025481526020018273ffffffffffffffffffffffffffffffffffffffff1681526020018981526020018881526020018781526020018673ffffffffffffffffffffffffffffffffffffffff1681526020018573ffffffffffffffffffffffffffffffffffffffff1681526020018473ffffffffffffffffffffffffffffffffffffffff168152506001600060025481526020019081526020016000206000820151816000015560208201518160010160006101000a81548173ffffffffffffffffffffffffffffffffffffffff021916908373ffffffffffffffffffffffffffffffffffffffff1602179055506040820151816002019081620004ea919062002b32565b50606082015181600301908162000502919062002b32565b506080820151816004015560a08201518160050160006101000a81548173ffffffffffffffffffffffffffffffffffffffff021916908373ffffffffffffffffffffffffffffffffffffffff16021790555060c08201518160060160006101000a81548173ffffffffffffffffffffffffffffffffffffffff021916908373ffffffffffffffffffffffffffffffffffffffff16021790555060e08201518160070160006101000a81548173ffffffffffffffffffffffffffffffffffffffff021916908373ffffffffffffffffffffffffffffffffffffffff16021790555090505060026000815480929190620005fa9062002c48565b9190505550809150509695505050505050565b8373ffffffffffffffffffffffffffffffffffffffff163373ffffffffffffffffffffffffffffffffffffffff16146200067e576040517f08c379a0000000000000000000000000000000000000000000000000000000008152600401620006759062002d0b565b60405180910390fd5b7f3b043dd6bdb2e9b6036db332096cbc51cf9f4e21c658bd57a14bbbb17c3b88c484848484604051620006b5949392919062002d2d565b60405180910390a150505050565b60006001600086815260200190815260200160002060010160009054906101000a900473ffffffffffffffffffffffffffffffffffffffff1673ffffffffffffffffffffffffffffffffffffffff163373ffffffffffffffffffffffffffffffffffffffff16146200076c576040517f08c379a0000000000000000000000000000000000000000000000000000000008152600401620007639062002df7565b60405180910390fd5b6000600360009054906101000a900473ffffffffffffffffffffffffffffffffffffffff1673ffffffffffffffffffffffffffffffffffffffff1663a606b94a8686866040518463ffffffff1660e01b8152600401620007cf9392919062002e19565b6020604051808303816000875af1158015620007ef573d6000803e3d6000fd5b505050506040513d601f19601f8201168201806040525081019062000815919062002e87565b9050806200085a576040517f08c379a0000000000000000000000000000000000000000000000000000000008152600401620008519062002f2f565b60405180910390fd5b80915050949350505050565b6200087062001b57565b6200087c600062001be7565b565b600073ffffffffffffffffffffffffffffffffffffffff166001600084815260200190815260200160002060010160009054906101000a900473ffffffffffffffffffffffffffffffffffffffff1673ffffffffffffffffffffffffffffffffffffffff160362000926576040517f08c379a00000000000000000000000000000000000000000000000000000000081526004016200091d9062002fa1565b60405180910390fd5b6001600083815260200190815260200160002060070160009054906101000a900473ffffffffffffffffffffffffffffffffffffffff1673ffffffffffffffffffffffffffffffffffffffff166324d7806c336040518263ffffffff1660e01b815260040162000997919062002109565b602060405180830381865afa158015620009b5573d6000803e3d6000fd5b505050506040513d601f19601f82011682018060405250810190620009db919062002e87565b62000a1d576040517f08c379a000000000000000000000000000000000000000000000000000000000815260040162000a149062003039565b60405180910390fd5b60006001600084815260200190815260200160002060010160009054906101000a900473ffffffffffffffffffffffffffffffffffffffff1690508073ffffffffffffffffffffffffffffffffffffffff1663c47f0027836040518263ffffffff1660e01b815260040162000a9391906200305b565b600060405180830381600087803b15801562000aae57600080fd5b505af115801562000ac3573d6000803e3d6000fd5b505050508160016000858152602001908152602001600020600201908162000aec919062002b32565b50827f644e9d034dd944506dc587697e37033685c32dfa06f6c4a03ec93eb06e3341208360016000878152602001908152602001600020600301600160008881526020019081526020016000206004015460405162000b4e939291906200310f565b60405180910390a2505050565b600073ffffffffffffffffffffffffffffffffffffffff166001600084815260200190815260200160002060010160009054906101000a900473ffffffffffffffffffffffffffffffffffffffff1673ffffffffffffffffffffffffffffffffffffffff160362000c03576040517f08c379a000000000000000000000000000000000000000000000000000000000815260040162000bfa9062002fa1565b60405180910390fd5b6001600083815260200190815260200160002060070160009054906101000a900473ffffffffffffffffffffffffffffffffffffffff1673ffffffffffffffffffffffffffffffffffffffff166324d7806c336040518263ffffffff1660e01b815260040162000c74919062002109565b602060405180830381865afa15801562000c92573d6000803e3d6000fd5b505050506040513d601f19601f8201168201806040525081019062000cb8919062002e87565b62000cfa576040517f08c379a000000000000000000000000000000000000000000000000000000000815260040162000cf19062003039565b60405180910390fd5b60006001600084815260200190815260200160002060010160009054906101000a900473ffffffffffffffffffffffffffffffffffffffff1690508073ffffffffffffffffffffffffffffffffffffffff16638221b09d836040518263ffffffff1660e01b815260040162000d7091906200305b565b600060405180830381600087803b15801562000d8b57600080fd5b505af115801562000da0573d6000803e3d6000fd5b505050508160016000858152602001908152602001600020600301908162000dc9919062002b32565b50827f644e9d034dd944506dc587697e37033685c32dfa06f6c4a03ec93eb06e3341206001600086815260200190815260200160002060020184600160008881526020019081526020016000206004015460405162000e2b939291906200315a565b60405180910390a2505050565b62000e4262001b57565b80600360006101000a81548173ffffffffffffffffffffffffffffffffffffffff021916908373ffffffffffffffffffffffffffffffffffffffff16021790555050565b60606000600160025462000e9b9190620031a5565b67ffffffffffffffff81111562000eb75762000eb662001df2565b5b60405190808252806020026020018201604052801562000ef457816020015b62000ee062001cc1565b81526020019060019003908162000ed65790505b5090506000600190505b60025481101562001270578373ffffffffffffffffffffffffffffffffffffffff166001600083815260200190815260200160002060050160009054906101000a900473ffffffffffffffffffffffffffffffffffffffff1673ffffffffffffffffffffffffffffffffffffffff160362001262576001600082815260200190815260200160002060405180610100016040529081600082015481526020016001820160009054906101000a900473ffffffffffffffffffffffffffffffffffffffff1673ffffffffffffffffffffffffffffffffffffffff1673ffffffffffffffffffffffffffffffffffffffff168152602001600282018054620010049062002935565b80601f0160208091040260200160405190810160405280929190818152602001828054620010329062002935565b8015620010835780601f10620010575761010080835404028352916020019162001083565b820191906000526020600020905b8154815290600101906020018083116200106557829003601f168201915b505050505081526020016003820180546200109e9062002935565b80601f0160208091040260200160405190810160405280929190818152602001828054620010cc9062002935565b80156200111d5780601f10620010f1576101008083540402835291602001916200111d565b820191906000526020600020905b815481529060010190602001808311620010ff57829003601f168201915b50505050508152602001600482015481526020016005820160009054906101000a900473ffffffffffffffffffffffffffffffffffffffff1673ffffffffffffffffffffffffffffffffffffffff1673ffffffffffffffffffffffffffffffffffffffff1681526020016006820160009054906101000a900473ffffffffffffffffffffffffffffffffffffffff1673ffffffffffffffffffffffffffffffffffffffff1673ffffffffffffffffffffffffffffffffffffffff1681526020016007820160009054906101000a900473ffffffffffffffffffffffffffffffffffffffff1673ffffffffffffffffffffffffffffffffffffffff1673ffffffffffffffffffffffffffffffffffffffff168152505082600183620012429190620031a5565b81518110620012565762001255620031e0565b5b60200260200101819052505b808060010191505062000efe565b5080915050919050565b60008060009054906101000a900473ffffffffffffffffffffffffffffffffffffffff16905090565b60016020528060005260406000206000915090508060000154908060010160009054906101000a900473ffffffffffffffffffffffffffffffffffffffff1690806002018054620012f49062002935565b80601f0160208091040260200160405190810160405280929190818152602001828054620013229062002935565b8015620013735780601f10620013475761010080835404028352916020019162001373565b820191906000526020600020905b8154815290600101906020018083116200135557829003601f168201915b5050505050908060030180546200138a9062002935565b80601f0160208091040260200160405190810160405280929190818152602001828054620013b89062002935565b8015620014095780601f10620013dd5761010080835404028352916020019162001409565b820191906000526020600020905b815481529060010190602001808311620013eb57829003601f168201915b5050505050908060040154908060050160009054906101000a900473ffffffffffffffffffffffffffffffffffffffff16908060060160009054906101000a900473ffffffffffffffffffffffffffffffffffffffff16908060070160009054906101000a900473ffffffffffffffffffffffffffffffffffffffff16905088565b8473ffffffffffffffffffffffffffffffffffffffff163373ffffffffffffffffffffffffffffffffffffffff1614620014fc576040517f08c379a0000000000000000000000000000000000000000000000000000000008152600401620014f39062002d0b565b60405180910390fd5b7f8ab75cdcff4e39b9a617b80edc7c91acb3ec54d4376e2a9afc8d892818560a0e8585858585604051620015359594939291906200320f565b60405180910390a15050505050565b600073ffffffffffffffffffffffffffffffffffffffff166001600083815260200190815260200160002060010160009054906101000a900473ffffffffffffffffffffffffffffffffffffffff1673ffffffffffffffffffffffffffffffffffffffff1603620015ec576040517f08c379a0000000000000000000000000000000000000000000000000000000008152600401620015e39062002fa1565b60405180910390fd5b6001600082815260200190815260200160002060070160009054906101000a900473ffffffffffffffffffffffffffffffffffffffff1673ffffffffffffffffffffffffffffffffffffffff166324d7806c336040518263ffffffff1660e01b81526004016200165d919062002109565b602060405180830381865afa1580156200167b573d6000803e3d6000fd5b505050506040513d601f19601f82011682018060405250810190620016a1919062002e87565b620016e3576040517f08c379a0000000000000000000000000000000000000000000000000000000008152600401620016da90620032e2565b60405180910390fd5b600160008281526020019081526020016000206000808201600090556001820160006101000a81549073ffffffffffffffffffffffffffffffffffffffff021916905560028201600062001738919062001d5e565b6003820160006200174a919062001d5e565b60048201600090556005820160006101000a81549073ffffffffffffffffffffffffffffffffffffffff02191690556006820160006101000a81549073ffffffffffffffffffffffffffffffffffffffff02191690556007820160006101000a81549073ffffffffffffffffffffffffffffffffffffffff02191690555050807f87415f1e67c6a1a1afee712e93e735be84ddfbec3dec17a1fdc129907f68c50860405160405180910390a250565b6200180362001b57565b600073ffffffffffffffffffffffffffffffffffffffff168173ffffffffffffffffffffffffffffffffffffffff1603620018785760006040517f1e4fbdf70000000000000000000000000000000000000000000000000000000081526004016200186f919062002109565b60405180910390fd5b620018838162001be7565b50565b600073ffffffffffffffffffffffffffffffffffffffff166001600084815260200190815260200160002060010160009054906101000a900473ffffffffffffffffffffffffffffffffffffffff1673ffffffffffffffffffffffffffffffffffffffff16036200192e576040517f08c379a0000000000000000000000000000000000000000000000000000000008152600401620019259062002fa1565b60405180910390fd5b6001600083815260200190815260200160002060070160009054906101000a900473ffffffffffffffffffffffffffffffffffffffff1673ffffffffffffffffffffffffffffffffffffffff166324d7806c336040518263ffffffff1660e01b81526004016200199f919062002109565b602060405180830381865afa158015620019bd573d6000803e3d6000fd5b505050506040513d601f19601f82011682018060405250810190620019e3919062002e87565b62001a25576040517f08c379a000000000000000000000000000000000000000000000000000000000815260040162001a1c9062003039565b60405180910390fd5b60006001600084815260200190815260200160002060010160009054906101000a900473ffffffffffffffffffffffffffffffffffffffff1690508073ffffffffffffffffffffffffffffffffffffffff166391b7f5ed836040518263ffffffff1660e01b815260040162001a9b919062003304565b600060405180830381600087803b15801562001ab657600080fd5b505af115801562001acb573d6000803e3d6000fd5b50505050816001600085815260200190815260200160002060040181905550827f644e9d034dd944506dc587697e37033685c32dfa06f6c4a03ec93eb06e33412060016000868152602001908152602001600020600201600160008781526020019081526020016000206003018560405162001b4a9392919062003321565b60405180910390a2505050565b62001b6162001cab565b73ffffffffffffffffffffffffffffffffffffffff1662001b816200127a565b73ffffffffffffffffffffffffffffffffffffffff161462001be55762001ba762001cab565b6040517f118cdaa700000000000000000000000000000000000000000000000000000000815260040162001bdc919062002109565b60405180910390fd5b565b60008060009054906101000a900473ffffffffffffffffffffffffffffffffffffffff169050816000806101000a81548173ffffffffffffffffffffffffffffffffffffffff021916908373ffffffffffffffffffffffffffffffffffffffff1602179055508173ffffffffffffffffffffffffffffffffffffffff168173ffffffffffffffffffffffffffffffffffffffff167f8be0079c531659141344cd1fd0a4f28419497f9722a3daafe3b4186f6b6457e060405160405180910390a35050565b600033905090565b61217a806200336d83390190565b60405180610100016040528060008152602001600073ffffffffffffffffffffffffffffffffffffffff168152602001606081526020016060815260200160008152602001600073ffffffffffffffffffffffffffffffffffffffff168152602001600073ffffffffffffffffffffffffffffffffffffffff168152602001600073ffffffffffffffffffffffffffffffffffffffff1681525090565b50805462001d6c9062002935565b6000825580601f1062001d80575062001da1565b601f01602090049060005260206000209081019062001da0919062001da4565b5b50565b5b8082111562001dbf57600081600090555060010162001da5565b5090565b6000604051905090565b600080fd5b600080fd5b600080fd5b600080fd5b6000601f19601f8301169050919050565b7f4e487b7100000000000000000000000000000000000000000000000000000000600052604160045260246000fd5b62001e2c8262001de1565b810181811067ffffffffffffffff8211171562001e4e5762001e4d62001df2565b5b80604052505050565b600062001e6362001dc3565b905062001e71828262001e21565b919050565b600067ffffffffffffffff82111562001e945762001e9362001df2565b5b62001e9f8262001de1565b9050602081019050919050565b82818337600083830152505050565b600062001ed262001ecc8462001e76565b62001e57565b90508281526020810184848401111562001ef15762001ef062001ddc565b5b62001efe84828562001eac565b509392505050565b600082601f83011262001f1e5762001f1d62001dd7565b5b813562001f3084826020860162001ebb565b91505092915050565b6000819050919050565b62001f4e8162001f39565b811462001f5a57600080fd5b50565b60008135905062001f6e8162001f43565b92915050565b600073ffffffffffffffffffffffffffffffffffffffff82169050919050565b600062001fa18262001f74565b9050919050565b62001fb38162001f94565b811462001fbf57600080fd5b50565b60008135905062001fd38162001fa8565b92915050565b600062001fe68262001f74565b9050919050565b62001ff88162001fd9565b81146200200457600080fd5b50565b600081359050620020188162001fed565b92915050565b60008060008060008060c087890312156200203e576200203d62001dcd565b5b600087013567ffffffffffffffff8111156200205f576200205e62001dd2565b5b6200206d89828a0162001f06565b965050602087013567ffffffffffffffff81111562002091576200209062001dd2565b5b6200209f89828a0162001f06565b9550506040620020b289828a0162001f5d565b9450506060620020c589828a0162001fc2565b9350506080620020d889828a0162002007565b92505060a0620020eb89828a0162002007565b9150509295509295509295565b620021038162001fd9565b82525050565b6000602082019050620021206000830184620020f8565b92915050565b6000806000806080858703121562002143576200214262001dcd565b5b6000620021538782880162002007565b9450506020620021668782880162001f5d565b935050604085013567ffffffffffffffff8111156200218a576200218962001dd2565b5b620021988782880162001f06565b9250506060620021ab8782880162001f5d565b91505092959194509250565b60008060008060808587031215620021d457620021d362001dcd565b5b6000620021e48782880162001f5d565b9450506020620021f78782880162002007565b93505060406200220a8782880162002007565b92505060606200221d8782880162001f5d565b91505092959194509250565b60008115159050919050565b620022408162002229565b82525050565b60006020820190506200225d600083018462002235565b92915050565b600080604083850312156200227d576200227c62001dcd565b5b60006200228d8582860162001f5d565b925050602083013567ffffffffffffffff811115620022b157620022b062001dd2565b5b620022bf8582860162001f06565b9150509250929050565b600060208284031215620022e257620022e162001dcd565b5b6000620022f28482850162001fc2565b91505092915050565b60006020828403121562002314576200231362001dcd565b5b6000620023248482850162002007565b91505092915050565b600081519050919050565b600082825260208201905092915050565b6000819050602082019050919050565b620023648162001f39565b82525050565b620023758162001f94565b82525050565b600081519050919050565b600082825260208201905092915050565b60005b83811015620023b75780820151818401526020810190506200239a565b60008484015250505050565b6000620023d0826200237b565b620023dc818562002386565b9350620023ee81856020860162002397565b620023f98162001de1565b840191505092915050565b6200240f8162001fd9565b82525050565b60006101008301600083015162002430600086018262002359565b5060208301516200244560208601826200236a565b50604083015184820360408601526200245f8282620023c3565b915050606083015184820360608601526200247b8282620023c3565b915050608083015162002492608086018262002359565b5060a0830151620024a760a086018262002404565b5060c0830151620024bc60c086018262002404565b5060e0830151620024d160e086018262002404565b508091505092915050565b6000620024ea838362002415565b905092915050565b6000602082019050919050565b60006200250c826200232d565b62002518818562002338565b9350836020820285016200252c8562002349565b8060005b858110156200256e57848403895281516200254c8582620024dc565b94506200255983620024f2565b925060208a0199505060018101905062002530565b50829750879550505050505092915050565b600060208201905081810360008301526200259c8184620024ff565b905092915050565b600060208284031215620025bd57620025bc62001dcd565b5b6000620025cd8482850162001f5d565b91505092915050565b620025e18162001f39565b82525050565b620025f28162001f94565b82525050565b600082825260208201905092915050565b600062002616826200237b565b620026228185620025f8565b93506200263481856020860162002397565b6200263f8162001de1565b840191505092915050565b60006101008201905062002662600083018b620025d6565b62002671602083018a620025e7565b818103604083015262002685818962002609565b905081810360608301526200269b818862002609565b9050620026ac6080830187620025d6565b620026bb60a0830186620020f8565b620026ca60c0830185620020f8565b620026d960e0830184620020f8565b9998505050505050505050565b600080600080600060a0868803121562002705576200270462001dcd565b5b6000620027158882890162002007565b9550506020620027288882890162001f5d565b94505060406200273b8882890162002007565b93505060606200274e8882890162001f5d565b9250506080620027618882890162001f5d565b9150509295509295909350565b6000806040838503121562002788576200278762001dcd565b5b6000620027988582860162001f5d565b9250506020620027ab8582860162001f5d565b9150509250929050565b600060c082019050620027cc6000830189620025d6565b8181036020830152620027e0818862002609565b90508181036040830152620027f6818762002609565b9050620028076060830186620025d6565b620028166080830185620025e7565b6200282560a0830184620025e7565b979650505050505050565b6000819050919050565b60006200285b620028556200284f8462001f74565b62002830565b62001f74565b9050919050565b60006200286f826200283a565b9050919050565b6000620028838262002862565b9050919050565b620028958162002876565b82525050565b600060a0820190508181036000830152620028b7818862002609565b90508181036020830152620028cd818762002609565b9050620028de6040830186620025d6565b620028ed60608301856200288a565b620028fc6080830184620020f8565b9695505050505050565b7f4e487b7100000000000000000000000000000000000000000000000000000000600052602260045260246000fd5b600060028204905060018216806200294e57607f821691505b60208210810362002964576200296362002906565b5b50919050565b60008190508160005260206000209050919050565b60006020601f8301049050919050565b600082821b905092915050565b600060088302620029ce7fffffffffffffffffffffffffffffffffffffffffffffffffffffffffffffffff826200298f565b620029da86836200298f565b95508019841693508086168417925050509392505050565b600062002a1362002a0d62002a078462001f39565b62002830565b62001f39565b9050919050565b6000819050919050565b62002a2f83620029f2565b62002a4762002a3e8262002a1a565b8484546200299c565b825550505050565b600090565b62002a5e62002a4f565b62002a6b81848462002a24565b505050565b5b8181101562002a935762002a8760008262002a54565b60018101905062002a71565b5050565b601f82111562002ae25762002aac816200296a565b62002ab7846200297f565b8101602085101562002ac7578190505b62002adf62002ad6856200297f565b83018262002a70565b50505b505050565b600082821c905092915050565b600062002b076000198460080262002ae7565b1980831691505092915050565b600062002b22838362002af4565b9150826002028217905092915050565b62002b3d826200237b565b67ffffffffffffffff81111562002b595762002b5862001df2565b5b62002b65825462002935565b62002b7282828562002a97565b600060209050601f83116001811462002baa576000841562002b95578287015190505b62002ba1858262002b14565b86555062002c11565b601f19841662002bba866200296a565b60005b8281101562002be45784890151825560018201915060208501945060208101905062002bbd565b8683101562002c04578489015162002c00601f89168262002af4565b8355505b6001600288020188555050505b505050505050565b7f4e487b7100000000000000000000000000000000000000000000000000000000600052601160045260246000fd5b600062002c558262001f39565b91507fffffffffffffffffffffffffffffffffffffffffffffffffffffffffffffffff820362002c8a5762002c8962002c19565b5b600182019050919050565b7f4f6e6c792074686520616374696f6e20636f6e74726163742063616e2063616c60008201527f6c20746869732066756e6374696f6e0000000000000000000000000000000000602082015250565b600062002cf3602f83620025f8565b915062002d008262002c95565b604082019050919050565b6000602082019050818103600083015262002d268162002ce4565b9050919050565b600060808201905062002d446000830187620020f8565b62002d536020830186620025d6565b818103604083015262002d67818562002609565b905062002d786060830184620025d6565b95945050505050565b7f596f7520617265206e6f7420616c6c6f77656420746f2063616c6c207468697360008201527f2066756e6374696f6e0000000000000000000000000000000000000000000000602082015250565b600062002ddf602983620025f8565b915062002dec8262002d81565b604082019050919050565b6000602082019050818103600083015262002e128162002dd0565b9050919050565b600060608201905062002e306000830186620020f8565b62002e3f6020830185620020f8565b62002e4e6040830184620025d6565b949350505050565b62002e618162002229565b811462002e6d57600080fd5b50565b60008151905062002e818162002e56565b92915050565b60006020828403121562002ea05762002e9f62001dcd565b5b600062002eb08482850162002e70565b91505092915050565b7f536f6d657468696e6720776974682042616c616e63655472616e73666572206960008201527f6e20416374696f6e466163746f72792077656e742077726f6e67000000000000602082015250565b600062002f17603a83620025f8565b915062002f248262002eb9565b604082019050919050565b6000602082019050818103600083015262002f4a8162002f08565b9050919050565b7f416374696f6e20646f6573206e6f742065786973740000000000000000000000600082015250565b600062002f89601583620025f8565b915062002f968262002f51565b602082019050919050565b6000602082019050818103600083015262002fbc8162002f7a565b9050919050565b7f4e6f2041646d696e4e4654202d3e206e6f7420616c6c6f77656420746f20757060008201527f646174652074686520616374696f6e0000000000000000000000000000000000602082015250565b600062003021602f83620025f8565b91506200302e8262002fc3565b604082019050919050565b60006020820190508181036000830152620030548162003012565b9050919050565b6000602082019050818103600083015262003077818462002609565b905092915050565b600081546200308e8162002935565b6200309a8186620025f8565b94506001821660008114620030b85760018114620030cf5762003106565b60ff19831686528115156020028601935062003106565b620030da856200296a565b60005b83811015620030fe57815481890152600182019150602081019050620030dd565b808801955050505b50505092915050565b600060608201905081810360008301526200312b818662002609565b905081810360208301526200314181856200307f565b9050620031526040830184620025d6565b949350505050565b600060608201905081810360008301526200317681866200307f565b905081810360208301526200318c818562002609565b90506200319d6040830184620025d6565b949350505050565b6000620031b28262001f39565b9150620031bf8362001f39565b9250828203905081811115620031da57620031d962002c19565b5b92915050565b7f4e487b7100000000000000000000000000000000000000000000000000000000600052603260045260246000fd5b600060a082019050620032266000830188620020f8565b620032356020830187620025d6565b620032446040830186620020f8565b620032536060830185620025d6565b620032626080830184620025d6565b9695505050505050565b7f4e6f2041646d696e4e4654202d3e206e6f7420616c6c6f77656420746f20646560008201527f6c6574652074686520616374696f6e0000000000000000000000000000000000602082015250565b6000620032ca602f83620025f8565b9150620032d7826200326c565b604082019050919050565b60006020820190508181036000830152620032fd81620032bb565b9050919050565b60006020820190506200331b6000830184620025d6565b92915050565b600060608201905081810360008301526200333d81866200307f565b905081810360208301526200335381856200307f565b9050620033646040830184620025d6565b94935050505056fe60806040523480156200001157600080fd5b506040516200217a3803806200217a8339818101604052810190620000379190620004b7565b33600073ffffffffffffffffffffffffffffffffffffffff168173ffffffffffffffffffffffffffffffffffffffff1603620000ad5760006040517f1e4fbdf7000000000000000000000000000000000000000000000000000000008152600401620000a49190620005b6565b60405180910390fd5b620000be81620001c060201b60201c565b50856001819055508460029081620000d7919062000814565b508360039081620000e9919062000814565b508260048190555081600560006101000a81548173ffffffffffffffffffffffffffffffffffffffff021916908373ffffffffffffffffffffffffffffffffffffffff16021790555080600660006101000a81548173ffffffffffffffffffffffffffffffffffffffff021916908373ffffffffffffffffffffffffffffffffffffffff16021790555033600760006101000a81548173ffffffffffffffffffffffffffffffffffffffff021916908373ffffffffffffffffffffffffffffffffffffffff160217905550505050505050620008fb565b60008060009054906101000a900473ffffffffffffffffffffffffffffffffffffffff169050816000806101000a81548173ffffffffffffffffffffffffffffffffffffffff021916908373ffffffffffffffffffffffffffffffffffffffff1602179055508173ffffffffffffffffffffffffffffffffffffffff168173ffffffffffffffffffffffffffffffffffffffff167f8be0079c531659141344cd1fd0a4f28419497f9722a3daafe3b4186f6b6457e060405160405180910390a35050565b6000604051905090565b600080fd5b600080fd5b6000819050919050565b620002ad8162000298565b8114620002b957600080fd5b50565b600081519050620002cd81620002a2565b92915050565b600080fd5b600080fd5b6000601f19601f8301169050919050565b7f4e487b7100000000000000000000000000000000000000000000000000000000600052604160045260246000fd5b6200032882620002dd565b810181811067ffffffffffffffff821117156200034a5762000349620002ee565b5b80604052505050565b60006200035f62000284565b90506200036d82826200031d565b919050565b600067ffffffffffffffff82111562000390576200038f620002ee565b5b6200039b82620002dd565b9050602081019050919050565b60005b83811015620003c8578082015181840152602081019050620003ab565b60008484015250505050565b6000620003eb620003e58462000372565b62000353565b9050828152602081018484840111156200040a5762000409620002d8565b5b62000417848285620003a8565b509392505050565b600082601f830112620004375762000436620002d3565b5b815162000449848260208601620003d4565b91505092915050565b600073ffffffffffffffffffffffffffffffffffffffff82169050919050565b60006200047f8262000452565b9050919050565b620004918162000472565b81146200049d57600080fd5b50565b600081519050620004b18162000486565b92915050565b60008060008060008060c08789031215620004d757620004d66200028e565b5b6000620004e789828a01620002bc565b965050602087015167ffffffffffffffff8111156200050b576200050a62000293565b5b6200051989828a016200041f565b955050604087015167ffffffffffffffff8111156200053d576200053c62000293565b5b6200054b89828a016200041f565b94505060606200055e89828a01620002bc565b93505060806200057189828a01620004a0565b92505060a06200058489828a01620004a0565b9150509295509295509295565b60006200059e8262000452565b9050919050565b620005b08162000591565b82525050565b6000602082019050620005cd6000830184620005a5565b92915050565b600081519050919050565b7f4e487b7100000000000000000000000000000000000000000000000000000000600052602260045260246000fd5b600060028204905060018216806200062657607f821691505b6020821081036200063c576200063b620005de565b5b50919050565b60008190508160005260206000209050919050565b60006020601f8301049050919050565b600082821b905092915050565b600060088302620006a67fffffffffffffffffffffffffffffffffffffffffffffffffffffffffffffffff8262000667565b620006b2868362000667565b95508019841693508086168417925050509392505050565b6000819050919050565b6000620006f5620006ef620006e98462000298565b620006ca565b62000298565b9050919050565b6000819050919050565b6200071183620006d4565b620007296200072082620006fc565b84845462000674565b825550505050565b600090565b6200074062000731565b6200074d81848462000706565b505050565b5b8181101562000775576200076960008262000736565b60018101905062000753565b5050565b601f821115620007c4576200078e8162000642565b620007998462000657565b81016020851015620007a9578190505b620007c1620007b88562000657565b83018262000752565b50505b505050565b600082821c905092915050565b6000620007e960001984600802620007c9565b1980831691505092915050565b6000620008048383620007d6565b9150826002028217905092915050565b6200081f82620005d3565b67ffffffffffffffff8111156200083b576200083a620002ee565b5b6200084782546200060d565b6200085482828562000779565b600060209050601f8311600181146200088c576000841562000877578287015190505b620008838582620007f6565b865550620008f3565b601f1984166200089c8662000642565b60005b82811015620008c6578489015182556001820191506020850194506020810190506200089f565b86831015620008e65784890151620008e2601f891682620007d6565b8355505b6001600288020188555050505b505050505050565b61186f806200090b6000396000f3fe6080604052600436106100ab5760003560e01c8063a7cc53f511610064578063a7cc53f51461045a578063c47f002714610485578063c6326dd0146104ae578063da92adcb146104d9578063e55186a114610502578063f2fde38b1461052d5761036b565b806317d7de7c1461037057806349109a401461039b578063715018a6146103c65780638221b09d146103dd5780638da5cb5b1461040657806391b7f5ed146104315761036b565b3661036b5760045434101561018e57600760009054906101000a900473ffffffffffffffffffffffffffffffffffffffff1673ffffffffffffffffffffffffffffffffffffffff1663d80ab93a3060015433346004546040518663ffffffff1660e01b8152600401610121959493929190610d13565b600060405180830381600087803b15801561013b57600080fd5b505af115801561014f573d6000803e3d6000fd5b505050506040517f08c379a000000000000000000000000000000000000000000000000000000000815260040161018590610dc3565b60405180910390fd5b6000600560009054906101000a900473ffffffffffffffffffffffffffffffffffffffff1673ffffffffffffffffffffffffffffffffffffffff16638da5cb5b6040518163ffffffff1660e01b8152600401602060405180830381865afa1580156101fd573d6000803e3d6000fd5b505050506040513d601f19601f820116820180604052508101906102219190610e23565b73ffffffffffffffffffffffffffffffffffffffff163460405161024490610e81565b60006040518083038185875af1925050503d8060008114610281576040519150601f19603f3d011682016040523d82523d6000602084013e610286565b606091505b50509050806102ca576040517f08c379a00000000000000000000000000000000000000000000000000000000081526004016102c190610ee2565b60405180910390fd5b600760009054906101000a900473ffffffffffffffffffffffffffffffffffffffff1673ffffffffffffffffffffffffffffffffffffffff166337e431293060015460026004543461031c9190610f60565b6040518563ffffffff1660e01b815260040161033b949392919061108a565b600060405180830381600087803b15801561035557600080fd5b505af1158015610369573d6000803e3d6000fd5b005b600080fd5b34801561037c57600080fd5b50610385610556565b6040516103929190611155565b60405180910390f35b3480156103a757600080fd5b506103b06105e8565b6040516103bd9190611177565b60405180910390f35b3480156103d257600080fd5b506103db610698565b005b3480156103e957600080fd5b5061040460048036038101906103ff91906112c7565b6106ac565b005b34801561041257600080fd5b5061041b6106c7565b6040516104289190611310565b60405180910390f35b34801561043d57600080fd5b5061045860048036038101906104539190611357565b6106f0565b005b34801561046657600080fd5b5061046f610702565b60405161047c9190611177565b60405180910390f35b34801561049157600080fd5b506104ac60048036038101906104a791906112c7565b61070c565b005b3480156104ba57600080fd5b506104c3610727565b6040516104d091906113e3565b60405180910390f35b3480156104e557600080fd5b5061050060048036038101906104fb9190611357565b61074d565b005b34801561050e57600080fd5b50610517610a4e565b6040516105249190611155565b60405180910390f35b34801561053957600080fd5b50610554600480360381019061054f9190611413565b610ae0565b005b60606002805461056590610fc0565b80601f016020809104026020016040519081016040528092919081815260200182805461059190610fc0565b80156105de5780601f106105b3576101008083540402835291602001916105de565b820191906000526020600020905b8154815290600101906020018083116105c157829003601f168201915b5050505050905090565b6000600454600660009054906101000a900473ffffffffffffffffffffffffffffffffffffffff1673ffffffffffffffffffffffffffffffffffffffff1663f8b2cb4f336040518263ffffffff1660e01b81526004016106489190611310565b602060405180830381865afa158015610665573d6000803e3d6000fd5b505050506040513d601f19601f820116820180604052508101906106899190611455565b6106939190610f60565b905090565b6106a0610b66565b6106aa6000610bed565b565b6106b4610b66565b80600390816106c3919061160f565b5050565b60008060009054906101000a900473ffffffffffffffffffffffffffffffffffffffff16905090565b6106f8610b66565b8060048190555050565b6000600454905090565b610714610b66565b8060029081610723919061160f565b5050565b600560009054906101000a900473ffffffffffffffffffffffffffffffffffffffff1681565b600454600660009054906101000a900473ffffffffffffffffffffffffffffffffffffffff1673ffffffffffffffffffffffffffffffffffffffff1663f8b2cb4f336040518263ffffffff1660e01b81526004016107ab9190611310565b602060405180830381865afa1580156107c8573d6000803e3d6000fd5b505050506040513d601f19601f820116820180604052508101906107ec9190611455565b101561082d576040517f08c379a00000000000000000000000000000000000000000000000000000000081526004016108249061172d565b60405180910390fd5b6000600760009054906101000a900473ffffffffffffffffffffffffffffffffffffffff1673ffffffffffffffffffffffffffffffffffffffff16636e9163c760015433600560009054906101000a900473ffffffffffffffffffffffffffffffffffffffff1673ffffffffffffffffffffffffffffffffffffffff16638da5cb5b6040518163ffffffff1660e01b8152600401602060405180830381865afa1580156108de573d6000803e3d6000fd5b505050506040513d601f19601f820116820180604052508101906109029190610e23565b60045487610910919061174d565b6040518563ffffffff1660e01b815260040161092f949392919061178f565b6020604051808303816000875af115801561094e573d6000803e3d6000fd5b505050506040513d601f19601f82011682018060405250810190610972919061180c565b9050806109b4576040517f08c379a00000000000000000000000000000000000000000000000000000000081526004016109ab90610ee2565b60405180910390fd5b600760009054906101000a900473ffffffffffffffffffffffffffffffffffffffff1673ffffffffffffffffffffffffffffffffffffffff166337e43129306001546002866040518563ffffffff1660e01b8152600401610a18949392919061108a565b600060405180830381600087803b158015610a3257600080fd5b505af1158015610a46573d6000803e3d6000fd5b505050505050565b606060038054610a5d90610fc0565b80601f0160208091040260200160405190810160405280929190818152602001828054610a8990610fc0565b8015610ad65780601f10610aab57610100808354040283529160200191610ad6565b820191906000526020600020905b815481529060010190602001808311610ab957829003601f168201915b5050505050905090565b610ae8610b66565b600073ffffffffffffffffffffffffffffffffffffffff168173ffffffffffffffffffffffffffffffffffffffff1603610b5a5760006040517f1e4fbdf7000000000000000000000000000000000000000000000000000000008152600401610b519190611310565b60405180910390fd5b610b6381610bed565b50565b610b6e610cb1565b73ffffffffffffffffffffffffffffffffffffffff16610b8c6106c7565b73ffffffffffffffffffffffffffffffffffffffff1614610beb57610baf610cb1565b6040517f118cdaa7000000000000000000000000000000000000000000000000000000008152600401610be29190611310565b60405180910390fd5b565b60008060009054906101000a900473ffffffffffffffffffffffffffffffffffffffff169050816000806101000a81548173ffffffffffffffffffffffffffffffffffffffff021916908373ffffffffffffffffffffffffffffffffffffffff1602179055508173ffffffffffffffffffffffffffffffffffffffff168173ffffffffffffffffffffffffffffffffffffffff167f8be0079c531659141344cd1fd0a4f28419497f9722a3daafe3b4186f6b6457e060405160405180910390a35050565b600033905090565b600073ffffffffffffffffffffffffffffffffffffffff82169050919050565b6000610ce482610cb9565b9050919050565b610cf481610cd9565b82525050565b6000819050919050565b610d0d81610cfa565b82525050565b600060a082019050610d286000830188610ceb565b610d356020830187610d04565b610d426040830186610ceb565b610d4f6060830185610d04565b610d5c6080830184610d04565b9695505050505050565b600082825260208201905092915050565b7f496e73756666696369656e74207061796d656e74000000000000000000000000600082015250565b6000610dad601483610d66565b9150610db882610d77565b602082019050919050565b60006020820190508181036000830152610ddc81610da0565b9050919050565b6000604051905090565b600080fd5b600080fd5b610e0081610cd9565b8114610e0b57600080fd5b50565b600081519050610e1d81610df7565b92915050565b600060208284031215610e3957610e38610ded565b5b6000610e4784828501610e0e565b91505092915050565b600081905092915050565b50565b6000610e6b600083610e50565b9150610e7682610e5b565b600082019050919050565b6000610e8c82610e5e565b9150819050919050565b7f5472616e73666572206661696c65640000000000000000000000000000000000600082015250565b6000610ecc600f83610d66565b9150610ed782610e96565b602082019050919050565b60006020820190508181036000830152610efb81610ebf565b9050919050565b7f4e487b7100000000000000000000000000000000000000000000000000000000600052601260045260246000fd5b7f4e487b7100000000000000000000000000000000000000000000000000000000600052601160045260246000fd5b6000610f6b82610cfa565b9150610f7683610cfa565b925082610f8657610f85610f02565b5b828204905092915050565b7f4e487b7100000000000000000000000000000000000000000000000000000000600052602260045260246000fd5b60006002820490506001821680610fd857607f821691505b602082108103610feb57610fea610f91565b5b50919050565b60008190508160005260206000209050919050565b6000815461101381610fc0565b61101d8186610d66565b94506001821660008114611038576001811461104e57611081565b60ff198316865281151560200286019350611081565b61105785610ff1565b60005b838110156110795781548189015260018201915060208101905061105a565b808801955050505b50505092915050565b600060808201905061109f6000830187610ceb565b6110ac6020830186610d04565b81810360408301526110be8185611006565b90506110cd6060830184610d04565b95945050505050565b600081519050919050565b60005b838110156110ff5780820151818401526020810190506110e4565b60008484015250505050565b6000601f19601f8301169050919050565b6000611127826110d6565b6111318185610d66565b93506111418185602086016110e1565b61114a8161110b565b840191505092915050565b6000602082019050818103600083015261116f818461111c565b905092915050565b600060208201905061118c6000830184610d04565b92915050565b600080fd5b600080fd5b7f4e487b7100000000000000000000000000000000000000000000000000000000600052604160045260246000fd5b6111d48261110b565b810181811067ffffffffffffffff821117156111f3576111f261119c565b5b80604052505050565b6000611206610de3565b905061121282826111cb565b919050565b600067ffffffffffffffff8211156112325761123161119c565b5b61123b8261110b565b9050602081019050919050565b82818337600083830152505050565b600061126a61126584611217565b6111fc565b90508281526020810184848401111561128657611285611197565b5b611291848285611248565b509392505050565b600082601f8301126112ae576112ad611192565b5b81356112be848260208601611257565b91505092915050565b6000602082840312156112dd576112dc610ded565b5b600082013567ffffffffffffffff8111156112fb576112fa610df2565b5b61130784828501611299565b91505092915050565b60006020820190506113256000830184610ceb565b92915050565b61133481610cfa565b811461133f57600080fd5b50565b6000813590506113518161132b565b92915050565b60006020828403121561136d5761136c610ded565b5b600061137b84828501611342565b91505092915050565b6000819050919050565b60006113a96113a461139f84610cb9565b611384565b610cb9565b9050919050565b60006113bb8261138e565b9050919050565b60006113cd826113b0565b9050919050565b6113dd816113c2565b82525050565b60006020820190506113f860008301846113d4565b92915050565b60008135905061140d81610df7565b92915050565b60006020828403121561142957611428610ded565b5b6000611437848285016113fe565b91505092915050565b60008151905061144f8161132b565b92915050565b60006020828403121561146b5761146a610ded565b5b600061147984828501611440565b91505092915050565b60006020601f8301049050919050565b600082821b905092915050565b6000600883026114cf7fffffffffffffffffffffffffffffffffffffffffffffffffffffffffffffffff82611492565b6114d98683611492565b95508019841693508086168417925050509392505050565b600061150c61150761150284610cfa565b611384565b610cfa565b9050919050565b6000819050919050565b611526836114f1565b61153a61153282611513565b84845461149f565b825550505050565b600090565b61154f611542565b61155a81848461151d565b505050565b5b8181101561157e57611573600082611547565b600181019050611560565b5050565b601f8211156115c35761159481610ff1565b61159d84611482565b810160208510156115ac578190505b6115c06115b885611482565b83018261155f565b50505b505050565b600082821c905092915050565b60006115e6600019846008026115c8565b1980831691505092915050565b60006115ff83836115d5565b9150826002028217905092915050565b611618826110d6565b67ffffffffffffffff8111156116315761163061119c565b5b61163b8254610fc0565b611646828285611582565b600060209050601f8311600181146116795760008415611667578287015190505b61167185826115f3565b8655506116d9565b601f19841661168786610ff1565b60005b828110156116af5784890151825560018201915060208501945060208101905061168a565b868310156116cc57848901516116c8601f8916826115d5565b8355505b6001600288020188555050505b505050505050565b7f496e73756666696369656e742042616c616e6365000000000000000000000000600082015250565b6000611717601483610d66565b9150611722826116e1565b602082019050919050565b600060208201905081810360008301526117468161170a565b9050919050565b600061175882610cfa565b915061176383610cfa565b925082820261177181610cfa565b9150828204841483151761178857611787610f31565b5b5092915050565b60006080820190506117a46000830187610d04565b6117b16020830186610ceb565b6117be6040830185610ceb565b6117cb6060830184610d04565b95945050505050565b60008115159050919050565b6117e9816117d4565b81146117f457600080fd5b50565b600081519050611806816117e0565b92915050565b60006020828403121561182257611821610ded565b5b6000611830848285016117f7565b9150509291505056fea26469706673582212202d61f0db5c009a4ee27271426c9772ee5e3476cb8455901c9fa5b5d03a2364df64736f6c63430008180033a2646970667358221220695e23e2c0dafd87db24d520105aabba72cffba338a17141f61c8155cae7390764736f6c63430008180033",
  "linkReferences": {},
  "deployedLinkReferences": {}
}