{
  "_format": "hh-sol-artifact-1",
  "contractName": "Action",
  "sourceName": "contracts/Action.sol",
  "abi": [
    {
      "inputs": [
        {
          "internalType": "uint256",
          "name": "_id",
          "type": "uint256"
        },
        {
          "internalType": "string",
          "name": "_name",
          "type": "string"
        },
        {
          "internalType": "string",
          "name": "_unit",
          "type": "string"
        },
        {
          "internalType": "uint256",
          "name": "_pricePerUnit",
          "type": "uint256"
        },
        {
          "internalType": "address payable",
          "name": "_deviceAddress",
          "type": "address"
        },
        {
          "internalType": "address payable",
          "name": "_balanceAddress",
          "type": "address"
        }
      ],
      "stateMutability": "nonpayable",
      "type": "constructor"
    },
    {
      "inputs": [
        {
          "internalType": "address",
          "name": "owner",
          "type": "address"
        }
      ],
      "name": "OwnableInvalidOwner",
      "type": "error"
    },
    {
      "inputs": [
        {
          "internalType": "address",
          "name": "account",
          "type": "address"
        }
      ],
      "name": "OwnableUnauthorizedAccount",
      "type": "error"
    },
    {
      "anonymous": false,
      "inputs": [
        {
          "indexed": true,
          "internalType": "address",
          "name": "previousOwner",
          "type": "address"
        },
        {
          "indexed": true,
          "internalType": "address",
          "name": "newOwner",
          "type": "address"
        }
      ],
      "name": "OwnershipTransferred",
      "type": "event"
    },
    {
      "inputs": [],
      "name": "device",
      "outputs": [
        {
          "internalType": "contract Device",
          "name": "",
          "type": "address"
        }
      ],
      "stateMutability": "view",
      "type": "function"
    },
    {
      "inputs": [],
      "name": "getPricePerUnit",
      "outputs": [
        {
          "internalType": "uint256",
          "name": "",
          "type": "uint256"
        }
      ],
      "stateMutability": "view",
      "type": "function"
    },
    {
      "inputs": [],
      "name": "owner",
      "outputs": [
        {
          "internalType": "address",
          "name": "",
          "type": "address"
        }
      ],
      "stateMutability": "view",
      "type": "function"
    },
    {
      "inputs": [
        {
          "internalType": "uint256",
          "name": "_amount",
          "type": "uint256"
        }
      ],
      "name": "payAction",
      "outputs": [],
      "stateMutability": "nonpayable",
      "type": "function"
    },
    {
      "inputs": [],
      "name": "possibleActionsAmount",
      "outputs": [
        {
          "internalType": "uint256",
          "name": "",
          "type": "uint256"
        }
      ],
      "stateMutability": "view",
      "type": "function"
    },
    {
      "inputs": [],
      "name": "renounceOwnership",
      "outputs": [],
      "stateMutability": "nonpayable",
      "type": "function"
    },
    {
      "inputs": [
        {
          "internalType": "uint256",
          "name": "_price",
          "type": "uint256"
        }
      ],
      "name": "setPrice",
      "outputs": [],
      "stateMutability": "nonpayable",
      "type": "function"
    },
    {
      "inputs": [
        {
          "internalType": "address",
          "name": "newOwner",
          "type": "address"
        }
      ],
      "name": "transferOwnership",
      "outputs": [],
      "stateMutability": "nonpayable",
      "type": "function"
    },
    {
      "stateMutability": "payable",
      "type": "receive"
    }
  ],
  "bytecode": "0x60806040523480156200001157600080fd5b506040516200196a3803806200196a8339818101604052810190620000379190620004f0565b33600073ffffffffffffffffffffffffffffffffffffffff168173ffffffffffffffffffffffffffffffffffffffff1603620000ad5760006040517f1e4fbdf7000000000000000000000000000000000000000000000000000000008152600401620000a49190620005ef565b60405180910390fd5b620000be81620001f960201b60201c565b503373ffffffffffffffffffffffffffffffffffffffff163373ffffffffffffffffffffffffffffffffffffffff1614620000f857600080fd5b8560018190555084600290816200011091906200084d565b5083600390816200012291906200084d565b508260048190555081600560006101000a81548173ffffffffffffffffffffffffffffffffffffffff021916908373ffffffffffffffffffffffffffffffffffffffff16021790555080600660006101000a81548173ffffffffffffffffffffffffffffffffffffffff021916908373ffffffffffffffffffffffffffffffffffffffff16021790555033600760006101000a81548173ffffffffffffffffffffffffffffffffffffffff021916908373ffffffffffffffffffffffffffffffffffffffff16021790555050505050505062000934565b60008060009054906101000a900473ffffffffffffffffffffffffffffffffffffffff169050816000806101000a81548173ffffffffffffffffffffffffffffffffffffffff021916908373ffffffffffffffffffffffffffffffffffffffff1602179055508173ffffffffffffffffffffffffffffffffffffffff168173ffffffffffffffffffffffffffffffffffffffff167f8be0079c531659141344cd1fd0a4f28419497f9722a3daafe3b4186f6b6457e060405160405180910390a35050565b6000604051905090565b600080fd5b600080fd5b6000819050919050565b620002e681620002d1565b8114620002f257600080fd5b50565b6000815190506200030681620002db565b92915050565b600080fd5b600080fd5b6000601f19601f8301169050919050565b7f4e487b7100000000000000000000000000000000000000000000000000000000600052604160045260246000fd5b620003618262000316565b810181811067ffffffffffffffff8211171562000383576200038262000327565b5b80604052505050565b600062000398620002bd565b9050620003a6828262000356565b919050565b600067ffffffffffffffff821115620003c957620003c862000327565b5b620003d48262000316565b9050602081019050919050565b60005b8381101562000401578082015181840152602081019050620003e4565b60008484015250505050565b6000620004246200041e84620003ab565b6200038c565b90508281526020810184848401111562000443576200044262000311565b5b62000450848285620003e1565b509392505050565b600082601f83011262000470576200046f6200030c565b5b8151620004828482602086016200040d565b91505092915050565b600073ffffffffffffffffffffffffffffffffffffffff82169050919050565b6000620004b8826200048b565b9050919050565b620004ca81620004ab565b8114620004d657600080fd5b50565b600081519050620004ea81620004bf565b92915050565b60008060008060008060c0878903121562000510576200050f620002c7565b5b60006200052089828a01620002f5565b965050602087015167ffffffffffffffff811115620005445762000543620002cc565b5b6200055289828a0162000458565b955050604087015167ffffffffffffffff811115620005765762000575620002cc565b5b6200058489828a0162000458565b94505060606200059789828a01620002f5565b9350506080620005aa89828a01620004d9565b92505060a0620005bd89828a01620004d9565b9150509295509295509295565b6000620005d7826200048b565b9050919050565b620005e981620005ca565b82525050565b6000602082019050620006066000830184620005de565b92915050565b600081519050919050565b7f4e487b7100000000000000000000000000000000000000000000000000000000600052602260045260246000fd5b600060028204905060018216806200065f57607f821691505b60208210810362000675576200067462000617565b5b50919050565b60008190508160005260206000209050919050565b60006020601f8301049050919050565b600082821b905092915050565b600060088302620006df7fffffffffffffffffffffffffffffffffffffffffffffffffffffffffffffffff82620006a0565b620006eb8683620006a0565b95508019841693508086168417925050509392505050565b6000819050919050565b60006200072e620007286200072284620002d1565b62000703565b620002d1565b9050919050565b6000819050919050565b6200074a836200070d565b62000762620007598262000735565b848454620006ad565b825550505050565b600090565b620007796200076a565b620007868184846200073f565b505050565b5b81811015620007ae57620007a26000826200076f565b6001810190506200078c565b5050565b601f821115620007fd57620007c7816200067b565b620007d28462000690565b81016020851015620007e2578190505b620007fa620007f18562000690565b8301826200078b565b50505b505050565b600082821c905092915050565b6000620008226000198460080262000802565b1980831691505092915050565b60006200083d83836200080f565b9150826002028217905092915050565b62000858826200060c565b67ffffffffffffffff81111562000874576200087362000327565b5b62000880825462000646565b6200088d828285620007b2565b600060209050601f831160018114620008c55760008415620008b0578287015190505b620008bc85826200082f565b8655506200092c565b601f198416620008d5866200067b565b60005b82811015620008ff57848901518255600182019150602085019450602081019050620008d8565b868310156200091f57848901516200091b601f8916826200080f565b8355505b6001600288020188555050505b505050505050565b61102680620009446000396000f3fe60806040526004361061007f5760003560e01c806391b7f5ed1161004e57806391b7f5ed1461030b578063a7cc53f514610334578063c6326dd01461035f578063f2fde38b1461038a57610270565b80631297de081461027557806349109a401461029e578063715018a6146102c95780638da5cb5b146102e057610270565b366102705760045434101561009357600080fd5b6000600560009054906101000a900473ffffffffffffffffffffffffffffffffffffffff1673ffffffffffffffffffffffffffffffffffffffff16638da5cb5b6040518163ffffffff1660e01b8152600401602060405180830381865afa158015610102573d6000803e3d6000fd5b505050506040513d601f19601f820116820180604052508101906101269190610a1f565b73ffffffffffffffffffffffffffffffffffffffff163460405161014990610a7d565b60006040518083038185875af1925050503d8060008114610186576040519150601f19603f3d011682016040523d82523d6000602084013e61018b565b606091505b50509050806101cf576040517f08c379a00000000000000000000000000000000000000000000000000000000081526004016101c690610aef565b60405180910390fd5b600760009054906101000a900473ffffffffffffffffffffffffffffffffffffffff1673ffffffffffffffffffffffffffffffffffffffff166337e43129306001546002600454346102219190610b77565b6040518563ffffffff1660e01b81526004016102409493929190610cbf565b600060405180830381600087803b15801561025a57600080fd5b505af115801561026e573d6000803e3d6000fd5b005b600080fd5b34801561028157600080fd5b5061029c60048036038101906102979190610d37565b6103b3565b005b3480156102aa57600080fd5b506102b36106b4565b6040516102c09190610d64565b60405180910390f35b3480156102d557600080fd5b506102de610764565b005b3480156102ec57600080fd5b506102f5610778565b6040516103029190610d7f565b60405180910390f35b34801561031757600080fd5b50610332600480360381019061032d9190610d37565b6107a1565b005b34801561034057600080fd5b506103496107b3565b6040516103569190610d64565b60405180910390f35b34801561036b57600080fd5b506103746107bd565b6040516103819190610df9565b60405180910390f35b34801561039657600080fd5b506103b160048036038101906103ac9190610e29565b6107e3565b005b600454600660009054906101000a900473ffffffffffffffffffffffffffffffffffffffff1673ffffffffffffffffffffffffffffffffffffffff1663f8b2cb4f336040518263ffffffff1660e01b81526004016104119190610d7f565b602060405180830381865afa15801561042e573d6000803e3d6000fd5b505050506040513d601f19601f820116820180604052508101906104529190610e6b565b1015610493576040517f08c379a000000000000000000000000000000000000000000000000000000000815260040161048a90610ee4565b60405180910390fd5b6000600760009054906101000a900473ffffffffffffffffffffffffffffffffffffffff1673ffffffffffffffffffffffffffffffffffffffff16636e9163c760015433600560009054906101000a900473ffffffffffffffffffffffffffffffffffffffff1673ffffffffffffffffffffffffffffffffffffffff16638da5cb5b6040518163ffffffff1660e01b8152600401602060405180830381865afa158015610544573d6000803e3d6000fd5b505050506040513d601f19601f820116820180604052508101906105689190610a1f565b600454876105769190610f04565b6040518563ffffffff1660e01b81526004016105959493929190610f46565b6020604051808303816000875af11580156105b4573d6000803e3d6000fd5b505050506040513d601f19601f820116820180604052508101906105d89190610fc3565b90508061061a576040517f08c379a000000000000000000000000000000000000000000000000000000000815260040161061190610aef565b60405180910390fd5b600760009054906101000a900473ffffffffffffffffffffffffffffffffffffffff1673ffffffffffffffffffffffffffffffffffffffff166337e43129306001546002866040518563ffffffff1660e01b815260040161067e9493929190610cbf565b600060405180830381600087803b15801561069857600080fd5b505af11580156106ac573d6000803e3d6000fd5b505050505050565b6000600454600660009054906101000a900473ffffffffffffffffffffffffffffffffffffffff1673ffffffffffffffffffffffffffffffffffffffff1663f8b2cb4f336040518263ffffffff1660e01b81526004016107149190610d7f565b602060405180830381865afa158015610731573d6000803e3d6000fd5b505050506040513d601f19601f820116820180604052508101906107559190610e6b565b61075f9190610b77565b905090565b61076c610869565b61077660006108f0565b565b60008060009054906101000a900473ffffffffffffffffffffffffffffffffffffffff16905090565b6107a9610869565b8060048190555050565b6000600454905090565b600560009054906101000a900473ffffffffffffffffffffffffffffffffffffffff1681565b6107eb610869565b600073ffffffffffffffffffffffffffffffffffffffff168173ffffffffffffffffffffffffffffffffffffffff160361085d5760006040517f1e4fbdf70000000000000000000000000000000000000000000000000000000081526004016108549190610d7f565b60405180910390fd5b610866816108f0565b50565b6108716109b4565b73ffffffffffffffffffffffffffffffffffffffff1661088f610778565b73ffffffffffffffffffffffffffffffffffffffff16146108ee576108b26109b4565b6040517f118cdaa70000000000000000000000000000000000000000000000000000000081526004016108e59190610d7f565b60405180910390fd5b565b60008060009054906101000a900473ffffffffffffffffffffffffffffffffffffffff169050816000806101000a81548173ffffffffffffffffffffffffffffffffffffffff021916908373ffffffffffffffffffffffffffffffffffffffff1602179055508173ffffffffffffffffffffffffffffffffffffffff168173ffffffffffffffffffffffffffffffffffffffff167f8be0079c531659141344cd1fd0a4f28419497f9722a3daafe3b4186f6b6457e060405160405180910390a35050565b600033905090565b600080fd5b600073ffffffffffffffffffffffffffffffffffffffff82169050919050565b60006109ec826109c1565b9050919050565b6109fc816109e1565b8114610a0757600080fd5b50565b600081519050610a19816109f3565b92915050565b600060208284031215610a3557610a346109bc565b5b6000610a4384828501610a0a565b91505092915050565b600081905092915050565b50565b6000610a67600083610a4c565b9150610a7282610a57565b600082019050919050565b6000610a8882610a5a565b9150819050919050565b600082825260208201905092915050565b7f5472616e73666572206661696c65640000000000000000000000000000000000600082015250565b6000610ad9600f83610a92565b9150610ae482610aa3565b602082019050919050565b60006020820190508181036000830152610b0881610acc565b9050919050565b6000819050919050565b7f4e487b7100000000000000000000000000000000000000000000000000000000600052601260045260246000fd5b7f4e487b7100000000000000000000000000000000000000000000000000000000600052601160045260246000fd5b6000610b8282610b0f565b9150610b8d83610b0f565b925082610b9d57610b9c610b19565b5b828204905092915050565b610bb1816109e1565b82525050565b610bc081610b0f565b82525050565b7f4e487b7100000000000000000000000000000000000000000000000000000000600052602260045260246000fd5b60006002820490506001821680610c0d57607f821691505b602082108103610c2057610c1f610bc6565b5b50919050565b60008190508160005260206000209050919050565b60008154610c4881610bf5565b610c528186610a92565b94506001821660008114610c6d5760018114610c8357610cb6565b60ff198316865281151560200286019350610cb6565b610c8c85610c26565b60005b83811015610cae57815481890152600182019150602081019050610c8f565b808801955050505b50505092915050565b6000608082019050610cd46000830187610ba8565b610ce16020830186610bb7565b8181036040830152610cf38185610c3b565b9050610d026060830184610bb7565b95945050505050565b610d1481610b0f565b8114610d1f57600080fd5b50565b600081359050610d3181610d0b565b92915050565b600060208284031215610d4d57610d4c6109bc565b5b6000610d5b84828501610d22565b91505092915050565b6000602082019050610d796000830184610bb7565b92915050565b6000602082019050610d946000830184610ba8565b92915050565b6000819050919050565b6000610dbf610dba610db5846109c1565b610d9a565b6109c1565b9050919050565b6000610dd182610da4565b9050919050565b6000610de382610dc6565b9050919050565b610df381610dd8565b82525050565b6000602082019050610e0e6000830184610dea565b92915050565b600081359050610e23816109f3565b92915050565b600060208284031215610e3f57610e3e6109bc565b5b6000610e4d84828501610e14565b91505092915050565b600081519050610e6581610d0b565b92915050565b600060208284031215610e8157610e806109bc565b5b6000610e8f84828501610e56565b91505092915050565b7f496e73756666696369656e742042616c616e6365000000000000000000000000600082015250565b6000610ece601483610a92565b9150610ed982610e98565b602082019050919050565b60006020820190508181036000830152610efd81610ec1565b9050919050565b6000610f0f82610b0f565b9150610f1a83610b0f565b9250828202610f2881610b0f565b91508282048414831517610f3f57610f3e610b48565b5b5092915050565b6000608082019050610f5b6000830187610bb7565b610f686020830186610ba8565b610f756040830185610ba8565b610f826060830184610bb7565b95945050505050565b60008115159050919050565b610fa081610f8b565b8114610fab57600080fd5b50565b600081519050610fbd81610f97565b92915050565b600060208284031215610fd957610fd86109bc565b5b6000610fe784828501610fae565b9150509291505056fea2646970667358221220e2a9e636fa0ec069249bdbfe772b08fc6a05db9e46a136fe45896b546ad812bf64736f6c63430008180033",
  "linkReferences": {},
  "deployedLinkReferences": {}
}