{
  "_format": "hh-sol-artifact-1",
  "contractName": "ActionFactory",
  "sourceName": "contracts/ActionFactory.sol",
  "abi": [
    {
      "inputs": [],
      "stateMutability": "nonpayable",
      "type": "constructor"
    },
    {
      "inputs": [
        {
          "internalType": "address",
          "name": "owner",
          "type": "address"
        }
      ],
      "name": "OwnableInvalidOwner",
      "type": "error"
    },
    {
      "inputs": [
        {
          "internalType": "address",
          "name": "account",
          "type": "address"
        }
      ],
      "name": "OwnableUnauthorizedAccount",
      "type": "error"
    },
    {
      "anonymous": false,
      "inputs": [
        {
          "indexed": true,
          "internalType": "address",
          "name": "action",
          "type": "address"
        },
        {
          "indexed": true,
          "internalType": "uint256",
          "name": "id",
          "type": "uint256"
        },
        {
          "indexed": false,
          "internalType": "string",
          "name": "name",
          "type": "string"
        },
        {
          "indexed": false,
          "internalType": "string",
          "name": "unit",
          "type": "string"
        },
        {
          "indexed": false,
          "internalType": "uint256",
          "name": "pricePerUnit",
          "type": "uint256"
        },
        {
          "indexed": false,
          "internalType": "address",
          "name": "deviceAddress",
          "type": "address"
        },
        {
          "indexed": false,
          "internalType": "address",
          "name": "_organisationAddress",
          "type": "address"
        }
      ],
      "name": "ActionCreated",
      "type": "event"
    },
    {
      "anonymous": false,
      "inputs": [
        {
          "indexed": true,
          "internalType": "uint256",
          "name": "id",
          "type": "uint256"
        }
      ],
      "name": "ActionDeleted",
      "type": "event"
    },
    {
      "anonymous": false,
      "inputs": [
        {
          "indexed": true,
          "internalType": "uint256",
          "name": "id",
          "type": "uint256"
        },
        {
          "indexed": false,
          "internalType": "string",
          "name": "newName",
          "type": "string"
        },
        {
          "indexed": false,
          "internalType": "string",
          "name": "newUnit",
          "type": "string"
        },
        {
          "indexed": false,
          "internalType": "uint256",
          "name": "newPrice",
          "type": "uint256"
        }
      ],
      "name": "ActionUpdated",
      "type": "event"
    },
    {
      "anonymous": false,
      "inputs": [
        {
          "indexed": true,
          "internalType": "address",
          "name": "previousOwner",
          "type": "address"
        },
        {
          "indexed": true,
          "internalType": "address",
          "name": "newOwner",
          "type": "address"
        }
      ],
      "name": "OwnershipTransferred",
      "type": "event"
    },
    {
      "anonymous": false,
      "inputs": [
        {
          "indexed": false,
          "internalType": "address",
          "name": "actionAddress",
          "type": "address"
        },
        {
          "indexed": false,
          "internalType": "uint256",
          "name": "id",
          "type": "uint256"
        },
        {
          "indexed": false,
          "internalType": "string",
          "name": "name",
          "type": "string"
        },
        {
          "indexed": false,
          "internalType": "uint256",
          "name": "amount",
          "type": "uint256"
        }
      ],
      "name": "PayedAction",
      "type": "event"
    },
    {
      "inputs": [
        {
          "internalType": "uint256",
          "name": "",
          "type": "uint256"
        }
      ],
      "name": "Actions",
      "outputs": [
        {
          "internalType": "uint256",
          "name": "id",
          "type": "uint256"
        },
        {
          "internalType": "address payable",
          "name": "ActionAddress",
          "type": "address"
        },
        {
          "internalType": "string",
          "name": "name",
          "type": "string"
        },
        {
          "internalType": "string",
          "name": "unit",
          "type": "string"
        },
        {
          "internalType": "uint256",
          "name": "price",
          "type": "uint256"
        },
        {
          "internalType": "address",
          "name": "deviceAddress",
          "type": "address"
        },
        {
          "internalType": "address",
          "name": "deviceOwner",
          "type": "address"
        },
        {
          "internalType": "address",
          "name": "organisationAddress",
          "type": "address"
        }
      ],
      "stateMutability": "view",
      "type": "function"
    },
    {
      "inputs": [
        {
          "internalType": "uint256",
          "name": "_id",
          "type": "uint256"
        },
        {
          "internalType": "address",
          "name": "_from",
          "type": "address"
        },
        {
          "internalType": "address",
          "name": "_to",
          "type": "address"
        },
        {
          "internalType": "uint256",
          "name": "_amount",
          "type": "uint256"
        }
      ],
      "name": "Balancetransfer",
      "outputs": [
        {
          "internalType": "bool",
          "name": "",
          "type": "bool"
        }
      ],
      "stateMutability": "nonpayable",
      "type": "function"
    },
    {
      "inputs": [
        {
          "internalType": "string",
          "name": "_name",
          "type": "string"
        },
        {
          "internalType": "string",
          "name": "_unit",
          "type": "string"
        },
        {
          "internalType": "uint256",
          "name": "_pricePerUnit",
          "type": "uint256"
        },
        {
          "internalType": "address payable",
          "name": "_deviceAddress",
          "type": "address"
        },
        {
          "internalType": "address",
          "name": "_deviceOwner",
          "type": "address"
        },
        {
          "internalType": "address",
          "name": "_organisationAddress",
          "type": "address"
        }
      ],
      "name": "createAction",
      "outputs": [
        {
          "internalType": "address",
          "name": "",
          "type": "address"
        }
      ],
      "stateMutability": "nonpayable",
      "type": "function"
    },
    {
      "inputs": [
        {
          "internalType": "uint256",
          "name": "_actionId",
          "type": "uint256"
        }
      ],
      "name": "deleteAction",
      "outputs": [],
      "stateMutability": "nonpayable",
      "type": "function"
    },
    {
      "inputs": [
        {
          "internalType": "address",
          "name": "_deviceAddress",
          "type": "address"
        }
      ],
      "name": "getActions",
      "outputs": [
        {
          "components": [
            {
              "internalType": "uint256",
              "name": "id",
              "type": "uint256"
            },
            {
              "internalType": "address payable",
              "name": "ActionAddress",
              "type": "address"
            },
            {
              "internalType": "string",
              "name": "name",
              "type": "string"
            },
            {
              "internalType": "string",
              "name": "unit",
              "type": "string"
            },
            {
              "internalType": "uint256",
              "name": "price",
              "type": "uint256"
            },
            {
              "internalType": "address",
              "name": "deviceAddress",
              "type": "address"
            },
            {
              "internalType": "address",
              "name": "deviceOwner",
              "type": "address"
            },
            {
              "internalType": "address",
              "name": "organisationAddress",
              "type": "address"
            }
          ],
          "internalType": "struct ActionFactory.ActionInfo[]",
          "name": "",
          "type": "tuple[]"
        }
      ],
      "stateMutability": "view",
      "type": "function"
    },
    {
      "inputs": [
        {
          "internalType": "address",
          "name": "_actionAddress",
          "type": "address"
        },
        {
          "internalType": "uint256",
          "name": "_id",
          "type": "uint256"
        },
        {
          "internalType": "string",
          "name": "_name",
          "type": "string"
        },
        {
          "internalType": "uint256",
          "name": "_amount",
          "type": "uint256"
        }
      ],
      "name": "logPayedAction",
      "outputs": [],
      "stateMutability": "nonpayable",
      "type": "function"
    },
    {
      "inputs": [],
      "name": "owner",
      "outputs": [
        {
          "internalType": "address",
          "name": "",
          "type": "address"
        }
      ],
      "stateMutability": "view",
      "type": "function"
    },
    {
      "inputs": [],
      "name": "renounceOwnership",
      "outputs": [],
      "stateMutability": "nonpayable",
      "type": "function"
    },
    {
      "inputs": [
        {
          "internalType": "address payable",
          "name": "_balanceAddress",
          "type": "address"
        }
      ],
      "name": "setBalanceContract",
      "outputs": [],
      "stateMutability": "nonpayable",
      "type": "function"
    },
    {
      "inputs": [
        {
          "internalType": "address",
          "name": "newOwner",
          "type": "address"
        }
      ],
      "name": "transferOwnership",
      "outputs": [],
      "stateMutability": "nonpayable",
      "type": "function"
    },
    {
      "inputs": [
        {
          "internalType": "uint256",
          "name": "_actionId",
          "type": "uint256"
        },
        {
          "internalType": "string",
          "name": "_newName",
          "type": "string"
        }
      ],
      "name": "updateActionName",
      "outputs": [],
      "stateMutability": "nonpayable",
      "type": "function"
    },
    {
      "inputs": [
        {
          "internalType": "uint256",
          "name": "_actionId",
          "type": "uint256"
        },
        {
          "internalType": "uint256",
          "name": "_newPrice",
          "type": "uint256"
        }
      ],
      "name": "updateActionPrice",
      "outputs": [],
      "stateMutability": "nonpayable",
      "type": "function"
    },
    {
      "inputs": [
        {
          "internalType": "uint256",
          "name": "_actionId",
          "type": "uint256"
        },
        {
          "internalType": "string",
          "name": "_newUnit",
          "type": "string"
        }
      ],
      "name": "updateActionUnit",
      "outputs": [],
      "stateMutability": "nonpayable",
      "type": "function"
    }
  ],
  "bytecode": "0x608060405260016002553480156200001657600080fd5b5033600073ffffffffffffffffffffffffffffffffffffffff168173ffffffffffffffffffffffffffffffffffffffff16036200008d5760006040517f1e4fbdf7000000000000000000000000000000000000000000000000000000008152600401620000849190620001ae565b60405180910390fd5b6200009e81620000a560201b60201c565b50620001cb565b60008060009054906101000a900473ffffffffffffffffffffffffffffffffffffffff169050816000806101000a81548173ffffffffffffffffffffffffffffffffffffffff021916908373ffffffffffffffffffffffffffffffffffffffff1602179055508173ffffffffffffffffffffffffffffffffffffffff168173ffffffffffffffffffffffffffffffffffffffff167f8be0079c531659141344cd1fd0a4f28419497f9722a3daafe3b4186f6b6457e060405160405180910390a35050565b600073ffffffffffffffffffffffffffffffffffffffff82169050919050565b6000620001968262000169565b9050919050565b620001a88162000189565b82525050565b6000602082019050620001c560008301846200019d565b92915050565b6151b280620001db6000396000f3fe60806040523480156200001157600080fd5b5060043610620000e25760003560e01c8063898786ac1162000099578063b4272ce9116200006f578063b4272ce91462000237578063df7dfef71462000274578063f2fde38b1462000294578063f7d2bed214620002b457620000e2565b8063898786ac14620001bf5780638ccc0f9214620001df5780638da5cb5b146200021557620000e2565b806329ebacd314620000e757806337e43129146200011d5780636e9163c7146200013d578063715018a61462000173578063734f107d146200017f57806380479db1146200019f575b600080fd5b620001056004803603810190620000ff919062001f27565b620002d4565b60405162000114919062002012565b60405180910390f35b6200013b60048036038101906200013591906200202f565b620005cf565b005b6200015b6004803603810190620001559190620020c0565b62000685565b6040516200016a91906200214f565b60405180910390f35b6200017d62000828565b005b6200019d60048036038101906200019791906200216c565b62000840565b005b620001bd6004803603810190620001b791906200216c565b62000b1d565b005b620001dd6004803603810190620001d79190620021d2565b62000dfa565b005b620001fd6004803603810190620001f7919062002204565b62000e48565b6040516200020c919062002489565b60405180910390f35b6200021f6200123c565b6040516200022e919062002012565b60405180910390f35b6200025560048036038101906200024f9190620024ad565b62001265565b6040516200026b98979695949392919062002553565b60405180910390f35b6200029260048036038101906200028c9190620024ad565b6200144d565b005b620002b26004803603810190620002ac919062002204565b62001702565b005b620002d26004803603810190620002cc9190620025ef565b6200178f565b005b60008060025488888888600360009054906101000a900473ffffffffffffffffffffffffffffffffffffffff166040516200030f9062001bbc565b620003209695949392919062002636565b604051809103906000f0801580156200033d573d6000803e3d6000fd5b5090506002548173ffffffffffffffffffffffffffffffffffffffff167fe81310ec773657d634a70519a2263baac2b0d0aa7dfebad87ffc0e52e188a26e8a8a8a8a89604051620003939594939291906200271c565b60405180910390a360405180610100016040528060025481526020018273ffffffffffffffffffffffffffffffffffffffff1681526020018981526020018881526020018781526020018673ffffffffffffffffffffffffffffffffffffffff1681526020018573ffffffffffffffffffffffffffffffffffffffff1681526020018473ffffffffffffffffffffffffffffffffffffffff168152506001600060025481526020019081526020016000206000820151816000015560208201518160010160006101000a81548173ffffffffffffffffffffffffffffffffffffffff021916908373ffffffffffffffffffffffffffffffffffffffff1602179055506040820151816002019081620004ac9190620029b3565b506060820151816003019081620004c49190620029b3565b506080820151816004015560a08201518160050160006101000a81548173ffffffffffffffffffffffffffffffffffffffff021916908373ffffffffffffffffffffffffffffffffffffffff16021790555060c08201518160060160006101000a81548173ffffffffffffffffffffffffffffffffffffffff021916908373ffffffffffffffffffffffffffffffffffffffff16021790555060e08201518160070160006101000a81548173ffffffffffffffffffffffffffffffffffffffff021916908373ffffffffffffffffffffffffffffffffffffffff16021790555090505060026000815480929190620005bc9062002ac9565b9190505550809150509695505050505050565b8373ffffffffffffffffffffffffffffffffffffffff163373ffffffffffffffffffffffffffffffffffffffff161462000640576040517f08c379a0000000000000000000000000000000000000000000000000000000008152600401620006379062002b8c565b60405180910390fd5b7f3b043dd6bdb2e9b6036db332096cbc51cf9f4e21c658bd57a14bbbb17c3b88c48484848460405162000677949392919062002bae565b60405180910390a150505050565b60006001600086815260200190815260200160002060010160009054906101000a900473ffffffffffffffffffffffffffffffffffffffff1673ffffffffffffffffffffffffffffffffffffffff163373ffffffffffffffffffffffffffffffffffffffff16146200072e576040517f08c379a0000000000000000000000000000000000000000000000000000000008152600401620007259062002c78565b60405180910390fd5b6000600360009054906101000a900473ffffffffffffffffffffffffffffffffffffffff1673ffffffffffffffffffffffffffffffffffffffff1663a606b94a8686866040518463ffffffff1660e01b8152600401620007919392919062002c9a565b6020604051808303816000875af1158015620007b1573d6000803e3d6000fd5b505050506040513d601f19601f82011682018060405250810190620007d7919062002d08565b9050806200081c576040517f08c379a0000000000000000000000000000000000000000000000000000000008152600401620008139062002db0565b60405180910390fd5b80915050949350505050565b6200083262001a60565b6200083e600062001af0565b565b600073ffffffffffffffffffffffffffffffffffffffff166001600084815260200190815260200160002060010160009054906101000a900473ffffffffffffffffffffffffffffffffffffffff1673ffffffffffffffffffffffffffffffffffffffff1603620008e8576040517f08c379a0000000000000000000000000000000000000000000000000000000008152600401620008df9062002e22565b60405180910390fd5b6001600083815260200190815260200160002060070160009054906101000a900473ffffffffffffffffffffffffffffffffffffffff1673ffffffffffffffffffffffffffffffffffffffff166324d7806c336040518263ffffffff1660e01b815260040162000959919062002012565b602060405180830381865afa15801562000977573d6000803e3d6000fd5b505050506040513d601f19601f820116820180604052508101906200099d919062002d08565b620009df576040517f08c379a0000000000000000000000000000000000000000000000000000000008152600401620009d69062002eba565b60405180910390fd5b60006001600084815260200190815260200160002060010160009054906101000a900473ffffffffffffffffffffffffffffffffffffffff1690508073ffffffffffffffffffffffffffffffffffffffff1663c47f0027836040518263ffffffff1660e01b815260040162000a55919062002edc565b600060405180830381600087803b15801562000a7057600080fd5b505af115801562000a85573d6000803e3d6000fd5b505050508160016000858152602001908152602001600020600201908162000aae9190620029b3565b50827f644e9d034dd944506dc587697e37033685c32dfa06f6c4a03ec93eb06e3341208360016000878152602001908152602001600020600301600160008881526020019081526020016000206004015460405162000b109392919062002f90565b60405180910390a2505050565b600073ffffffffffffffffffffffffffffffffffffffff166001600084815260200190815260200160002060010160009054906101000a900473ffffffffffffffffffffffffffffffffffffffff1673ffffffffffffffffffffffffffffffffffffffff160362000bc5576040517f08c379a000000000000000000000000000000000000000000000000000000000815260040162000bbc9062002e22565b60405180910390fd5b6001600083815260200190815260200160002060070160009054906101000a900473ffffffffffffffffffffffffffffffffffffffff1673ffffffffffffffffffffffffffffffffffffffff166324d7806c336040518263ffffffff1660e01b815260040162000c36919062002012565b602060405180830381865afa15801562000c54573d6000803e3d6000fd5b505050506040513d601f19601f8201168201806040525081019062000c7a919062002d08565b62000cbc576040517f08c379a000000000000000000000000000000000000000000000000000000000815260040162000cb39062002eba565b60405180910390fd5b60006001600084815260200190815260200160002060010160009054906101000a900473ffffffffffffffffffffffffffffffffffffffff1690508073ffffffffffffffffffffffffffffffffffffffff16638221b09d836040518263ffffffff1660e01b815260040162000d32919062002edc565b600060405180830381600087803b15801562000d4d57600080fd5b505af115801562000d62573d6000803e3d6000fd5b505050508160016000858152602001908152602001600020600301908162000d8b9190620029b3565b50827f644e9d034dd944506dc587697e37033685c32dfa06f6c4a03ec93eb06e3341206001600086815260200190815260200160002060020184600160008881526020019081526020016000206004015460405162000ded9392919062002fdb565b60405180910390a2505050565b62000e0462001a60565b80600360006101000a81548173ffffffffffffffffffffffffffffffffffffffff021916908373ffffffffffffffffffffffffffffffffffffffff16021790555050565b60606000600160025462000e5d919062003026565b67ffffffffffffffff81111562000e795762000e7862001cfb565b5b60405190808252806020026020018201604052801562000eb657816020015b62000ea262001bca565b81526020019060019003908162000e985790505b5090506000600190505b60025481101562001232578373ffffffffffffffffffffffffffffffffffffffff166001600083815260200190815260200160002060050160009054906101000a900473ffffffffffffffffffffffffffffffffffffffff1673ffffffffffffffffffffffffffffffffffffffff160362001224576001600082815260200190815260200160002060405180610100016040529081600082015481526020016001820160009054906101000a900473ffffffffffffffffffffffffffffffffffffffff1673ffffffffffffffffffffffffffffffffffffffff1673ffffffffffffffffffffffffffffffffffffffff16815260200160028201805462000fc690620027b6565b80601f016020809104026020016040519081016040528092919081815260200182805462000ff490620027b6565b8015620010455780601f10620010195761010080835404028352916020019162001045565b820191906000526020600020905b8154815290600101906020018083116200102757829003601f168201915b505050505081526020016003820180546200106090620027b6565b80601f01602080910402602001604051908101604052809291908181526020018280546200108e90620027b6565b8015620010df5780601f10620010b357610100808354040283529160200191620010df565b820191906000526020600020905b815481529060010190602001808311620010c157829003601f168201915b50505050508152602001600482015481526020016005820160009054906101000a900473ffffffffffffffffffffffffffffffffffffffff1673ffffffffffffffffffffffffffffffffffffffff1673ffffffffffffffffffffffffffffffffffffffff1681526020016006820160009054906101000a900473ffffffffffffffffffffffffffffffffffffffff1673ffffffffffffffffffffffffffffffffffffffff1673ffffffffffffffffffffffffffffffffffffffff1681526020016007820160009054906101000a900473ffffffffffffffffffffffffffffffffffffffff1673ffffffffffffffffffffffffffffffffffffffff1673ffffffffffffffffffffffffffffffffffffffff16815250508260018362001204919062003026565b8151811062001218576200121762003061565b5b60200260200101819052505b808060010191505062000ec0565b5080915050919050565b60008060009054906101000a900473ffffffffffffffffffffffffffffffffffffffff16905090565b60016020528060005260406000206000915090508060000154908060010160009054906101000a900473ffffffffffffffffffffffffffffffffffffffff1690806002018054620012b690620027b6565b80601f0160208091040260200160405190810160405280929190818152602001828054620012e490620027b6565b8015620013355780601f10620013095761010080835404028352916020019162001335565b820191906000526020600020905b8154815290600101906020018083116200131757829003601f168201915b5050505050908060030180546200134c90620027b6565b80601f01602080910402602001604051908101604052809291908181526020018280546200137a90620027b6565b8015620013cb5780601f106200139f57610100808354040283529160200191620013cb565b820191906000526020600020905b815481529060010190602001808311620013ad57829003601f168201915b5050505050908060040154908060050160009054906101000a900473ffffffffffffffffffffffffffffffffffffffff16908060060160009054906101000a900473ffffffffffffffffffffffffffffffffffffffff16908060070160009054906101000a900473ffffffffffffffffffffffffffffffffffffffff16905088565b600073ffffffffffffffffffffffffffffffffffffffff166001600083815260200190815260200160002060010160009054906101000a900473ffffffffffffffffffffffffffffffffffffffff1673ffffffffffffffffffffffffffffffffffffffff1603620014f5576040517f08c379a0000000000000000000000000000000000000000000000000000000008152600401620014ec9062002e22565b60405180910390fd5b6001600082815260200190815260200160002060070160009054906101000a900473ffffffffffffffffffffffffffffffffffffffff1673ffffffffffffffffffffffffffffffffffffffff166324d7806c336040518263ffffffff1660e01b815260040162001566919062002012565b602060405180830381865afa15801562001584573d6000803e3d6000fd5b505050506040513d601f19601f82011682018060405250810190620015aa919062002d08565b620015ec576040517f08c379a0000000000000000000000000000000000000000000000000000000008152600401620015e39062003106565b60405180910390fd5b600160008281526020019081526020016000206000808201600090556001820160006101000a81549073ffffffffffffffffffffffffffffffffffffffff021916905560028201600062001641919062001c67565b60038201600062001653919062001c67565b60048201600090556005820160006101000a81549073ffffffffffffffffffffffffffffffffffffffff02191690556006820160006101000a81549073ffffffffffffffffffffffffffffffffffffffff02191690556007820160006101000a81549073ffffffffffffffffffffffffffffffffffffffff02191690555050807f87415f1e67c6a1a1afee712e93e735be84ddfbec3dec17a1fdc129907f68c50860405160405180910390a250565b6200170c62001a60565b600073ffffffffffffffffffffffffffffffffffffffff168173ffffffffffffffffffffffffffffffffffffffff1603620017815760006040517f1e4fbdf700000000000000000000000000000000000000000000000000000000815260040162001778919062002012565b60405180910390fd5b6200178c8162001af0565b50565b600073ffffffffffffffffffffffffffffffffffffffff166001600084815260200190815260200160002060010160009054906101000a900473ffffffffffffffffffffffffffffffffffffffff1673ffffffffffffffffffffffffffffffffffffffff160362001837576040517f08c379a00000000000000000000000000000000000000000000000000000000081526004016200182e9062002e22565b60405180910390fd5b6001600083815260200190815260200160002060070160009054906101000a900473ffffffffffffffffffffffffffffffffffffffff1673ffffffffffffffffffffffffffffffffffffffff166324d7806c336040518263ffffffff1660e01b8152600401620018a8919062002012565b602060405180830381865afa158015620018c6573d6000803e3d6000fd5b505050506040513d601f19601f82011682018060405250810190620018ec919062002d08565b6200192e576040517f08c379a0000000000000000000000000000000000000000000000000000000008152600401620019259062002eba565b60405180910390fd5b60006001600084815260200190815260200160002060010160009054906101000a900473ffffffffffffffffffffffffffffffffffffffff1690508073ffffffffffffffffffffffffffffffffffffffff166391b7f5ed836040518263ffffffff1660e01b8152600401620019a4919062003128565b600060405180830381600087803b158015620019bf57600080fd5b505af1158015620019d4573d6000803e3d6000fd5b50505050816001600085815260200190815260200160002060040181905550827f644e9d034dd944506dc587697e37033685c32dfa06f6c4a03ec93eb06e33412060016000868152602001908152602001600020600201600160008781526020019081526020016000206003018560405162001a539392919062003145565b60405180910390a2505050565b62001a6a62001bb4565b73ffffffffffffffffffffffffffffffffffffffff1662001a8a6200123c565b73ffffffffffffffffffffffffffffffffffffffff161462001aee5762001ab062001bb4565b6040517f118cdaa700000000000000000000000000000000000000000000000000000000815260040162001ae5919062002012565b60405180910390fd5b565b60008060009054906101000a900473ffffffffffffffffffffffffffffffffffffffff169050816000806101000a81548173ffffffffffffffffffffffffffffffffffffffff021916908373ffffffffffffffffffffffffffffffffffffffff1602179055508173ffffffffffffffffffffffffffffffffffffffff168173ffffffffffffffffffffffffffffffffffffffff167f8be0079c531659141344cd1fd0a4f28419497f9722a3daafe3b4186f6b6457e060405160405180910390a35050565b600033905090565b611fec806200319183390190565b60405180610100016040528060008152602001600073ffffffffffffffffffffffffffffffffffffffff168152602001606081526020016060815260200160008152602001600073ffffffffffffffffffffffffffffffffffffffff168152602001600073ffffffffffffffffffffffffffffffffffffffff168152602001600073ffffffffffffffffffffffffffffffffffffffff1681525090565b50805462001c7590620027b6565b6000825580601f1062001c89575062001caa565b601f01602090049060005260206000209081019062001ca9919062001cad565b5b50565b5b8082111562001cc857600081600090555060010162001cae565b5090565b6000604051905090565b600080fd5b600080fd5b600080fd5b600080fd5b6000601f19601f8301169050919050565b7f4e487b7100000000000000000000000000000000000000000000000000000000600052604160045260246000fd5b62001d358262001cea565b810181811067ffffffffffffffff8211171562001d575762001d5662001cfb565b5b80604052505050565b600062001d6c62001ccc565b905062001d7a828262001d2a565b919050565b600067ffffffffffffffff82111562001d9d5762001d9c62001cfb565b5b62001da88262001cea565b9050602081019050919050565b82818337600083830152505050565b600062001ddb62001dd58462001d7f565b62001d60565b90508281526020810184848401111562001dfa5762001df962001ce5565b5b62001e0784828562001db5565b509392505050565b600082601f83011262001e275762001e2662001ce0565b5b813562001e3984826020860162001dc4565b91505092915050565b6000819050919050565b62001e578162001e42565b811462001e6357600080fd5b50565b60008135905062001e778162001e4c565b92915050565b600073ffffffffffffffffffffffffffffffffffffffff82169050919050565b600062001eaa8262001e7d565b9050919050565b62001ebc8162001e9d565b811462001ec857600080fd5b50565b60008135905062001edc8162001eb1565b92915050565b600062001eef8262001e7d565b9050919050565b62001f018162001ee2565b811462001f0d57600080fd5b50565b60008135905062001f218162001ef6565b92915050565b60008060008060008060c0878903121562001f475762001f4662001cd6565b5b600087013567ffffffffffffffff81111562001f685762001f6762001cdb565b5b62001f7689828a0162001e0f565b965050602087013567ffffffffffffffff81111562001f9a5762001f9962001cdb565b5b62001fa889828a0162001e0f565b955050604062001fbb89828a0162001e66565b945050606062001fce89828a0162001ecb565b935050608062001fe189828a0162001f10565b92505060a062001ff489828a0162001f10565b9150509295509295509295565b6200200c8162001ee2565b82525050565b600060208201905062002029600083018462002001565b92915050565b600080600080608085870312156200204c576200204b62001cd6565b5b60006200205c8782880162001f10565b94505060206200206f8782880162001e66565b935050604085013567ffffffffffffffff81111562002093576200209262001cdb565b5b620020a18782880162001e0f565b9250506060620020b48782880162001e66565b91505092959194509250565b60008060008060808587031215620020dd57620020dc62001cd6565b5b6000620020ed8782880162001e66565b9450506020620021008782880162001f10565b9350506040620021138782880162001f10565b9250506060620021268782880162001e66565b91505092959194509250565b60008115159050919050565b620021498162002132565b82525050565b60006020820190506200216660008301846200213e565b92915050565b6000806040838503121562002186576200218562001cd6565b5b6000620021968582860162001e66565b925050602083013567ffffffffffffffff811115620021ba57620021b962001cdb565b5b620021c88582860162001e0f565b9150509250929050565b600060208284031215620021eb57620021ea62001cd6565b5b6000620021fb8482850162001ecb565b91505092915050565b6000602082840312156200221d576200221c62001cd6565b5b60006200222d8482850162001f10565b91505092915050565b600081519050919050565b600082825260208201905092915050565b6000819050602082019050919050565b6200226d8162001e42565b82525050565b6200227e8162001e9d565b82525050565b600081519050919050565b600082825260208201905092915050565b60005b83811015620022c0578082015181840152602081019050620022a3565b60008484015250505050565b6000620022d98262002284565b620022e581856200228f565b9350620022f7818560208601620022a0565b620023028162001cea565b840191505092915050565b620023188162001ee2565b82525050565b60006101008301600083015162002339600086018262002262565b5060208301516200234e602086018262002273565b5060408301518482036040860152620023688282620022cc565b91505060608301518482036060860152620023848282620022cc565b91505060808301516200239b608086018262002262565b5060a0830151620023b060a08601826200230d565b5060c0830151620023c560c08601826200230d565b5060e0830151620023da60e08601826200230d565b508091505092915050565b6000620023f383836200231e565b905092915050565b6000602082019050919050565b6000620024158262002236565b62002421818562002241565b935083602082028501620024358562002252565b8060005b85811015620024775784840389528151620024558582620023e5565b94506200246283620023fb565b925060208a0199505060018101905062002439565b50829750879550505050505092915050565b60006020820190508181036000830152620024a5818462002408565b905092915050565b600060208284031215620024c657620024c562001cd6565b5b6000620024d68482850162001e66565b91505092915050565b620024ea8162001e42565b82525050565b620024fb8162001e9d565b82525050565b600082825260208201905092915050565b60006200251f8262002284565b6200252b818562002501565b93506200253d818560208601620022a0565b620025488162001cea565b840191505092915050565b6000610100820190506200256b600083018b620024df565b6200257a602083018a620024f0565b81810360408301526200258e818962002512565b90508181036060830152620025a4818862002512565b9050620025b56080830187620024df565b620025c460a083018662002001565b620025d360c083018562002001565b620025e260e083018462002001565b9998505050505050505050565b6000806040838503121562002609576200260862001cd6565b5b6000620026198582860162001e66565b92505060206200262c8582860162001e66565b9150509250929050565b600060c0820190506200264d6000830189620024df565b818103602083015262002661818862002512565b9050818103604083015262002677818762002512565b9050620026886060830186620024df565b620026976080830185620024f0565b620026a660a0830184620024f0565b979650505050505050565b6000819050919050565b6000620026dc620026d6620026d08462001e7d565b620026b1565b62001e7d565b9050919050565b6000620026f082620026bb565b9050919050565b60006200270482620026e3565b9050919050565b6200271681620026f7565b82525050565b600060a082019050818103600083015262002738818862002512565b905081810360208301526200274e818762002512565b90506200275f6040830186620024df565b6200276e60608301856200270b565b6200277d608083018462002001565b9695505050505050565b7f4e487b7100000000000000000000000000000000000000000000000000000000600052602260045260246000fd5b60006002820490506001821680620027cf57607f821691505b602082108103620027e557620027e462002787565b5b50919050565b60008190508160005260206000209050919050565b60006020601f8301049050919050565b600082821b905092915050565b6000600883026200284f7fffffffffffffffffffffffffffffffffffffffffffffffffffffffffffffffff8262002810565b6200285b868362002810565b95508019841693508086168417925050509392505050565b6000620028946200288e620028888462001e42565b620026b1565b62001e42565b9050919050565b6000819050919050565b620028b08362002873565b620028c8620028bf826200289b565b8484546200281d565b825550505050565b600090565b620028df620028d0565b620028ec818484620028a5565b505050565b5b81811015620029145762002908600082620028d5565b600181019050620028f2565b5050565b601f82111562002963576200292d81620027eb565b620029388462002800565b8101602085101562002948578190505b62002960620029578562002800565b830182620028f1565b50505b505050565b600082821c905092915050565b6000620029886000198460080262002968565b1980831691505092915050565b6000620029a3838362002975565b9150826002028217905092915050565b620029be8262002284565b67ffffffffffffffff811115620029da57620029d962001cfb565b5b620029e68254620027b6565b620029f382828562002918565b600060209050601f83116001811462002a2b576000841562002a16578287015190505b62002a22858262002995565b86555062002a92565b601f19841662002a3b86620027eb565b60005b8281101562002a655784890151825560018201915060208501945060208101905062002a3e565b8683101562002a85578489015162002a81601f89168262002975565b8355505b6001600288020188555050505b505050505050565b7f4e487b7100000000000000000000000000000000000000000000000000000000600052601160045260246000fd5b600062002ad68262001e42565b91507fffffffffffffffffffffffffffffffffffffffffffffffffffffffffffffffff820362002b0b5762002b0a62002a9a565b5b600182019050919050565b7f4f6e6c792074686520616374696f6e20636f6e74726163742063616e2063616c60008201527f6c20746869732066756e6374696f6e0000000000000000000000000000000000602082015250565b600062002b74602f8362002501565b915062002b818262002b16565b604082019050919050565b6000602082019050818103600083015262002ba78162002b65565b9050919050565b600060808201905062002bc5600083018762002001565b62002bd46020830186620024df565b818103604083015262002be8818562002512565b905062002bf96060830184620024df565b95945050505050565b7f596f7520617265206e6f7420616c6c6f77656420746f2063616c6c207468697360008201527f2066756e6374696f6e0000000000000000000000000000000000000000000000602082015250565b600062002c6060298362002501565b915062002c6d8262002c02565b604082019050919050565b6000602082019050818103600083015262002c938162002c51565b9050919050565b600060608201905062002cb1600083018662002001565b62002cc0602083018562002001565b62002ccf6040830184620024df565b949350505050565b62002ce28162002132565b811462002cee57600080fd5b50565b60008151905062002d028162002cd7565b92915050565b60006020828403121562002d215762002d2062001cd6565b5b600062002d318482850162002cf1565b91505092915050565b7f536f6d657468696e6720776974682042616c616e63655472616e73666572206960008201527f6e20416374696f6e466163746f72792077656e742077726f6e67000000000000602082015250565b600062002d98603a8362002501565b915062002da58262002d3a565b604082019050919050565b6000602082019050818103600083015262002dcb8162002d89565b9050919050565b7f416374696f6e20646f6573206e6f742065786973740000000000000000000000600082015250565b600062002e0a60158362002501565b915062002e178262002dd2565b602082019050919050565b6000602082019050818103600083015262002e3d8162002dfb565b9050919050565b7f4e6f2041646d696e4e4654202d3e206e6f7420616c6c6f77656420746f20757060008201527f646174652074686520616374696f6e0000000000000000000000000000000000602082015250565b600062002ea2602f8362002501565b915062002eaf8262002e44565b604082019050919050565b6000602082019050818103600083015262002ed58162002e93565b9050919050565b6000602082019050818103600083015262002ef8818462002512565b905092915050565b6000815462002f0f81620027b6565b62002f1b818662002501565b9450600182166000811462002f39576001811462002f505762002f87565b60ff19831686528115156020028601935062002f87565b62002f5b85620027eb565b60005b8381101562002f7f5781548189015260018201915060208101905062002f5e565b808801955050505b50505092915050565b6000606082019050818103600083015262002fac818662002512565b9050818103602083015262002fc2818562002f00565b905062002fd36040830184620024df565b949350505050565b6000606082019050818103600083015262002ff7818662002f00565b905081810360208301526200300d818562002512565b90506200301e6040830184620024df565b949350505050565b6000620030338262001e42565b9150620030408362001e42565b92508282039050818111156200305b576200305a62002a9a565b5b92915050565b7f4e487b7100000000000000000000000000000000000000000000000000000000600052603260045260246000fd5b7f4e6f2041646d696e4e4654202d3e206e6f7420616c6c6f77656420746f20646560008201527f6c6574652074686520616374696f6e0000000000000000000000000000000000602082015250565b6000620030ee602f8362002501565b9150620030fb8262003090565b604082019050919050565b600060208201905081810360008301526200312181620030df565b9050919050565b60006020820190506200313f6000830184620024df565b92915050565b6000606082019050818103600083015262003161818662002f00565b9050818103602083015262003177818562002f00565b9050620031886040830184620024df565b94935050505056fe60806040523480156200001157600080fd5b5060405162001fec38038062001fec8339818101604052810190620000379190620004b7565b33600073ffffffffffffffffffffffffffffffffffffffff168173ffffffffffffffffffffffffffffffffffffffff1603620000ad5760006040517f1e4fbdf7000000000000000000000000000000000000000000000000000000008152600401620000a49190620005b6565b60405180910390fd5b620000be81620001c060201b60201c565b50856001819055508460029081620000d7919062000814565b508360039081620000e9919062000814565b508260048190555081600560006101000a81548173ffffffffffffffffffffffffffffffffffffffff021916908373ffffffffffffffffffffffffffffffffffffffff16021790555080600660006101000a81548173ffffffffffffffffffffffffffffffffffffffff021916908373ffffffffffffffffffffffffffffffffffffffff16021790555033600760006101000a81548173ffffffffffffffffffffffffffffffffffffffff021916908373ffffffffffffffffffffffffffffffffffffffff160217905550505050505050620008fb565b60008060009054906101000a900473ffffffffffffffffffffffffffffffffffffffff169050816000806101000a81548173ffffffffffffffffffffffffffffffffffffffff021916908373ffffffffffffffffffffffffffffffffffffffff1602179055508173ffffffffffffffffffffffffffffffffffffffff168173ffffffffffffffffffffffffffffffffffffffff167f8be0079c531659141344cd1fd0a4f28419497f9722a3daafe3b4186f6b6457e060405160405180910390a35050565b6000604051905090565b600080fd5b600080fd5b6000819050919050565b620002ad8162000298565b8114620002b957600080fd5b50565b600081519050620002cd81620002a2565b92915050565b600080fd5b600080fd5b6000601f19601f8301169050919050565b7f4e487b7100000000000000000000000000000000000000000000000000000000600052604160045260246000fd5b6200032882620002dd565b810181811067ffffffffffffffff821117156200034a5762000349620002ee565b5b80604052505050565b60006200035f62000284565b90506200036d82826200031d565b919050565b600067ffffffffffffffff82111562000390576200038f620002ee565b5b6200039b82620002dd565b9050602081019050919050565b60005b83811015620003c8578082015181840152602081019050620003ab565b60008484015250505050565b6000620003eb620003e58462000372565b62000353565b9050828152602081018484840111156200040a5762000409620002d8565b5b62000417848285620003a8565b509392505050565b600082601f830112620004375762000436620002d3565b5b815162000449848260208601620003d4565b91505092915050565b600073ffffffffffffffffffffffffffffffffffffffff82169050919050565b60006200047f8262000452565b9050919050565b620004918162000472565b81146200049d57600080fd5b50565b600081519050620004b18162000486565b92915050565b60008060008060008060c08789031215620004d757620004d66200028e565b5b6000620004e789828a01620002bc565b965050602087015167ffffffffffffffff8111156200050b576200050a62000293565b5b6200051989828a016200041f565b955050604087015167ffffffffffffffff8111156200053d576200053c62000293565b5b6200054b89828a016200041f565b94505060606200055e89828a01620002bc565b93505060806200057189828a01620004a0565b92505060a06200058489828a01620004a0565b9150509295509295509295565b60006200059e8262000452565b9050919050565b620005b08162000591565b82525050565b6000602082019050620005cd6000830184620005a5565b92915050565b600081519050919050565b7f4e487b7100000000000000000000000000000000000000000000000000000000600052602260045260246000fd5b600060028204905060018216806200062657607f821691505b6020821081036200063c576200063b620005de565b5b50919050565b60008190508160005260206000209050919050565b60006020601f8301049050919050565b600082821b905092915050565b600060088302620006a67fffffffffffffffffffffffffffffffffffffffffffffffffffffffffffffffff8262000667565b620006b2868362000667565b95508019841693508086168417925050509392505050565b6000819050919050565b6000620006f5620006ef620006e98462000298565b620006ca565b62000298565b9050919050565b6000819050919050565b6200071183620006d4565b620007296200072082620006fc565b84845462000674565b825550505050565b600090565b6200074062000731565b6200074d81848462000706565b505050565b5b8181101562000775576200076960008262000736565b60018101905062000753565b5050565b601f821115620007c4576200078e8162000642565b620007998462000657565b81016020851015620007a9578190505b620007c1620007b88562000657565b83018262000752565b50505b505050565b600082821c905092915050565b6000620007e960001984600802620007c9565b1980831691505092915050565b6000620008048383620007d6565b9150826002028217905092915050565b6200081f82620005d3565b67ffffffffffffffff8111156200083b576200083a620002ee565b5b6200084782546200060d565b6200085482828562000779565b600060209050601f8311600181146200088c576000841562000877578287015190505b620008838582620007f6565b865550620008f3565b601f1984166200089c8662000642565b60005b82811015620008c6578489015182556001820191506020850194506020810190506200089f565b86831015620008e65784890151620008e2601f891682620007d6565b8355505b6001600288020188555050505b505050505050565b6116e1806200090b6000396000f3fe6080604052600436106100ab5760003560e01c8063a7cc53f511610064578063a7cc53f51461038b578063c47f0027146103b6578063c6326dd0146103df578063da92adcb1461040a578063e55186a114610433578063f2fde38b1461045e5761029c565b806317d7de7c146102a157806349109a40146102cc578063715018a6146102f75780638221b09d1461030e5780638da5cb5b1461033757806391b7f5ed146103625761029c565b3661029c576004543410156100bf57600080fd5b6000600560009054906101000a900473ffffffffffffffffffffffffffffffffffffffff1673ffffffffffffffffffffffffffffffffffffffff16638da5cb5b6040518163ffffffff1660e01b8152600401602060405180830381865afa15801561012e573d6000803e3d6000fd5b505050506040513d601f19601f820116820180604052508101906101529190610c5c565b73ffffffffffffffffffffffffffffffffffffffff163460405161017590610cba565b60006040518083038185875af1925050503d80600081146101b2576040519150601f19603f3d011682016040523d82523d6000602084013e6101b7565b606091505b50509050806101fb576040517f08c379a00000000000000000000000000000000000000000000000000000000081526004016101f290610d2c565b60405180910390fd5b600760009054906101000a900473ffffffffffffffffffffffffffffffffffffffff1673ffffffffffffffffffffffffffffffffffffffff166337e431293060015460026004543461024d9190610db4565b6040518563ffffffff1660e01b815260040161026c9493929190610efc565b600060405180830381600087803b15801561028657600080fd5b505af115801561029a573d6000803e3d6000fd5b005b600080fd5b3480156102ad57600080fd5b506102b6610487565b6040516102c39190610fc7565b60405180910390f35b3480156102d857600080fd5b506102e1610519565b6040516102ee9190610fe9565b60405180910390f35b34801561030357600080fd5b5061030c6105c9565b005b34801561031a57600080fd5b5061033560048036038101906103309190611139565b6105dd565b005b34801561034357600080fd5b5061034c6105f8565b6040516103599190611182565b60405180910390f35b34801561036e57600080fd5b50610389600480360381019061038491906111c9565b610621565b005b34801561039757600080fd5b506103a0610633565b6040516103ad9190610fe9565b60405180910390f35b3480156103c257600080fd5b506103dd60048036038101906103d89190611139565b61063d565b005b3480156103eb57600080fd5b506103f4610658565b6040516104019190611255565b60405180910390f35b34801561041657600080fd5b50610431600480360381019061042c91906111c9565b61067e565b005b34801561043f57600080fd5b5061044861097f565b6040516104559190610fc7565b60405180910390f35b34801561046a57600080fd5b5061048560048036038101906104809190611285565b610a11565b005b60606002805461049690610e32565b80601f01602080910402602001604051908101604052809291908181526020018280546104c290610e32565b801561050f5780601f106104e45761010080835404028352916020019161050f565b820191906000526020600020905b8154815290600101906020018083116104f257829003601f168201915b5050505050905090565b6000600454600660009054906101000a900473ffffffffffffffffffffffffffffffffffffffff1673ffffffffffffffffffffffffffffffffffffffff1663f8b2cb4f336040518263ffffffff1660e01b81526004016105799190611182565b602060405180830381865afa158015610596573d6000803e3d6000fd5b505050506040513d601f19601f820116820180604052508101906105ba91906112c7565b6105c49190610db4565b905090565b6105d1610a97565b6105db6000610b1e565b565b6105e5610a97565b80600390816105f49190611481565b5050565b60008060009054906101000a900473ffffffffffffffffffffffffffffffffffffffff16905090565b610629610a97565b8060048190555050565b6000600454905090565b610645610a97565b80600290816106549190611481565b5050565b600560009054906101000a900473ffffffffffffffffffffffffffffffffffffffff1681565b600454600660009054906101000a900473ffffffffffffffffffffffffffffffffffffffff1673ffffffffffffffffffffffffffffffffffffffff1663f8b2cb4f336040518263ffffffff1660e01b81526004016106dc9190611182565b602060405180830381865afa1580156106f9573d6000803e3d6000fd5b505050506040513d601f19601f8201168201806040525081019061071d91906112c7565b101561075e576040517f08c379a00000000000000000000000000000000000000000000000000000000081526004016107559061159f565b60405180910390fd5b6000600760009054906101000a900473ffffffffffffffffffffffffffffffffffffffff1673ffffffffffffffffffffffffffffffffffffffff16636e9163c760015433600560009054906101000a900473ffffffffffffffffffffffffffffffffffffffff1673ffffffffffffffffffffffffffffffffffffffff16638da5cb5b6040518163ffffffff1660e01b8152600401602060405180830381865afa15801561080f573d6000803e3d6000fd5b505050506040513d601f19601f820116820180604052508101906108339190610c5c565b6004548761084191906115bf565b6040518563ffffffff1660e01b81526004016108609493929190611601565b6020604051808303816000875af115801561087f573d6000803e3d6000fd5b505050506040513d601f19601f820116820180604052508101906108a3919061167e565b9050806108e5576040517f08c379a00000000000000000000000000000000000000000000000000000000081526004016108dc90610d2c565b60405180910390fd5b600760009054906101000a900473ffffffffffffffffffffffffffffffffffffffff1673ffffffffffffffffffffffffffffffffffffffff166337e43129306001546002866040518563ffffffff1660e01b81526004016109499493929190610efc565b600060405180830381600087803b15801561096357600080fd5b505af1158015610977573d6000803e3d6000fd5b505050505050565b60606003805461098e90610e32565b80601f01602080910402602001604051908101604052809291908181526020018280546109ba90610e32565b8015610a075780601f106109dc57610100808354040283529160200191610a07565b820191906000526020600020905b8154815290600101906020018083116109ea57829003601f168201915b5050505050905090565b610a19610a97565b600073ffffffffffffffffffffffffffffffffffffffff168173ffffffffffffffffffffffffffffffffffffffff1603610a8b5760006040517f1e4fbdf7000000000000000000000000000000000000000000000000000000008152600401610a829190611182565b60405180910390fd5b610a9481610b1e565b50565b610a9f610be2565b73ffffffffffffffffffffffffffffffffffffffff16610abd6105f8565b73ffffffffffffffffffffffffffffffffffffffff1614610b1c57610ae0610be2565b6040517f118cdaa7000000000000000000000000000000000000000000000000000000008152600401610b139190611182565b60405180910390fd5b565b60008060009054906101000a900473ffffffffffffffffffffffffffffffffffffffff169050816000806101000a81548173ffffffffffffffffffffffffffffffffffffffff021916908373ffffffffffffffffffffffffffffffffffffffff1602179055508173ffffffffffffffffffffffffffffffffffffffff168173ffffffffffffffffffffffffffffffffffffffff167f8be0079c531659141344cd1fd0a4f28419497f9722a3daafe3b4186f6b6457e060405160405180910390a35050565b600033905090565b6000604051905090565b600080fd5b600080fd5b600073ffffffffffffffffffffffffffffffffffffffff82169050919050565b6000610c2982610bfe565b9050919050565b610c3981610c1e565b8114610c4457600080fd5b50565b600081519050610c5681610c30565b92915050565b600060208284031215610c7257610c71610bf4565b5b6000610c8084828501610c47565b91505092915050565b600081905092915050565b50565b6000610ca4600083610c89565b9150610caf82610c94565b600082019050919050565b6000610cc582610c97565b9150819050919050565b600082825260208201905092915050565b7f5472616e73666572206661696c65640000000000000000000000000000000000600082015250565b6000610d16600f83610ccf565b9150610d2182610ce0565b602082019050919050565b60006020820190508181036000830152610d4581610d09565b9050919050565b6000819050919050565b7f4e487b7100000000000000000000000000000000000000000000000000000000600052601260045260246000fd5b7f4e487b7100000000000000000000000000000000000000000000000000000000600052601160045260246000fd5b6000610dbf82610d4c565b9150610dca83610d4c565b925082610dda57610dd9610d56565b5b828204905092915050565b610dee81610c1e565b82525050565b610dfd81610d4c565b82525050565b7f4e487b7100000000000000000000000000000000000000000000000000000000600052602260045260246000fd5b60006002820490506001821680610e4a57607f821691505b602082108103610e5d57610e5c610e03565b5b50919050565b60008190508160005260206000209050919050565b60008154610e8581610e32565b610e8f8186610ccf565b94506001821660008114610eaa5760018114610ec057610ef3565b60ff198316865281151560200286019350610ef3565b610ec985610e63565b60005b83811015610eeb57815481890152600182019150602081019050610ecc565b808801955050505b50505092915050565b6000608082019050610f116000830187610de5565b610f1e6020830186610df4565b8181036040830152610f308185610e78565b9050610f3f6060830184610df4565b95945050505050565b600081519050919050565b60005b83811015610f71578082015181840152602081019050610f56565b60008484015250505050565b6000601f19601f8301169050919050565b6000610f9982610f48565b610fa38185610ccf565b9350610fb3818560208601610f53565b610fbc81610f7d565b840191505092915050565b60006020820190508181036000830152610fe18184610f8e565b905092915050565b6000602082019050610ffe6000830184610df4565b92915050565b600080fd5b600080fd5b7f4e487b7100000000000000000000000000000000000000000000000000000000600052604160045260246000fd5b61104682610f7d565b810181811067ffffffffffffffff821117156110655761106461100e565b5b80604052505050565b6000611078610bea565b9050611084828261103d565b919050565b600067ffffffffffffffff8211156110a4576110a361100e565b5b6110ad82610f7d565b9050602081019050919050565b82818337600083830152505050565b60006110dc6110d784611089565b61106e565b9050828152602081018484840111156110f8576110f7611009565b5b6111038482856110ba565b509392505050565b600082601f8301126111205761111f611004565b5b81356111308482602086016110c9565b91505092915050565b60006020828403121561114f5761114e610bf4565b5b600082013567ffffffffffffffff81111561116d5761116c610bf9565b5b6111798482850161110b565b91505092915050565b60006020820190506111976000830184610de5565b92915050565b6111a681610d4c565b81146111b157600080fd5b50565b6000813590506111c38161119d565b92915050565b6000602082840312156111df576111de610bf4565b5b60006111ed848285016111b4565b91505092915050565b6000819050919050565b600061121b61121661121184610bfe565b6111f6565b610bfe565b9050919050565b600061122d82611200565b9050919050565b600061123f82611222565b9050919050565b61124f81611234565b82525050565b600060208201905061126a6000830184611246565b92915050565b60008135905061127f81610c30565b92915050565b60006020828403121561129b5761129a610bf4565b5b60006112a984828501611270565b91505092915050565b6000815190506112c18161119d565b92915050565b6000602082840312156112dd576112dc610bf4565b5b60006112eb848285016112b2565b91505092915050565b60006020601f8301049050919050565b600082821b905092915050565b6000600883026113417fffffffffffffffffffffffffffffffffffffffffffffffffffffffffffffffff82611304565b61134b8683611304565b95508019841693508086168417925050509392505050565b600061137e61137961137484610d4c565b6111f6565b610d4c565b9050919050565b6000819050919050565b61139883611363565b6113ac6113a482611385565b848454611311565b825550505050565b600090565b6113c16113b4565b6113cc81848461138f565b505050565b5b818110156113f0576113e56000826113b9565b6001810190506113d2565b5050565b601f8211156114355761140681610e63565b61140f846112f4565b8101602085101561141e578190505b61143261142a856112f4565b8301826113d1565b50505b505050565b600082821c905092915050565b60006114586000198460080261143a565b1980831691505092915050565b60006114718383611447565b9150826002028217905092915050565b61148a82610f48565b67ffffffffffffffff8111156114a3576114a261100e565b5b6114ad8254610e32565b6114b88282856113f4565b600060209050601f8311600181146114eb57600084156114d9578287015190505b6114e38582611465565b86555061154b565b601f1984166114f986610e63565b60005b82811015611521578489015182556001820191506020850194506020810190506114fc565b8683101561153e578489015161153a601f891682611447565b8355505b6001600288020188555050505b505050505050565b7f496e73756666696369656e742042616c616e6365000000000000000000000000600082015250565b6000611589601483610ccf565b915061159482611553565b602082019050919050565b600060208201905081810360008301526115b88161157c565b9050919050565b60006115ca82610d4c565b91506115d583610d4c565b92508282026115e381610d4c565b915082820484148315176115fa576115f9610d85565b5b5092915050565b60006080820190506116166000830187610df4565b6116236020830186610de5565b6116306040830185610de5565b61163d6060830184610df4565b95945050505050565b60008115159050919050565b61165b81611646565b811461166657600080fd5b50565b60008151905061167881611652565b92915050565b60006020828403121561169457611693610bf4565b5b60006116a284828501611669565b9150509291505056fea2646970667358221220d326e00e9896f3bd875bb4122e5003cc11c05cb55058d9ca3c5eeb115d9f5dcb64736f6c63430008180033a2646970667358221220954976cf6580c6a2fafa14278a14c59eedece7ae3047ff7840effcaadd08c99364736f6c63430008180033",
  "linkReferences": {},
  "deployedLinkReferences": {}
}