{
  "_format": "hh-sol-artifact-1",
  "contractName": "ActionFactory",
  "sourceName": "contracts/ActionFactory.sol",
  "abi": [
    {
      "inputs": [],
      "stateMutability": "nonpayable",
      "type": "constructor"
    },
    {
      "inputs": [
        {
          "internalType": "address",
          "name": "owner",
          "type": "address"
        }
      ],
      "name": "OwnableInvalidOwner",
      "type": "error"
    },
    {
      "inputs": [
        {
          "internalType": "address",
          "name": "account",
          "type": "address"
        }
      ],
      "name": "OwnableUnauthorizedAccount",
      "type": "error"
    },
    {
      "anonymous": false,
      "inputs": [
        {
          "indexed": true,
          "internalType": "address",
          "name": "action",
          "type": "address"
        },
        {
          "indexed": true,
          "internalType": "uint256",
          "name": "id",
          "type": "uint256"
        },
        {
          "indexed": false,
          "internalType": "string",
          "name": "name",
          "type": "string"
        },
        {
          "indexed": false,
          "internalType": "string",
          "name": "unit",
          "type": "string"
        },
        {
          "indexed": false,
          "internalType": "uint256",
          "name": "pricePerUnit",
          "type": "uint256"
        },
        {
          "indexed": false,
          "internalType": "address",
          "name": "deviceAddress",
          "type": "address"
        }
      ],
      "name": "ActionCreated",
      "type": "event"
    },
    {
      "anonymous": false,
      "inputs": [
        {
          "indexed": true,
          "internalType": "address",
          "name": "previousOwner",
          "type": "address"
        },
        {
          "indexed": true,
          "internalType": "address",
          "name": "newOwner",
          "type": "address"
        }
      ],
      "name": "OwnershipTransferred",
      "type": "event"
    },
    {
      "inputs": [
        {
          "internalType": "uint256",
          "name": "",
          "type": "uint256"
        }
      ],
      "name": "Actions",
      "outputs": [
        {
          "internalType": "uint256",
          "name": "id",
          "type": "uint256"
        },
        {
          "internalType": "address",
          "name": "ActionAddress",
          "type": "address"
        },
        {
          "internalType": "string",
          "name": "name",
          "type": "string"
        },
        {
          "internalType": "string",
          "name": "unit",
          "type": "string"
        },
        {
          "internalType": "uint256",
          "name": "price",
          "type": "uint256"
        },
        {
          "internalType": "address",
          "name": "deviceAddress",
          "type": "address"
        },
        {
          "internalType": "address",
          "name": "deviceOwner",
          "type": "address"
        }
      ],
      "stateMutability": "view",
      "type": "function"
    },
    {
      "inputs": [
        {
          "internalType": "uint256",
          "name": "_id",
          "type": "uint256"
        },
        {
          "internalType": "address",
          "name": "_from",
          "type": "address"
        },
        {
          "internalType": "address",
          "name": "_to",
          "type": "address"
        },
        {
          "internalType": "uint256",
          "name": "_amount",
          "type": "uint256"
        }
      ],
      "name": "Balancetransfer",
      "outputs": [],
      "stateMutability": "nonpayable",
      "type": "function"
    },
    {
      "inputs": [
        {
          "internalType": "string",
          "name": "_name",
          "type": "string"
        },
        {
          "internalType": "string",
          "name": "_unit",
          "type": "string"
        },
        {
          "internalType": "uint256",
          "name": "_pricePerUnit",
          "type": "uint256"
        },
        {
          "internalType": "address payable",
          "name": "_deviceAddress",
          "type": "address"
        },
        {
          "internalType": "address",
          "name": "_deviceOwner",
          "type": "address"
        }
      ],
      "name": "createAction",
      "outputs": [
        {
          "internalType": "address",
          "name": "",
          "type": "address"
        }
      ],
      "stateMutability": "nonpayable",
      "type": "function"
    },
    {
      "inputs": [
        {
          "internalType": "address",
          "name": "_deviceAddress",
          "type": "address"
        }
      ],
      "name": "getActions",
      "outputs": [
        {
          "components": [
            {
              "internalType": "uint256",
              "name": "id",
              "type": "uint256"
            },
            {
              "internalType": "address",
              "name": "ActionAddress",
              "type": "address"
            },
            {
              "internalType": "string",
              "name": "name",
              "type": "string"
            },
            {
              "internalType": "string",
              "name": "unit",
              "type": "string"
            },
            {
              "internalType": "uint256",
              "name": "price",
              "type": "uint256"
            },
            {
              "internalType": "address",
              "name": "deviceAddress",
              "type": "address"
            },
            {
              "internalType": "address",
              "name": "deviceOwner",
              "type": "address"
            }
          ],
          "internalType": "struct ActionFactory.ActionInfo[]",
          "name": "",
          "type": "tuple[]"
        }
      ],
      "stateMutability": "view",
      "type": "function"
    },
    {
      "inputs": [],
      "name": "owner",
      "outputs": [
        {
          "internalType": "address",
          "name": "",
          "type": "address"
        }
      ],
      "stateMutability": "view",
      "type": "function"
    },
    {
      "inputs": [],
      "name": "renounceOwnership",
      "outputs": [],
      "stateMutability": "nonpayable",
      "type": "function"
    },
    {
      "inputs": [
        {
          "internalType": "address payable",
          "name": "_balanceAddress",
          "type": "address"
        }
      ],
      "name": "setBalanceContract",
      "outputs": [],
      "stateMutability": "nonpayable",
      "type": "function"
    },
    {
      "inputs": [
        {
          "internalType": "address",
          "name": "newOwner",
          "type": "address"
        }
      ],
      "name": "transferOwnership",
      "outputs": [],
      "stateMutability": "nonpayable",
      "type": "function"
    },
    {
      "inputs": [
        {
          "internalType": "uint256",
          "name": "_actionId",
          "type": "uint256"
        },
        {
          "internalType": "uint256",
          "name": "_newPrice",
          "type": "uint256"
        }
      ],
      "name": "updateActionPrice",
      "outputs": [],
      "stateMutability": "nonpayable",
      "type": "function"
    }
  ],
  "bytecode": "0x608060405260016002553480156200001657600080fd5b5033600073ffffffffffffffffffffffffffffffffffffffff168173ffffffffffffffffffffffffffffffffffffffff16036200008d5760006040517f1e4fbdf7000000000000000000000000000000000000000000000000000000008152600401620000849190620001ae565b60405180910390fd5b6200009e81620000a560201b60201c565b50620001cb565b60008060009054906101000a900473ffffffffffffffffffffffffffffffffffffffff169050816000806101000a81548173ffffffffffffffffffffffffffffffffffffffff021916908373ffffffffffffffffffffffffffffffffffffffff1602179055508173ffffffffffffffffffffffffffffffffffffffff168173ffffffffffffffffffffffffffffffffffffffff167f8be0079c531659141344cd1fd0a4f28419497f9722a3daafe3b4186f6b6457e060405160405180910390a35050565b600073ffffffffffffffffffffffffffffffffffffffff82169050919050565b6000620001968262000169565b9050919050565b620001a88162000189565b82525050565b6000602082019050620001c560008301846200019d565b92915050565b61334680620001db6000396000f3fe60806040523480156200001157600080fd5b5060043610620000a05760003560e01c80638da5cb5b116200006f5780638da5cb5b1462000127578063b4272ce91462000149578063d31a35cc1462000185578063f2fde38b14620001bb578063f7d2bed214620001db57620000a0565b80636e9163c714620000a5578063715018a614620000c5578063898786ac14620000d15780638ccc0f9214620000f1575b600080fd5b620000c36004803603810190620000bd919062001102565b620001fb565b005b620000cf6200033d565b005b620000ef6004803603810190620000e99190620011b9565b62000355565b005b6200010f6004803603810190620001099190620011eb565b620003a3565b6040516200011e91906200145a565b60405180910390f35b6200013162000740565b6040516200014091906200148f565b60405180910390f35b620001676004803603810190620001619190620014ac565b62000769565b6040516200017c979695949392919062001541565b60405180910390f35b620001a360048036038101906200019d91906200171d565b6200092b565b604051620001b291906200148f565b60405180910390f35b620001d96004803603810190620001d39190620011eb565b62000bbf565b005b620001f96004803603810190620001f39190620017e3565b62000c4c565b005b6001600085815260200190815260200160002060010160009054906101000a900473ffffffffffffffffffffffffffffffffffffffff1673ffffffffffffffffffffffffffffffffffffffff163373ffffffffffffffffffffffffffffffffffffffff1614620002a2576040517f08c379a00000000000000000000000000000000000000000000000000000000081526004016200029990620018a0565b60405180910390fd5b600360009054906101000a900473ffffffffffffffffffffffffffffffffffffffff1673ffffffffffffffffffffffffffffffffffffffff1663a606b94a8484846040518463ffffffff1660e01b81526004016200030393929190620018c2565b600060405180830381600087803b1580156200031e57600080fd5b505af115801562000333573d6000803e3d6000fd5b5050505050505050565b6200034762000e65565b62000353600062000ef5565b565b6200035f62000e65565b80600360006101000a81548173ffffffffffffffffffffffffffffffffffffffff021916908373ffffffffffffffffffffffffffffffffffffffff16021790555050565b606060006001600254620003b891906200192e565b67ffffffffffffffff811115620003d457620003d3620015d6565b5b6040519080825280602002602001820160405280156200041157816020015b620003fd62000fc1565b815260200190600190039081620003f35790505b5090506000600190505b60025481101562000736578373ffffffffffffffffffffffffffffffffffffffff166001600083815260200190815260200160002060050160009054906101000a900473ffffffffffffffffffffffffffffffffffffffff1673ffffffffffffffffffffffffffffffffffffffff16036200072857600160008281526020019081526020016000206040518060e0016040529081600082015481526020016001820160009054906101000a900473ffffffffffffffffffffffffffffffffffffffff1673ffffffffffffffffffffffffffffffffffffffff1673ffffffffffffffffffffffffffffffffffffffff168152602001600282018054620005209062001998565b80601f01602080910402602001604051908101604052809291908181526020018280546200054e9062001998565b80156200059f5780601f1062000573576101008083540402835291602001916200059f565b820191906000526020600020905b8154815290600101906020018083116200058157829003601f168201915b50505050508152602001600382018054620005ba9062001998565b80601f0160208091040260200160405190810160405280929190818152602001828054620005e89062001998565b8015620006395780601f106200060d5761010080835404028352916020019162000639565b820191906000526020600020905b8154815290600101906020018083116200061b57829003601f168201915b50505050508152602001600482015481526020016005820160009054906101000a900473ffffffffffffffffffffffffffffffffffffffff1673ffffffffffffffffffffffffffffffffffffffff1673ffffffffffffffffffffffffffffffffffffffff1681526020016006820160009054906101000a900473ffffffffffffffffffffffffffffffffffffffff1673ffffffffffffffffffffffffffffffffffffffff1673ffffffffffffffffffffffffffffffffffffffff1681525050826001836200070891906200192e565b815181106200071c576200071b620019cd565b5b60200260200101819052505b80806001019150506200041b565b5080915050919050565b60008060009054906101000a900473ffffffffffffffffffffffffffffffffffffffff16905090565b60016020528060005260406000206000915090508060000154908060010160009054906101000a900473ffffffffffffffffffffffffffffffffffffffff1690806002018054620007ba9062001998565b80601f0160208091040260200160405190810160405280929190818152602001828054620007e89062001998565b8015620008395780601f106200080d5761010080835404028352916020019162000839565b820191906000526020600020905b8154815290600101906020018083116200081b57829003601f168201915b505050505090806003018054620008509062001998565b80601f01602080910402602001604051908101604052809291908181526020018280546200087e9062001998565b8015620008cf5780601f10620008a357610100808354040283529160200191620008cf565b820191906000526020600020905b815481529060010190602001808311620008b157829003601f168201915b5050505050908060040154908060050160009054906101000a900473ffffffffffffffffffffffffffffffffffffffff16908060060160009054906101000a900473ffffffffffffffffffffffffffffffffffffffff16905087565b60008060025487878787600360009054906101000a900473ffffffffffffffffffffffffffffffffffffffff16604051620009669062001040565b620009779695949392919062001a0d565b604051809103906000f08015801562000994573d6000803e3d6000fd5b5090506002548173ffffffffffffffffffffffffffffffffffffffff167f94a9e858f56ffdb1e83cd70bbe0cd97ff7e68d08f4c23218682ae22b77ae52c789898989604051620009e8949392919062001af3565b60405180910390a36040518060e0016040528060025481526020018273ffffffffffffffffffffffffffffffffffffffff1681526020018881526020018781526020018681526020018573ffffffffffffffffffffffffffffffffffffffff1681526020018473ffffffffffffffffffffffffffffffffffffffff168152506001600060025481526020019081526020016000206000820151816000015560208201518160010160006101000a81548173ffffffffffffffffffffffffffffffffffffffff021916908373ffffffffffffffffffffffffffffffffffffffff160217905550604082015181600201908162000ae4919062001d16565b50606082015181600301908162000afc919062001d16565b506080820151816004015560a08201518160050160006101000a81548173ffffffffffffffffffffffffffffffffffffffff021916908373ffffffffffffffffffffffffffffffffffffffff16021790555060c08201518160060160006101000a81548173ffffffffffffffffffffffffffffffffffffffff021916908373ffffffffffffffffffffffffffffffffffffffff1602179055509050506002600081548092919062000bad9062001dfd565b91905055508091505095945050505050565b62000bc962000e65565b600073ffffffffffffffffffffffffffffffffffffffff168173ffffffffffffffffffffffffffffffffffffffff160362000c3e5760006040517f1e4fbdf700000000000000000000000000000000000000000000000000000000815260040162000c3591906200148f565b60405180910390fd5b62000c498162000ef5565b50565b600073ffffffffffffffffffffffffffffffffffffffff166001600084815260200190815260200160002060010160009054906101000a900473ffffffffffffffffffffffffffffffffffffffff1673ffffffffffffffffffffffffffffffffffffffff160362000cf4576040517f08c379a000000000000000000000000000000000000000000000000000000000815260040162000ceb9062001e9a565b60405180910390fd5b6001600083815260200190815260200160002060060160009054906101000a900473ffffffffffffffffffffffffffffffffffffffff1673ffffffffffffffffffffffffffffffffffffffff163373ffffffffffffffffffffffffffffffffffffffff161462000d9b576040517f08c379a000000000000000000000000000000000000000000000000000000000815260040162000d929062001f32565b60405180910390fd5b60006001600084815260200190815260200160002060010160009054906101000a900473ffffffffffffffffffffffffffffffffffffffff1690508073ffffffffffffffffffffffffffffffffffffffff166391b7f5ed836040518263ffffffff1660e01b815260040162000e11919062001f54565b600060405180830381600087803b15801562000e2c57600080fd5b505af115801562000e41573d6000803e3d6000fd5b50505050816001600085815260200190815260200160002060040181905550505050565b62000e6f62000fb9565b73ffffffffffffffffffffffffffffffffffffffff1662000e8f62000740565b73ffffffffffffffffffffffffffffffffffffffff161462000ef35762000eb562000fb9565b6040517f118cdaa700000000000000000000000000000000000000000000000000000000815260040162000eea91906200148f565b60405180910390fd5b565b60008060009054906101000a900473ffffffffffffffffffffffffffffffffffffffff169050816000806101000a81548173ffffffffffffffffffffffffffffffffffffffff021916908373ffffffffffffffffffffffffffffffffffffffff1602179055508173ffffffffffffffffffffffffffffffffffffffff168173ffffffffffffffffffffffffffffffffffffffff167f8be0079c531659141344cd1fd0a4f28419497f9722a3daafe3b4186f6b6457e060405160405180910390a35050565b600033905090565b6040518060e0016040528060008152602001600073ffffffffffffffffffffffffffffffffffffffff168152602001606081526020016060815260200160008152602001600073ffffffffffffffffffffffffffffffffffffffff168152602001600073ffffffffffffffffffffffffffffffffffffffff1681525090565b61139f8062001f7283390190565b6000604051905090565b600080fd5b600080fd5b6000819050919050565b620010778162001062565b81146200108357600080fd5b50565b60008135905062001097816200106c565b92915050565b600073ffffffffffffffffffffffffffffffffffffffff82169050919050565b6000620010ca826200109d565b9050919050565b620010dc81620010bd565b8114620010e857600080fd5b50565b600081359050620010fc81620010d1565b92915050565b600080600080608085870312156200111f576200111e62001058565b5b60006200112f8782880162001086565b94505060206200114287828801620010eb565b93505060406200115587828801620010eb565b9250506060620011688782880162001086565b91505092959194509250565b600062001181826200109d565b9050919050565b620011938162001174565b81146200119f57600080fd5b50565b600081359050620011b38162001188565b92915050565b600060208284031215620011d257620011d162001058565b5b6000620011e284828501620011a2565b91505092915050565b60006020828403121562001204576200120362001058565b5b60006200121484828501620010eb565b91505092915050565b600081519050919050565b600082825260208201905092915050565b6000819050602082019050919050565b620012548162001062565b82525050565b6200126581620010bd565b82525050565b600081519050919050565b600082825260208201905092915050565b60005b83811015620012a75780820151818401526020810190506200128a565b60008484015250505050565b6000601f19601f8301169050919050565b6000620012d1826200126b565b620012dd818562001276565b9350620012ef81856020860162001287565b620012fa81620012b3565b840191505092915050565b600060e0830160008301516200131f600086018262001249565b5060208301516200133460208601826200125a565b50604083015184820360408601526200134e8282620012c4565b915050606083015184820360608601526200136a8282620012c4565b915050608083015162001381608086018262001249565b5060a08301516200139660a08601826200125a565b5060c0830151620013ab60c08601826200125a565b508091505092915050565b6000620013c4838362001305565b905092915050565b6000602082019050919050565b6000620013e6826200121d565b620013f2818562001228565b935083602082028501620014068562001239565b8060005b85811015620014485784840389528151620014268582620013b6565b94506200143383620013cc565b925060208a019950506001810190506200140a565b50829750879550505050505092915050565b60006020820190508181036000830152620014768184620013d9565b905092915050565b6200148981620010bd565b82525050565b6000602082019050620014a660008301846200147e565b92915050565b600060208284031215620014c557620014c462001058565b5b6000620014d58482850162001086565b91505092915050565b620014e98162001062565b82525050565b600082825260208201905092915050565b60006200150d826200126b565b620015198185620014ef565b93506200152b81856020860162001287565b6200153681620012b3565b840191505092915050565b600060e08201905062001558600083018a620014de565b6200156760208301896200147e565b81810360408301526200157b818862001500565b9050818103606083015262001591818762001500565b9050620015a26080830186620014de565b620015b160a08301856200147e565b620015c060c08301846200147e565b98975050505050505050565b600080fd5b600080fd5b7f4e487b7100000000000000000000000000000000000000000000000000000000600052604160045260246000fd5b6200161082620012b3565b810181811067ffffffffffffffff82111715620016325762001631620015d6565b5b80604052505050565b6000620016476200104e565b905062001655828262001605565b919050565b600067ffffffffffffffff821115620016785762001677620015d6565b5b6200168382620012b3565b9050602081019050919050565b82818337600083830152505050565b6000620016b6620016b0846200165a565b6200163b565b905082815260208101848484011115620016d557620016d4620015d1565b5b620016e284828562001690565b509392505050565b600082601f830112620017025762001701620015cc565b5b8135620017148482602086016200169f565b91505092915050565b600080600080600060a086880312156200173c576200173b62001058565b5b600086013567ffffffffffffffff8111156200175d576200175c6200105d565b5b6200176b88828901620016ea565b955050602086013567ffffffffffffffff8111156200178f576200178e6200105d565b5b6200179d88828901620016ea565b9450506040620017b08882890162001086565b9350506060620017c388828901620011a2565b9250506080620017d688828901620010eb565b9150509295509295909350565b60008060408385031215620017fd57620017fc62001058565b5b60006200180d8582860162001086565b9250506020620018208582860162001086565b9150509250929050565b7f596f7520617265206e6f7420616c6c6f77656420746f2063616c6c207468697360008201527f2066756e6374696f6e0000000000000000000000000000000000000000000000602082015250565b600062001888602983620014ef565b915062001895826200182a565b604082019050919050565b60006020820190508181036000830152620018bb8162001879565b9050919050565b6000606082019050620018d960008301866200147e565b620018e860208301856200147e565b620018f76040830184620014de565b949350505050565b7f4e487b7100000000000000000000000000000000000000000000000000000000600052601160045260246000fd5b60006200193b8262001062565b9150620019488362001062565b9250828203905081811115620019635762001962620018ff565b5b92915050565b7f4e487b7100000000000000000000000000000000000000000000000000000000600052602260045260246000fd5b60006002820490506001821680620019b157607f821691505b602082108103620019c757620019c662001969565b5b50919050565b7f4e487b7100000000000000000000000000000000000000000000000000000000600052603260045260246000fd5b62001a078162001174565b82525050565b600060c08201905062001a246000830189620014de565b818103602083015262001a38818862001500565b9050818103604083015262001a4e818762001500565b905062001a5f6060830186620014de565b62001a6e6080830185620019fc565b62001a7d60a0830184620019fc565b979650505050505050565b6000819050919050565b600062001ab362001aad62001aa7846200109d565b62001a88565b6200109d565b9050919050565b600062001ac78262001a92565b9050919050565b600062001adb8262001aba565b9050919050565b62001aed8162001ace565b82525050565b6000608082019050818103600083015262001b0f818762001500565b9050818103602083015262001b25818662001500565b905062001b366040830185620014de565b62001b45606083018462001ae2565b95945050505050565b60008190508160005260206000209050919050565b60006020601f8301049050919050565b600082821b905092915050565b60006008830262001bb27fffffffffffffffffffffffffffffffffffffffffffffffffffffffffffffffff8262001b73565b62001bbe868362001b73565b95508019841693508086168417925050509392505050565b600062001bf762001bf162001beb8462001062565b62001a88565b62001062565b9050919050565b6000819050919050565b62001c138362001bd6565b62001c2b62001c228262001bfe565b84845462001b80565b825550505050565b600090565b62001c4262001c33565b62001c4f81848462001c08565b505050565b5b8181101562001c775762001c6b60008262001c38565b60018101905062001c55565b5050565b601f82111562001cc65762001c908162001b4e565b62001c9b8462001b63565b8101602085101562001cab578190505b62001cc362001cba8562001b63565b83018262001c54565b50505b505050565b600082821c905092915050565b600062001ceb6000198460080262001ccb565b1980831691505092915050565b600062001d06838362001cd8565b9150826002028217905092915050565b62001d21826200126b565b67ffffffffffffffff81111562001d3d5762001d3c620015d6565b5b62001d49825462001998565b62001d5682828562001c7b565b600060209050601f83116001811462001d8e576000841562001d79578287015190505b62001d85858262001cf8565b86555062001df5565b601f19841662001d9e8662001b4e565b60005b8281101562001dc85784890151825560018201915060208501945060208101905062001da1565b8683101562001de8578489015162001de4601f89168262001cd8565b8355505b6001600288020188555050505b505050505050565b600062001e0a8262001062565b91507fffffffffffffffffffffffffffffffffffffffffffffffffffffffffffffffff820362001e3f5762001e3e620018ff565b5b600182019050919050565b7f416374696f6e20646f6573206e6f742065786973740000000000000000000000600082015250565b600062001e82601583620014ef565b915062001e8f8262001e4a565b602082019050919050565b6000602082019050818103600083015262001eb58162001e73565b9050919050565b7f4f6e6c7920646576696365206f776e65722063616e207570646174652061637460008201527f696f6e2070726963650000000000000000000000000000000000000000000000602082015250565b600062001f1a602983620014ef565b915062001f278262001ebc565b604082019050919050565b6000602082019050818103600083015262001f4d8162001f0b565b9050919050565b600060208201905062001f6b6000830184620014de565b9291505056fe60806040523480156200001157600080fd5b506040516200139f3803806200139f8339818101604052810190620000379190620004f0565b33600073ffffffffffffffffffffffffffffffffffffffff168173ffffffffffffffffffffffffffffffffffffffff1603620000ad5760006040517f1e4fbdf7000000000000000000000000000000000000000000000000000000008152600401620000a49190620005ef565b60405180910390fd5b620000be81620001f960201b60201c565b503373ffffffffffffffffffffffffffffffffffffffff163373ffffffffffffffffffffffffffffffffffffffff1614620000f857600080fd5b8560018190555084600290816200011091906200084d565b5083600390816200012291906200084d565b508260048190555081600560006101000a81548173ffffffffffffffffffffffffffffffffffffffff021916908373ffffffffffffffffffffffffffffffffffffffff16021790555080600660006101000a81548173ffffffffffffffffffffffffffffffffffffffff021916908373ffffffffffffffffffffffffffffffffffffffff16021790555033600760006101000a81548173ffffffffffffffffffffffffffffffffffffffff021916908373ffffffffffffffffffffffffffffffffffffffff16021790555050505050505062000934565b60008060009054906101000a900473ffffffffffffffffffffffffffffffffffffffff169050816000806101000a81548173ffffffffffffffffffffffffffffffffffffffff021916908373ffffffffffffffffffffffffffffffffffffffff1602179055508173ffffffffffffffffffffffffffffffffffffffff168173ffffffffffffffffffffffffffffffffffffffff167f8be0079c531659141344cd1fd0a4f28419497f9722a3daafe3b4186f6b6457e060405160405180910390a35050565b6000604051905090565b600080fd5b600080fd5b6000819050919050565b620002e681620002d1565b8114620002f257600080fd5b50565b6000815190506200030681620002db565b92915050565b600080fd5b600080fd5b6000601f19601f8301169050919050565b7f4e487b7100000000000000000000000000000000000000000000000000000000600052604160045260246000fd5b620003618262000316565b810181811067ffffffffffffffff8211171562000383576200038262000327565b5b80604052505050565b600062000398620002bd565b9050620003a6828262000356565b919050565b600067ffffffffffffffff821115620003c957620003c862000327565b5b620003d48262000316565b9050602081019050919050565b60005b8381101562000401578082015181840152602081019050620003e4565b60008484015250505050565b6000620004246200041e84620003ab565b6200038c565b90508281526020810184848401111562000443576200044262000311565b5b62000450848285620003e1565b509392505050565b600082601f83011262000470576200046f6200030c565b5b8151620004828482602086016200040d565b91505092915050565b600073ffffffffffffffffffffffffffffffffffffffff82169050919050565b6000620004b8826200048b565b9050919050565b620004ca81620004ab565b8114620004d657600080fd5b50565b600081519050620004ea81620004bf565b92915050565b60008060008060008060c0878903121562000510576200050f620002c7565b5b60006200052089828a01620002f5565b965050602087015167ffffffffffffffff811115620005445762000543620002cc565b5b6200055289828a0162000458565b955050604087015167ffffffffffffffff811115620005765762000575620002cc565b5b6200058489828a0162000458565b94505060606200059789828a01620002f5565b9350506080620005aa89828a01620004d9565b92505060a0620005bd89828a01620004d9565b9150509295509295509295565b6000620005d7826200048b565b9050919050565b620005e981620005ca565b82525050565b6000602082019050620006066000830184620005de565b92915050565b600081519050919050565b7f4e487b7100000000000000000000000000000000000000000000000000000000600052602260045260246000fd5b600060028204905060018216806200065f57607f821691505b60208210810362000675576200067462000617565b5b50919050565b60008190508160005260206000209050919050565b60006020601f8301049050919050565b600082821b905092915050565b600060088302620006df7fffffffffffffffffffffffffffffffffffffffffffffffffffffffffffffffff82620006a0565b620006eb8683620006a0565b95508019841693508086168417925050509392505050565b6000819050919050565b60006200072e620007286200072284620002d1565b62000703565b620002d1565b9050919050565b6000819050919050565b6200074a836200070d565b62000762620007598262000735565b848454620006ad565b825550505050565b600090565b620007796200076a565b620007868184846200073f565b505050565b5b81811015620007ae57620007a26000826200076f565b6001810190506200078c565b5050565b601f821115620007fd57620007c7816200067b565b620007d28462000690565b81016020851015620007e2578190505b620007fa620007f18562000690565b8301826200078b565b50505b505050565b600082821c905092915050565b6000620008226000198460080262000802565b1980831691505092915050565b60006200083d83836200080f565b9150826002028217905092915050565b62000858826200060c565b67ffffffffffffffff81111562000874576200087362000327565b5b62000880825462000646565b6200088d828285620007b2565b600060209050601f831160018114620008c55760008415620008b0578287015190505b620008bc85826200082f565b8655506200092c565b601f198416620008d5866200067b565b60005b82811015620008ff57848901518255600182019150602085019450602081019050620008d8565b868310156200091f57848901516200091b601f8916826200080f565b8355505b6001600288020188555050505b505050505050565b610a5b80620009446000396000f3fe608060405234801561001057600080fd5b506004361061007d5760003560e01c80638da5cb5b1161005b5780638da5cb5b146100c657806391b7f5ed146100e4578063c6326dd014610100578063f2fde38b1461011e5761007d565b80631297de081461008257806349f6ca2f1461009e578063715018a6146100bc575b600080fd5b61009c60048036038101906100979190610688565b61013a565b005b6100a661034f565b6040516100b391906106c4565b60405180910390f35b6100c46103ff565b005b6100ce610413565b6040516100db9190610720565b60405180910390f35b6100fe60048036038101906100f99190610688565b61043c565b005b61010861044e565b604051610115919061079a565b60405180910390f35b610138600480360381019061013391906107e1565b610474565b005b600454600660009054906101000a900473ffffffffffffffffffffffffffffffffffffffff1673ffffffffffffffffffffffffffffffffffffffff1663f8b2cb4f336040518263ffffffff1660e01b81526004016101989190610720565b602060405180830381865afa1580156101b5573d6000803e3d6000fd5b505050506040513d601f19601f820116820180604052508101906101d99190610823565b101561021a576040517f08c379a0000000000000000000000000000000000000000000000000000000008152600401610211906108ad565b60405180910390fd5b600760009054906101000a900473ffffffffffffffffffffffffffffffffffffffff1673ffffffffffffffffffffffffffffffffffffffff16636e9163c760015433600560009054906101000a900473ffffffffffffffffffffffffffffffffffffffff1673ffffffffffffffffffffffffffffffffffffffff16638da5cb5b6040518163ffffffff1660e01b8152600401602060405180830381865afa1580156102c9573d6000803e3d6000fd5b505050506040513d601f19601f820116820180604052508101906102ed91906108e2565b600454866102fb919061093e565b6040518563ffffffff1660e01b815260040161031a9493929190610980565b600060405180830381600087803b15801561033457600080fd5b505af1158015610348573d6000803e3d6000fd5b5050505050565b6000600454600660009054906101000a900473ffffffffffffffffffffffffffffffffffffffff1673ffffffffffffffffffffffffffffffffffffffff1663f8b2cb4f336040518263ffffffff1660e01b81526004016103af9190610720565b602060405180830381865afa1580156103cc573d6000803e3d6000fd5b505050506040513d601f19601f820116820180604052508101906103f09190610823565b6103fa91906109f4565b905090565b6104076104fa565b6104116000610581565b565b60008060009054906101000a900473ffffffffffffffffffffffffffffffffffffffff16905090565b6104446104fa565b8060048190555050565b600560009054906101000a900473ffffffffffffffffffffffffffffffffffffffff1681565b61047c6104fa565b600073ffffffffffffffffffffffffffffffffffffffff168173ffffffffffffffffffffffffffffffffffffffff16036104ee5760006040517f1e4fbdf70000000000000000000000000000000000000000000000000000000081526004016104e59190610720565b60405180910390fd5b6104f781610581565b50565b610502610645565b73ffffffffffffffffffffffffffffffffffffffff16610520610413565b73ffffffffffffffffffffffffffffffffffffffff161461057f57610543610645565b6040517f118cdaa70000000000000000000000000000000000000000000000000000000081526004016105769190610720565b60405180910390fd5b565b60008060009054906101000a900473ffffffffffffffffffffffffffffffffffffffff169050816000806101000a81548173ffffffffffffffffffffffffffffffffffffffff021916908373ffffffffffffffffffffffffffffffffffffffff1602179055508173ffffffffffffffffffffffffffffffffffffffff168173ffffffffffffffffffffffffffffffffffffffff167f8be0079c531659141344cd1fd0a4f28419497f9722a3daafe3b4186f6b6457e060405160405180910390a35050565b600033905090565b600080fd5b6000819050919050565b61066581610652565b811461067057600080fd5b50565b6000813590506106828161065c565b92915050565b60006020828403121561069e5761069d61064d565b5b60006106ac84828501610673565b91505092915050565b6106be81610652565b82525050565b60006020820190506106d960008301846106b5565b92915050565b600073ffffffffffffffffffffffffffffffffffffffff82169050919050565b600061070a826106df565b9050919050565b61071a816106ff565b82525050565b60006020820190506107356000830184610711565b92915050565b6000819050919050565b600061076061075b610756846106df565b61073b565b6106df565b9050919050565b600061077282610745565b9050919050565b600061078482610767565b9050919050565b61079481610779565b82525050565b60006020820190506107af600083018461078b565b92915050565b6107be816106ff565b81146107c957600080fd5b50565b6000813590506107db816107b5565b92915050565b6000602082840312156107f7576107f661064d565b5b6000610805848285016107cc565b91505092915050565b60008151905061081d8161065c565b92915050565b6000602082840312156108395761083861064d565b5b60006108478482850161080e565b91505092915050565b600082825260208201905092915050565b7f496e73756666696369656e742042616c61636e65000000000000000000000000600082015250565b6000610897601483610850565b91506108a282610861565b602082019050919050565b600060208201905081810360008301526108c68161088a565b9050919050565b6000815190506108dc816107b5565b92915050565b6000602082840312156108f8576108f761064d565b5b6000610906848285016108cd565b91505092915050565b7f4e487b7100000000000000000000000000000000000000000000000000000000600052601160045260246000fd5b600061094982610652565b915061095483610652565b925082820261096281610652565b915082820484148315176109795761097861090f565b5b5092915050565b600060808201905061099560008301876106b5565b6109a26020830186610711565b6109af6040830185610711565b6109bc60608301846106b5565b95945050505050565b7f4e487b7100000000000000000000000000000000000000000000000000000000600052601260045260246000fd5b60006109ff82610652565b9150610a0a83610652565b925082610a1a57610a196109c5565b5b82820490509291505056fea2646970667358221220feb6d1f9a373bacb594c2ecbeee3a50c3fe936030b8644441e36bf8f3d74b81864736f6c63430008180033a2646970667358221220bea1b1db6c8066ec112fd7ac49673a8906313c7a26eab56f703695cb1bd9339164736f6c63430008180033",
  "linkReferences": {},
  "deployedLinkReferences": {}
}