{
  "_format": "hh-sol-artifact-1",
  "contractName": "Balance",
  "sourceName": "contracts/Balance.sol",
  "abi": [
    {
      "inputs": [
        {
          "internalType": "address",
          "name": "_actionFactory",
          "type": "address"
        }
      ],
      "stateMutability": "nonpayable",
      "type": "constructor"
    },
    {
      "inputs": [
        {
          "internalType": "address",
          "name": "owner",
          "type": "address"
        }
      ],
      "name": "OwnableInvalidOwner",
      "type": "error"
    },
    {
      "inputs": [
        {
          "internalType": "address",
          "name": "account",
          "type": "address"
        }
      ],
      "name": "OwnableUnauthorizedAccount",
      "type": "error"
    },
    {
      "anonymous": false,
      "inputs": [
        {
          "indexed": true,
          "internalType": "address",
          "name": "account",
          "type": "address"
        },
        {
          "indexed": false,
          "internalType": "uint256",
          "name": "amount",
          "type": "uint256"
        }
      ],
      "name": "Deposit",
      "type": "event"
    },
    {
      "anonymous": false,
      "inputs": [
        {
          "indexed": true,
          "internalType": "address",
          "name": "previousOwner",
          "type": "address"
        },
        {
          "indexed": true,
          "internalType": "address",
          "name": "newOwner",
          "type": "address"
        }
      ],
      "name": "OwnershipTransferred",
      "type": "event"
    },
    {
      "anonymous": false,
      "inputs": [
        {
          "indexed": true,
          "internalType": "address",
          "name": "account",
          "type": "address"
        },
        {
          "indexed": false,
          "internalType": "uint256",
          "name": "amount",
          "type": "uint256"
        }
      ],
      "name": "Withdrawal",
      "type": "event"
    },
    {
      "inputs": [
        {
          "internalType": "address",
          "name": "account",
          "type": "address"
        }
      ],
      "name": "getBalance",
      "outputs": [
        {
          "internalType": "uint256",
          "name": "",
          "type": "uint256"
        }
      ],
      "stateMutability": "view",
      "type": "function"
    },
    {
      "inputs": [],
      "name": "owner",
      "outputs": [
        {
          "internalType": "address",
          "name": "",
          "type": "address"
        }
      ],
      "stateMutability": "view",
      "type": "function"
    },
    {
      "inputs": [],
      "name": "renounceOwnership",
      "outputs": [],
      "stateMutability": "nonpayable",
      "type": "function"
    },
    {
      "inputs": [
        {
          "internalType": "address",
          "name": "_from",
          "type": "address"
        },
        {
          "internalType": "address",
          "name": "_to",
          "type": "address"
        },
        {
          "internalType": "uint256",
          "name": "_amount",
          "type": "uint256"
        }
      ],
      "name": "transferBalance",
      "outputs": [
        {
          "internalType": "bool",
          "name": "",
          "type": "bool"
        }
      ],
      "stateMutability": "nonpayable",
      "type": "function"
    },
    {
      "inputs": [
        {
          "internalType": "address",
          "name": "newOwner",
          "type": "address"
        }
      ],
      "name": "transferOwnership",
      "outputs": [],
      "stateMutability": "nonpayable",
      "type": "function"
    },
    {
      "inputs": [
        {
          "internalType": "uint256",
          "name": "amount",
          "type": "uint256"
        }
      ],
      "name": "withdraw",
      "outputs": [],
      "stateMutability": "nonpayable",
      "type": "function"
    },
    {
      "stateMutability": "payable",
      "type": "receive"
    }
  ],
  "bytecode": "0x60806040523480156200001157600080fd5b5060405162000f3638038062000f36833981810160405281019062000037919062000235565b33600073ffffffffffffffffffffffffffffffffffffffff168173ffffffffffffffffffffffffffffffffffffffff1603620000ad5760006040517f1e4fbdf7000000000000000000000000000000000000000000000000000000008152600401620000a4919062000278565b60405180910390fd5b620000be816200010760201b60201c565b5080600260006101000a81548173ffffffffffffffffffffffffffffffffffffffff021916908373ffffffffffffffffffffffffffffffffffffffff1602179055505062000295565b60008060009054906101000a900473ffffffffffffffffffffffffffffffffffffffff169050816000806101000a81548173ffffffffffffffffffffffffffffffffffffffff021916908373ffffffffffffffffffffffffffffffffffffffff1602179055508173ffffffffffffffffffffffffffffffffffffffff168173ffffffffffffffffffffffffffffffffffffffff167f8be0079c531659141344cd1fd0a4f28419497f9722a3daafe3b4186f6b6457e060405160405180910390a35050565b600080fd5b600073ffffffffffffffffffffffffffffffffffffffff82169050919050565b6000620001fd82620001d0565b9050919050565b6200020f81620001f0565b81146200021b57600080fd5b50565b6000815190506200022f8162000204565b92915050565b6000602082840312156200024e576200024d620001cb565b5b60006200025e848285016200021e565b91505092915050565b6200027281620001f0565b82525050565b60006020820190506200028f600083018462000267565b92915050565b610c9180620002a56000396000f3fe6080604052600436106100595760003560e01c80632e1a7d4d1461014c578063715018a6146101755780638da5cb5b1461018c578063a606b94a146101b7578063f2fde38b146101f4578063f8b2cb4f1461021d57610147565b3661014757600034116100a1576040517f08c379a0000000000000000000000000000000000000000000000000000000008152600401610098906108d6565b60405180910390fd5b34600160003373ffffffffffffffffffffffffffffffffffffffff1673ffffffffffffffffffffffffffffffffffffffff16815260200190815260200160002060008282546100f0919061092f565b925050819055503373ffffffffffffffffffffffffffffffffffffffff167fe1fffcc4923d04b559f4d29a8bfc6cda04eb5b0d3c460751c2402c5c5cc9109c3460405161013d9190610972565b60405180910390a2005b600080fd5b34801561015857600080fd5b50610173600480360381019061016e91906109be565b61025a565b005b34801561018157600080fd5b5061018a61040d565b005b34801561019857600080fd5b506101a1610421565b6040516101ae9190610a2c565b60405180910390f35b3480156101c357600080fd5b506101de60048036038101906101d99190610a73565b61044a565b6040516101eb9190610ae1565b60405180910390f35b34801561020057600080fd5b5061021b60048036038101906102169190610afc565b610657565b005b34801561022957600080fd5b50610244600480360381019061023f9190610afc565b6106dd565b6040516102519190610972565b60405180910390f35b6000811161029d576040517f08c379a0000000000000000000000000000000000000000000000000000000008152600401610294906108d6565b60405180910390fd5b80600160003373ffffffffffffffffffffffffffffffffffffffff1673ffffffffffffffffffffffffffffffffffffffff16815260200190815260200160002054101561031f576040517f08c379a000000000000000000000000000000000000000000000000000000000815260040161031690610b75565b60405180910390fd5b80600160003373ffffffffffffffffffffffffffffffffffffffff1673ffffffffffffffffffffffffffffffffffffffff168152602001908152602001600020600082825461036e9190610b95565b925050819055503373ffffffffffffffffffffffffffffffffffffffff166108fc829081150290604051600060405180830381858888f193505050501580156103bb573d6000803e3d6000fd5b503373ffffffffffffffffffffffffffffffffffffffff167f7fcf532c15f0a6db0bd6d0e038bea71d30d808c7d98cb3bf7268a95bf5081b65826040516104029190610972565b60405180910390a250565b610415610726565b61041f60006107ad565b565b60008060009054906101000a900473ffffffffffffffffffffffffffffffffffffffff16905090565b600080821161048e576040517f08c379a0000000000000000000000000000000000000000000000000000000008152600401610485906108d6565b60405180910390fd5b81600160008673ffffffffffffffffffffffffffffffffffffffff1673ffffffffffffffffffffffffffffffffffffffff168152602001908152602001600020541015610510576040517f08c379a000000000000000000000000000000000000000000000000000000000815260040161050790610b75565b60405180910390fd5b600260009054906101000a900473ffffffffffffffffffffffffffffffffffffffff1673ffffffffffffffffffffffffffffffffffffffff163373ffffffffffffffffffffffffffffffffffffffff16146105a0576040517f08c379a000000000000000000000000000000000000000000000000000000000815260040161059790610c3b565b60405180910390fd5b81600160008673ffffffffffffffffffffffffffffffffffffffff1673ffffffffffffffffffffffffffffffffffffffff16815260200190815260200160002060008282546105ef9190610b95565b9250508190555081600160008573ffffffffffffffffffffffffffffffffffffffff1673ffffffffffffffffffffffffffffffffffffffff1681526020019081526020016000206000828254610645919061092f565b92505081905550600190509392505050565b61065f610726565b600073ffffffffffffffffffffffffffffffffffffffff168173ffffffffffffffffffffffffffffffffffffffff16036106d15760006040517f1e4fbdf70000000000000000000000000000000000000000000000000000000081526004016106c89190610a2c565b60405180910390fd5b6106da816107ad565b50565b6000600160008373ffffffffffffffffffffffffffffffffffffffff1673ffffffffffffffffffffffffffffffffffffffff168152602001908152602001600020549050919050565b61072e610871565b73ffffffffffffffffffffffffffffffffffffffff1661074c610421565b73ffffffffffffffffffffffffffffffffffffffff16146107ab5761076f610871565b6040517f118cdaa70000000000000000000000000000000000000000000000000000000081526004016107a29190610a2c565b60405180910390fd5b565b60008060009054906101000a900473ffffffffffffffffffffffffffffffffffffffff169050816000806101000a81548173ffffffffffffffffffffffffffffffffffffffff021916908373ffffffffffffffffffffffffffffffffffffffff1602179055508173ffffffffffffffffffffffffffffffffffffffff168173ffffffffffffffffffffffffffffffffffffffff167f8be0079c531659141344cd1fd0a4f28419497f9722a3daafe3b4186f6b6457e060405160405180910390a35050565b600033905090565b600082825260208201905092915050565b7f416d6f756e74206d7573742062652067726561746572207468616e207a65726f600082015250565b60006108c0602083610879565b91506108cb8261088a565b602082019050919050565b600060208201905081810360008301526108ef816108b3565b9050919050565b6000819050919050565b7f4e487b7100000000000000000000000000000000000000000000000000000000600052601160045260246000fd5b600061093a826108f6565b9150610945836108f6565b925082820190508082111561095d5761095c610900565b5b92915050565b61096c816108f6565b82525050565b60006020820190506109876000830184610963565b92915050565b600080fd5b61099b816108f6565b81146109a657600080fd5b50565b6000813590506109b881610992565b92915050565b6000602082840312156109d4576109d361098d565b5b60006109e2848285016109a9565b91505092915050565b600073ffffffffffffffffffffffffffffffffffffffff82169050919050565b6000610a16826109eb565b9050919050565b610a2681610a0b565b82525050565b6000602082019050610a416000830184610a1d565b92915050565b610a5081610a0b565b8114610a5b57600080fd5b50565b600081359050610a6d81610a47565b92915050565b600080600060608486031215610a8c57610a8b61098d565b5b6000610a9a86828701610a5e565b9350506020610aab86828701610a5e565b9250506040610abc868287016109a9565b9150509250925092565b60008115159050919050565b610adb81610ac6565b82525050565b6000602082019050610af66000830184610ad2565b92915050565b600060208284031215610b1257610b1161098d565b5b6000610b2084828501610a5e565b91505092915050565b7f496e73756666696369656e742062616c616e6365000000000000000000000000600082015250565b6000610b5f601483610879565b9150610b6a82610b29565b602082019050919050565b60006020820190508181036000830152610b8e81610b52565b9050919050565b6000610ba0826108f6565b9150610bab836108f6565b9250828203905081811115610bc357610bc2610900565b5b92915050565b7f796f7520617265206e6f7420617574686f72697a656420746f207472616e736660008201527f6572207468652042616c616e6365000000000000000000000000000000000000602082015250565b6000610c25602e83610879565b9150610c3082610bc9565b604082019050919050565b60006020820190508181036000830152610c5481610c18565b905091905056fea2646970667358221220c2b37eabdd24fab581e6f882b0d013b639adb80dea087c61d041865f84fcbb4064736f6c63430008180033",
  "linkReferences": {},
  "deployedLinkReferences": {}
}