{
  "_format": "hh-sol-artifact-1",
  "contractName": "Campaign",
  "sourceName": "contracts/Campaign.sol",
  "abi": [
    {
      "inputs": [
        {
          "internalType": "uint256",
          "name": "_id",
          "type": "uint256"
        },
        {
          "internalType": "string",
          "name": "_description",
          "type": "string"
        },
        {
          "internalType": "address",
          "name": "_organizationAddress",
          "type": "address"
        },
        {
          "internalType": "address payable",
          "name": "_actionAddress",
          "type": "address"
        },
        {
          "internalType": "uint256",
          "name": "_targetAmount",
          "type": "uint256"
        },
        {
          "internalType": "uint256",
          "name": "_startTime",
          "type": "uint256"
        },
        {
          "internalType": "uint256",
          "name": "_duration",
          "type": "uint256"
        }
      ],
      "stateMutability": "nonpayable",
      "type": "constructor"
    },
    {
      "anonymous": false,
      "inputs": [
        {
          "indexed": false,
          "internalType": "bool",
          "name": "successful",
          "type": "bool"
        }
      ],
      "name": "CampaignEnded",
      "type": "event"
    },
    {
      "anonymous": false,
      "inputs": [
        {
          "indexed": false,
          "internalType": "address",
          "name": "contributor",
          "type": "address"
        },
        {
          "indexed": false,
          "internalType": "uint256",
          "name": "amount",
          "type": "uint256"
        }
      ],
      "name": "Contributed",
      "type": "event"
    },
    {
      "anonymous": false,
      "inputs": [],
      "name": "ContributionsRefunded",
      "type": "event"
    },
    {
      "inputs": [],
      "name": "actionAddress",
      "outputs": [
        {
          "internalType": "address payable",
          "name": "",
          "type": "address"
        }
      ],
      "stateMutability": "view",
      "type": "function"
    },
    {
      "inputs": [],
      "name": "active",
      "outputs": [
        {
          "internalType": "bool",
          "name": "",
          "type": "bool"
        }
      ],
      "stateMutability": "view",
      "type": "function"
    },
    {
      "inputs": [
        {
          "internalType": "address",
          "name": "",
          "type": "address"
        }
      ],
      "name": "contributions",
      "outputs": [
        {
          "internalType": "uint256",
          "name": "",
          "type": "uint256"
        }
      ],
      "stateMutability": "view",
      "type": "function"
    },
    {
      "inputs": [
        {
          "internalType": "uint256",
          "name": "",
          "type": "uint256"
        }
      ],
      "name": "contributors",
      "outputs": [
        {
          "internalType": "address",
          "name": "",
          "type": "address"
        }
      ],
      "stateMutability": "view",
      "type": "function"
    },
    {
      "inputs": [],
      "name": "description",
      "outputs": [
        {
          "internalType": "string",
          "name": "",
          "type": "string"
        }
      ],
      "stateMutability": "view",
      "type": "function"
    },
    {
      "inputs": [],
      "name": "duration",
      "outputs": [
        {
          "internalType": "uint256",
          "name": "",
          "type": "uint256"
        }
      ],
      "stateMutability": "view",
      "type": "function"
    },
    {
      "inputs": [],
      "name": "endCampaign",
      "outputs": [],
      "stateMutability": "nonpayable",
      "type": "function"
    },
    {
      "inputs": [
        {
          "internalType": "address",
          "name": "contributor",
          "type": "address"
        }
      ],
      "name": "getContributions",
      "outputs": [
        {
          "internalType": "uint256",
          "name": "",
          "type": "uint256"
        }
      ],
      "stateMutability": "view",
      "type": "function"
    },
    {
      "inputs": [],
      "name": "getContributors",
      "outputs": [
        {
          "internalType": "address[]",
          "name": "",
          "type": "address[]"
        }
      ],
      "stateMutability": "view",
      "type": "function"
    },
    {
      "inputs": [],
      "name": "id",
      "outputs": [
        {
          "internalType": "uint256",
          "name": "",
          "type": "uint256"
        }
      ],
      "stateMutability": "view",
      "type": "function"
    },
    {
      "inputs": [],
      "name": "organizationAddress",
      "outputs": [
        {
          "internalType": "address",
          "name": "",
          "type": "address"
        }
      ],
      "stateMutability": "view",
      "type": "function"
    },
    {
      "inputs": [],
      "name": "startTime",
      "outputs": [
        {
          "internalType": "uint256",
          "name": "",
          "type": "uint256"
        }
      ],
      "stateMutability": "view",
      "type": "function"
    },
    {
      "inputs": [],
      "name": "targetAmount",
      "outputs": [
        {
          "internalType": "uint256",
          "name": "",
          "type": "uint256"
        }
      ],
      "stateMutability": "view",
      "type": "function"
    },
    {
      "inputs": [],
      "name": "totalAmount",
      "outputs": [
        {
          "internalType": "uint256",
          "name": "",
          "type": "uint256"
        }
      ],
      "stateMutability": "view",
      "type": "function"
    },
    {
      "stateMutability": "payable",
      "type": "receive"
    }
  ],
  "bytecode": "0x60806040523480156200001157600080fd5b50604051620018c8380380620018c8833981810160405281019062000037919062000387565b8660008190555085600190816200004f91906200069a565b5084600260006101000a81548173ffffffffffffffffffffffffffffffffffffffff021916908373ffffffffffffffffffffffffffffffffffffffff16021790555083600360006101000a81548173ffffffffffffffffffffffffffffffffffffffff021916908373ffffffffffffffffffffffffffffffffffffffff1602179055508260058190555081600681905550806007819055506001600a60006101000a81548160ff0219169083151502179055505050505050505062000781565b6000604051905090565b600080fd5b600080fd5b6000819050919050565b620001388162000123565b81146200014457600080fd5b50565b60008151905062000158816200012d565b92915050565b600080fd5b600080fd5b6000601f19601f8301169050919050565b7f4e487b7100000000000000000000000000000000000000000000000000000000600052604160045260246000fd5b620001b38262000168565b810181811067ffffffffffffffff82111715620001d557620001d462000179565b5b80604052505050565b6000620001ea6200010f565b9050620001f88282620001a8565b919050565b600067ffffffffffffffff8211156200021b576200021a62000179565b5b620002268262000168565b9050602081019050919050565b60005b838110156200025357808201518184015260208101905062000236565b60008484015250505050565b6000620002766200027084620001fd565b620001de565b90508281526020810184848401111562000295576200029462000163565b5b620002a284828562000233565b509392505050565b600082601f830112620002c257620002c16200015e565b5b8151620002d48482602086016200025f565b91505092915050565b600073ffffffffffffffffffffffffffffffffffffffff82169050919050565b60006200030a82620002dd565b9050919050565b6200031c81620002fd565b81146200032857600080fd5b50565b6000815190506200033c8162000311565b92915050565b60006200034f82620002dd565b9050919050565b620003618162000342565b81146200036d57600080fd5b50565b600081519050620003818162000356565b92915050565b600080600080600080600060e0888a031215620003a957620003a862000119565b5b6000620003b98a828b0162000147565b975050602088015167ffffffffffffffff811115620003dd57620003dc6200011e565b5b620003eb8a828b01620002aa565b9650506040620003fe8a828b016200032b565b9550506060620004118a828b0162000370565b9450506080620004248a828b0162000147565b93505060a0620004378a828b0162000147565b92505060c06200044a8a828b0162000147565b91505092959891949750929550565b600081519050919050565b7f4e487b7100000000000000000000000000000000000000000000000000000000600052602260045260246000fd5b60006002820490506001821680620004ac57607f821691505b602082108103620004c257620004c162000464565b5b50919050565b60008190508160005260206000209050919050565b60006020601f8301049050919050565b600082821b905092915050565b6000600883026200052c7fffffffffffffffffffffffffffffffffffffffffffffffffffffffffffffffff82620004ed565b620005388683620004ed565b95508019841693508086168417925050509392505050565b6000819050919050565b60006200057b620005756200056f8462000123565b62000550565b62000123565b9050919050565b6000819050919050565b62000597836200055a565b620005af620005a68262000582565b848454620004fa565b825550505050565b600090565b620005c6620005b7565b620005d38184846200058c565b505050565b5b81811015620005fb57620005ef600082620005bc565b600181019050620005d9565b5050565b601f8211156200064a576200061481620004c8565b6200061f84620004dd565b810160208510156200062f578190505b620006476200063e85620004dd565b830182620005d8565b50505b505050565b600082821c905092915050565b60006200066f600019846008026200064f565b1980831691505092915050565b60006200068a83836200065c565b9150826002028217905092915050565b620006a58262000459565b67ffffffffffffffff811115620006c157620006c062000179565b5b620006cd825462000493565b620006da828285620005ff565b600060209050601f831160018114620007125760008415620006fd578287015190505b6200070985826200067c565b86555062000779565b601f1984166200072286620004c8565b60005b828110156200074c5784890151825560018201915060208501945060208101905062000725565b868310156200076c578489015162000768601f8916826200065c565b8355505b6001600288020188555050505b505050505050565b61113780620007916000396000f3fe6080604052600436106100e15760003560e01c806371aac7f91161007f578063953b8fb811610059578063953b8fb81461042e578063af157c1914610459578063af640d0f14610484578063ddf14b22146104af57610259565b806371aac7f9146103c15780637284e416146103d857806378e979251461040357610259565b80631a39d8ef116100bb5780631a39d8ef146102df5780633cb5d1001461030a5780633f19d0431461034757806342e94c901461038457610259565b806302fb0c5e1461025e5780630db70368146102895780630fb5a6b4146102b457610259565b36610259576007546006546100f69190610ade565b421115610138576040517f08c379a000000000000000000000000000000000000000000000000000000000815260040161012f90610b6f565b60405180910390fd5b34600860003373ffffffffffffffffffffffffffffffffffffffff1673ffffffffffffffffffffffffffffffffffffffff16815260200190815260200160002060008282546101879190610ade565b9250508190555034600460008282546101a09190610ade565b925050819055506009339080600181540180825580915050600190039060005260206000200160009091909190916101000a81548173ffffffffffffffffffffffffffffffffffffffff021916908373ffffffffffffffffffffffffffffffffffffffff1602179055507f62722348256371b5147820d6cad90c40fd2da1ccee18c3ed52c0bca5a61dbbab333460405161023b929190610bdf565b60405180910390a160055460045410610257576102566104da565b5b005b600080fd5b34801561026a57600080fd5b50610273610680565b6040516102809190610c23565b60405180910390f35b34801561029557600080fd5b5061029e610693565b6040516102ab9190610c3e565b60405180910390f35b3480156102c057600080fd5b506102c96106b9565b6040516102d69190610c59565b60405180910390f35b3480156102eb57600080fd5b506102f46106bf565b6040516103019190610c59565b60405180910390f35b34801561031657600080fd5b50610331600480360381019061032c9190610ca5565b6106c5565b60405161033e9190610c3e565b60405180910390f35b34801561035357600080fd5b5061036e60048036038101906103699190610cfe565b610704565b60405161037b9190610c59565b60405180910390f35b34801561039057600080fd5b506103ab60048036038101906103a69190610cfe565b61074d565b6040516103b89190610c59565b60405180910390f35b3480156103cd57600080fd5b506103d66104da565b005b3480156103e457600080fd5b506103ed610765565b6040516103fa9190610daa565b60405180910390f35b34801561040f57600080fd5b506104186107f3565b6040516104259190610c59565b60405180910390f35b34801561043a57600080fd5b506104436107f9565b6040516104509190610c59565b60405180910390f35b34801561046557600080fd5b5061046e6107ff565b60405161047b9190610e8a565b60405180910390f35b34801561049057600080fd5b5061049961088d565b6040516104a69190610c59565b60405180910390f35b3480156104bb57600080fd5b506104c4610893565b6040516104d19190610ecd565b60405180910390f35b6007546006546104ea9190610ade565b4211806104fb575060055460045410155b61053a576040517f08c379a000000000000000000000000000000000000000000000000000000000815260040161053190610f34565b60405180910390fd5b600060055460045410159050801561063d576000600360009054906101000a900473ffffffffffffffffffffffffffffffffffffffff1673ffffffffffffffffffffffffffffffffffffffff1660045460405161059690610f85565b60006040518083038185875af1925050503d80600081146105d3576040519150601f19603f3d011682016040523d82523d6000602084013e6105d8565b606091505b505090508061061c576040517f08c379a000000000000000000000000000000000000000000000000000000000815260040161061390610fe6565b60405180910390fd5b6000600a60006101000a81548160ff02191690831515021790555050610646565b6106456108b9565b5b7f816dfe87ba5698a187c7e35e80b0ed9fb430befe75fb29bca588267bb5f70ea7816040516106759190610c23565b60405180910390a150565b600a60009054906101000a900460ff1681565b600260009054906101000a900473ffffffffffffffffffffffffffffffffffffffff1681565b60075481565b60045481565b600981815481106106d557600080fd5b906000526020600020016000915054906101000a900473ffffffffffffffffffffffffffffffffffffffff1681565b6000600860008373ffffffffffffffffffffffffffffffffffffffff1673ffffffffffffffffffffffffffffffffffffffff168152602001908152602001600020549050919050565b60086020528060005260406000206000915090505481565b6001805461077290611035565b80601f016020809104026020016040519081016040528092919081815260200182805461079e90611035565b80156107eb5780601f106107c0576101008083540402835291602001916107eb565b820191906000526020600020905b8154815290600101906020018083116107ce57829003601f168201915b505050505081565b60065481565b60055481565b6060600980548060200260200160405190810160405280929190818152602001828054801561088357602002820191906000526020600020905b8160009054906101000a900473ffffffffffffffffffffffffffffffffffffffff1673ffffffffffffffffffffffffffffffffffffffff1681526020019060010190808311610839575b5050505050905090565b60005481565b600360009054906101000a900473ffffffffffffffffffffffffffffffffffffffff1681565b60005b600980549050811015610a76576000600982815481106108df576108de611066565b5b9060005260206000200160009054906101000a900473ffffffffffffffffffffffffffffffffffffffff1690506000600860008373ffffffffffffffffffffffffffffffffffffffff1673ffffffffffffffffffffffffffffffffffffffff1681526020019081526020016000205490506000811115610a67576000600860008473ffffffffffffffffffffffffffffffffffffffff1673ffffffffffffffffffffffffffffffffffffffff1681526020019081526020016000208190555060008273ffffffffffffffffffffffffffffffffffffffff16826040516109c490610f85565b60006040518083038185875af1925050503d8060008114610a01576040519150601f19603f3d011682016040523d82523d6000602084013e610a06565b606091505b5050905080610a4a576040517f08c379a0000000000000000000000000000000000000000000000000000000008152600401610a41906110e1565b60405180910390fd5b6000600a60006101000a81548160ff021916908315150217905550505b505080806001019150506108bc565b507fe00163d787b83a583863ec985b5e3acbbb59f1660cd2d00d382fb6e58049f93b60405160405180910390a1565b6000819050919050565b7f4e487b7100000000000000000000000000000000000000000000000000000000600052601160045260246000fd5b6000610ae982610aa5565b9150610af483610aa5565b9250828201905080821115610b0c57610b0b610aaf565b5b92915050565b600082825260208201905092915050565b7f46756e6472616973696e6720706572696f642068617320656e64656400000000600082015250565b6000610b59601c83610b12565b9150610b6482610b23565b602082019050919050565b60006020820190508181036000830152610b8881610b4c565b9050919050565b600073ffffffffffffffffffffffffffffffffffffffff82169050919050565b6000610bba82610b8f565b9050919050565b610bca81610baf565b82525050565b610bd981610aa5565b82525050565b6000604082019050610bf46000830185610bc1565b610c016020830184610bd0565b9392505050565b60008115159050919050565b610c1d81610c08565b82525050565b6000602082019050610c386000830184610c14565b92915050565b6000602082019050610c536000830184610bc1565b92915050565b6000602082019050610c6e6000830184610bd0565b92915050565b600080fd5b610c8281610aa5565b8114610c8d57600080fd5b50565b600081359050610c9f81610c79565b92915050565b600060208284031215610cbb57610cba610c74565b5b6000610cc984828501610c90565b91505092915050565b610cdb81610baf565b8114610ce657600080fd5b50565b600081359050610cf881610cd2565b92915050565b600060208284031215610d1457610d13610c74565b5b6000610d2284828501610ce9565b91505092915050565b600081519050919050565b60005b83811015610d54578082015181840152602081019050610d39565b60008484015250505050565b6000601f19601f8301169050919050565b6000610d7c82610d2b565b610d868185610b12565b9350610d96818560208601610d36565b610d9f81610d60565b840191505092915050565b60006020820190508181036000830152610dc48184610d71565b905092915050565b600081519050919050565b600082825260208201905092915050565b6000819050602082019050919050565b610e0181610baf565b82525050565b6000610e138383610df8565b60208301905092915050565b6000602082019050919050565b6000610e3782610dcc565b610e418185610dd7565b9350610e4c83610de8565b8060005b83811015610e7d578151610e648882610e07565b9750610e6f83610e1f565b925050600181019050610e50565b5085935050505092915050565b60006020820190508181036000830152610ea48184610e2c565b905092915050565b6000610eb782610b8f565b9050919050565b610ec781610eac565b82525050565b6000602082019050610ee26000830184610ebe565b92915050565b7f46756e6472616973696e6720706572696f6420686173206e6f7420656e646564600082015250565b6000610f1e602083610b12565b9150610f2982610ee8565b602082019050919050565b60006020820190508181036000830152610f4d81610f11565b9050919050565b600081905092915050565b50565b6000610f6f600083610f54565b9150610f7a82610f5f565b600082019050919050565b6000610f9082610f62565b9150819050919050565b7f5472616e73666572206661696c65640000000000000000000000000000000000600082015250565b6000610fd0600f83610b12565b9150610fdb82610f9a565b602082019050919050565b60006020820190508181036000830152610fff81610fc3565b9050919050565b7f4e487b7100000000000000000000000000000000000000000000000000000000600052602260045260246000fd5b6000600282049050600182168061104d57607f821691505b6020821081036110605761105f611006565b5b50919050565b7f4e487b7100000000000000000000000000000000000000000000000000000000600052603260045260246000fd5b7f526566756e64206661696c656400000000000000000000000000000000000000600082015250565b60006110cb600d83610b12565b91506110d682611095565b602082019050919050565b600060208201905081810360008301526110fa816110be565b905091905056fea26469706673582212200ab1fddb40304c34bddf26e024baa7774f98dc3488a6ba210cb9cabaab4c7d3264736f6c63430008180033",
  "linkReferences": {},
  "deployedLinkReferences": {}
}