{
  "_format": "hh-sol-artifact-1",
  "contractName": "Campaign",
  "sourceName": "contracts/Campaign.sol",
  "abi": [
    {
      "inputs": [
        {
          "internalType": "uint256",
          "name": "_id",
          "type": "uint256"
        },
        {
          "internalType": "string",
          "name": "_description",
          "type": "string"
        },
        {
          "internalType": "address",
          "name": "_organizationAddress",
          "type": "address"
        },
        {
          "internalType": "address payable",
          "name": "_actionAddress",
          "type": "address"
        },
        {
          "internalType": "uint256",
          "name": "_targetAmount",
          "type": "uint256"
        },
        {
          "internalType": "uint256",
          "name": "_startTime",
          "type": "uint256"
        },
        {
          "internalType": "uint256",
          "name": "_duration",
          "type": "uint256"
        },
        {
          "internalType": "address",
          "name": "_creator",
          "type": "address"
        }
      ],
      "stateMutability": "nonpayable",
      "type": "constructor"
    },
    {
      "anonymous": false,
      "inputs": [
        {
          "indexed": false,
          "internalType": "bool",
          "name": "successful",
          "type": "bool"
        }
      ],
      "name": "CampaignEnded",
      "type": "event"
    },
    {
      "anonymous": false,
      "inputs": [
        {
          "indexed": false,
          "internalType": "address",
          "name": "contributor",
          "type": "address"
        },
        {
          "indexed": false,
          "internalType": "uint256",
          "name": "amount",
          "type": "uint256"
        }
      ],
      "name": "Contributed",
      "type": "event"
    },
    {
      "anonymous": false,
      "inputs": [],
      "name": "ContributionsRefunded",
      "type": "event"
    },
    {
      "inputs": [],
      "name": "actionAddress",
      "outputs": [
        {
          "internalType": "address payable",
          "name": "",
          "type": "address"
        }
      ],
      "stateMutability": "view",
      "type": "function"
    },
    {
      "inputs": [],
      "name": "active",
      "outputs": [
        {
          "internalType": "bool",
          "name": "",
          "type": "bool"
        }
      ],
      "stateMutability": "view",
      "type": "function"
    },
    {
      "inputs": [
        {
          "internalType": "address",
          "name": "",
          "type": "address"
        }
      ],
      "name": "contributions",
      "outputs": [
        {
          "internalType": "uint256",
          "name": "",
          "type": "uint256"
        }
      ],
      "stateMutability": "view",
      "type": "function"
    },
    {
      "inputs": [
        {
          "internalType": "uint256",
          "name": "",
          "type": "uint256"
        }
      ],
      "name": "contributors",
      "outputs": [
        {
          "internalType": "address",
          "name": "",
          "type": "address"
        }
      ],
      "stateMutability": "view",
      "type": "function"
    },
    {
      "inputs": [],
      "name": "creator",
      "outputs": [
        {
          "internalType": "address",
          "name": "",
          "type": "address"
        }
      ],
      "stateMutability": "view",
      "type": "function"
    },
    {
      "inputs": [],
      "name": "description",
      "outputs": [
        {
          "internalType": "string",
          "name": "",
          "type": "string"
        }
      ],
      "stateMutability": "view",
      "type": "function"
    },
    {
      "inputs": [],
      "name": "duration",
      "outputs": [
        {
          "internalType": "uint256",
          "name": "",
          "type": "uint256"
        }
      ],
      "stateMutability": "view",
      "type": "function"
    },
    {
      "inputs": [],
      "name": "endCampaign",
      "outputs": [],
      "stateMutability": "nonpayable",
      "type": "function"
    },
    {
      "inputs": [
        {
          "internalType": "address",
          "name": "contributor",
          "type": "address"
        }
      ],
      "name": "getContributions",
      "outputs": [
        {
          "internalType": "uint256",
          "name": "",
          "type": "uint256"
        }
      ],
      "stateMutability": "view",
      "type": "function"
    },
    {
      "inputs": [],
      "name": "getContributors",
      "outputs": [
        {
          "internalType": "address[]",
          "name": "",
          "type": "address[]"
        }
      ],
      "stateMutability": "view",
      "type": "function"
    },
    {
      "inputs": [],
      "name": "getCreator",
      "outputs": [
        {
          "internalType": "address",
          "name": "",
          "type": "address"
        }
      ],
      "stateMutability": "view",
      "type": "function"
    },
    {
      "inputs": [],
      "name": "id",
      "outputs": [
        {
          "internalType": "uint256",
          "name": "",
          "type": "uint256"
        }
      ],
      "stateMutability": "view",
      "type": "function"
    },
    {
      "inputs": [],
      "name": "organizationAddress",
      "outputs": [
        {
          "internalType": "address",
          "name": "",
          "type": "address"
        }
      ],
      "stateMutability": "view",
      "type": "function"
    },
    {
      "inputs": [],
      "name": "startTime",
      "outputs": [
        {
          "internalType": "uint256",
          "name": "",
          "type": "uint256"
        }
      ],
      "stateMutability": "view",
      "type": "function"
    },
    {
      "inputs": [],
      "name": "targetAmount",
      "outputs": [
        {
          "internalType": "uint256",
          "name": "",
          "type": "uint256"
        }
      ],
      "stateMutability": "view",
      "type": "function"
    },
    {
      "inputs": [],
      "name": "totalAmount",
      "outputs": [
        {
          "internalType": "uint256",
          "name": "",
          "type": "uint256"
        }
      ],
      "stateMutability": "view",
      "type": "function"
    },
    {
      "stateMutability": "payable",
      "type": "receive"
    }
  ],
  "bytecode": "0x60806040523480156200001157600080fd5b50604051620019dc380380620019dc8339818101604052810190620000379190620003c9565b8760008190555086600190816200004f9190620006f2565b5085600260006101000a81548173ffffffffffffffffffffffffffffffffffffffff021916908373ffffffffffffffffffffffffffffffffffffffff16021790555084600360006101000a81548173ffffffffffffffffffffffffffffffffffffffff021916908373ffffffffffffffffffffffffffffffffffffffff16021790555083600581905550826006819055508160078190555080600860006101000a81548173ffffffffffffffffffffffffffffffffffffffff021916908373ffffffffffffffffffffffffffffffffffffffff1602179055506001600b60006101000a81548160ff0219169083151502179055505050505050505050620007d9565b6000604051905090565b600080fd5b600080fd5b6000819050919050565b6200017a8162000165565b81146200018657600080fd5b50565b6000815190506200019a816200016f565b92915050565b600080fd5b600080fd5b6000601f19601f8301169050919050565b7f4e487b7100000000000000000000000000000000000000000000000000000000600052604160045260246000fd5b620001f582620001aa565b810181811067ffffffffffffffff82111715620002175762000216620001bb565b5b80604052505050565b60006200022c62000151565b90506200023a8282620001ea565b919050565b600067ffffffffffffffff8211156200025d576200025c620001bb565b5b6200026882620001aa565b9050602081019050919050565b60005b838110156200029557808201518184015260208101905062000278565b60008484015250505050565b6000620002b8620002b2846200023f565b62000220565b905082815260208101848484011115620002d757620002d6620001a5565b5b620002e484828562000275565b509392505050565b600082601f830112620003045762000303620001a0565b5b815162000316848260208601620002a1565b91505092915050565b600073ffffffffffffffffffffffffffffffffffffffff82169050919050565b60006200034c826200031f565b9050919050565b6200035e816200033f565b81146200036a57600080fd5b50565b6000815190506200037e8162000353565b92915050565b600062000391826200031f565b9050919050565b620003a38162000384565b8114620003af57600080fd5b50565b600081519050620003c38162000398565b92915050565b600080600080600080600080610100898b031215620003ed57620003ec6200015b565b5b6000620003fd8b828c0162000189565b985050602089015167ffffffffffffffff81111562000421576200042062000160565b5b6200042f8b828c01620002ec565b9750506040620004428b828c016200036d565b9650506060620004558b828c01620003b2565b9550506080620004688b828c0162000189565b94505060a06200047b8b828c0162000189565b93505060c06200048e8b828c0162000189565b92505060e0620004a18b828c016200036d565b9150509295985092959890939650565b600081519050919050565b7f4e487b7100000000000000000000000000000000000000000000000000000000600052602260045260246000fd5b600060028204905060018216806200050457607f821691505b6020821081036200051a5762000519620004bc565b5b50919050565b60008190508160005260206000209050919050565b60006020601f8301049050919050565b600082821b905092915050565b600060088302620005847fffffffffffffffffffffffffffffffffffffffffffffffffffffffffffffffff8262000545565b62000590868362000545565b95508019841693508086168417925050509392505050565b6000819050919050565b6000620005d3620005cd620005c78462000165565b620005a8565b62000165565b9050919050565b6000819050919050565b620005ef83620005b2565b62000607620005fe82620005da565b84845462000552565b825550505050565b600090565b6200061e6200060f565b6200062b818484620005e4565b505050565b5b8181101562000653576200064760008262000614565b60018101905062000631565b5050565b601f821115620006a2576200066c8162000520565b620006778462000535565b8101602085101562000687578190505b6200069f620006968562000535565b83018262000630565b50505b505050565b600082821c905092915050565b6000620006c760001984600802620006a7565b1980831691505092915050565b6000620006e28383620006b4565b9150826002028217905092915050565b620006fd82620004b1565b67ffffffffffffffff811115620007195762000718620001bb565b5b620007258254620004eb565b6200073282828562000657565b600060209050601f8311600181146200076a576000841562000755578287015190505b620007618582620006d4565b865550620007d1565b601f1984166200077a8662000520565b60005b82811015620007a4578489015182556001820191506020850194506020810190506200077d565b86831015620007c45784890151620007c0601f891682620006b4565b8355505b6001600288020188555050505b505050505050565b6111f380620007e96000396000f3fe6080604052600436106100f75760003560e01c806342e94c901161008a578063953b8fb811610059578063953b8fb81461049a578063af157c19146104c5578063af640d0f146104f0578063ddf14b221461051b5761026f565b806342e94c90146103f057806371aac7f91461042d5780637284e4161461044457806378e979251461046f5761026f565b80630fb5a6b4116100c65780630fb5a6b4146103205780631a39d8ef1461034b5780633cb5d100146103765780633f19d043146103b35761026f565b806302d05d3f1461027457806302fb0c5e1461029f5780630db70368146102ca5780630ee2cb10146102f55761026f565b3661026f5760075460065461010c9190610b9a565b42111561014e576040517f08c379a000000000000000000000000000000000000000000000000000000000815260040161014590610c2b565b60405180910390fd5b34600960003373ffffffffffffffffffffffffffffffffffffffff1673ffffffffffffffffffffffffffffffffffffffff168152602001908152602001600020600082825461019d9190610b9a565b9250508190555034600460008282546101b69190610b9a565b92505081905550600a339080600181540180825580915050600190039060005260206000200160009091909190916101000a81548173ffffffffffffffffffffffffffffffffffffffff021916908373ffffffffffffffffffffffffffffffffffffffff1602179055507f62722348256371b5147820d6cad90c40fd2da1ccee18c3ed52c0bca5a61dbbab3334604051610251929190610c9b565b60405180910390a16005546004541061026d5761026c610546565b5b005b600080fd5b34801561028057600080fd5b506102896106ec565b6040516102969190610cc4565b60405180910390f35b3480156102ab57600080fd5b506102b4610712565b6040516102c19190610cfa565b60405180910390f35b3480156102d657600080fd5b506102df610725565b6040516102ec9190610cc4565b60405180910390f35b34801561030157600080fd5b5061030a61074b565b6040516103179190610cc4565b60405180910390f35b34801561032c57600080fd5b50610335610775565b6040516103429190610d15565b60405180910390f35b34801561035757600080fd5b5061036061077b565b60405161036d9190610d15565b60405180910390f35b34801561038257600080fd5b5061039d60048036038101906103989190610d61565b610781565b6040516103aa9190610cc4565b60405180910390f35b3480156103bf57600080fd5b506103da60048036038101906103d59190610dba565b6107c0565b6040516103e79190610d15565b60405180910390f35b3480156103fc57600080fd5b5061041760048036038101906104129190610dba565b610809565b6040516104249190610d15565b60405180910390f35b34801561043957600080fd5b50610442610546565b005b34801561045057600080fd5b50610459610821565b6040516104669190610e66565b60405180910390f35b34801561047b57600080fd5b506104846108af565b6040516104919190610d15565b60405180910390f35b3480156104a657600080fd5b506104af6108b5565b6040516104bc9190610d15565b60405180910390f35b3480156104d157600080fd5b506104da6108bb565b6040516104e79190610f46565b60405180910390f35b3480156104fc57600080fd5b50610505610949565b6040516105129190610d15565b60405180910390f35b34801561052757600080fd5b5061053061094f565b60405161053d9190610f89565b60405180910390f35b6007546006546105569190610b9a565b421180610567575060055460045410155b6105a6576040517f08c379a000000000000000000000000000000000000000000000000000000000815260040161059d90610ff0565b60405180910390fd5b60006005546004541015905080156106a9576000600360009054906101000a900473ffffffffffffffffffffffffffffffffffffffff1673ffffffffffffffffffffffffffffffffffffffff1660045460405161060290611041565b60006040518083038185875af1925050503d806000811461063f576040519150601f19603f3d011682016040523d82523d6000602084013e610644565b606091505b5050905080610688576040517f08c379a000000000000000000000000000000000000000000000000000000000815260040161067f906110a2565b60405180910390fd5b6000600b60006101000a81548160ff021916908315150217905550506106b2565b6106b1610975565b5b7f816dfe87ba5698a187c7e35e80b0ed9fb430befe75fb29bca588267bb5f70ea7816040516106e19190610cfa565b60405180910390a150565b600860009054906101000a900473ffffffffffffffffffffffffffffffffffffffff1681565b600b60009054906101000a900460ff1681565b600260009054906101000a900473ffffffffffffffffffffffffffffffffffffffff1681565b6000600860009054906101000a900473ffffffffffffffffffffffffffffffffffffffff16905090565b60075481565b60045481565b600a818154811061079157600080fd5b906000526020600020016000915054906101000a900473ffffffffffffffffffffffffffffffffffffffff1681565b6000600960008373ffffffffffffffffffffffffffffffffffffffff1673ffffffffffffffffffffffffffffffffffffffff168152602001908152602001600020549050919050565b60096020528060005260406000206000915090505481565b6001805461082e906110f1565b80601f016020809104026020016040519081016040528092919081815260200182805461085a906110f1565b80156108a75780601f1061087c576101008083540402835291602001916108a7565b820191906000526020600020905b81548152906001019060200180831161088a57829003601f168201915b505050505081565b60065481565b60055481565b6060600a80548060200260200160405190810160405280929190818152602001828054801561093f57602002820191906000526020600020905b8160009054906101000a900473ffffffffffffffffffffffffffffffffffffffff1673ffffffffffffffffffffffffffffffffffffffff16815260200190600101908083116108f5575b5050505050905090565b60005481565b600360009054906101000a900473ffffffffffffffffffffffffffffffffffffffff1681565b60005b600a80549050811015610b17576000600a828154811061099b5761099a611122565b5b9060005260206000200160009054906101000a900473ffffffffffffffffffffffffffffffffffffffff1690506000600960008373ffffffffffffffffffffffffffffffffffffffff1673ffffffffffffffffffffffffffffffffffffffff1681526020019081526020016000205490506000811115610b08576000600960008473ffffffffffffffffffffffffffffffffffffffff1673ffffffffffffffffffffffffffffffffffffffff1681526020019081526020016000208190555060008273ffffffffffffffffffffffffffffffffffffffff1682604051610a8090611041565b60006040518083038185875af1925050503d8060008114610abd576040519150601f19603f3d011682016040523d82523d6000602084013e610ac2565b606091505b5050905080610b06576040517f08c379a0000000000000000000000000000000000000000000000000000000008152600401610afd9061119d565b60405180910390fd5b505b50508080600101915050610978565b506000600b60006101000a81548160ff0219169083151502179055507fe00163d787b83a583863ec985b5e3acbbb59f1660cd2d00d382fb6e58049f93b60405160405180910390a1565b6000819050919050565b7f4e487b7100000000000000000000000000000000000000000000000000000000600052601160045260246000fd5b6000610ba582610b61565b9150610bb083610b61565b9250828201905080821115610bc857610bc7610b6b565b5b92915050565b600082825260208201905092915050565b7f46756e6472616973696e6720706572696f642068617320656e64656400000000600082015250565b6000610c15601c83610bce565b9150610c2082610bdf565b602082019050919050565b60006020820190508181036000830152610c4481610c08565b9050919050565b600073ffffffffffffffffffffffffffffffffffffffff82169050919050565b6000610c7682610c4b565b9050919050565b610c8681610c6b565b82525050565b610c9581610b61565b82525050565b6000604082019050610cb06000830185610c7d565b610cbd6020830184610c8c565b9392505050565b6000602082019050610cd96000830184610c7d565b92915050565b60008115159050919050565b610cf481610cdf565b82525050565b6000602082019050610d0f6000830184610ceb565b92915050565b6000602082019050610d2a6000830184610c8c565b92915050565b600080fd5b610d3e81610b61565b8114610d4957600080fd5b50565b600081359050610d5b81610d35565b92915050565b600060208284031215610d7757610d76610d30565b5b6000610d8584828501610d4c565b91505092915050565b610d9781610c6b565b8114610da257600080fd5b50565b600081359050610db481610d8e565b92915050565b600060208284031215610dd057610dcf610d30565b5b6000610dde84828501610da5565b91505092915050565b600081519050919050565b60005b83811015610e10578082015181840152602081019050610df5565b60008484015250505050565b6000601f19601f8301169050919050565b6000610e3882610de7565b610e428185610bce565b9350610e52818560208601610df2565b610e5b81610e1c565b840191505092915050565b60006020820190508181036000830152610e808184610e2d565b905092915050565b600081519050919050565b600082825260208201905092915050565b6000819050602082019050919050565b610ebd81610c6b565b82525050565b6000610ecf8383610eb4565b60208301905092915050565b6000602082019050919050565b6000610ef382610e88565b610efd8185610e93565b9350610f0883610ea4565b8060005b83811015610f39578151610f208882610ec3565b9750610f2b83610edb565b925050600181019050610f0c565b5085935050505092915050565b60006020820190508181036000830152610f608184610ee8565b905092915050565b6000610f7382610c4b565b9050919050565b610f8381610f68565b82525050565b6000602082019050610f9e6000830184610f7a565b92915050565b7f46756e6472616973696e6720706572696f6420686173206e6f7420656e646564600082015250565b6000610fda602083610bce565b9150610fe582610fa4565b602082019050919050565b6000602082019050818103600083015261100981610fcd565b9050919050565b600081905092915050565b50565b600061102b600083611010565b91506110368261101b565b600082019050919050565b600061104c8261101e565b9150819050919050565b7f5472616e73666572206661696c65640000000000000000000000000000000000600082015250565b600061108c600f83610bce565b915061109782611056565b602082019050919050565b600060208201905081810360008301526110bb8161107f565b9050919050565b7f4e487b7100000000000000000000000000000000000000000000000000000000600052602260045260246000fd5b6000600282049050600182168061110957607f821691505b60208210810361111c5761111b6110c2565b5b50919050565b7f4e487b7100000000000000000000000000000000000000000000000000000000600052603260045260246000fd5b7f526566756e64206661696c656400000000000000000000000000000000000000600082015250565b6000611187600d83610bce565b915061119282611151565b602082019050919050565b600060208201905081810360008301526111b68161117a565b905091905056fea264697066735822122066f981f37a3cd90ac944f048f13ec579f7b2b4a434c6aafef166344712b28ac464736f6c63430008180033",
  "linkReferences": {},
  "deployedLinkReferences": {}
}