{
  "_format": "hh-sol-artifact-1",
  "contractName": "Device",
  "sourceName": "contracts/Device.sol",
  "abi": [
    {
      "inputs": [
        {
          "internalType": "uint256",
          "name": "_id",
          "type": "uint256"
        },
        {
          "internalType": "string",
          "name": "_name",
          "type": "string"
        },
        {
          "internalType": "address",
          "name": "_actionFactoryAddress",
          "type": "address"
        },
        {
          "internalType": "address",
          "name": "_deviceOwner",
          "type": "address"
        },
        {
          "internalType": "address",
          "name": "_organisationAddress",
          "type": "address"
        }
      ],
      "stateMutability": "nonpayable",
      "type": "constructor"
    },
    {
      "inputs": [
        {
          "internalType": "address",
          "name": "owner",
          "type": "address"
        }
      ],
      "name": "OwnableInvalidOwner",
      "type": "error"
    },
    {
      "inputs": [
        {
          "internalType": "address",
          "name": "account",
          "type": "address"
        }
      ],
      "name": "OwnableUnauthorizedAccount",
      "type": "error"
    },
    {
      "anonymous": false,
      "inputs": [
        {
          "indexed": true,
          "internalType": "address",
          "name": "previousOwner",
          "type": "address"
        },
        {
          "indexed": true,
          "internalType": "address",
          "name": "newOwner",
          "type": "address"
        }
      ],
      "name": "OwnershipTransferred",
      "type": "event"
    },
    {
      "inputs": [],
      "name": "actionFactory",
      "outputs": [
        {
          "internalType": "contract ActionFactory",
          "name": "",
          "type": "address"
        }
      ],
      "stateMutability": "view",
      "type": "function"
    },
    {
      "inputs": [
        {
          "internalType": "uint256",
          "name": "",
          "type": "uint256"
        }
      ],
      "name": "actionToDevice",
      "outputs": [
        {
          "internalType": "address",
          "name": "",
          "type": "address"
        }
      ],
      "stateMutability": "view",
      "type": "function"
    },
    {
      "inputs": [
        {
          "internalType": "string",
          "name": "_name",
          "type": "string"
        },
        {
          "internalType": "string",
          "name": "_unit",
          "type": "string"
        },
        {
          "internalType": "uint32",
          "name": "_pricePerUnit",
          "type": "uint32"
        }
      ],
      "name": "addAction",
      "outputs": [],
      "stateMutability": "nonpayable",
      "type": "function"
    },
    {
      "inputs": [],
      "name": "id",
      "outputs": [
        {
          "internalType": "uint256",
          "name": "",
          "type": "uint256"
        }
      ],
      "stateMutability": "view",
      "type": "function"
    },
    {
      "inputs": [],
      "name": "name",
      "outputs": [
        {
          "internalType": "string",
          "name": "",
          "type": "string"
        }
      ],
      "stateMutability": "view",
      "type": "function"
    },
    {
      "inputs": [],
      "name": "owner",
      "outputs": [
        {
          "internalType": "address",
          "name": "",
          "type": "address"
        }
      ],
      "stateMutability": "view",
      "type": "function"
    },
    {
      "inputs": [],
      "name": "renounceOwnership",
      "outputs": [],
      "stateMutability": "nonpayable",
      "type": "function"
    },
    {
      "inputs": [
        {
          "internalType": "address",
          "name": "newOwner",
          "type": "address"
        }
      ],
      "name": "transferOwnership",
      "outputs": [],
      "stateMutability": "nonpayable",
      "type": "function"
    }
  ],
  "bytecode": "0x60806040523480156200001157600080fd5b50604051620015f4380380620015f483398181016040528101906200003791906200045c565b81600073ffffffffffffffffffffffffffffffffffffffff168173ffffffffffffffffffffffffffffffffffffffff1603620000ad5760006040517f1e4fbdf7000000000000000000000000000000000000000000000000000000008152600401620000a4919062000514565b60405180910390fd5b620000be816200016560201b60201c565b50846001819055508360029081620000d7919062000772565b5082600360006101000a81548173ffffffffffffffffffffffffffffffffffffffff021916908373ffffffffffffffffffffffffffffffffffffffff16021790555080600460006101000a81548173ffffffffffffffffffffffffffffffffffffffff021916908373ffffffffffffffffffffffffffffffffffffffff160217905550505050505062000859565b60008060009054906101000a900473ffffffffffffffffffffffffffffffffffffffff169050816000806101000a81548173ffffffffffffffffffffffffffffffffffffffff021916908373ffffffffffffffffffffffffffffffffffffffff1602179055508173ffffffffffffffffffffffffffffffffffffffff168173ffffffffffffffffffffffffffffffffffffffff167f8be0079c531659141344cd1fd0a4f28419497f9722a3daafe3b4186f6b6457e060405160405180910390a35050565b6000604051905090565b600080fd5b600080fd5b6000819050919050565b62000252816200023d565b81146200025e57600080fd5b50565b600081519050620002728162000247565b92915050565b600080fd5b600080fd5b6000601f19601f8301169050919050565b7f4e487b7100000000000000000000000000000000000000000000000000000000600052604160045260246000fd5b620002cd8262000282565b810181811067ffffffffffffffff82111715620002ef57620002ee62000293565b5b80604052505050565b60006200030462000229565b9050620003128282620002c2565b919050565b600067ffffffffffffffff82111562000335576200033462000293565b5b620003408262000282565b9050602081019050919050565b60005b838110156200036d57808201518184015260208101905062000350565b60008484015250505050565b6000620003906200038a8462000317565b620002f8565b905082815260208101848484011115620003af57620003ae6200027d565b5b620003bc8482856200034d565b509392505050565b600082601f830112620003dc57620003db62000278565b5b8151620003ee84826020860162000379565b91505092915050565b600073ffffffffffffffffffffffffffffffffffffffff82169050919050565b60006200042482620003f7565b9050919050565b620004368162000417565b81146200044257600080fd5b50565b60008151905062000456816200042b565b92915050565b600080600080600060a086880312156200047b576200047a62000233565b5b60006200048b8882890162000261565b955050602086015167ffffffffffffffff811115620004af57620004ae62000238565b5b620004bd88828901620003c4565b9450506040620004d08882890162000445565b9350506060620004e38882890162000445565b9250506080620004f68882890162000445565b9150509295509295909350565b6200050e8162000417565b82525050565b60006020820190506200052b600083018462000503565b92915050565b600081519050919050565b7f4e487b7100000000000000000000000000000000000000000000000000000000600052602260045260246000fd5b600060028204905060018216806200058457607f821691505b6020821081036200059a57620005996200053c565b5b50919050565b60008190508160005260206000209050919050565b60006020601f8301049050919050565b600082821b905092915050565b600060088302620006047fffffffffffffffffffffffffffffffffffffffffffffffffffffffffffffffff82620005c5565b620006108683620005c5565b95508019841693508086168417925050509392505050565b6000819050919050565b6000620006536200064d62000647846200023d565b62000628565b6200023d565b9050919050565b6000819050919050565b6200066f8362000632565b620006876200067e826200065a565b848454620005d2565b825550505050565b600090565b6200069e6200068f565b620006ab81848462000664565b505050565b5b81811015620006d357620006c760008262000694565b600181019050620006b1565b5050565b601f8211156200072257620006ec81620005a0565b620006f784620005b5565b8101602085101562000707578190505b6200071f6200071685620005b5565b830182620006b0565b50505b505050565b600082821c905092915050565b6000620007476000198460080262000727565b1980831691505092915050565b600062000762838362000734565b9150826002028217905092915050565b6200077d8262000531565b67ffffffffffffffff81111562000799576200079862000293565b5b620007a582546200056b565b620007b2828285620006d7565b600060209050601f831160018114620007ea5760008415620007d5578287015190505b620007e1858262000754565b86555062000851565b601f198416620007fa86620005a0565b60005b828110156200082457848901518255600182019150602085019450602081019050620007fd565b8683101562000844578489015162000840601f89168262000734565b8355505b6001600288020188555050505b505050505050565b610d8b80620008696000396000f3fe608060405234801561001057600080fd5b50600436106100885760003560e01c80638da5cb5b1161005b5780638da5cb5b14610103578063af640d0f14610121578063b51065101461013f578063f2fde38b1461015b57610088565b806306fdde031461008d5780636195ef61146100ab578063715018a6146100c957806374100873146100d3575b600080fd5b610095610177565b6040516100a2919061070d565b60405180910390f35b6100b3610205565b6040516100c091906107ae565b60405180910390f35b6100d161022b565b005b6100ed60048036038101906100e89190610813565b61023f565b6040516100fa9190610861565b60405180910390f35b61010b610272565b6040516101189190610861565b60405180910390f35b61012961029b565b604051610136919061088b565b60405180910390f35b61015960048036038101906101549190610a17565b6102a1565b005b61017560048036038101906101709190610ace565b6104a4565b005b6002805461018490610b2a565b80601f01602080910402602001604051908101604052809291908181526020018280546101b090610b2a565b80156101fd5780601f106101d2576101008083540402835291602001916101fd565b820191906000526020600020905b8154815290600101906020018083116101e057829003601f168201915b505050505081565b600360009054906101000a900473ffffffffffffffffffffffffffffffffffffffff1681565b61023361052a565b61023d60006105b1565b565b60056020528060005260406000206000915054906101000a900473ffffffffffffffffffffffffffffffffffffffff1681565b60008060009054906101000a900473ffffffffffffffffffffffffffffffffffffffff16905090565b60015481565b600460009054906101000a900473ffffffffffffffffffffffffffffffffffffffff1673ffffffffffffffffffffffffffffffffffffffff166324d7806c336040518263ffffffff1660e01b81526004016102fc9190610861565b602060405180830381865afa158015610319573d6000803e3d6000fd5b505050506040513d601f19601f8201168201806040525081019061033d9190610b93565b61037c576040517f08c379a000000000000000000000000000000000000000000000000000000000815260040161037390610c32565b60405180910390fd5b6000600360009054906101000a900473ffffffffffffffffffffffffffffffffffffffff1673ffffffffffffffffffffffffffffffffffffffff166329ebacd38585853033600460009054906101000a900473ffffffffffffffffffffffffffffffffffffffff166040518763ffffffff1660e01b815260040161040596959493929190610ca4565b6020604051808303816000875af1158015610424573d6000803e3d6000fd5b505050506040513d601f19601f820116820180604052508101906104489190610d28565b90508060056000600154815260200190815260200160002060006101000a81548173ffffffffffffffffffffffffffffffffffffffff021916908373ffffffffffffffffffffffffffffffffffffffff16021790555050505050565b6104ac61052a565b600073ffffffffffffffffffffffffffffffffffffffff168173ffffffffffffffffffffffffffffffffffffffff160361051e5760006040517f1e4fbdf70000000000000000000000000000000000000000000000000000000081526004016105159190610861565b60405180910390fd5b610527816105b1565b50565b610532610675565b73ffffffffffffffffffffffffffffffffffffffff16610550610272565b73ffffffffffffffffffffffffffffffffffffffff16146105af57610573610675565b6040517f118cdaa70000000000000000000000000000000000000000000000000000000081526004016105a69190610861565b60405180910390fd5b565b60008060009054906101000a900473ffffffffffffffffffffffffffffffffffffffff169050816000806101000a81548173ffffffffffffffffffffffffffffffffffffffff021916908373ffffffffffffffffffffffffffffffffffffffff1602179055508173ffffffffffffffffffffffffffffffffffffffff168173ffffffffffffffffffffffffffffffffffffffff167f8be0079c531659141344cd1fd0a4f28419497f9722a3daafe3b4186f6b6457e060405160405180910390a35050565b600033905090565b600081519050919050565b600082825260208201905092915050565b60005b838110156106b757808201518184015260208101905061069c565b60008484015250505050565b6000601f19601f8301169050919050565b60006106df8261067d565b6106e98185610688565b93506106f9818560208601610699565b610702816106c3565b840191505092915050565b6000602082019050818103600083015261072781846106d4565b905092915050565b600073ffffffffffffffffffffffffffffffffffffffff82169050919050565b6000819050919050565b600061077461076f61076a8461072f565b61074f565b61072f565b9050919050565b600061078682610759565b9050919050565b60006107988261077b565b9050919050565b6107a88161078d565b82525050565b60006020820190506107c3600083018461079f565b92915050565b6000604051905090565b600080fd5b600080fd5b6000819050919050565b6107f0816107dd565b81146107fb57600080fd5b50565b60008135905061080d816107e7565b92915050565b600060208284031215610829576108286107d3565b5b6000610837848285016107fe565b91505092915050565b600061084b8261072f565b9050919050565b61085b81610840565b82525050565b60006020820190506108766000830184610852565b92915050565b610885816107dd565b82525050565b60006020820190506108a0600083018461087c565b92915050565b600080fd5b600080fd5b7f4e487b7100000000000000000000000000000000000000000000000000000000600052604160045260246000fd5b6108e8826106c3565b810181811067ffffffffffffffff82111715610907576109066108b0565b5b80604052505050565b600061091a6107c9565b905061092682826108df565b919050565b600067ffffffffffffffff821115610946576109456108b0565b5b61094f826106c3565b9050602081019050919050565b82818337600083830152505050565b600061097e6109798461092b565b610910565b90508281526020810184848401111561099a576109996108ab565b5b6109a584828561095c565b509392505050565b600082601f8301126109c2576109c16108a6565b5b81356109d284826020860161096b565b91505092915050565b600063ffffffff82169050919050565b6109f4816109db565b81146109ff57600080fd5b50565b600081359050610a11816109eb565b92915050565b600080600060608486031215610a3057610a2f6107d3565b5b600084013567ffffffffffffffff811115610a4e57610a4d6107d8565b5b610a5a868287016109ad565b935050602084013567ffffffffffffffff811115610a7b57610a7a6107d8565b5b610a87868287016109ad565b9250506040610a9886828701610a02565b9150509250925092565b610aab81610840565b8114610ab657600080fd5b50565b600081359050610ac881610aa2565b92915050565b600060208284031215610ae457610ae36107d3565b5b6000610af284828501610ab9565b91505092915050565b7f4e487b7100000000000000000000000000000000000000000000000000000000600052602260045260246000fd5b60006002820490506001821680610b4257607f821691505b602082108103610b5557610b54610afb565b5b50919050565b60008115159050919050565b610b7081610b5b565b8114610b7b57600080fd5b50565b600081519050610b8d81610b67565b92915050565b600060208284031215610ba957610ba86107d3565b5b6000610bb784828501610b7e565b91505092915050565b7f206e6f2041646d696e4e4654202d3e206e6f7420616c6c6f77656420746f206360008201527f726561746520616e204465766963650000000000000000000000000000000000602082015250565b6000610c1c602f83610688565b9150610c2782610bc0565b604082019050919050565b60006020820190508181036000830152610c4b81610c0f565b9050919050565b6000610c6d610c68610c63846109db565b61074f565b6107dd565b9050919050565b610c7d81610c52565b82525050565b6000610c8e8261072f565b9050919050565b610c9e81610c83565b82525050565b600060c0820190508181036000830152610cbe81896106d4565b90508181036020830152610cd281886106d4565b9050610ce16040830187610c74565b610cee6060830186610c95565b610cfb6080830185610852565b610d0860a0830184610852565b979650505050505050565b600081519050610d2281610aa2565b92915050565b600060208284031215610d3e57610d3d6107d3565b5b6000610d4c84828501610d13565b9150509291505056fea26469706673582212204d5108f5373a7c537ca74173fa5a691c2538fe5b566285f94d73a9f974b31e8564736f6c63430008180033",
  "linkReferences": {},
  "deployedLinkReferences": {}
}