{
  "_format": "hh-sol-artifact-1",
  "contractName": "Device",
  "sourceName": "contracts/Device.sol",
  "abi": [
    {
      "inputs": [
        {
          "internalType": "uint256",
          "name": "_id",
          "type": "uint256"
        },
        {
          "internalType": "string",
          "name": "_name",
          "type": "string"
        },
        {
          "internalType": "address",
          "name": "_actionFactoryAddress",
          "type": "address"
        },
        {
          "internalType": "address",
          "name": "_deviceOwner",
          "type": "address"
        },
        {
          "internalType": "address",
          "name": "_organisationAddress",
          "type": "address"
        }
      ],
      "stateMutability": "nonpayable",
      "type": "constructor"
    },
    {
      "inputs": [
        {
          "internalType": "address",
          "name": "owner",
          "type": "address"
        }
      ],
      "name": "OwnableInvalidOwner",
      "type": "error"
    },
    {
      "inputs": [
        {
          "internalType": "address",
          "name": "account",
          "type": "address"
        }
      ],
      "name": "OwnableUnauthorizedAccount",
      "type": "error"
    },
    {
      "anonymous": false,
      "inputs": [
        {
          "indexed": true,
          "internalType": "address",
          "name": "previousOwner",
          "type": "address"
        },
        {
          "indexed": true,
          "internalType": "address",
          "name": "newOwner",
          "type": "address"
        }
      ],
      "name": "OwnershipTransferred",
      "type": "event"
    },
    {
      "inputs": [],
      "name": "actionFactory",
      "outputs": [
        {
          "internalType": "contract ActionFactory",
          "name": "",
          "type": "address"
        }
      ],
      "stateMutability": "view",
      "type": "function"
    },
    {
      "inputs": [
        {
          "internalType": "uint256",
          "name": "",
          "type": "uint256"
        }
      ],
      "name": "actionToDevice",
      "outputs": [
        {
          "internalType": "address",
          "name": "",
          "type": "address"
        }
      ],
      "stateMutability": "view",
      "type": "function"
    },
    {
      "inputs": [
        {
          "internalType": "string",
          "name": "_name",
          "type": "string"
        },
        {
          "internalType": "string",
          "name": "_unit",
          "type": "string"
        },
        {
          "internalType": "uint32",
          "name": "_pricePerUnit",
          "type": "uint32"
        }
      ],
      "name": "addAction",
      "outputs": [
        {
          "internalType": "address",
          "name": "",
          "type": "address"
        }
      ],
      "stateMutability": "nonpayable",
      "type": "function"
    },
    {
      "inputs": [],
      "name": "id",
      "outputs": [
        {
          "internalType": "uint256",
          "name": "",
          "type": "uint256"
        }
      ],
      "stateMutability": "view",
      "type": "function"
    },
    {
      "inputs": [],
      "name": "name",
      "outputs": [
        {
          "internalType": "string",
          "name": "",
          "type": "string"
        }
      ],
      "stateMutability": "view",
      "type": "function"
    },
    {
      "inputs": [],
      "name": "owner",
      "outputs": [
        {
          "internalType": "address",
          "name": "",
          "type": "address"
        }
      ],
      "stateMutability": "view",
      "type": "function"
    },
    {
      "inputs": [],
      "name": "renounceOwnership",
      "outputs": [],
      "stateMutability": "nonpayable",
      "type": "function"
    },
    {
      "inputs": [
        {
          "internalType": "address",
          "name": "newOwner",
          "type": "address"
        }
      ],
      "name": "transferOwnership",
      "outputs": [],
      "stateMutability": "nonpayable",
      "type": "function"
    },
    {
      "inputs": [
        {
          "internalType": "string",
          "name": "_newName",
          "type": "string"
        }
      ],
      "name": "updateName",
      "outputs": [],
      "stateMutability": "nonpayable",
      "type": "function"
    }
  ],
  "bytecode": "0x60806040523480156200001157600080fd5b506040516200190e3803806200190e83398181016040528101906200003791906200045c565b81600073ffffffffffffffffffffffffffffffffffffffff168173ffffffffffffffffffffffffffffffffffffffff1603620000ad5760006040517f1e4fbdf7000000000000000000000000000000000000000000000000000000008152600401620000a4919062000514565b60405180910390fd5b620000be816200016560201b60201c565b50846001819055508360029081620000d7919062000772565b5082600360006101000a81548173ffffffffffffffffffffffffffffffffffffffff021916908373ffffffffffffffffffffffffffffffffffffffff16021790555080600460006101000a81548173ffffffffffffffffffffffffffffffffffffffff021916908373ffffffffffffffffffffffffffffffffffffffff160217905550505050505062000859565b60008060009054906101000a900473ffffffffffffffffffffffffffffffffffffffff169050816000806101000a81548173ffffffffffffffffffffffffffffffffffffffff021916908373ffffffffffffffffffffffffffffffffffffffff1602179055508173ffffffffffffffffffffffffffffffffffffffff168173ffffffffffffffffffffffffffffffffffffffff167f8be0079c531659141344cd1fd0a4f28419497f9722a3daafe3b4186f6b6457e060405160405180910390a35050565b6000604051905090565b600080fd5b600080fd5b6000819050919050565b62000252816200023d565b81146200025e57600080fd5b50565b600081519050620002728162000247565b92915050565b600080fd5b600080fd5b6000601f19601f8301169050919050565b7f4e487b7100000000000000000000000000000000000000000000000000000000600052604160045260246000fd5b620002cd8262000282565b810181811067ffffffffffffffff82111715620002ef57620002ee62000293565b5b80604052505050565b60006200030462000229565b9050620003128282620002c2565b919050565b600067ffffffffffffffff82111562000335576200033462000293565b5b620003408262000282565b9050602081019050919050565b60005b838110156200036d57808201518184015260208101905062000350565b60008484015250505050565b6000620003906200038a8462000317565b620002f8565b905082815260208101848484011115620003af57620003ae6200027d565b5b620003bc8482856200034d565b509392505050565b600082601f830112620003dc57620003db62000278565b5b8151620003ee84826020860162000379565b91505092915050565b600073ffffffffffffffffffffffffffffffffffffffff82169050919050565b60006200042482620003f7565b9050919050565b620004368162000417565b81146200044257600080fd5b50565b60008151905062000456816200042b565b92915050565b600080600080600060a086880312156200047b576200047a62000233565b5b60006200048b8882890162000261565b955050602086015167ffffffffffffffff811115620004af57620004ae62000238565b5b620004bd88828901620003c4565b9450506040620004d08882890162000445565b9350506060620004e38882890162000445565b9250506080620004f68882890162000445565b9150509295509295909350565b6200050e8162000417565b82525050565b60006020820190506200052b600083018462000503565b92915050565b600081519050919050565b7f4e487b7100000000000000000000000000000000000000000000000000000000600052602260045260246000fd5b600060028204905060018216806200058457607f821691505b6020821081036200059a57620005996200053c565b5b50919050565b60008190508160005260206000209050919050565b60006020601f8301049050919050565b600082821b905092915050565b600060088302620006047fffffffffffffffffffffffffffffffffffffffffffffffffffffffffffffffff82620005c5565b620006108683620005c5565b95508019841693508086168417925050509392505050565b6000819050919050565b6000620006536200064d62000647846200023d565b62000628565b6200023d565b9050919050565b6000819050919050565b6200066f8362000632565b620006876200067e826200065a565b848454620005d2565b825550505050565b600090565b6200069e6200068f565b620006ab81848462000664565b505050565b5b81811015620006d357620006c760008262000694565b600181019050620006b1565b5050565b601f8211156200072257620006ec81620005a0565b620006f784620005b5565b8101602085101562000707578190505b6200071f6200071685620005b5565b830182620006b0565b50505b505050565b600082821c905092915050565b6000620007476000198460080262000727565b1980831691505092915050565b600062000762838362000734565b9150826002028217905092915050565b6200077d8262000531565b67ffffffffffffffff81111562000799576200079862000293565b5b620007a582546200056b565b620007b2828285620006d7565b600060209050601f831160018114620007ea5760008415620007d5578287015190505b620007e1858262000754565b86555062000851565b601f198416620007fa86620005a0565b60005b828110156200082457848901518255600182019150602085019450602081019050620007fd565b8683101562000844578489015162000840601f89168262000734565b8355505b6001600288020188555050505b505050505050565b6110a580620008696000396000f3fe608060405234801561001057600080fd5b50600436106100935760003560e01c806384da92a71161006657806384da92a71461010e5780638da5cb5b1461012a578063af640d0f14610148578063b510651014610166578063f2fde38b1461019657610093565b806306fdde03146100985780636195ef61146100b6578063715018a6146100d457806374100873146100de575b600080fd5b6100a06101b2565b6040516100ad919061076a565b60405180910390f35b6100be610240565b6040516100cb919061080b565b60405180910390f35b6100dc610266565b005b6100f860048036038101906100f39190610870565b61027a565b60405161010591906108be565b60405180910390f35b61012860048036038101906101239190610a0e565b6102ad565b005b6101326102c8565b60405161013f91906108be565b60405180910390f35b6101506102f1565b60405161015d9190610a66565b60405180910390f35b610180600480360381019061017b9190610abd565b6102f7565b60405161018d91906108be565b60405180910390f35b6101b060048036038101906101ab9190610b74565b610501565b005b600280546101bf90610bd0565b80601f01602080910402602001604051908101604052809291908181526020018280546101eb90610bd0565b80156102385780601f1061020d57610100808354040283529160200191610238565b820191906000526020600020905b81548152906001019060200180831161021b57829003601f168201915b505050505081565b600360009054906101000a900473ffffffffffffffffffffffffffffffffffffffff1681565b61026e610587565b610278600061060e565b565b60056020528060005260406000206000915054906101000a900473ffffffffffffffffffffffffffffffffffffffff1681565b6102b5610587565b80600290816102c49190610da3565b5050565b60008060009054906101000a900473ffffffffffffffffffffffffffffffffffffffff16905090565b60015481565b6000600460009054906101000a900473ffffffffffffffffffffffffffffffffffffffff1673ffffffffffffffffffffffffffffffffffffffff166324d7806c336040518263ffffffff1660e01b815260040161035491906108be565b602060405180830381865afa158015610371573d6000803e3d6000fd5b505050506040513d601f19601f820116820180604052508101906103959190610ead565b6103d4576040517f08c379a00000000000000000000000000000000000000000000000000000000081526004016103cb90610f4c565b60405180910390fd5b6000600360009054906101000a900473ffffffffffffffffffffffffffffffffffffffff1673ffffffffffffffffffffffffffffffffffffffff166329ebacd38686863033600460009054906101000a900473ffffffffffffffffffffffffffffffffffffffff166040518763ffffffff1660e01b815260040161045d96959493929190610fbe565b6020604051808303816000875af115801561047c573d6000803e3d6000fd5b505050506040513d601f19601f820116820180604052508101906104a09190611042565b90508060056000600154815260200190815260200160002060006101000a81548173ffffffffffffffffffffffffffffffffffffffff021916908373ffffffffffffffffffffffffffffffffffffffff160217905550809150509392505050565b610509610587565b600073ffffffffffffffffffffffffffffffffffffffff168173ffffffffffffffffffffffffffffffffffffffff160361057b5760006040517f1e4fbdf700000000000000000000000000000000000000000000000000000000815260040161057291906108be565b60405180910390fd5b6105848161060e565b50565b61058f6106d2565b73ffffffffffffffffffffffffffffffffffffffff166105ad6102c8565b73ffffffffffffffffffffffffffffffffffffffff161461060c576105d06106d2565b6040517f118cdaa700000000000000000000000000000000000000000000000000000000815260040161060391906108be565b60405180910390fd5b565b60008060009054906101000a900473ffffffffffffffffffffffffffffffffffffffff169050816000806101000a81548173ffffffffffffffffffffffffffffffffffffffff021916908373ffffffffffffffffffffffffffffffffffffffff1602179055508173ffffffffffffffffffffffffffffffffffffffff168173ffffffffffffffffffffffffffffffffffffffff167f8be0079c531659141344cd1fd0a4f28419497f9722a3daafe3b4186f6b6457e060405160405180910390a35050565b600033905090565b600081519050919050565b600082825260208201905092915050565b60005b838110156107145780820151818401526020810190506106f9565b60008484015250505050565b6000601f19601f8301169050919050565b600061073c826106da565b61074681856106e5565b93506107568185602086016106f6565b61075f81610720565b840191505092915050565b600060208201905081810360008301526107848184610731565b905092915050565b600073ffffffffffffffffffffffffffffffffffffffff82169050919050565b6000819050919050565b60006107d16107cc6107c78461078c565b6107ac565b61078c565b9050919050565b60006107e3826107b6565b9050919050565b60006107f5826107d8565b9050919050565b610805816107ea565b82525050565b600060208201905061082060008301846107fc565b92915050565b6000604051905090565b600080fd5b600080fd5b6000819050919050565b61084d8161083a565b811461085857600080fd5b50565b60008135905061086a81610844565b92915050565b60006020828403121561088657610885610830565b5b60006108948482850161085b565b91505092915050565b60006108a88261078c565b9050919050565b6108b88161089d565b82525050565b60006020820190506108d360008301846108af565b92915050565b600080fd5b600080fd5b7f4e487b7100000000000000000000000000000000000000000000000000000000600052604160045260246000fd5b61091b82610720565b810181811067ffffffffffffffff8211171561093a576109396108e3565b5b80604052505050565b600061094d610826565b90506109598282610912565b919050565b600067ffffffffffffffff821115610979576109786108e3565b5b61098282610720565b9050602081019050919050565b82818337600083830152505050565b60006109b16109ac8461095e565b610943565b9050828152602081018484840111156109cd576109cc6108de565b5b6109d884828561098f565b509392505050565b600082601f8301126109f5576109f46108d9565b5b8135610a0584826020860161099e565b91505092915050565b600060208284031215610a2457610a23610830565b5b600082013567ffffffffffffffff811115610a4257610a41610835565b5b610a4e848285016109e0565b91505092915050565b610a608161083a565b82525050565b6000602082019050610a7b6000830184610a57565b92915050565b600063ffffffff82169050919050565b610a9a81610a81565b8114610aa557600080fd5b50565b600081359050610ab781610a91565b92915050565b600080600060608486031215610ad657610ad5610830565b5b600084013567ffffffffffffffff811115610af457610af3610835565b5b610b00868287016109e0565b935050602084013567ffffffffffffffff811115610b2157610b20610835565b5b610b2d868287016109e0565b9250506040610b3e86828701610aa8565b9150509250925092565b610b518161089d565b8114610b5c57600080fd5b50565b600081359050610b6e81610b48565b92915050565b600060208284031215610b8a57610b89610830565b5b6000610b9884828501610b5f565b91505092915050565b7f4e487b7100000000000000000000000000000000000000000000000000000000600052602260045260246000fd5b60006002820490506001821680610be857607f821691505b602082108103610bfb57610bfa610ba1565b5b50919050565b60008190508160005260206000209050919050565b60006020601f8301049050919050565b600082821b905092915050565b600060088302610c637fffffffffffffffffffffffffffffffffffffffffffffffffffffffffffffffff82610c26565b610c6d8683610c26565b95508019841693508086168417925050509392505050565b6000610ca0610c9b610c968461083a565b6107ac565b61083a565b9050919050565b6000819050919050565b610cba83610c85565b610cce610cc682610ca7565b848454610c33565b825550505050565b600090565b610ce3610cd6565b610cee818484610cb1565b505050565b5b81811015610d1257610d07600082610cdb565b600181019050610cf4565b5050565b601f821115610d5757610d2881610c01565b610d3184610c16565b81016020851015610d40578190505b610d54610d4c85610c16565b830182610cf3565b50505b505050565b600082821c905092915050565b6000610d7a60001984600802610d5c565b1980831691505092915050565b6000610d938383610d69565b9150826002028217905092915050565b610dac826106da565b67ffffffffffffffff811115610dc557610dc46108e3565b5b610dcf8254610bd0565b610dda828285610d16565b600060209050601f831160018114610e0d5760008415610dfb578287015190505b610e058582610d87565b865550610e6d565b601f198416610e1b86610c01565b60005b82811015610e4357848901518255600182019150602085019450602081019050610e1e565b86831015610e605784890151610e5c601f891682610d69565b8355505b6001600288020188555050505b505050505050565b60008115159050919050565b610e8a81610e75565b8114610e9557600080fd5b50565b600081519050610ea781610e81565b92915050565b600060208284031215610ec357610ec2610830565b5b6000610ed184828501610e98565b91505092915050565b7f4e6f2041646d696e4e4654202d3e206e6f7420616c6c6f77656420746f20637260008201527f6561746520612044657669636500000000000000000000000000000000000000602082015250565b6000610f36602d836106e5565b9150610f4182610eda565b604082019050919050565b60006020820190508181036000830152610f6581610f29565b9050919050565b6000610f87610f82610f7d84610a81565b6107ac565b61083a565b9050919050565b610f9781610f6c565b82525050565b6000610fa88261078c565b9050919050565b610fb881610f9d565b82525050565b600060c0820190508181036000830152610fd88189610731565b90508181036020830152610fec8188610731565b9050610ffb6040830187610f8e565b6110086060830186610faf565b61101560808301856108af565b61102260a08301846108af565b979650505050505050565b60008151905061103c81610b48565b92915050565b60006020828403121561105857611057610830565b5b60006110668482850161102d565b9150509291505056fea2646970667358221220d89f47ed259cae2d445ece70f90c93cf12c3f8f0f7e898c68879b66d2368c7ad64736f6c63430008180033",
  "linkReferences": {},
  "deployedLinkReferences": {}
}