{
  "_format": "hh-sol-artifact-1",
  "contractName": "DeviceFactory",
  "sourceName": "contracts/DeviceFactory.sol",
  "abi": [
    {
      "anonymous": false,
      "inputs": [
        {
          "indexed": true,
          "internalType": "address",
          "name": "device",
          "type": "address"
        },
        {
          "indexed": true,
          "internalType": "uint256",
          "name": "id",
          "type": "uint256"
        },
        {
          "indexed": false,
          "internalType": "string",
          "name": "name",
          "type": "string"
        },
        {
          "indexed": false,
          "internalType": "address",
          "name": "actionFactoryAddress",
          "type": "address"
        }
      ],
      "name": "DeviceCreated",
      "type": "event"
    },
    {
      "anonymous": false,
      "inputs": [
        {
          "indexed": true,
          "internalType": "uint256",
          "name": "id",
          "type": "uint256"
        }
      ],
      "name": "DeviceDeleted",
      "type": "event"
    },
    {
      "anonymous": false,
      "inputs": [
        {
          "indexed": true,
          "internalType": "uint256",
          "name": "id",
          "type": "uint256"
        },
        {
          "indexed": false,
          "internalType": "string",
          "name": "newName",
          "type": "string"
        }
      ],
      "name": "DeviceUpdated",
      "type": "event"
    },
    {
      "inputs": [
        {
          "internalType": "string",
          "name": "_name",
          "type": "string"
        },
        {
          "internalType": "address",
          "name": "_actionFactoryAddress",
          "type": "address"
        },
        {
          "internalType": "address",
          "name": "_organizationAddress",
          "type": "address"
        }
      ],
      "name": "createDevice",
      "outputs": [
        {
          "internalType": "address",
          "name": "",
          "type": "address"
        }
      ],
      "stateMutability": "nonpayable",
      "type": "function"
    },
    {
      "inputs": [
        {
          "internalType": "uint256",
          "name": "_deviceId",
          "type": "uint256"
        }
      ],
      "name": "deleteDevice",
      "outputs": [],
      "stateMutability": "nonpayable",
      "type": "function"
    },
    {
      "inputs": [],
      "name": "deviceCounter",
      "outputs": [
        {
          "internalType": "uint256",
          "name": "",
          "type": "uint256"
        }
      ],
      "stateMutability": "view",
      "type": "function"
    },
    {
      "inputs": [
        {
          "internalType": "address",
          "name": "_organizationAddress",
          "type": "address"
        }
      ],
      "name": "getDevices",
      "outputs": [
        {
          "components": [
            {
              "internalType": "address",
              "name": "deviceAddress",
              "type": "address"
            },
            {
              "internalType": "uint256",
              "name": "id",
              "type": "uint256"
            },
            {
              "internalType": "string",
              "name": "name",
              "type": "string"
            },
            {
              "internalType": "address",
              "name": "actionFactoryAddress",
              "type": "address"
            },
            {
              "internalType": "address",
              "name": "organisationAddress",
              "type": "address"
            }
          ],
          "internalType": "struct DeviceFactory.DeviceInfo[]",
          "name": "",
          "type": "tuple[]"
        }
      ],
      "stateMutability": "view",
      "type": "function"
    },
    {
      "inputs": [
        {
          "internalType": "uint256",
          "name": "_deviceId",
          "type": "uint256"
        },
        {
          "internalType": "string",
          "name": "_newName",
          "type": "string"
        }
      ],
      "name": "updateDeviceName",
      "outputs": [],
      "stateMutability": "nonpayable",
      "type": "function"
    }
  ],
  "bytecode": "0x60806040526001805534801561001457600080fd5b506137d2806100246000396000f3fe60806040523480156200001157600080fd5b50600436106200005e5760003560e01c8063417b26e014620000635780636f200dbb1462000099578063768d4fd214620000cf578063a4cc73ca14620000ef578063e51ea4c81462000111575b600080fd5b6200008160048036038101906200007b919062000f33565b62000131565b6040516200009091906200117b565b60405180910390f35b620000b76004803603810190620000b19190620012f0565b6200057d565b604051620000c691906200137c565b60405180910390f35b620000ed6004803603810190620000e79190620013ca565b6200087a565b005b620000f962000b26565b6040516200010891906200140d565b60405180910390f35b6200012f60048036038101906200012991906200142a565b62000b2c565b005b606060008273ffffffffffffffffffffffffffffffffffffffff166370a08231336040518263ffffffff1660e01b81526004016200017091906200137c565b602060405180830381865afa1580156200018e573d6000803e3d6000fd5b505050506040513d601f19601f82011682018060405250810190620001b49190620014a7565b11620001f7576040517f08c379a0000000000000000000000000000000000000000000000000000000008152600401620001ee9062001560565b60405180910390fd5b600080600190505b60015481101562000292578373ffffffffffffffffffffffffffffffffffffffff1660008083815260200190815260200160002060040160009054906101000a900473ffffffffffffffffffffffffffffffffffffffff1673ffffffffffffffffffffffffffffffffffffffff1603620002845781806200028090620015b1565b9250505b8080600101915050620001ff565b5060008167ffffffffffffffff811115620002b257620002b1620011a9565b5b604051908082528060200260200182016040528015620002ef57816020015b620002db62000dd6565b815260200190600190039081620002d15790505b509050600080600190505b60015481101562000571578573ffffffffffffffffffffffffffffffffffffffff1660008083815260200190815260200160002060040160009054906101000a900473ffffffffffffffffffffffffffffffffffffffff1673ffffffffffffffffffffffffffffffffffffffff160362000563576000808281526020019081526020016000206040518060a00160405290816000820160009054906101000a900473ffffffffffffffffffffffffffffffffffffffff1673ffffffffffffffffffffffffffffffffffffffff1673ffffffffffffffffffffffffffffffffffffffff16815260200160018201548152602001600282018054620003fd906200162d565b80601f01602080910402602001604051908101604052809291908181526020018280546200042b906200162d565b80156200047c5780601f1062000450576101008083540402835291602001916200047c565b820191906000526020600020905b8154815290600101906020018083116200045e57829003601f168201915b505050505081526020016003820160009054906101000a900473ffffffffffffffffffffffffffffffffffffffff1673ffffffffffffffffffffffffffffffffffffffff1673ffffffffffffffffffffffffffffffffffffffff1681526020016004820160009054906101000a900473ffffffffffffffffffffffffffffffffffffffff1673ffffffffffffffffffffffffffffffffffffffff1673ffffffffffffffffffffffffffffffffffffffff168152505083838151811062000547576200054662001662565b5b602002602001018190525081806200055f90620015b1565b9250505b8080600101915050620002fa565b50819350505050919050565b60008173ffffffffffffffffffffffffffffffffffffffff166324d7806c336040518263ffffffff1660e01b8152600401620005ba91906200137c565b602060405180830381865afa158015620005d8573d6000803e3d6000fd5b505050506040513d601f19601f82011682018060405250810190620005fe9190620016ce565b62000640576040517f08c379a0000000000000000000000000000000000000000000000000000000008152600401620006379062001776565b60405180910390fd5b600060015485853386604051620006579062000e47565b62000667959493929190620017d9565b604051809103906000f08015801562000684573d6000803e3d6000fd5b5090506001548173ffffffffffffffffffffffffffffffffffffffff167ff4d744422502ef200369b5b899e83e2e4724bd0f21cb754b5523e5b39ace6e0a8787604051620006d49291906200183d565b60405180910390a36040518060a001604052808273ffffffffffffffffffffffffffffffffffffffff16815260200160015481526020018681526020018573ffffffffffffffffffffffffffffffffffffffff1681526020018473ffffffffffffffffffffffffffffffffffffffff16815250600080600154815260200190815260200160002060008201518160000160006101000a81548173ffffffffffffffffffffffffffffffffffffffff021916908373ffffffffffffffffffffffffffffffffffffffff160217905550602082015181600101556040820151816002019081620007c3919062001a43565b5060608201518160030160006101000a81548173ffffffffffffffffffffffffffffffffffffffff021916908373ffffffffffffffffffffffffffffffffffffffff16021790555060808201518160040160006101000a81548173ffffffffffffffffffffffffffffffffffffffff021916908373ffffffffffffffffffffffffffffffffffffffff160217905550905050600160008154809291906200086a90620015b1565b9190505550809150509392505050565b600073ffffffffffffffffffffffffffffffffffffffff1660008083815260200190815260200160002060000160009054906101000a900473ffffffffffffffffffffffffffffffffffffffff1673ffffffffffffffffffffffffffffffffffffffff160362000921576040517f08c379a0000000000000000000000000000000000000000000000000000000008152600401620009189062001b7a565b60405180910390fd5b60008082815260200190815260200160002060040160009054906101000a900473ffffffffffffffffffffffffffffffffffffffff1673ffffffffffffffffffffffffffffffffffffffff166324d7806c336040518263ffffffff1660e01b81526004016200099191906200137c565b602060405180830381865afa158015620009af573d6000803e3d6000fd5b505050506040513d601f19601f82011682018060405250810190620009d59190620016ce565b62000a17576040517f08c379a000000000000000000000000000000000000000000000000000000000815260040162000a0e9062001c12565b60405180910390fd5b600080600083815260200190815260200160002060000160009054906101000a900473ffffffffffffffffffffffffffffffffffffffff169050600080838152602001908152602001600020600080820160006101000a81549073ffffffffffffffffffffffffffffffffffffffff0219169055600182016000905560028201600062000aa5919062000e55565b6003820160006101000a81549073ffffffffffffffffffffffffffffffffffffffff02191690556004820160006101000a81549073ffffffffffffffffffffffffffffffffffffffff02191690555050817f979e38b2b746dcfc90cef6f06401a034ae94896402a3d192589d6f1a68b5a68860405160405180910390a25050565b60015481565b600073ffffffffffffffffffffffffffffffffffffffff1660008084815260200190815260200160002060000160009054906101000a900473ffffffffffffffffffffffffffffffffffffffff1673ffffffffffffffffffffffffffffffffffffffff160362000bd3576040517f08c379a000000000000000000000000000000000000000000000000000000000815260040162000bca9062001b7a565b60405180910390fd5b60008083815260200190815260200160002060040160009054906101000a900473ffffffffffffffffffffffffffffffffffffffff1673ffffffffffffffffffffffffffffffffffffffff166324d7806c336040518263ffffffff1660e01b815260040162000c4391906200137c565b602060405180830381865afa15801562000c61573d6000803e3d6000fd5b505050506040513d601f19601f8201168201806040525081019062000c879190620016ce565b62000cc9576040517f08c379a000000000000000000000000000000000000000000000000000000000815260040162000cc09062001caa565b60405180910390fd5b600080600084815260200190815260200160002060000160009054906101000a900473ffffffffffffffffffffffffffffffffffffffff1690508073ffffffffffffffffffffffffffffffffffffffff166384da92a7836040518263ffffffff1660e01b815260040162000d3e919062001ccc565b600060405180830381600087803b15801562000d5957600080fd5b505af115801562000d6e573d6000803e3d6000fd5b5050505081600080858152602001908152602001600020600201908162000d96919062001a43565b50827f858e30f441c92fc7c78e2ed70530d3e8a8720dacdcbddefbde5a2e5418f9d52e8360405162000dc9919062001ccc565b60405180910390a2505050565b6040518060a00160405280600073ffffffffffffffffffffffffffffffffffffffff1681526020016000815260200160608152602001600073ffffffffffffffffffffffffffffffffffffffff168152602001600073ffffffffffffffffffffffffffffffffffffffff1681525090565b611aac8062001cf183390190565b50805462000e63906200162d565b6000825580601f1062000e77575062000e98565b601f01602090049060005260206000209081019062000e97919062000e9b565b5b50565b5b8082111562000eb657600081600090555060010162000e9c565b5090565b6000604051905090565b600080fd5b600080fd5b600073ffffffffffffffffffffffffffffffffffffffff82169050919050565b600062000efb8262000ece565b9050919050565b62000f0d8162000eee565b811462000f1957600080fd5b50565b60008135905062000f2d8162000f02565b92915050565b60006020828403121562000f4c5762000f4b62000ec4565b5b600062000f5c8482850162000f1c565b91505092915050565b600081519050919050565b600082825260208201905092915050565b6000819050602082019050919050565b62000f9c8162000eee565b82525050565b6000819050919050565b62000fb78162000fa2565b82525050565b600081519050919050565b600082825260208201905092915050565b60005b8381101562000ff957808201518184015260208101905062000fdc565b60008484015250505050565b6000601f19601f8301169050919050565b6000620010238262000fbd565b6200102f818562000fc8565b93506200104181856020860162000fd9565b6200104c8162001005565b840191505092915050565b600060a08301600083015162001071600086018262000f91565b50602083015162001086602086018262000fac565b5060408301518482036040860152620010a0828262001016565b9150506060830151620010b7606086018262000f91565b506080830151620010cc608086018262000f91565b508091505092915050565b6000620010e5838362001057565b905092915050565b6000602082019050919050565b6000620011078262000f65565b62001113818562000f70565b935083602082028501620011278562000f81565b8060005b85811015620011695784840389528151620011478582620010d7565b94506200115483620010ed565b925060208a019950506001810190506200112b565b50829750879550505050505092915050565b60006020820190508181036000830152620011978184620010fa565b905092915050565b600080fd5b600080fd5b7f4e487b7100000000000000000000000000000000000000000000000000000000600052604160045260246000fd5b620011e38262001005565b810181811067ffffffffffffffff82111715620012055762001204620011a9565b5b80604052505050565b60006200121a62000eba565b9050620012288282620011d8565b919050565b600067ffffffffffffffff8211156200124b576200124a620011a9565b5b620012568262001005565b9050602081019050919050565b82818337600083830152505050565b60006200128962001283846200122d565b6200120e565b905082815260208101848484011115620012a857620012a7620011a4565b5b620012b584828562001263565b509392505050565b600082601f830112620012d557620012d46200119f565b5b8135620012e784826020860162001272565b91505092915050565b6000806000606084860312156200130c576200130b62000ec4565b5b600084013567ffffffffffffffff8111156200132d576200132c62000ec9565b5b6200133b86828701620012bd565b93505060206200134e8682870162000f1c565b9250506040620013618682870162000f1c565b9150509250925092565b620013768162000eee565b82525050565b60006020820190506200139360008301846200136b565b92915050565b620013a48162000fa2565b8114620013b057600080fd5b50565b600081359050620013c48162001399565b92915050565b600060208284031215620013e357620013e262000ec4565b5b6000620013f384828501620013b3565b91505092915050565b620014078162000fa2565b82525050565b6000602082019050620014246000830184620013fc565b92915050565b6000806040838503121562001444576200144362000ec4565b5b60006200145485828601620013b3565b925050602083013567ffffffffffffffff81111562001478576200147762000ec9565b5b6200148685828601620012bd565b9150509250929050565b600081519050620014a18162001399565b92915050565b600060208284031215620014c057620014bf62000ec4565b5b6000620014d08482850162001490565b91505092915050565b600082825260208201905092915050565b7f4e6f20557365724e4654202d3e206e6f7420616c6c6f77656420746f2067657460008201527f2064657669636573000000000000000000000000000000000000000000000000602082015250565b600062001548602883620014d9565b91506200155582620014ea565b604082019050919050565b600060208201905081810360008301526200157b8162001539565b9050919050565b7f4e487b7100000000000000000000000000000000000000000000000000000000600052601160045260246000fd5b6000620015be8262000fa2565b91507fffffffffffffffffffffffffffffffffffffffffffffffffffffffffffffffff8203620015f357620015f262001582565b5b600182019050919050565b7f4e487b7100000000000000000000000000000000000000000000000000000000600052602260045260246000fd5b600060028204905060018216806200164657607f821691505b6020821081036200165c576200165b620015fe565b5b50919050565b7f4e487b7100000000000000000000000000000000000000000000000000000000600052603260045260246000fd5b60008115159050919050565b620016a88162001691565b8114620016b457600080fd5b50565b600081519050620016c8816200169d565b92915050565b600060208284031215620016e757620016e662000ec4565b5b6000620016f784828501620016b7565b91505092915050565b7f4e6f2041646d696e4e4654202d3e206e6f7420616c6c6f77656420746f20637260008201527f6561746520612044657669636500000000000000000000000000000000000000602082015250565b60006200175e602d83620014d9565b91506200176b8262001700565b604082019050919050565b6000602082019050818103600083015262001791816200174f565b9050919050565b6000620017a58262000fbd565b620017b18185620014d9565b9350620017c381856020860162000fd9565b620017ce8162001005565b840191505092915050565b600060a082019050620017f06000830188620013fc565b818103602083015262001804818762001798565b90506200181560408301866200136b565b6200182460608301856200136b565b6200183360808301846200136b565b9695505050505050565b6000604082019050818103600083015262001859818562001798565b90506200186a60208301846200136b565b9392505050565b60008190508160005260206000209050919050565b60006020601f8301049050919050565b600082821b905092915050565b600060088302620018d57fffffffffffffffffffffffffffffffffffffffffffffffffffffffffffffffff8262001896565b620018e1868362001896565b95508019841693508086168417925050509392505050565b6000819050919050565b6000620019246200191e620019188462000fa2565b620018f9565b62000fa2565b9050919050565b6000819050919050565b620019408362001903565b620019586200194f826200192b565b848454620018a3565b825550505050565b600090565b6200196f62001960565b6200197c81848462001935565b505050565b5b81811015620019a4576200199860008262001965565b60018101905062001982565b5050565b601f821115620019f357620019bd8162001871565b620019c88462001886565b81016020851015620019d8578190505b620019f0620019e78562001886565b83018262001981565b50505b505050565b600082821c905092915050565b600062001a1860001984600802620019f8565b1980831691505092915050565b600062001a33838362001a05565b9150826002028217905092915050565b62001a4e8262000fbd565b67ffffffffffffffff81111562001a6a5762001a69620011a9565b5b62001a7682546200162d565b62001a83828285620019a8565b600060209050601f83116001811462001abb576000841562001aa6578287015190505b62001ab2858262001a25565b86555062001b22565b601f19841662001acb8662001871565b60005b8281101562001af55784890151825560018201915060208501945060208101905062001ace565b8683101562001b15578489015162001b11601f89168262001a05565b8355505b6001600288020188555050505b505050505050565b7f44657669636520646f6573206e6f742065786973740000000000000000000000600082015250565b600062001b62601583620014d9565b915062001b6f8262001b2a565b602082019050919050565b6000602082019050818103600083015262001b958162001b53565b9050919050565b7f4e6f2041646d696e4e4654202d3e206e6f7420616c6c6f77656420746f20646560008201527f6c65746520746865206465766963650000000000000000000000000000000000602082015250565b600062001bfa602f83620014d9565b915062001c078262001b9c565b604082019050919050565b6000602082019050818103600083015262001c2d8162001beb565b9050919050565b7f4e6f2041646d696e4e4654202d3e206e6f7420616c6c6f77656420746f20757060008201527f6461746520746865206465766963650000000000000000000000000000000000602082015250565b600062001c92602f83620014d9565b915062001c9f8262001c34565b604082019050919050565b6000602082019050818103600083015262001cc58162001c83565b9050919050565b6000602082019050818103600083015262001ce8818462001798565b90509291505056fe60806040523480156200001157600080fd5b5060405162001aac38038062001aac83398181016040528101906200003791906200045c565b81600073ffffffffffffffffffffffffffffffffffffffff168173ffffffffffffffffffffffffffffffffffffffff1603620000ad5760006040517f1e4fbdf7000000000000000000000000000000000000000000000000000000008152600401620000a4919062000514565b60405180910390fd5b620000be816200016560201b60201c565b50846001819055508360029081620000d7919062000772565b5082600360006101000a81548173ffffffffffffffffffffffffffffffffffffffff021916908373ffffffffffffffffffffffffffffffffffffffff16021790555080600460006101000a81548173ffffffffffffffffffffffffffffffffffffffff021916908373ffffffffffffffffffffffffffffffffffffffff160217905550505050505062000859565b60008060009054906101000a900473ffffffffffffffffffffffffffffffffffffffff169050816000806101000a81548173ffffffffffffffffffffffffffffffffffffffff021916908373ffffffffffffffffffffffffffffffffffffffff1602179055508173ffffffffffffffffffffffffffffffffffffffff168173ffffffffffffffffffffffffffffffffffffffff167f8be0079c531659141344cd1fd0a4f28419497f9722a3daafe3b4186f6b6457e060405160405180910390a35050565b6000604051905090565b600080fd5b600080fd5b6000819050919050565b62000252816200023d565b81146200025e57600080fd5b50565b600081519050620002728162000247565b92915050565b600080fd5b600080fd5b6000601f19601f8301169050919050565b7f4e487b7100000000000000000000000000000000000000000000000000000000600052604160045260246000fd5b620002cd8262000282565b810181811067ffffffffffffffff82111715620002ef57620002ee62000293565b5b80604052505050565b60006200030462000229565b9050620003128282620002c2565b919050565b600067ffffffffffffffff82111562000335576200033462000293565b5b620003408262000282565b9050602081019050919050565b60005b838110156200036d57808201518184015260208101905062000350565b60008484015250505050565b6000620003906200038a8462000317565b620002f8565b905082815260208101848484011115620003af57620003ae6200027d565b5b620003bc8482856200034d565b509392505050565b600082601f830112620003dc57620003db62000278565b5b8151620003ee84826020860162000379565b91505092915050565b600073ffffffffffffffffffffffffffffffffffffffff82169050919050565b60006200042482620003f7565b9050919050565b620004368162000417565b81146200044257600080fd5b50565b60008151905062000456816200042b565b92915050565b600080600080600060a086880312156200047b576200047a62000233565b5b60006200048b8882890162000261565b955050602086015167ffffffffffffffff811115620004af57620004ae62000238565b5b620004bd88828901620003c4565b9450506040620004d08882890162000445565b9350506060620004e38882890162000445565b9250506080620004f68882890162000445565b9150509295509295909350565b6200050e8162000417565b82525050565b60006020820190506200052b600083018462000503565b92915050565b600081519050919050565b7f4e487b7100000000000000000000000000000000000000000000000000000000600052602260045260246000fd5b600060028204905060018216806200058457607f821691505b6020821081036200059a57620005996200053c565b5b50919050565b60008190508160005260206000209050919050565b60006020601f8301049050919050565b600082821b905092915050565b600060088302620006047fffffffffffffffffffffffffffffffffffffffffffffffffffffffffffffffff82620005c5565b620006108683620005c5565b95508019841693508086168417925050509392505050565b6000819050919050565b6000620006536200064d62000647846200023d565b62000628565b6200023d565b9050919050565b6000819050919050565b6200066f8362000632565b620006876200067e826200065a565b848454620005d2565b825550505050565b600090565b6200069e6200068f565b620006ab81848462000664565b505050565b5b81811015620006d357620006c760008262000694565b600181019050620006b1565b5050565b601f8211156200072257620006ec81620005a0565b620006f784620005b5565b8101602085101562000707578190505b6200071f6200071685620005b5565b830182620006b0565b50505b505050565b600082821c905092915050565b6000620007476000198460080262000727565b1980831691505092915050565b600062000762838362000734565b9150826002028217905092915050565b6200077d8262000531565b67ffffffffffffffff81111562000799576200079862000293565b5b620007a582546200056b565b620007b2828285620006d7565b600060209050601f831160018114620007ea5760008415620007d5578287015190505b620007e1858262000754565b86555062000851565b601f198416620007fa86620005a0565b60005b828110156200082457848901518255600182019150602085019450602081019050620007fd565b8683101562000844578489015162000840601f89168262000734565b8355505b6001600288020188555050505b505050505050565b61124380620008696000396000f3fe608060405234801561001057600080fd5b50600436106100935760003560e01c806384da92a71161006657806384da92a71461010e5780638da5cb5b1461012a578063af640d0f14610148578063b510651014610166578063f2fde38b1461019657610093565b806306fdde03146100985780636195ef61146100b6578063715018a6146100d457806374100873146100de575b600080fd5b6100a06101b2565b6040516100ad9190610878565b60405180910390f35b6100be610240565b6040516100cb9190610919565b60405180910390f35b6100dc610266565b005b6100f860048036038101906100f3919061097e565b61027a565b60405161010591906109cc565b60405180910390f35b61012860048036038101906101239190610b1c565b6102ad565b005b6101326102ea565b60405161013f91906109cc565b60405180910390f35b610150610313565b60405161015d9190610b74565b60405180910390f35b610180600480360381019061017b9190610bcb565b610319565b60405161018d91906109cc565b60405180910390f35b6101b060048036038101906101ab9190610c82565b610523565b005b600280546101bf90610cde565b80601f01602080910402602001604051908101604052809291908181526020018280546101eb90610cde565b80156102385780601f1061020d57610100808354040283529160200191610238565b820191906000526020600020905b81548152906001019060200180831161021b57829003601f168201915b505050505081565b600360009054906101000a900473ffffffffffffffffffffffffffffffffffffffff1681565b61026e6105a9565b6102786000610630565b565b60056020528060005260406000206000915054906101000a900473ffffffffffffffffffffffffffffffffffffffff1681565b6102b56105a9565b6102d76040518060600160405280602a81526020016111e4602a9139826106f4565b80600290816102e69190610eb1565b5050565b60008060009054906101000a900473ffffffffffffffffffffffffffffffffffffffff16905090565b60015481565b6000600460009054906101000a900473ffffffffffffffffffffffffffffffffffffffff1673ffffffffffffffffffffffffffffffffffffffff166324d7806c336040518263ffffffff1660e01b815260040161037691906109cc565b602060405180830381865afa158015610393573d6000803e3d6000fd5b505050506040513d601f19601f820116820180604052508101906103b79190610fbb565b6103f6576040517f08c379a00000000000000000000000000000000000000000000000000000000081526004016103ed9061105a565b60405180910390fd5b6000600360009054906101000a900473ffffffffffffffffffffffffffffffffffffffff1673ffffffffffffffffffffffffffffffffffffffff166329ebacd38686863033600460009054906101000a900473ffffffffffffffffffffffffffffffffffffffff166040518763ffffffff1660e01b815260040161047f969594939291906110cc565b6020604051808303816000875af115801561049e573d6000803e3d6000fd5b505050506040513d601f19601f820116820180604052508101906104c29190611150565b90508060056000600154815260200190815260200160002060006101000a81548173ffffffffffffffffffffffffffffffffffffffff021916908373ffffffffffffffffffffffffffffffffffffffff160217905550809150509392505050565b61052b6105a9565b600073ffffffffffffffffffffffffffffffffffffffff168173ffffffffffffffffffffffffffffffffffffffff160361059d5760006040517f1e4fbdf700000000000000000000000000000000000000000000000000000000815260040161059491906109cc565b60405180910390fd5b6105a681610630565b50565b6105b1610790565b73ffffffffffffffffffffffffffffffffffffffff166105cf6102ea565b73ffffffffffffffffffffffffffffffffffffffff161461062e576105f2610790565b6040517f118cdaa700000000000000000000000000000000000000000000000000000000815260040161062591906109cc565b60405180910390fd5b565b60008060009054906101000a900473ffffffffffffffffffffffffffffffffffffffff169050816000806101000a81548173ffffffffffffffffffffffffffffffffffffffff021916908373ffffffffffffffffffffffffffffffffffffffff1602179055508173ffffffffffffffffffffffffffffffffffffffff168173ffffffffffffffffffffffffffffffffffffffff167f8be0079c531659141344cd1fd0a4f28419497f9722a3daafe3b4186f6b6457e060405160405180910390a35050565b61078c828260405160240161070a92919061117d565b6040516020818303038152906040527f4b5c4277000000000000000000000000000000000000000000000000000000007bffffffffffffffffffffffffffffffffffffffffffffffffffffffff19166020820180517bffffffffffffffffffffffffffffffffffffffffffffffffffffffff8381831617835250505050610798565b5050565b600033905090565b6107af816107a76107b26107d3565b63ffffffff16565b50565b60006a636f6e736f6c652e6c6f679050600080835160208501845afa505050565b6107de819050919050565b6107e66111b4565b565b600081519050919050565b600082825260208201905092915050565b60005b83811015610822578082015181840152602081019050610807565b60008484015250505050565b6000601f19601f8301169050919050565b600061084a826107e8565b61085481856107f3565b9350610864818560208601610804565b61086d8161082e565b840191505092915050565b60006020820190508181036000830152610892818461083f565b905092915050565b600073ffffffffffffffffffffffffffffffffffffffff82169050919050565b6000819050919050565b60006108df6108da6108d58461089a565b6108ba565b61089a565b9050919050565b60006108f1826108c4565b9050919050565b6000610903826108e6565b9050919050565b610913816108f8565b82525050565b600060208201905061092e600083018461090a565b92915050565b6000604051905090565b600080fd5b600080fd5b6000819050919050565b61095b81610948565b811461096657600080fd5b50565b60008135905061097881610952565b92915050565b6000602082840312156109945761099361093e565b5b60006109a284828501610969565b91505092915050565b60006109b68261089a565b9050919050565b6109c6816109ab565b82525050565b60006020820190506109e160008301846109bd565b92915050565b600080fd5b600080fd5b7f4e487b7100000000000000000000000000000000000000000000000000000000600052604160045260246000fd5b610a298261082e565b810181811067ffffffffffffffff82111715610a4857610a476109f1565b5b80604052505050565b6000610a5b610934565b9050610a678282610a20565b919050565b600067ffffffffffffffff821115610a8757610a866109f1565b5b610a908261082e565b9050602081019050919050565b82818337600083830152505050565b6000610abf610aba84610a6c565b610a51565b905082815260208101848484011115610adb57610ada6109ec565b5b610ae6848285610a9d565b509392505050565b600082601f830112610b0357610b026109e7565b5b8135610b13848260208601610aac565b91505092915050565b600060208284031215610b3257610b3161093e565b5b600082013567ffffffffffffffff811115610b5057610b4f610943565b5b610b5c84828501610aee565b91505092915050565b610b6e81610948565b82525050565b6000602082019050610b896000830184610b65565b92915050565b600063ffffffff82169050919050565b610ba881610b8f565b8114610bb357600080fd5b50565b600081359050610bc581610b9f565b92915050565b600080600060608486031215610be457610be361093e565b5b600084013567ffffffffffffffff811115610c0257610c01610943565b5b610c0e86828701610aee565b935050602084013567ffffffffffffffff811115610c2f57610c2e610943565b5b610c3b86828701610aee565b9250506040610c4c86828701610bb6565b9150509250925092565b610c5f816109ab565b8114610c6a57600080fd5b50565b600081359050610c7c81610c56565b92915050565b600060208284031215610c9857610c9761093e565b5b6000610ca684828501610c6d565b91505092915050565b7f4e487b7100000000000000000000000000000000000000000000000000000000600052602260045260246000fd5b60006002820490506001821680610cf657607f821691505b602082108103610d0957610d08610caf565b5b50919050565b60008190508160005260206000209050919050565b60006020601f8301049050919050565b600082821b905092915050565b600060088302610d717fffffffffffffffffffffffffffffffffffffffffffffffffffffffffffffffff82610d34565b610d7b8683610d34565b95508019841693508086168417925050509392505050565b6000610dae610da9610da484610948565b6108ba565b610948565b9050919050565b6000819050919050565b610dc883610d93565b610ddc610dd482610db5565b848454610d41565b825550505050565b600090565b610df1610de4565b610dfc818484610dbf565b505050565b5b81811015610e2057610e15600082610de9565b600181019050610e02565b5050565b601f821115610e6557610e3681610d0f565b610e3f84610d24565b81016020851015610e4e578190505b610e62610e5a85610d24565b830182610e01565b50505b505050565b600082821c905092915050565b6000610e8860001984600802610e6a565b1980831691505092915050565b6000610ea18383610e77565b9150826002028217905092915050565b610eba826107e8565b67ffffffffffffffff811115610ed357610ed26109f1565b5b610edd8254610cde565b610ee8828285610e24565b600060209050601f831160018114610f1b5760008415610f09578287015190505b610f138582610e95565b865550610f7b565b601f198416610f2986610d0f565b60005b82811015610f5157848901518255600182019150602085019450602081019050610f2c565b86831015610f6e5784890151610f6a601f891682610e77565b8355505b6001600288020188555050505b505050505050565b60008115159050919050565b610f9881610f83565b8114610fa357600080fd5b50565b600081519050610fb581610f8f565b92915050565b600060208284031215610fd157610fd061093e565b5b6000610fdf84828501610fa6565b91505092915050565b7f4e6f2041646d696e4e4654202d3e206e6f7420616c6c6f77656420746f20637260008201527f6561746520612044657669636500000000000000000000000000000000000000602082015250565b6000611044602d836107f3565b915061104f82610fe8565b604082019050919050565b6000602082019050818103600083015261107381611037565b9050919050565b600061109561109061108b84610b8f565b6108ba565b610948565b9050919050565b6110a58161107a565b82525050565b60006110b68261089a565b9050919050565b6110c6816110ab565b82525050565b600060c08201905081810360008301526110e6818961083f565b905081810360208301526110fa818861083f565b9050611109604083018761109c565b61111660608301866110bd565b61112360808301856109bd565b61113060a08301846109bd565b979650505050505050565b60008151905061114a81610c56565b92915050565b6000602082840312156111665761116561093e565b5b60006111748482850161113b565b91505092915050565b60006040820190508181036000830152611197818561083f565b905081810360208301526111ab818461083f565b90509392505050565b7f4e487b7100000000000000000000000000000000000000000000000000000000600052605160045260246000fdfe7570646174654e616d652063616c6c65642073756363657366756c6c792077697468206e616d65203a20a2646970667358221220a500c48b5a2acda65e38055bd5f55ec0a00a8831252fa384206957ef9c363dcb64736f6c63430008180033a26469706673582212205efebfde041be1307d10c07e3d783508bf0e5788c9c257d8866c36455321d6f664736f6c63430008180033",
  "linkReferences": {},
  "deployedLinkReferences": {}
}