{
  "_format": "hh-sol-artifact-1",
  "contractName": "Device",
  "sourceName": "contracts/Device.sol",
  "abi": [
    {
      "inputs": [
        {
          "internalType": "uint256",
          "name": "_id",
          "type": "uint256"
        },
        {
          "internalType": "string",
          "name": "_name",
          "type": "string"
        },
        {
          "internalType": "address",
          "name": "_actionFactoryAddress",
          "type": "address"
        },
        {
          "internalType": "address",
          "name": "_deviceOwner",
          "type": "address"
        },
        {
          "internalType": "address",
          "name": "_organisationAddress",
          "type": "address"
        }
      ],
      "stateMutability": "nonpayable",
      "type": "constructor"
    },
    {
      "inputs": [
        {
          "internalType": "address",
          "name": "owner",
          "type": "address"
        }
      ],
      "name": "OwnableInvalidOwner",
      "type": "error"
    },
    {
      "inputs": [
        {
          "internalType": "address",
          "name": "account",
          "type": "address"
        }
      ],
      "name": "OwnableUnauthorizedAccount",
      "type": "error"
    },
    {
      "anonymous": false,
      "inputs": [
        {
          "indexed": true,
          "internalType": "address",
          "name": "previousOwner",
          "type": "address"
        },
        {
          "indexed": true,
          "internalType": "address",
          "name": "newOwner",
          "type": "address"
        }
      ],
      "name": "OwnershipTransferred",
      "type": "event"
    },
    {
      "inputs": [],
      "name": "actionFactory",
      "outputs": [
        {
          "internalType": "contract ActionFactory",
          "name": "",
          "type": "address"
        }
      ],
      "stateMutability": "view",
      "type": "function"
    },
    {
      "inputs": [
        {
          "internalType": "uint256",
          "name": "",
          "type": "uint256"
        }
      ],
      "name": "actionToDevice",
      "outputs": [
        {
          "internalType": "address",
          "name": "",
          "type": "address"
        }
      ],
      "stateMutability": "view",
      "type": "function"
    },
    {
      "inputs": [
        {
          "internalType": "string",
          "name": "_name",
          "type": "string"
        },
        {
          "internalType": "string",
          "name": "_unit",
          "type": "string"
        },
        {
          "internalType": "uint32",
          "name": "_pricePerUnit",
          "type": "uint32"
        }
      ],
      "name": "addAction",
      "outputs": [
        {
          "internalType": "address",
          "name": "",
          "type": "address"
        }
      ],
      "stateMutability": "nonpayable",
      "type": "function"
    },
    {
      "inputs": [],
      "name": "id",
      "outputs": [
        {
          "internalType": "uint256",
          "name": "",
          "type": "uint256"
        }
      ],
      "stateMutability": "view",
      "type": "function"
    },
    {
      "inputs": [],
      "name": "name",
      "outputs": [
        {
          "internalType": "string",
          "name": "",
          "type": "string"
        }
      ],
      "stateMutability": "view",
      "type": "function"
    },
    {
      "inputs": [],
      "name": "owner",
      "outputs": [
        {
          "internalType": "address",
          "name": "",
          "type": "address"
        }
      ],
      "stateMutability": "view",
      "type": "function"
    },
    {
      "inputs": [],
      "name": "renounceOwnership",
      "outputs": [],
      "stateMutability": "nonpayable",
      "type": "function"
    },
    {
      "inputs": [
        {
          "internalType": "address",
          "name": "newOwner",
          "type": "address"
        }
      ],
      "name": "transferOwnership",
      "outputs": [],
      "stateMutability": "nonpayable",
      "type": "function"
    },
    {
      "inputs": [
        {
          "internalType": "string",
          "name": "_newName",
          "type": "string"
        }
      ],
      "name": "updateName",
      "outputs": [],
      "stateMutability": "nonpayable",
      "type": "function"
    }
  ],
  "bytecode": "0x60806040523480156200001157600080fd5b5060405162001aac38038062001aac83398181016040528101906200003791906200045c565b81600073ffffffffffffffffffffffffffffffffffffffff168173ffffffffffffffffffffffffffffffffffffffff1603620000ad5760006040517f1e4fbdf7000000000000000000000000000000000000000000000000000000008152600401620000a4919062000514565b60405180910390fd5b620000be816200016560201b60201c565b50846001819055508360029081620000d7919062000772565b5082600360006101000a81548173ffffffffffffffffffffffffffffffffffffffff021916908373ffffffffffffffffffffffffffffffffffffffff16021790555080600460006101000a81548173ffffffffffffffffffffffffffffffffffffffff021916908373ffffffffffffffffffffffffffffffffffffffff160217905550505050505062000859565b60008060009054906101000a900473ffffffffffffffffffffffffffffffffffffffff169050816000806101000a81548173ffffffffffffffffffffffffffffffffffffffff021916908373ffffffffffffffffffffffffffffffffffffffff1602179055508173ffffffffffffffffffffffffffffffffffffffff168173ffffffffffffffffffffffffffffffffffffffff167f8be0079c531659141344cd1fd0a4f28419497f9722a3daafe3b4186f6b6457e060405160405180910390a35050565b6000604051905090565b600080fd5b600080fd5b6000819050919050565b62000252816200023d565b81146200025e57600080fd5b50565b600081519050620002728162000247565b92915050565b600080fd5b600080fd5b6000601f19601f8301169050919050565b7f4e487b7100000000000000000000000000000000000000000000000000000000600052604160045260246000fd5b620002cd8262000282565b810181811067ffffffffffffffff82111715620002ef57620002ee62000293565b5b80604052505050565b60006200030462000229565b9050620003128282620002c2565b919050565b600067ffffffffffffffff82111562000335576200033462000293565b5b620003408262000282565b9050602081019050919050565b60005b838110156200036d57808201518184015260208101905062000350565b60008484015250505050565b6000620003906200038a8462000317565b620002f8565b905082815260208101848484011115620003af57620003ae6200027d565b5b620003bc8482856200034d565b509392505050565b600082601f830112620003dc57620003db62000278565b5b8151620003ee84826020860162000379565b91505092915050565b600073ffffffffffffffffffffffffffffffffffffffff82169050919050565b60006200042482620003f7565b9050919050565b620004368162000417565b81146200044257600080fd5b50565b60008151905062000456816200042b565b92915050565b600080600080600060a086880312156200047b576200047a62000233565b5b60006200048b8882890162000261565b955050602086015167ffffffffffffffff811115620004af57620004ae62000238565b5b620004bd88828901620003c4565b9450506040620004d08882890162000445565b9350506060620004e38882890162000445565b9250506080620004f68882890162000445565b9150509295509295909350565b6200050e8162000417565b82525050565b60006020820190506200052b600083018462000503565b92915050565b600081519050919050565b7f4e487b7100000000000000000000000000000000000000000000000000000000600052602260045260246000fd5b600060028204905060018216806200058457607f821691505b6020821081036200059a57620005996200053c565b5b50919050565b60008190508160005260206000209050919050565b60006020601f8301049050919050565b600082821b905092915050565b600060088302620006047fffffffffffffffffffffffffffffffffffffffffffffffffffffffffffffffff82620005c5565b620006108683620005c5565b95508019841693508086168417925050509392505050565b6000819050919050565b6000620006536200064d62000647846200023d565b62000628565b6200023d565b9050919050565b6000819050919050565b6200066f8362000632565b620006876200067e826200065a565b848454620005d2565b825550505050565b600090565b6200069e6200068f565b620006ab81848462000664565b505050565b5b81811015620006d357620006c760008262000694565b600181019050620006b1565b5050565b601f8211156200072257620006ec81620005a0565b620006f784620005b5565b8101602085101562000707578190505b6200071f6200071685620005b5565b830182620006b0565b50505b505050565b600082821c905092915050565b6000620007476000198460080262000727565b1980831691505092915050565b600062000762838362000734565b9150826002028217905092915050565b6200077d8262000531565b67ffffffffffffffff81111562000799576200079862000293565b5b620007a582546200056b565b620007b2828285620006d7565b600060209050601f831160018114620007ea5760008415620007d5578287015190505b620007e1858262000754565b86555062000851565b601f198416620007fa86620005a0565b60005b828110156200082457848901518255600182019150602085019450602081019050620007fd565b8683101562000844578489015162000840601f89168262000734565b8355505b6001600288020188555050505b505050505050565b61124380620008696000396000f3fe608060405234801561001057600080fd5b50600436106100935760003560e01c806384da92a71161006657806384da92a71461010e5780638da5cb5b1461012a578063af640d0f14610148578063b510651014610166578063f2fde38b1461019657610093565b806306fdde03146100985780636195ef61146100b6578063715018a6146100d457806374100873146100de575b600080fd5b6100a06101b2565b6040516100ad9190610878565b60405180910390f35b6100be610240565b6040516100cb9190610919565b60405180910390f35b6100dc610266565b005b6100f860048036038101906100f3919061097e565b61027a565b60405161010591906109cc565b60405180910390f35b61012860048036038101906101239190610b1c565b6102ad565b005b6101326102ea565b60405161013f91906109cc565b60405180910390f35b610150610313565b60405161015d9190610b74565b60405180910390f35b610180600480360381019061017b9190610bcb565b610319565b60405161018d91906109cc565b60405180910390f35b6101b060048036038101906101ab9190610c82565b610523565b005b600280546101bf90610cde565b80601f01602080910402602001604051908101604052809291908181526020018280546101eb90610cde565b80156102385780601f1061020d57610100808354040283529160200191610238565b820191906000526020600020905b81548152906001019060200180831161021b57829003601f168201915b505050505081565b600360009054906101000a900473ffffffffffffffffffffffffffffffffffffffff1681565b61026e6105a9565b6102786000610630565b565b60056020528060005260406000206000915054906101000a900473ffffffffffffffffffffffffffffffffffffffff1681565b6102b56105a9565b6102d76040518060600160405280602a81526020016111e4602a9139826106f4565b80600290816102e69190610eb1565b5050565b60008060009054906101000a900473ffffffffffffffffffffffffffffffffffffffff16905090565b60015481565b6000600460009054906101000a900473ffffffffffffffffffffffffffffffffffffffff1673ffffffffffffffffffffffffffffffffffffffff166324d7806c336040518263ffffffff1660e01b815260040161037691906109cc565b602060405180830381865afa158015610393573d6000803e3d6000fd5b505050506040513d601f19601f820116820180604052508101906103b79190610fbb565b6103f6576040517f08c379a00000000000000000000000000000000000000000000000000000000081526004016103ed9061105a565b60405180910390fd5b6000600360009054906101000a900473ffffffffffffffffffffffffffffffffffffffff1673ffffffffffffffffffffffffffffffffffffffff166329ebacd38686863033600460009054906101000a900473ffffffffffffffffffffffffffffffffffffffff166040518763ffffffff1660e01b815260040161047f969594939291906110cc565b6020604051808303816000875af115801561049e573d6000803e3d6000fd5b505050506040513d601f19601f820116820180604052508101906104c29190611150565b90508060056000600154815260200190815260200160002060006101000a81548173ffffffffffffffffffffffffffffffffffffffff021916908373ffffffffffffffffffffffffffffffffffffffff160217905550809150509392505050565b61052b6105a9565b600073ffffffffffffffffffffffffffffffffffffffff168173ffffffffffffffffffffffffffffffffffffffff160361059d5760006040517f1e4fbdf700000000000000000000000000000000000000000000000000000000815260040161059491906109cc565b60405180910390fd5b6105a681610630565b50565b6105b1610790565b73ffffffffffffffffffffffffffffffffffffffff166105cf6102ea565b73ffffffffffffffffffffffffffffffffffffffff161461062e576105f2610790565b6040517f118cdaa700000000000000000000000000000000000000000000000000000000815260040161062591906109cc565b60405180910390fd5b565b60008060009054906101000a900473ffffffffffffffffffffffffffffffffffffffff169050816000806101000a81548173ffffffffffffffffffffffffffffffffffffffff021916908373ffffffffffffffffffffffffffffffffffffffff1602179055508173ffffffffffffffffffffffffffffffffffffffff168173ffffffffffffffffffffffffffffffffffffffff167f8be0079c531659141344cd1fd0a4f28419497f9722a3daafe3b4186f6b6457e060405160405180910390a35050565b61078c828260405160240161070a92919061117d565b6040516020818303038152906040527f4b5c4277000000000000000000000000000000000000000000000000000000007bffffffffffffffffffffffffffffffffffffffffffffffffffffffff19166020820180517bffffffffffffffffffffffffffffffffffffffffffffffffffffffff8381831617835250505050610798565b5050565b600033905090565b6107af816107a76107b26107d3565b63ffffffff16565b50565b60006a636f6e736f6c652e6c6f679050600080835160208501845afa505050565b6107de819050919050565b6107e66111b4565b565b600081519050919050565b600082825260208201905092915050565b60005b83811015610822578082015181840152602081019050610807565b60008484015250505050565b6000601f19601f8301169050919050565b600061084a826107e8565b61085481856107f3565b9350610864818560208601610804565b61086d8161082e565b840191505092915050565b60006020820190508181036000830152610892818461083f565b905092915050565b600073ffffffffffffffffffffffffffffffffffffffff82169050919050565b6000819050919050565b60006108df6108da6108d58461089a565b6108ba565b61089a565b9050919050565b60006108f1826108c4565b9050919050565b6000610903826108e6565b9050919050565b610913816108f8565b82525050565b600060208201905061092e600083018461090a565b92915050565b6000604051905090565b600080fd5b600080fd5b6000819050919050565b61095b81610948565b811461096657600080fd5b50565b60008135905061097881610952565b92915050565b6000602082840312156109945761099361093e565b5b60006109a284828501610969565b91505092915050565b60006109b68261089a565b9050919050565b6109c6816109ab565b82525050565b60006020820190506109e160008301846109bd565b92915050565b600080fd5b600080fd5b7f4e487b7100000000000000000000000000000000000000000000000000000000600052604160045260246000fd5b610a298261082e565b810181811067ffffffffffffffff82111715610a4857610a476109f1565b5b80604052505050565b6000610a5b610934565b9050610a678282610a20565b919050565b600067ffffffffffffffff821115610a8757610a866109f1565b5b610a908261082e565b9050602081019050919050565b82818337600083830152505050565b6000610abf610aba84610a6c565b610a51565b905082815260208101848484011115610adb57610ada6109ec565b5b610ae6848285610a9d565b509392505050565b600082601f830112610b0357610b026109e7565b5b8135610b13848260208601610aac565b91505092915050565b600060208284031215610b3257610b3161093e565b5b600082013567ffffffffffffffff811115610b5057610b4f610943565b5b610b5c84828501610aee565b91505092915050565b610b6e81610948565b82525050565b6000602082019050610b896000830184610b65565b92915050565b600063ffffffff82169050919050565b610ba881610b8f565b8114610bb357600080fd5b50565b600081359050610bc581610b9f565b92915050565b600080600060608486031215610be457610be361093e565b5b600084013567ffffffffffffffff811115610c0257610c01610943565b5b610c0e86828701610aee565b935050602084013567ffffffffffffffff811115610c2f57610c2e610943565b5b610c3b86828701610aee565b9250506040610c4c86828701610bb6565b9150509250925092565b610c5f816109ab565b8114610c6a57600080fd5b50565b600081359050610c7c81610c56565b92915050565b600060208284031215610c9857610c9761093e565b5b6000610ca684828501610c6d565b91505092915050565b7f4e487b7100000000000000000000000000000000000000000000000000000000600052602260045260246000fd5b60006002820490506001821680610cf657607f821691505b602082108103610d0957610d08610caf565b5b50919050565b60008190508160005260206000209050919050565b60006020601f8301049050919050565b600082821b905092915050565b600060088302610d717fffffffffffffffffffffffffffffffffffffffffffffffffffffffffffffffff82610d34565b610d7b8683610d34565b95508019841693508086168417925050509392505050565b6000610dae610da9610da484610948565b6108ba565b610948565b9050919050565b6000819050919050565b610dc883610d93565b610ddc610dd482610db5565b848454610d41565b825550505050565b600090565b610df1610de4565b610dfc818484610dbf565b505050565b5b81811015610e2057610e15600082610de9565b600181019050610e02565b5050565b601f821115610e6557610e3681610d0f565b610e3f84610d24565b81016020851015610e4e578190505b610e62610e5a85610d24565b830182610e01565b50505b505050565b600082821c905092915050565b6000610e8860001984600802610e6a565b1980831691505092915050565b6000610ea18383610e77565b9150826002028217905092915050565b610eba826107e8565b67ffffffffffffffff811115610ed357610ed26109f1565b5b610edd8254610cde565b610ee8828285610e24565b600060209050601f831160018114610f1b5760008415610f09578287015190505b610f138582610e95565b865550610f7b565b601f198416610f2986610d0f565b60005b82811015610f5157848901518255600182019150602085019450602081019050610f2c565b86831015610f6e5784890151610f6a601f891682610e77565b8355505b6001600288020188555050505b505050505050565b60008115159050919050565b610f9881610f83565b8114610fa357600080fd5b50565b600081519050610fb581610f8f565b92915050565b600060208284031215610fd157610fd061093e565b5b6000610fdf84828501610fa6565b91505092915050565b7f4e6f2041646d696e4e4654202d3e206e6f7420616c6c6f77656420746f20637260008201527f6561746520612044657669636500000000000000000000000000000000000000602082015250565b6000611044602d836107f3565b915061104f82610fe8565b604082019050919050565b6000602082019050818103600083015261107381611037565b9050919050565b600061109561109061108b84610b8f565b6108ba565b610948565b9050919050565b6110a58161107a565b82525050565b60006110b68261089a565b9050919050565b6110c6816110ab565b82525050565b600060c08201905081810360008301526110e6818961083f565b905081810360208301526110fa818861083f565b9050611109604083018761109c565b61111660608301866110bd565b61112360808301856109bd565b61113060a08301846109bd565b979650505050505050565b60008151905061114a81610c56565b92915050565b6000602082840312156111665761116561093e565b5b60006111748482850161113b565b91505092915050565b60006040820190508181036000830152611197818561083f565b905081810360208301526111ab818461083f565b90509392505050565b7f4e487b7100000000000000000000000000000000000000000000000000000000600052605160045260246000fdfe7570646174654e616d652063616c6c65642073756363657366756c6c792077697468206e616d65203a20a2646970667358221220a500c48b5a2acda65e38055bd5f55ec0a00a8831252fa384206957ef9c363dcb64736f6c63430008180033",
  "linkReferences": {},
  "deployedLinkReferences": {}
}