{
  "_format": "hh-sol-artifact-1",
  "contractName": "DeviceFactory",
  "sourceName": "contracts/DeviceFactory.sol",
  "abi": [
    {
      "anonymous": false,
      "inputs": [
        {
          "indexed": true,
          "internalType": "address",
          "name": "action",
          "type": "address"
        },
        {
          "indexed": true,
          "internalType": "uint256",
          "name": "id",
          "type": "uint256"
        },
        {
          "indexed": false,
          "internalType": "string",
          "name": "name",
          "type": "string"
        },
        {
          "indexed": false,
          "internalType": "address",
          "name": "actionFactoryAddress",
          "type": "address"
        }
      ],
      "name": "DeviceCreated",
      "type": "event"
    },
    {
      "inputs": [
        {
          "internalType": "string",
          "name": "_name",
          "type": "string"
        },
        {
          "internalType": "address",
          "name": "_actionFactoryAddress",
          "type": "address"
        },
        {
          "internalType": "address",
          "name": "_organizationAddress",
          "type": "address"
        }
      ],
      "name": "createDevice",
      "outputs": [
        {
          "internalType": "address",
          "name": "",
          "type": "address"
        }
      ],
      "stateMutability": "nonpayable",
      "type": "function"
    },
    {
      "inputs": [],
      "name": "deviceCounter",
      "outputs": [
        {
          "internalType": "uint256",
          "name": "",
          "type": "uint256"
        }
      ],
      "stateMutability": "view",
      "type": "function"
    },
    {
      "inputs": [
        {
          "internalType": "address",
          "name": "_organizationAddress",
          "type": "address"
        }
      ],
      "name": "getDevices",
      "outputs": [
        {
          "components": [
            {
              "internalType": "address",
              "name": "deviceAddress",
              "type": "address"
            },
            {
              "internalType": "uint256",
              "name": "id",
              "type": "uint256"
            },
            {
              "internalType": "string",
              "name": "name",
              "type": "string"
            },
            {
              "internalType": "address",
              "name": "actionFactoryAddress",
              "type": "address"
            },
            {
              "internalType": "address",
              "name": "organisationAddress",
              "type": "address"
            }
          ],
          "internalType": "struct DeviceFactory.DeviceInfo[]",
          "name": "",
          "type": "tuple[]"
        }
      ],
      "stateMutability": "view",
      "type": "function"
    }
  ],
  "bytecode": "0x60806040526001805534801561001457600080fd5b50612a3b806100246000396000f3fe60806040523480156200001157600080fd5b5060043610620000465760003560e01c8063417b26e0146200004b5780636f200dbb1462000081578063a4cc73ca14620000b7575b600080fd5b6200006960048036038101906200006391906200088e565b620000d9565b60405162000078919062000ad6565b60405180910390f35b6200009f600480360381019062000099919062000c4b565b62000493565b604051620000ae919062000cd7565b60405180910390f35b620000c162000790565b604051620000d0919062000d05565b60405180910390f35b606060008273ffffffffffffffffffffffffffffffffffffffff166370a08231336040518263ffffffff1660e01b815260040162000118919062000cd7565b602060405180830381865afa15801562000136573d6000803e3d6000fd5b505050506040513d601f19601f820116820180604052508101906200015c919062000d53565b116200019f576040517f08c379a0000000000000000000000000000000000000000000000000000000008152600401620001969062000e0c565b60405180910390fd5b600060018054620001b1919062000e5d565b67ffffffffffffffff811115620001cd57620001cc62000b04565b5b6040519080825280602002602001820160405280156200020a57816020015b620001f662000796565b815260200190600190039081620001ec5790505b5090506000600190505b60015481101562000489578373ffffffffffffffffffffffffffffffffffffffff1660008083815260200190815260200160002060040160009054906101000a900473ffffffffffffffffffffffffffffffffffffffff1673ffffffffffffffffffffffffffffffffffffffff16036200047b576000808281526020019081526020016000206040518060a00160405290816000820160009054906101000a900473ffffffffffffffffffffffffffffffffffffffff1673ffffffffffffffffffffffffffffffffffffffff1673ffffffffffffffffffffffffffffffffffffffff16815260200160018201548152602001600282018054620003179062000ec7565b80601f0160208091040260200160405190810160405280929190818152602001828054620003459062000ec7565b8015620003965780601f106200036a5761010080835404028352916020019162000396565b820191906000526020600020905b8154815290600101906020018083116200037857829003601f168201915b505050505081526020016003820160009054906101000a900473ffffffffffffffffffffffffffffffffffffffff1673ffffffffffffffffffffffffffffffffffffffff1673ffffffffffffffffffffffffffffffffffffffff1681526020016004820160009054906101000a900473ffffffffffffffffffffffffffffffffffffffff1673ffffffffffffffffffffffffffffffffffffffff1673ffffffffffffffffffffffffffffffffffffffff1681525050826001836200045b919062000e5d565b815181106200046f576200046e62000efc565b5b60200260200101819052505b808060010191505062000214565b5080915050919050565b60008173ffffffffffffffffffffffffffffffffffffffff166324d7806c336040518263ffffffff1660e01b8152600401620004d0919062000cd7565b602060405180830381865afa158015620004ee573d6000803e3d6000fd5b505050506040513d601f19601f8201168201806040525081019062000514919062000f68565b62000556576040517f08c379a00000000000000000000000000000000000000000000000000000000081526004016200054d9062001010565b60405180910390fd5b6000600154858533866040516200056d9062000807565b6200057d95949392919062001073565b604051809103906000f0801580156200059a573d6000803e3d6000fd5b5090506001548173ffffffffffffffffffffffffffffffffffffffff167ff4d744422502ef200369b5b899e83e2e4724bd0f21cb754b5523e5b39ace6e0a8787604051620005ea929190620010d7565b60405180910390a36040518060a001604052808273ffffffffffffffffffffffffffffffffffffffff16815260200160015481526020018681526020018573ffffffffffffffffffffffffffffffffffffffff1681526020018473ffffffffffffffffffffffffffffffffffffffff16815250600080600154815260200190815260200160002060008201518160000160006101000a81548173ffffffffffffffffffffffffffffffffffffffff021916908373ffffffffffffffffffffffffffffffffffffffff160217905550602082015181600101556040820151816002019081620006d99190620012dd565b5060608201518160030160006101000a81548173ffffffffffffffffffffffffffffffffffffffff021916908373ffffffffffffffffffffffffffffffffffffffff16021790555060808201518160040160006101000a81548173ffffffffffffffffffffffffffffffffffffffff021916908373ffffffffffffffffffffffffffffffffffffffff160217905550905050600160008154809291906200078090620013c4565b9190505550809150509392505050565b60015481565b6040518060a00160405280600073ffffffffffffffffffffffffffffffffffffffff1681526020016000815260200160608152602001600073ffffffffffffffffffffffffffffffffffffffff168152602001600073ffffffffffffffffffffffffffffffffffffffff1681525090565b6115f4806200141283390190565b6000604051905090565b600080fd5b600080fd5b600073ffffffffffffffffffffffffffffffffffffffff82169050919050565b6000620008568262000829565b9050919050565b620008688162000849565b81146200087457600080fd5b50565b60008135905062000888816200085d565b92915050565b600060208284031215620008a757620008a66200081f565b5b6000620008b78482850162000877565b91505092915050565b600081519050919050565b600082825260208201905092915050565b6000819050602082019050919050565b620008f78162000849565b82525050565b6000819050919050565b6200091281620008fd565b82525050565b600081519050919050565b600082825260208201905092915050565b60005b838110156200095457808201518184015260208101905062000937565b60008484015250505050565b6000601f19601f8301169050919050565b60006200097e8262000918565b6200098a818562000923565b93506200099c81856020860162000934565b620009a78162000960565b840191505092915050565b600060a083016000830151620009cc6000860182620008ec565b506020830151620009e1602086018262000907565b5060408301518482036040860152620009fb828262000971565b915050606083015162000a126060860182620008ec565b50608083015162000a276080860182620008ec565b508091505092915050565b600062000a408383620009b2565b905092915050565b6000602082019050919050565b600062000a6282620008c0565b62000a6e8185620008cb565b93508360208202850162000a8285620008dc565b8060005b8581101562000ac4578484038952815162000aa2858262000a32565b945062000aaf8362000a48565b925060208a0199505060018101905062000a86565b50829750879550505050505092915050565b6000602082019050818103600083015262000af2818462000a55565b905092915050565b600080fd5b600080fd5b7f4e487b7100000000000000000000000000000000000000000000000000000000600052604160045260246000fd5b62000b3e8262000960565b810181811067ffffffffffffffff8211171562000b605762000b5f62000b04565b5b80604052505050565b600062000b7562000815565b905062000b83828262000b33565b919050565b600067ffffffffffffffff82111562000ba65762000ba562000b04565b5b62000bb18262000960565b9050602081019050919050565b82818337600083830152505050565b600062000be462000bde8462000b88565b62000b69565b90508281526020810184848401111562000c035762000c0262000aff565b5b62000c1084828562000bbe565b509392505050565b600082601f83011262000c305762000c2f62000afa565b5b813562000c4284826020860162000bcd565b91505092915050565b60008060006060848603121562000c675762000c666200081f565b5b600084013567ffffffffffffffff81111562000c885762000c8762000824565b5b62000c968682870162000c18565b935050602062000ca98682870162000877565b925050604062000cbc8682870162000877565b9150509250925092565b62000cd18162000849565b82525050565b600060208201905062000cee600083018462000cc6565b92915050565b62000cff81620008fd565b82525050565b600060208201905062000d1c600083018462000cf4565b92915050565b62000d2d81620008fd565b811462000d3957600080fd5b50565b60008151905062000d4d8162000d22565b92915050565b60006020828403121562000d6c5762000d6b6200081f565b5b600062000d7c8482850162000d3c565b91505092915050565b600082825260208201905092915050565b7f206e6f20557365724e4654202d3e206e6f7420616c6c6f77656420746f20637260008201527f6561746520616e20446576696365000000000000000000000000000000000000602082015250565b600062000df4602e8362000d85565b915062000e018262000d96565b604082019050919050565b6000602082019050818103600083015262000e278162000de5565b9050919050565b7f4e487b7100000000000000000000000000000000000000000000000000000000600052601160045260246000fd5b600062000e6a82620008fd565b915062000e7783620008fd565b925082820390508181111562000e925762000e9162000e2e565b5b92915050565b7f4e487b7100000000000000000000000000000000000000000000000000000000600052602260045260246000fd5b6000600282049050600182168062000ee057607f821691505b60208210810362000ef65762000ef562000e98565b5b50919050565b7f4e487b7100000000000000000000000000000000000000000000000000000000600052603260045260246000fd5b60008115159050919050565b62000f428162000f2b565b811462000f4e57600080fd5b50565b60008151905062000f628162000f37565b92915050565b60006020828403121562000f815762000f806200081f565b5b600062000f918482850162000f51565b91505092915050565b7f206e6f2041646d696e4e4654202d3e206e6f7420616c6c6f77656420746f206360008201527f726561746520616e204465766963650000000000000000000000000000000000602082015250565b600062000ff8602f8362000d85565b9150620010058262000f9a565b604082019050919050565b600060208201905081810360008301526200102b8162000fe9565b9050919050565b60006200103f8262000918565b6200104b818562000d85565b93506200105d81856020860162000934565b620010688162000960565b840191505092915050565b600060a0820190506200108a600083018862000cf4565b81810360208301526200109e818762001032565b9050620010af604083018662000cc6565b620010be606083018562000cc6565b620010cd608083018462000cc6565b9695505050505050565b60006040820190508181036000830152620010f3818562001032565b905062001104602083018462000cc6565b9392505050565b60008190508160005260206000209050919050565b60006020601f8301049050919050565b600082821b905092915050565b6000600883026200116f7fffffffffffffffffffffffffffffffffffffffffffffffffffffffffffffffff8262001130565b6200117b868362001130565b95508019841693508086168417925050509392505050565b6000819050919050565b6000620011be620011b8620011b284620008fd565b62001193565b620008fd565b9050919050565b6000819050919050565b620011da836200119d565b620011f2620011e982620011c5565b8484546200113d565b825550505050565b600090565b62001209620011fa565b62001216818484620011cf565b505050565b5b818110156200123e5762001232600082620011ff565b6001810190506200121c565b5050565b601f8211156200128d5762001257816200110b565b620012628462001120565b8101602085101562001272578190505b6200128a620012818562001120565b8301826200121b565b50505b505050565b600082821c905092915050565b6000620012b26000198460080262001292565b1980831691505092915050565b6000620012cd83836200129f565b9150826002028217905092915050565b620012e88262000918565b67ffffffffffffffff81111562001304576200130362000b04565b5b62001310825462000ec7565b6200131d82828562001242565b600060209050601f83116001811462001355576000841562001340578287015190505b6200134c8582620012bf565b865550620013bc565b601f19841662001365866200110b565b60005b828110156200138f5784890151825560018201915060208501945060208101905062001368565b86831015620013af5784890151620013ab601f8916826200129f565b8355505b6001600288020188555050505b505050505050565b6000620013d182620008fd565b91507fffffffffffffffffffffffffffffffffffffffffffffffffffffffffffffffff820362001406576200140562000e2e565b5b60018201905091905056fe60806040523480156200001157600080fd5b50604051620015f4380380620015f483398181016040528101906200003791906200045c565b81600073ffffffffffffffffffffffffffffffffffffffff168173ffffffffffffffffffffffffffffffffffffffff1603620000ad5760006040517f1e4fbdf7000000000000000000000000000000000000000000000000000000008152600401620000a4919062000514565b60405180910390fd5b620000be816200016560201b60201c565b50846001819055508360029081620000d7919062000772565b5082600360006101000a81548173ffffffffffffffffffffffffffffffffffffffff021916908373ffffffffffffffffffffffffffffffffffffffff16021790555080600460006101000a81548173ffffffffffffffffffffffffffffffffffffffff021916908373ffffffffffffffffffffffffffffffffffffffff160217905550505050505062000859565b60008060009054906101000a900473ffffffffffffffffffffffffffffffffffffffff169050816000806101000a81548173ffffffffffffffffffffffffffffffffffffffff021916908373ffffffffffffffffffffffffffffffffffffffff1602179055508173ffffffffffffffffffffffffffffffffffffffff168173ffffffffffffffffffffffffffffffffffffffff167f8be0079c531659141344cd1fd0a4f28419497f9722a3daafe3b4186f6b6457e060405160405180910390a35050565b6000604051905090565b600080fd5b600080fd5b6000819050919050565b62000252816200023d565b81146200025e57600080fd5b50565b600081519050620002728162000247565b92915050565b600080fd5b600080fd5b6000601f19601f8301169050919050565b7f4e487b7100000000000000000000000000000000000000000000000000000000600052604160045260246000fd5b620002cd8262000282565b810181811067ffffffffffffffff82111715620002ef57620002ee62000293565b5b80604052505050565b60006200030462000229565b9050620003128282620002c2565b919050565b600067ffffffffffffffff82111562000335576200033462000293565b5b620003408262000282565b9050602081019050919050565b60005b838110156200036d57808201518184015260208101905062000350565b60008484015250505050565b6000620003906200038a8462000317565b620002f8565b905082815260208101848484011115620003af57620003ae6200027d565b5b620003bc8482856200034d565b509392505050565b600082601f830112620003dc57620003db62000278565b5b8151620003ee84826020860162000379565b91505092915050565b600073ffffffffffffffffffffffffffffffffffffffff82169050919050565b60006200042482620003f7565b9050919050565b620004368162000417565b81146200044257600080fd5b50565b60008151905062000456816200042b565b92915050565b600080600080600060a086880312156200047b576200047a62000233565b5b60006200048b8882890162000261565b955050602086015167ffffffffffffffff811115620004af57620004ae62000238565b5b620004bd88828901620003c4565b9450506040620004d08882890162000445565b9350506060620004e38882890162000445565b9250506080620004f68882890162000445565b9150509295509295909350565b6200050e8162000417565b82525050565b60006020820190506200052b600083018462000503565b92915050565b600081519050919050565b7f4e487b7100000000000000000000000000000000000000000000000000000000600052602260045260246000fd5b600060028204905060018216806200058457607f821691505b6020821081036200059a57620005996200053c565b5b50919050565b60008190508160005260206000209050919050565b60006020601f8301049050919050565b600082821b905092915050565b600060088302620006047fffffffffffffffffffffffffffffffffffffffffffffffffffffffffffffffff82620005c5565b620006108683620005c5565b95508019841693508086168417925050509392505050565b6000819050919050565b6000620006536200064d62000647846200023d565b62000628565b6200023d565b9050919050565b6000819050919050565b6200066f8362000632565b620006876200067e826200065a565b848454620005d2565b825550505050565b600090565b6200069e6200068f565b620006ab81848462000664565b505050565b5b81811015620006d357620006c760008262000694565b600181019050620006b1565b5050565b601f8211156200072257620006ec81620005a0565b620006f784620005b5565b8101602085101562000707578190505b6200071f6200071685620005b5565b830182620006b0565b50505b505050565b600082821c905092915050565b6000620007476000198460080262000727565b1980831691505092915050565b600062000762838362000734565b9150826002028217905092915050565b6200077d8262000531565b67ffffffffffffffff81111562000799576200079862000293565b5b620007a582546200056b565b620007b2828285620006d7565b600060209050601f831160018114620007ea5760008415620007d5578287015190505b620007e1858262000754565b86555062000851565b601f198416620007fa86620005a0565b60005b828110156200082457848901518255600182019150602085019450602081019050620007fd565b8683101562000844578489015162000840601f89168262000734565b8355505b6001600288020188555050505b505050505050565b610d8b80620008696000396000f3fe608060405234801561001057600080fd5b50600436106100885760003560e01c80638da5cb5b1161005b5780638da5cb5b14610103578063af640d0f14610121578063b51065101461013f578063f2fde38b1461015b57610088565b806306fdde031461008d5780636195ef61146100ab578063715018a6146100c957806374100873146100d3575b600080fd5b610095610177565b6040516100a2919061070d565b60405180910390f35b6100b3610205565b6040516100c091906107ae565b60405180910390f35b6100d161022b565b005b6100ed60048036038101906100e89190610813565b61023f565b6040516100fa9190610861565b60405180910390f35b61010b610272565b6040516101189190610861565b60405180910390f35b61012961029b565b604051610136919061088b565b60405180910390f35b61015960048036038101906101549190610a17565b6102a1565b005b61017560048036038101906101709190610ace565b6104a4565b005b6002805461018490610b2a565b80601f01602080910402602001604051908101604052809291908181526020018280546101b090610b2a565b80156101fd5780601f106101d2576101008083540402835291602001916101fd565b820191906000526020600020905b8154815290600101906020018083116101e057829003601f168201915b505050505081565b600360009054906101000a900473ffffffffffffffffffffffffffffffffffffffff1681565b61023361052a565b61023d60006105b1565b565b60056020528060005260406000206000915054906101000a900473ffffffffffffffffffffffffffffffffffffffff1681565b60008060009054906101000a900473ffffffffffffffffffffffffffffffffffffffff16905090565b60015481565b600460009054906101000a900473ffffffffffffffffffffffffffffffffffffffff1673ffffffffffffffffffffffffffffffffffffffff166324d7806c336040518263ffffffff1660e01b81526004016102fc9190610861565b602060405180830381865afa158015610319573d6000803e3d6000fd5b505050506040513d601f19601f8201168201806040525081019061033d9190610b93565b61037c576040517f08c379a000000000000000000000000000000000000000000000000000000000815260040161037390610c32565b60405180910390fd5b6000600360009054906101000a900473ffffffffffffffffffffffffffffffffffffffff1673ffffffffffffffffffffffffffffffffffffffff166329ebacd38585853033600460009054906101000a900473ffffffffffffffffffffffffffffffffffffffff166040518763ffffffff1660e01b815260040161040596959493929190610ca4565b6020604051808303816000875af1158015610424573d6000803e3d6000fd5b505050506040513d601f19601f820116820180604052508101906104489190610d28565b90508060056000600154815260200190815260200160002060006101000a81548173ffffffffffffffffffffffffffffffffffffffff021916908373ffffffffffffffffffffffffffffffffffffffff16021790555050505050565b6104ac61052a565b600073ffffffffffffffffffffffffffffffffffffffff168173ffffffffffffffffffffffffffffffffffffffff160361051e5760006040517f1e4fbdf70000000000000000000000000000000000000000000000000000000081526004016105159190610861565b60405180910390fd5b610527816105b1565b50565b610532610675565b73ffffffffffffffffffffffffffffffffffffffff16610550610272565b73ffffffffffffffffffffffffffffffffffffffff16146105af57610573610675565b6040517f118cdaa70000000000000000000000000000000000000000000000000000000081526004016105a69190610861565b60405180910390fd5b565b60008060009054906101000a900473ffffffffffffffffffffffffffffffffffffffff169050816000806101000a81548173ffffffffffffffffffffffffffffffffffffffff021916908373ffffffffffffffffffffffffffffffffffffffff1602179055508173ffffffffffffffffffffffffffffffffffffffff168173ffffffffffffffffffffffffffffffffffffffff167f8be0079c531659141344cd1fd0a4f28419497f9722a3daafe3b4186f6b6457e060405160405180910390a35050565b600033905090565b600081519050919050565b600082825260208201905092915050565b60005b838110156106b757808201518184015260208101905061069c565b60008484015250505050565b6000601f19601f8301169050919050565b60006106df8261067d565b6106e98185610688565b93506106f9818560208601610699565b610702816106c3565b840191505092915050565b6000602082019050818103600083015261072781846106d4565b905092915050565b600073ffffffffffffffffffffffffffffffffffffffff82169050919050565b6000819050919050565b600061077461076f61076a8461072f565b61074f565b61072f565b9050919050565b600061078682610759565b9050919050565b60006107988261077b565b9050919050565b6107a88161078d565b82525050565b60006020820190506107c3600083018461079f565b92915050565b6000604051905090565b600080fd5b600080fd5b6000819050919050565b6107f0816107dd565b81146107fb57600080fd5b50565b60008135905061080d816107e7565b92915050565b600060208284031215610829576108286107d3565b5b6000610837848285016107fe565b91505092915050565b600061084b8261072f565b9050919050565b61085b81610840565b82525050565b60006020820190506108766000830184610852565b92915050565b610885816107dd565b82525050565b60006020820190506108a0600083018461087c565b92915050565b600080fd5b600080fd5b7f4e487b7100000000000000000000000000000000000000000000000000000000600052604160045260246000fd5b6108e8826106c3565b810181811067ffffffffffffffff82111715610907576109066108b0565b5b80604052505050565b600061091a6107c9565b905061092682826108df565b919050565b600067ffffffffffffffff821115610946576109456108b0565b5b61094f826106c3565b9050602081019050919050565b82818337600083830152505050565b600061097e6109798461092b565b610910565b90508281526020810184848401111561099a576109996108ab565b5b6109a584828561095c565b509392505050565b600082601f8301126109c2576109c16108a6565b5b81356109d284826020860161096b565b91505092915050565b600063ffffffff82169050919050565b6109f4816109db565b81146109ff57600080fd5b50565b600081359050610a11816109eb565b92915050565b600080600060608486031215610a3057610a2f6107d3565b5b600084013567ffffffffffffffff811115610a4e57610a4d6107d8565b5b610a5a868287016109ad565b935050602084013567ffffffffffffffff811115610a7b57610a7a6107d8565b5b610a87868287016109ad565b9250506040610a9886828701610a02565b9150509250925092565b610aab81610840565b8114610ab657600080fd5b50565b600081359050610ac881610aa2565b92915050565b600060208284031215610ae457610ae36107d3565b5b6000610af284828501610ab9565b91505092915050565b7f4e487b7100000000000000000000000000000000000000000000000000000000600052602260045260246000fd5b60006002820490506001821680610b4257607f821691505b602082108103610b5557610b54610afb565b5b50919050565b60008115159050919050565b610b7081610b5b565b8114610b7b57600080fd5b50565b600081519050610b8d81610b67565b92915050565b600060208284031215610ba957610ba86107d3565b5b6000610bb784828501610b7e565b91505092915050565b7f206e6f2041646d696e4e4654202d3e206e6f7420616c6c6f77656420746f206360008201527f726561746520616e204465766963650000000000000000000000000000000000602082015250565b6000610c1c602f83610688565b9150610c2782610bc0565b604082019050919050565b60006020820190508181036000830152610c4b81610c0f565b9050919050565b6000610c6d610c68610c63846109db565b61074f565b6107dd565b9050919050565b610c7d81610c52565b82525050565b6000610c8e8261072f565b9050919050565b610c9e81610c83565b82525050565b600060c0820190508181036000830152610cbe81896106d4565b90508181036020830152610cd281886106d4565b9050610ce16040830187610c74565b610cee6060830186610c95565b610cfb6080830185610852565b610d0860a0830184610852565b979650505050505050565b600081519050610d2281610aa2565b92915050565b600060208284031215610d3e57610d3d6107d3565b5b6000610d4c84828501610d13565b9150509291505056fea26469706673582212204a0de9eb27ca9863e571ac8220446d77547b7d5a4e7b9bc4c80ba7d114ea7feb64736f6c63430008180033a264697066735822122003c7be730adbd06e6320097baf66aebb2241af8a29f3088de2e44a84078e849b64736f6c63430008180033",
  "linkReferences": {},
  "deployedLinkReferences": {}
}