{
  "_format": "hh-sol-artifact-1",
  "contractName": "DeviceFactory",
  "sourceName": "contracts/DeviceFactory.sol",
  "abi": [
    {
      "anonymous": false,
      "inputs": [
        {
          "indexed": true,
          "internalType": "address",
          "name": "device",
          "type": "address"
        },
        {
          "indexed": true,
          "internalType": "uint256",
          "name": "id",
          "type": "uint256"
        },
        {
          "indexed": false,
          "internalType": "string",
          "name": "name",
          "type": "string"
        },
        {
          "indexed": false,
          "internalType": "address",
          "name": "actionFactoryAddress",
          "type": "address"
        }
      ],
      "name": "DeviceCreated",
      "type": "event"
    },
    {
      "anonymous": false,
      "inputs": [
        {
          "indexed": true,
          "internalType": "uint256",
          "name": "id",
          "type": "uint256"
        }
      ],
      "name": "DeviceDeleted",
      "type": "event"
    },
    {
      "anonymous": false,
      "inputs": [
        {
          "indexed": true,
          "internalType": "uint256",
          "name": "id",
          "type": "uint256"
        },
        {
          "indexed": false,
          "internalType": "string",
          "name": "newName",
          "type": "string"
        }
      ],
      "name": "DeviceUpdated",
      "type": "event"
    },
    {
      "inputs": [
        {
          "internalType": "string",
          "name": "_name",
          "type": "string"
        },
        {
          "internalType": "address",
          "name": "_actionFactoryAddress",
          "type": "address"
        },
        {
          "internalType": "address",
          "name": "_organizationAddress",
          "type": "address"
        }
      ],
      "name": "createDevice",
      "outputs": [
        {
          "internalType": "address",
          "name": "",
          "type": "address"
        }
      ],
      "stateMutability": "nonpayable",
      "type": "function"
    },
    {
      "inputs": [
        {
          "internalType": "uint256",
          "name": "_deviceId",
          "type": "uint256"
        }
      ],
      "name": "deleteDevice",
      "outputs": [],
      "stateMutability": "nonpayable",
      "type": "function"
    },
    {
      "inputs": [],
      "name": "deviceCounter",
      "outputs": [
        {
          "internalType": "uint256",
          "name": "",
          "type": "uint256"
        }
      ],
      "stateMutability": "view",
      "type": "function"
    },
    {
      "inputs": [
        {
          "internalType": "address",
          "name": "_organizationAddress",
          "type": "address"
        }
      ],
      "name": "getDevices",
      "outputs": [
        {
          "components": [
            {
              "internalType": "address",
              "name": "deviceAddress",
              "type": "address"
            },
            {
              "internalType": "uint256",
              "name": "id",
              "type": "uint256"
            },
            {
              "internalType": "string",
              "name": "name",
              "type": "string"
            },
            {
              "internalType": "address",
              "name": "actionFactoryAddress",
              "type": "address"
            },
            {
              "internalType": "address",
              "name": "organisationAddress",
              "type": "address"
            }
          ],
          "internalType": "struct DeviceFactory.DeviceInfo[]",
          "name": "",
          "type": "tuple[]"
        }
      ],
      "stateMutability": "view",
      "type": "function"
    },
    {
      "inputs": [
        {
          "internalType": "uint256",
          "name": "_deviceId",
          "type": "uint256"
        },
        {
          "internalType": "string",
          "name": "_newName",
          "type": "string"
        }
      ],
      "name": "updateDeviceName",
      "outputs": [],
      "stateMutability": "nonpayable",
      "type": "function"
    }
  ],
  "bytecode": "0x60806040526001805534801561001457600080fd5b50613634806100246000396000f3fe60806040523480156200001157600080fd5b50600436106200005e5760003560e01c8063417b26e014620000635780636f200dbb1462000099578063768d4fd214620000cf578063a4cc73ca14620000ef578063e51ea4c81462000111575b600080fd5b6200008160048036038101906200007b919062000f33565b62000131565b6040516200009091906200117b565b60405180910390f35b620000b76004803603810190620000b19190620012f0565b6200057d565b604051620000c691906200137c565b60405180910390f35b620000ed6004803603810190620000e79190620013ca565b6200087a565b005b620000f962000b26565b6040516200010891906200140d565b60405180910390f35b6200012f60048036038101906200012991906200142a565b62000b2c565b005b606060008273ffffffffffffffffffffffffffffffffffffffff166370a08231336040518263ffffffff1660e01b81526004016200017091906200137c565b602060405180830381865afa1580156200018e573d6000803e3d6000fd5b505050506040513d601f19601f82011682018060405250810190620001b49190620014a7565b11620001f7576040517f08c379a0000000000000000000000000000000000000000000000000000000008152600401620001ee9062001560565b60405180910390fd5b600080600190505b60015481101562000292578373ffffffffffffffffffffffffffffffffffffffff1660008083815260200190815260200160002060040160009054906101000a900473ffffffffffffffffffffffffffffffffffffffff1673ffffffffffffffffffffffffffffffffffffffff1603620002845781806200028090620015b1565b9250505b8080600101915050620001ff565b5060008167ffffffffffffffff811115620002b257620002b1620011a9565b5b604051908082528060200260200182016040528015620002ef57816020015b620002db62000dd6565b815260200190600190039081620002d15790505b509050600080600190505b60015481101562000571578573ffffffffffffffffffffffffffffffffffffffff1660008083815260200190815260200160002060040160009054906101000a900473ffffffffffffffffffffffffffffffffffffffff1673ffffffffffffffffffffffffffffffffffffffff160362000563576000808281526020019081526020016000206040518060a00160405290816000820160009054906101000a900473ffffffffffffffffffffffffffffffffffffffff1673ffffffffffffffffffffffffffffffffffffffff1673ffffffffffffffffffffffffffffffffffffffff16815260200160018201548152602001600282018054620003fd906200162d565b80601f01602080910402602001604051908101604052809291908181526020018280546200042b906200162d565b80156200047c5780601f1062000450576101008083540402835291602001916200047c565b820191906000526020600020905b8154815290600101906020018083116200045e57829003601f168201915b505050505081526020016003820160009054906101000a900473ffffffffffffffffffffffffffffffffffffffff1673ffffffffffffffffffffffffffffffffffffffff1673ffffffffffffffffffffffffffffffffffffffff1681526020016004820160009054906101000a900473ffffffffffffffffffffffffffffffffffffffff1673ffffffffffffffffffffffffffffffffffffffff1673ffffffffffffffffffffffffffffffffffffffff168152505083838151811062000547576200054662001662565b5b602002602001018190525081806200055f90620015b1565b9250505b8080600101915050620002fa565b50819350505050919050565b60008173ffffffffffffffffffffffffffffffffffffffff166324d7806c336040518263ffffffff1660e01b8152600401620005ba91906200137c565b602060405180830381865afa158015620005d8573d6000803e3d6000fd5b505050506040513d601f19601f82011682018060405250810190620005fe9190620016ce565b62000640576040517f08c379a0000000000000000000000000000000000000000000000000000000008152600401620006379062001776565b60405180910390fd5b600060015485853086604051620006579062000e47565b62000667959493929190620017d9565b604051809103906000f08015801562000684573d6000803e3d6000fd5b5090506001548173ffffffffffffffffffffffffffffffffffffffff167ff4d744422502ef200369b5b899e83e2e4724bd0f21cb754b5523e5b39ace6e0a8787604051620006d49291906200183d565b60405180910390a36040518060a001604052808273ffffffffffffffffffffffffffffffffffffffff16815260200160015481526020018681526020018573ffffffffffffffffffffffffffffffffffffffff1681526020018473ffffffffffffffffffffffffffffffffffffffff16815250600080600154815260200190815260200160002060008201518160000160006101000a81548173ffffffffffffffffffffffffffffffffffffffff021916908373ffffffffffffffffffffffffffffffffffffffff160217905550602082015181600101556040820151816002019081620007c3919062001a43565b5060608201518160030160006101000a81548173ffffffffffffffffffffffffffffffffffffffff021916908373ffffffffffffffffffffffffffffffffffffffff16021790555060808201518160040160006101000a81548173ffffffffffffffffffffffffffffffffffffffff021916908373ffffffffffffffffffffffffffffffffffffffff160217905550905050600160008154809291906200086a90620015b1565b9190505550809150509392505050565b600073ffffffffffffffffffffffffffffffffffffffff1660008083815260200190815260200160002060000160009054906101000a900473ffffffffffffffffffffffffffffffffffffffff1673ffffffffffffffffffffffffffffffffffffffff160362000921576040517f08c379a0000000000000000000000000000000000000000000000000000000008152600401620009189062001b7a565b60405180910390fd5b60008082815260200190815260200160002060040160009054906101000a900473ffffffffffffffffffffffffffffffffffffffff1673ffffffffffffffffffffffffffffffffffffffff166324d7806c336040518263ffffffff1660e01b81526004016200099191906200137c565b602060405180830381865afa158015620009af573d6000803e3d6000fd5b505050506040513d601f19601f82011682018060405250810190620009d59190620016ce565b62000a17576040517f08c379a000000000000000000000000000000000000000000000000000000000815260040162000a0e9062001c12565b60405180910390fd5b600080600083815260200190815260200160002060000160009054906101000a900473ffffffffffffffffffffffffffffffffffffffff169050600080838152602001908152602001600020600080820160006101000a81549073ffffffffffffffffffffffffffffffffffffffff0219169055600182016000905560028201600062000aa5919062000e55565b6003820160006101000a81549073ffffffffffffffffffffffffffffffffffffffff02191690556004820160006101000a81549073ffffffffffffffffffffffffffffffffffffffff02191690555050817f979e38b2b746dcfc90cef6f06401a034ae94896402a3d192589d6f1a68b5a68860405160405180910390a25050565b60015481565b600073ffffffffffffffffffffffffffffffffffffffff1660008084815260200190815260200160002060000160009054906101000a900473ffffffffffffffffffffffffffffffffffffffff1673ffffffffffffffffffffffffffffffffffffffff160362000bd3576040517f08c379a000000000000000000000000000000000000000000000000000000000815260040162000bca9062001b7a565b60405180910390fd5b60008083815260200190815260200160002060040160009054906101000a900473ffffffffffffffffffffffffffffffffffffffff1673ffffffffffffffffffffffffffffffffffffffff166324d7806c336040518263ffffffff1660e01b815260040162000c4391906200137c565b602060405180830381865afa15801562000c61573d6000803e3d6000fd5b505050506040513d601f19601f8201168201806040525081019062000c879190620016ce565b62000cc9576040517f08c379a000000000000000000000000000000000000000000000000000000000815260040162000cc09062001caa565b60405180910390fd5b600080600084815260200190815260200160002060000160009054906101000a900473ffffffffffffffffffffffffffffffffffffffff1690508073ffffffffffffffffffffffffffffffffffffffff166384da92a7836040518263ffffffff1660e01b815260040162000d3e919062001ccc565b600060405180830381600087803b15801562000d5957600080fd5b505af115801562000d6e573d6000803e3d6000fd5b5050505081600080858152602001908152602001600020600201908162000d96919062001a43565b50827f858e30f441c92fc7c78e2ed70530d3e8a8720dacdcbddefbde5a2e5418f9d52e8360405162000dc9919062001ccc565b60405180910390a2505050565b6040518060a00160405280600073ffffffffffffffffffffffffffffffffffffffff1681526020016000815260200160608152602001600073ffffffffffffffffffffffffffffffffffffffff168152602001600073ffffffffffffffffffffffffffffffffffffffff1681525090565b61190e8062001cf183390190565b50805462000e63906200162d565b6000825580601f1062000e77575062000e98565b601f01602090049060005260206000209081019062000e97919062000e9b565b5b50565b5b8082111562000eb657600081600090555060010162000e9c565b5090565b6000604051905090565b600080fd5b600080fd5b600073ffffffffffffffffffffffffffffffffffffffff82169050919050565b600062000efb8262000ece565b9050919050565b62000f0d8162000eee565b811462000f1957600080fd5b50565b60008135905062000f2d8162000f02565b92915050565b60006020828403121562000f4c5762000f4b62000ec4565b5b600062000f5c8482850162000f1c565b91505092915050565b600081519050919050565b600082825260208201905092915050565b6000819050602082019050919050565b62000f9c8162000eee565b82525050565b6000819050919050565b62000fb78162000fa2565b82525050565b600081519050919050565b600082825260208201905092915050565b60005b8381101562000ff957808201518184015260208101905062000fdc565b60008484015250505050565b6000601f19601f8301169050919050565b6000620010238262000fbd565b6200102f818562000fc8565b93506200104181856020860162000fd9565b6200104c8162001005565b840191505092915050565b600060a08301600083015162001071600086018262000f91565b50602083015162001086602086018262000fac565b5060408301518482036040860152620010a0828262001016565b9150506060830151620010b7606086018262000f91565b506080830151620010cc608086018262000f91565b508091505092915050565b6000620010e5838362001057565b905092915050565b6000602082019050919050565b6000620011078262000f65565b62001113818562000f70565b935083602082028501620011278562000f81565b8060005b85811015620011695784840389528151620011478582620010d7565b94506200115483620010ed565b925060208a019950506001810190506200112b565b50829750879550505050505092915050565b60006020820190508181036000830152620011978184620010fa565b905092915050565b600080fd5b600080fd5b7f4e487b7100000000000000000000000000000000000000000000000000000000600052604160045260246000fd5b620011e38262001005565b810181811067ffffffffffffffff82111715620012055762001204620011a9565b5b80604052505050565b60006200121a62000eba565b9050620012288282620011d8565b919050565b600067ffffffffffffffff8211156200124b576200124a620011a9565b5b620012568262001005565b9050602081019050919050565b82818337600083830152505050565b60006200128962001283846200122d565b6200120e565b905082815260208101848484011115620012a857620012a7620011a4565b5b620012b584828562001263565b509392505050565b600082601f830112620012d557620012d46200119f565b5b8135620012e784826020860162001272565b91505092915050565b6000806000606084860312156200130c576200130b62000ec4565b5b600084013567ffffffffffffffff8111156200132d576200132c62000ec9565b5b6200133b86828701620012bd565b93505060206200134e8682870162000f1c565b9250506040620013618682870162000f1c565b9150509250925092565b620013768162000eee565b82525050565b60006020820190506200139360008301846200136b565b92915050565b620013a48162000fa2565b8114620013b057600080fd5b50565b600081359050620013c48162001399565b92915050565b600060208284031215620013e357620013e262000ec4565b5b6000620013f384828501620013b3565b91505092915050565b620014078162000fa2565b82525050565b6000602082019050620014246000830184620013fc565b92915050565b6000806040838503121562001444576200144362000ec4565b5b60006200145485828601620013b3565b925050602083013567ffffffffffffffff81111562001478576200147762000ec9565b5b6200148685828601620012bd565b9150509250929050565b600081519050620014a18162001399565b92915050565b600060208284031215620014c057620014bf62000ec4565b5b6000620014d08482850162001490565b91505092915050565b600082825260208201905092915050565b7f4e6f20557365724e4654202d3e206e6f7420616c6c6f77656420746f2067657460008201527f2064657669636573000000000000000000000000000000000000000000000000602082015250565b600062001548602883620014d9565b91506200155582620014ea565b604082019050919050565b600060208201905081810360008301526200157b8162001539565b9050919050565b7f4e487b7100000000000000000000000000000000000000000000000000000000600052601160045260246000fd5b6000620015be8262000fa2565b91507fffffffffffffffffffffffffffffffffffffffffffffffffffffffffffffffff8203620015f357620015f262001582565b5b600182019050919050565b7f4e487b7100000000000000000000000000000000000000000000000000000000600052602260045260246000fd5b600060028204905060018216806200164657607f821691505b6020821081036200165c576200165b620015fe565b5b50919050565b7f4e487b7100000000000000000000000000000000000000000000000000000000600052603260045260246000fd5b60008115159050919050565b620016a88162001691565b8114620016b457600080fd5b50565b600081519050620016c8816200169d565b92915050565b600060208284031215620016e757620016e662000ec4565b5b6000620016f784828501620016b7565b91505092915050565b7f4e6f2041646d696e4e4654202d3e206e6f7420616c6c6f77656420746f20637260008201527f6561746520612044657669636500000000000000000000000000000000000000602082015250565b60006200175e602d83620014d9565b91506200176b8262001700565b604082019050919050565b6000602082019050818103600083015262001791816200174f565b9050919050565b6000620017a58262000fbd565b620017b18185620014d9565b9350620017c381856020860162000fd9565b620017ce8162001005565b840191505092915050565b600060a082019050620017f06000830188620013fc565b818103602083015262001804818762001798565b90506200181560408301866200136b565b6200182460608301856200136b565b6200183360808301846200136b565b9695505050505050565b6000604082019050818103600083015262001859818562001798565b90506200186a60208301846200136b565b9392505050565b60008190508160005260206000209050919050565b60006020601f8301049050919050565b600082821b905092915050565b600060088302620018d57fffffffffffffffffffffffffffffffffffffffffffffffffffffffffffffffff8262001896565b620018e1868362001896565b95508019841693508086168417925050509392505050565b6000819050919050565b6000620019246200191e620019188462000fa2565b620018f9565b62000fa2565b9050919050565b6000819050919050565b620019408362001903565b620019586200194f826200192b565b848454620018a3565b825550505050565b600090565b6200196f62001960565b6200197c81848462001935565b505050565b5b81811015620019a4576200199860008262001965565b60018101905062001982565b5050565b601f821115620019f357620019bd8162001871565b620019c88462001886565b81016020851015620019d8578190505b620019f0620019e78562001886565b83018262001981565b50505b505050565b600082821c905092915050565b600062001a1860001984600802620019f8565b1980831691505092915050565b600062001a33838362001a05565b9150826002028217905092915050565b62001a4e8262000fbd565b67ffffffffffffffff81111562001a6a5762001a69620011a9565b5b62001a7682546200162d565b62001a83828285620019a8565b600060209050601f83116001811462001abb576000841562001aa6578287015190505b62001ab2858262001a25565b86555062001b22565b601f19841662001acb8662001871565b60005b8281101562001af55784890151825560018201915060208501945060208101905062001ace565b8683101562001b15578489015162001b11601f89168262001a05565b8355505b6001600288020188555050505b505050505050565b7f44657669636520646f6573206e6f742065786973740000000000000000000000600082015250565b600062001b62601583620014d9565b915062001b6f8262001b2a565b602082019050919050565b6000602082019050818103600083015262001b958162001b53565b9050919050565b7f4e6f2041646d696e4e4654202d3e206e6f7420616c6c6f77656420746f20646560008201527f6c65746520746865206465766963650000000000000000000000000000000000602082015250565b600062001bfa602f83620014d9565b915062001c078262001b9c565b604082019050919050565b6000602082019050818103600083015262001c2d8162001beb565b9050919050565b7f4e6f2041646d696e4e4654202d3e206e6f7420616c6c6f77656420746f20757060008201527f6461746520746865206465766963650000000000000000000000000000000000602082015250565b600062001c92602f83620014d9565b915062001c9f8262001c34565b604082019050919050565b6000602082019050818103600083015262001cc58162001c83565b9050919050565b6000602082019050818103600083015262001ce8818462001798565b90509291505056fe60806040523480156200001157600080fd5b506040516200190e3803806200190e83398181016040528101906200003791906200045c565b81600073ffffffffffffffffffffffffffffffffffffffff168173ffffffffffffffffffffffffffffffffffffffff1603620000ad5760006040517f1e4fbdf7000000000000000000000000000000000000000000000000000000008152600401620000a4919062000514565b60405180910390fd5b620000be816200016560201b60201c565b50846001819055508360029081620000d7919062000772565b5082600360006101000a81548173ffffffffffffffffffffffffffffffffffffffff021916908373ffffffffffffffffffffffffffffffffffffffff16021790555080600460006101000a81548173ffffffffffffffffffffffffffffffffffffffff021916908373ffffffffffffffffffffffffffffffffffffffff160217905550505050505062000859565b60008060009054906101000a900473ffffffffffffffffffffffffffffffffffffffff169050816000806101000a81548173ffffffffffffffffffffffffffffffffffffffff021916908373ffffffffffffffffffffffffffffffffffffffff1602179055508173ffffffffffffffffffffffffffffffffffffffff168173ffffffffffffffffffffffffffffffffffffffff167f8be0079c531659141344cd1fd0a4f28419497f9722a3daafe3b4186f6b6457e060405160405180910390a35050565b6000604051905090565b600080fd5b600080fd5b6000819050919050565b62000252816200023d565b81146200025e57600080fd5b50565b600081519050620002728162000247565b92915050565b600080fd5b600080fd5b6000601f19601f8301169050919050565b7f4e487b7100000000000000000000000000000000000000000000000000000000600052604160045260246000fd5b620002cd8262000282565b810181811067ffffffffffffffff82111715620002ef57620002ee62000293565b5b80604052505050565b60006200030462000229565b9050620003128282620002c2565b919050565b600067ffffffffffffffff82111562000335576200033462000293565b5b620003408262000282565b9050602081019050919050565b60005b838110156200036d57808201518184015260208101905062000350565b60008484015250505050565b6000620003906200038a8462000317565b620002f8565b905082815260208101848484011115620003af57620003ae6200027d565b5b620003bc8482856200034d565b509392505050565b600082601f830112620003dc57620003db62000278565b5b8151620003ee84826020860162000379565b91505092915050565b600073ffffffffffffffffffffffffffffffffffffffff82169050919050565b60006200042482620003f7565b9050919050565b620004368162000417565b81146200044257600080fd5b50565b60008151905062000456816200042b565b92915050565b600080600080600060a086880312156200047b576200047a62000233565b5b60006200048b8882890162000261565b955050602086015167ffffffffffffffff811115620004af57620004ae62000238565b5b620004bd88828901620003c4565b9450506040620004d08882890162000445565b9350506060620004e38882890162000445565b9250506080620004f68882890162000445565b9150509295509295909350565b6200050e8162000417565b82525050565b60006020820190506200052b600083018462000503565b92915050565b600081519050919050565b7f4e487b7100000000000000000000000000000000000000000000000000000000600052602260045260246000fd5b600060028204905060018216806200058457607f821691505b6020821081036200059a57620005996200053c565b5b50919050565b60008190508160005260206000209050919050565b60006020601f8301049050919050565b600082821b905092915050565b600060088302620006047fffffffffffffffffffffffffffffffffffffffffffffffffffffffffffffffff82620005c5565b620006108683620005c5565b95508019841693508086168417925050509392505050565b6000819050919050565b6000620006536200064d62000647846200023d565b62000628565b6200023d565b9050919050565b6000819050919050565b6200066f8362000632565b620006876200067e826200065a565b848454620005d2565b825550505050565b600090565b6200069e6200068f565b620006ab81848462000664565b505050565b5b81811015620006d357620006c760008262000694565b600181019050620006b1565b5050565b601f8211156200072257620006ec81620005a0565b620006f784620005b5565b8101602085101562000707578190505b6200071f6200071685620005b5565b830182620006b0565b50505b505050565b600082821c905092915050565b6000620007476000198460080262000727565b1980831691505092915050565b600062000762838362000734565b9150826002028217905092915050565b6200077d8262000531565b67ffffffffffffffff81111562000799576200079862000293565b5b620007a582546200056b565b620007b2828285620006d7565b600060209050601f831160018114620007ea5760008415620007d5578287015190505b620007e1858262000754565b86555062000851565b601f198416620007fa86620005a0565b60005b828110156200082457848901518255600182019150602085019450602081019050620007fd565b8683101562000844578489015162000840601f89168262000734565b8355505b6001600288020188555050505b505050505050565b6110a580620008696000396000f3fe608060405234801561001057600080fd5b50600436106100935760003560e01c806384da92a71161006657806384da92a71461010e5780638da5cb5b1461012a578063af640d0f14610148578063b510651014610166578063f2fde38b1461019657610093565b806306fdde03146100985780636195ef61146100b6578063715018a6146100d457806374100873146100de575b600080fd5b6100a06101b2565b6040516100ad919061076a565b60405180910390f35b6100be610240565b6040516100cb919061080b565b60405180910390f35b6100dc610266565b005b6100f860048036038101906100f39190610870565b61027a565b60405161010591906108be565b60405180910390f35b61012860048036038101906101239190610a0e565b6102ad565b005b6101326102c8565b60405161013f91906108be565b60405180910390f35b6101506102f1565b60405161015d9190610a66565b60405180910390f35b610180600480360381019061017b9190610abd565b6102f7565b60405161018d91906108be565b60405180910390f35b6101b060048036038101906101ab9190610b74565b610501565b005b600280546101bf90610bd0565b80601f01602080910402602001604051908101604052809291908181526020018280546101eb90610bd0565b80156102385780601f1061020d57610100808354040283529160200191610238565b820191906000526020600020905b81548152906001019060200180831161021b57829003601f168201915b505050505081565b600360009054906101000a900473ffffffffffffffffffffffffffffffffffffffff1681565b61026e610587565b610278600061060e565b565b60056020528060005260406000206000915054906101000a900473ffffffffffffffffffffffffffffffffffffffff1681565b6102b5610587565b80600290816102c49190610da3565b5050565b60008060009054906101000a900473ffffffffffffffffffffffffffffffffffffffff16905090565b60015481565b6000600460009054906101000a900473ffffffffffffffffffffffffffffffffffffffff1673ffffffffffffffffffffffffffffffffffffffff166324d7806c336040518263ffffffff1660e01b815260040161035491906108be565b602060405180830381865afa158015610371573d6000803e3d6000fd5b505050506040513d601f19601f820116820180604052508101906103959190610ead565b6103d4576040517f08c379a00000000000000000000000000000000000000000000000000000000081526004016103cb90610f4c565b60405180910390fd5b6000600360009054906101000a900473ffffffffffffffffffffffffffffffffffffffff1673ffffffffffffffffffffffffffffffffffffffff166329ebacd38686863033600460009054906101000a900473ffffffffffffffffffffffffffffffffffffffff166040518763ffffffff1660e01b815260040161045d96959493929190610fbe565b6020604051808303816000875af115801561047c573d6000803e3d6000fd5b505050506040513d601f19601f820116820180604052508101906104a09190611042565b90508060056000600154815260200190815260200160002060006101000a81548173ffffffffffffffffffffffffffffffffffffffff021916908373ffffffffffffffffffffffffffffffffffffffff160217905550809150509392505050565b610509610587565b600073ffffffffffffffffffffffffffffffffffffffff168173ffffffffffffffffffffffffffffffffffffffff160361057b5760006040517f1e4fbdf700000000000000000000000000000000000000000000000000000000815260040161057291906108be565b60405180910390fd5b6105848161060e565b50565b61058f6106d2565b73ffffffffffffffffffffffffffffffffffffffff166105ad6102c8565b73ffffffffffffffffffffffffffffffffffffffff161461060c576105d06106d2565b6040517f118cdaa700000000000000000000000000000000000000000000000000000000815260040161060391906108be565b60405180910390fd5b565b60008060009054906101000a900473ffffffffffffffffffffffffffffffffffffffff169050816000806101000a81548173ffffffffffffffffffffffffffffffffffffffff021916908373ffffffffffffffffffffffffffffffffffffffff1602179055508173ffffffffffffffffffffffffffffffffffffffff168173ffffffffffffffffffffffffffffffffffffffff167f8be0079c531659141344cd1fd0a4f28419497f9722a3daafe3b4186f6b6457e060405160405180910390a35050565b600033905090565b600081519050919050565b600082825260208201905092915050565b60005b838110156107145780820151818401526020810190506106f9565b60008484015250505050565b6000601f19601f8301169050919050565b600061073c826106da565b61074681856106e5565b93506107568185602086016106f6565b61075f81610720565b840191505092915050565b600060208201905081810360008301526107848184610731565b905092915050565b600073ffffffffffffffffffffffffffffffffffffffff82169050919050565b6000819050919050565b60006107d16107cc6107c78461078c565b6107ac565b61078c565b9050919050565b60006107e3826107b6565b9050919050565b60006107f5826107d8565b9050919050565b610805816107ea565b82525050565b600060208201905061082060008301846107fc565b92915050565b6000604051905090565b600080fd5b600080fd5b6000819050919050565b61084d8161083a565b811461085857600080fd5b50565b60008135905061086a81610844565b92915050565b60006020828403121561088657610885610830565b5b60006108948482850161085b565b91505092915050565b60006108a88261078c565b9050919050565b6108b88161089d565b82525050565b60006020820190506108d360008301846108af565b92915050565b600080fd5b600080fd5b7f4e487b7100000000000000000000000000000000000000000000000000000000600052604160045260246000fd5b61091b82610720565b810181811067ffffffffffffffff8211171561093a576109396108e3565b5b80604052505050565b600061094d610826565b90506109598282610912565b919050565b600067ffffffffffffffff821115610979576109786108e3565b5b61098282610720565b9050602081019050919050565b82818337600083830152505050565b60006109b16109ac8461095e565b610943565b9050828152602081018484840111156109cd576109cc6108de565b5b6109d884828561098f565b509392505050565b600082601f8301126109f5576109f46108d9565b5b8135610a0584826020860161099e565b91505092915050565b600060208284031215610a2457610a23610830565b5b600082013567ffffffffffffffff811115610a4257610a41610835565b5b610a4e848285016109e0565b91505092915050565b610a608161083a565b82525050565b6000602082019050610a7b6000830184610a57565b92915050565b600063ffffffff82169050919050565b610a9a81610a81565b8114610aa557600080fd5b50565b600081359050610ab781610a91565b92915050565b600080600060608486031215610ad657610ad5610830565b5b600084013567ffffffffffffffff811115610af457610af3610835565b5b610b00868287016109e0565b935050602084013567ffffffffffffffff811115610b2157610b20610835565b5b610b2d868287016109e0565b9250506040610b3e86828701610aa8565b9150509250925092565b610b518161089d565b8114610b5c57600080fd5b50565b600081359050610b6e81610b48565b92915050565b600060208284031215610b8a57610b89610830565b5b6000610b9884828501610b5f565b91505092915050565b7f4e487b7100000000000000000000000000000000000000000000000000000000600052602260045260246000fd5b60006002820490506001821680610be857607f821691505b602082108103610bfb57610bfa610ba1565b5b50919050565b60008190508160005260206000209050919050565b60006020601f8301049050919050565b600082821b905092915050565b600060088302610c637fffffffffffffffffffffffffffffffffffffffffffffffffffffffffffffffff82610c26565b610c6d8683610c26565b95508019841693508086168417925050509392505050565b6000610ca0610c9b610c968461083a565b6107ac565b61083a565b9050919050565b6000819050919050565b610cba83610c85565b610cce610cc682610ca7565b848454610c33565b825550505050565b600090565b610ce3610cd6565b610cee818484610cb1565b505050565b5b81811015610d1257610d07600082610cdb565b600181019050610cf4565b5050565b601f821115610d5757610d2881610c01565b610d3184610c16565b81016020851015610d40578190505b610d54610d4c85610c16565b830182610cf3565b50505b505050565b600082821c905092915050565b6000610d7a60001984600802610d5c565b1980831691505092915050565b6000610d938383610d69565b9150826002028217905092915050565b610dac826106da565b67ffffffffffffffff811115610dc557610dc46108e3565b5b610dcf8254610bd0565b610dda828285610d16565b600060209050601f831160018114610e0d5760008415610dfb578287015190505b610e058582610d87565b865550610e6d565b601f198416610e1b86610c01565b60005b82811015610e4357848901518255600182019150602085019450602081019050610e1e565b86831015610e605784890151610e5c601f891682610d69565b8355505b6001600288020188555050505b505050505050565b60008115159050919050565b610e8a81610e75565b8114610e9557600080fd5b50565b600081519050610ea781610e81565b92915050565b600060208284031215610ec357610ec2610830565b5b6000610ed184828501610e98565b91505092915050565b7f4e6f2041646d696e4e4654202d3e206e6f7420616c6c6f77656420746f20637260008201527f6561746520612044657669636500000000000000000000000000000000000000602082015250565b6000610f36602d836106e5565b9150610f4182610eda565b604082019050919050565b60006020820190508181036000830152610f6581610f29565b9050919050565b6000610f87610f82610f7d84610a81565b6107ac565b61083a565b9050919050565b610f9781610f6c565b82525050565b6000610fa88261078c565b9050919050565b610fb881610f9d565b82525050565b600060c0820190508181036000830152610fd88189610731565b90508181036020830152610fec8188610731565b9050610ffb6040830187610f8e565b6110086060830186610faf565b61101560808301856108af565b61102260a08301846108af565b979650505050505050565b60008151905061103c81610b48565b92915050565b60006020828403121561105857611057610830565b5b60006110668482850161102d565b9150509291505056fea26469706673582212205aa5dac6e6e1b7916263d4773a8da116624e2764b7b6de6fe9aac563d9e09b9a64736f6c63430008180033a2646970667358221220d01810a852462a01b60a497931de8b65d93c6c066ed3038bf6a9814272898ac764736f6c63430008180033",
  "linkReferences": {},
  "deployedLinkReferences": {}
}