{
  "_format": "hh-sol-artifact-1",
  "contractName": "DeviceFactory",
  "sourceName": "contracts/DeviceFactory.sol",
  "abi": [
    {
      "anonymous": false,
      "inputs": [
        {
          "indexed": true,
          "internalType": "address",
          "name": "action",
          "type": "address"
        },
        {
          "indexed": true,
          "internalType": "uint256",
          "name": "id",
          "type": "uint256"
        },
        {
          "indexed": false,
          "internalType": "string",
          "name": "name",
          "type": "string"
        },
        {
          "indexed": false,
          "internalType": "address",
          "name": "actionFactoryAddress",
          "type": "address"
        }
      ],
      "name": "DeviceCreated",
      "type": "event"
    },
    {
      "inputs": [
        {
          "internalType": "uint256",
          "name": "",
          "type": "uint256"
        }
      ],
      "name": "Devices",
      "outputs": [
        {
          "internalType": "address",
          "name": "deviceAddress",
          "type": "address"
        },
        {
          "internalType": "uint256",
          "name": "id",
          "type": "uint256"
        },
        {
          "internalType": "string",
          "name": "name",
          "type": "string"
        },
        {
          "internalType": "address",
          "name": "actionFactoryAddress",
          "type": "address"
        }
      ],
      "stateMutability": "view",
      "type": "function"
    },
    {
      "inputs": [
        {
          "internalType": "string",
          "name": "_name",
          "type": "string"
        },
        {
          "internalType": "address",
          "name": "_actionFactoryAddress",
          "type": "address"
        }
      ],
      "name": "createDevice",
      "outputs": [
        {
          "internalType": "address",
          "name": "",
          "type": "address"
        }
      ],
      "stateMutability": "nonpayable",
      "type": "function"
    },
    {
      "inputs": [],
      "name": "deviceCounter",
      "outputs": [
        {
          "internalType": "uint256",
          "name": "",
          "type": "uint256"
        }
      ],
      "stateMutability": "view",
      "type": "function"
    },
    {
      "inputs": [],
      "name": "getDevices",
      "outputs": [
        {
          "components": [
            {
              "internalType": "address",
              "name": "deviceAddress",
              "type": "address"
            },
            {
              "internalType": "uint256",
              "name": "id",
              "type": "uint256"
            },
            {
              "internalType": "string",
              "name": "name",
              "type": "string"
            },
            {
              "internalType": "address",
              "name": "actionFactoryAddress",
              "type": "address"
            }
          ],
          "internalType": "struct DeviceFactory.DeviceInfo[]",
          "name": "",
          "type": "tuple[]"
        }
      ],
      "stateMutability": "view",
      "type": "function"
    }
  ],
  "bytecode": "0x60806040526001805534801561001457600080fd5b50612bf0806100246000396000f3fe60806040523480156200001157600080fd5b5060043610620000525760003560e01c8063860a02e61462000057578063a4cc73ca146200008d578063d611d6c814620000af578063d709883e14620000d1575b600080fd5b6200007560048036038101906200006f91906200097b565b6200010a565b604051620000849190620009f2565b60405180910390f35b6200009762000307565b604051620000a6919062000a2a565b60405180910390f35b620000b96200030d565b604051620000c8919062000c2d565b60405180910390f35b620000ef6004803603810190620000e9919062000c82565b62000541565b60405162000101949392919062000d06565b60405180910390f35b60006200013360405180606001604052806040815260200162002b7b6040913933858562000641565b6000600154848433604051620001499062000732565b62000158949392919062000d5a565b604051809103906000f08015801562000175573d6000803e3d6000fd5b5090506001548173ffffffffffffffffffffffffffffffffffffffff167ff4d744422502ef200369b5b899e83e2e4724bd0f21cb754b5523e5b39ace6e0a8686604051620001c592919062000dae565b60405180910390a360405180608001604052808273ffffffffffffffffffffffffffffffffffffffff16815260200160015481526020018581526020018473ffffffffffffffffffffffffffffffffffffffff16815250600080600154815260200190815260200160002060008201518160000160006101000a81548173ffffffffffffffffffffffffffffffffffffffff021916908373ffffffffffffffffffffffffffffffffffffffff16021790555060208201518160010155604082015181600201908162000298919062001018565b5060608201518160030160006101000a81548173ffffffffffffffffffffffffffffffffffffffff021916908373ffffffffffffffffffffffffffffffffffffffff16021790555090505060016000815480929190620002f8906200112e565b91905055508091505092915050565b60015481565b60606000600180546200032191906200117b565b67ffffffffffffffff8111156200033d576200033c620007cf565b5b6040519080825280602002602001820160405280156200037a57816020015b6200036662000740565b8152602001906001900390816200035c5790505b5090506000600190505b60015481101562000539576000808281526020019081526020016000206040518060800160405290816000820160009054906101000a900473ffffffffffffffffffffffffffffffffffffffff1673ffffffffffffffffffffffffffffffffffffffff1673ffffffffffffffffffffffffffffffffffffffff168152602001600182015481526020016002820180546200041e9062000e11565b80601f01602080910402602001604051908101604052809291908181526020018280546200044c9062000e11565b80156200049d5780601f1062000471576101008083540402835291602001916200049d565b820191906000526020600020905b8154815290600101906020018083116200047f57829003601f168201915b505050505081526020016003820160009054906101000a900473ffffffffffffffffffffffffffffffffffffffff1673ffffffffffffffffffffffffffffffffffffffff1673ffffffffffffffffffffffffffffffffffffffff1681525050826001836200050c91906200117b565b8151811062000520576200051f620011b6565b5b6020026020010181905250808060010191505062000384565b508091505090565b60006020528060005260406000206000915090508060000160009054906101000a900473ffffffffffffffffffffffffffffffffffffffff1690806001015490806002018054620005929062000e11565b80601f0160208091040260200160405190810160405280929190818152602001828054620005c09062000e11565b8015620006115780601f10620005e55761010080835404028352916020019162000611565b820191906000526020600020905b815481529060010190602001808311620005f357829003601f168201915b5050505050908060030160009054906101000a900473ffffffffffffffffffffffffffffffffffffffff16905084565b620006e1848484846040516024016200065e9493929190620011e5565b6040516020818303038152906040527faabc9a31000000000000000000000000000000000000000000000000000000007bffffffffffffffffffffffffffffffffffffffffffffffffffffffff19166020820180517bffffffffffffffffffffffffffffffffffffffffffffffffffffffff8381831617835250505050620006e7565b50505050565b6200070281620006fa6200070562000726565b63ffffffff16565b50565b60006a636f6e736f6c652e6c6f679050600080835160208501845afa505050565b62000794819050919050565b61190b806200127083390190565b6040518060800160405280600073ffffffffffffffffffffffffffffffffffffffff1681526020016000815260200160608152602001600073ffffffffffffffffffffffffffffffffffffffff1681525090565b6200079e62001240565b565b6000604051905090565b600080fd5b600080fd5b600080fd5b600080fd5b6000601f19601f8301169050919050565b7f4e487b7100000000000000000000000000000000000000000000000000000000600052604160045260246000fd5b6200080982620007be565b810181811067ffffffffffffffff821117156200082b576200082a620007cf565b5b80604052505050565b600062000840620007a0565b90506200084e8282620007fe565b919050565b600067ffffffffffffffff821115620008715762000870620007cf565b5b6200087c82620007be565b9050602081019050919050565b82818337600083830152505050565b6000620008af620008a98462000853565b62000834565b905082815260208101848484011115620008ce57620008cd620007b9565b5b620008db84828562000889565b509392505050565b600082601f830112620008fb57620008fa620007b4565b5b81356200090d84826020860162000898565b91505092915050565b600073ffffffffffffffffffffffffffffffffffffffff82169050919050565b6000620009438262000916565b9050919050565b620009558162000936565b81146200096157600080fd5b50565b60008135905062000975816200094a565b92915050565b60008060408385031215620009955762000994620007aa565b5b600083013567ffffffffffffffff811115620009b657620009b5620007af565b5b620009c485828601620008e3565b9250506020620009d78582860162000964565b9150509250929050565b620009ec8162000936565b82525050565b600060208201905062000a096000830184620009e1565b92915050565b6000819050919050565b62000a248162000a0f565b82525050565b600060208201905062000a41600083018462000a19565b92915050565b600081519050919050565b600082825260208201905092915050565b6000819050602082019050919050565b62000a7e8162000936565b82525050565b62000a8f8162000a0f565b82525050565b600081519050919050565b600082825260208201905092915050565b60005b8381101562000ad157808201518184015260208101905062000ab4565b60008484015250505050565b600062000aea8262000a95565b62000af6818562000aa0565b935062000b0881856020860162000ab1565b62000b1381620007be565b840191505092915050565b600060808301600083015162000b38600086018262000a73565b50602083015162000b4d602086018262000a84565b506040830151848203604086015262000b67828262000add565b915050606083015162000b7e606086018262000a73565b508091505092915050565b600062000b97838362000b1e565b905092915050565b6000602082019050919050565b600062000bb98262000a47565b62000bc5818562000a52565b93508360208202850162000bd98562000a63565b8060005b8581101562000c1b578484038952815162000bf9858262000b89565b945062000c068362000b9f565b925060208a0199505060018101905062000bdd565b50829750879550505050505092915050565b6000602082019050818103600083015262000c49818462000bac565b905092915050565b62000c5c8162000a0f565b811462000c6857600080fd5b50565b60008135905062000c7c8162000c51565b92915050565b60006020828403121562000c9b5762000c9a620007aa565b5b600062000cab8482850162000c6b565b91505092915050565b600082825260208201905092915050565b600062000cd28262000a95565b62000cde818562000cb4565b935062000cf081856020860162000ab1565b62000cfb81620007be565b840191505092915050565b600060808201905062000d1d6000830187620009e1565b62000d2c602083018662000a19565b818103604083015262000d40818562000cc5565b905062000d516060830184620009e1565b95945050505050565b600060808201905062000d71600083018762000a19565b818103602083015262000d85818662000cc5565b905062000d966040830185620009e1565b62000da56060830184620009e1565b95945050505050565b6000604082019050818103600083015262000dca818562000cc5565b905062000ddb6020830184620009e1565b9392505050565b7f4e487b7100000000000000000000000000000000000000000000000000000000600052602260045260246000fd5b6000600282049050600182168062000e2a57607f821691505b60208210810362000e405762000e3f62000de2565b5b50919050565b60008190508160005260206000209050919050565b60006020601f8301049050919050565b600082821b905092915050565b60006008830262000eaa7fffffffffffffffffffffffffffffffffffffffffffffffffffffffffffffffff8262000e6b565b62000eb6868362000e6b565b95508019841693508086168417925050509392505050565b6000819050919050565b600062000ef962000ef362000eed8462000a0f565b62000ece565b62000a0f565b9050919050565b6000819050919050565b62000f158362000ed8565b62000f2d62000f248262000f00565b84845462000e78565b825550505050565b600090565b62000f4462000f35565b62000f5181848462000f0a565b505050565b5b8181101562000f795762000f6d60008262000f3a565b60018101905062000f57565b5050565b601f82111562000fc85762000f928162000e46565b62000f9d8462000e5b565b8101602085101562000fad578190505b62000fc562000fbc8562000e5b565b83018262000f56565b50505b505050565b600082821c905092915050565b600062000fed6000198460080262000fcd565b1980831691505092915050565b600062001008838362000fda565b9150826002028217905092915050565b620010238262000a95565b67ffffffffffffffff8111156200103f576200103e620007cf565b5b6200104b825462000e11565b6200105882828562000f7d565b600060209050601f8311600181146200109057600084156200107b578287015190505b62001087858262000ffa565b865550620010f7565b601f198416620010a08662000e46565b60005b82811015620010ca57848901518255600182019150602085019450602081019050620010a3565b86831015620010ea5784890151620010e6601f89168262000fda565b8355505b6001600288020188555050505b505050505050565b7f4e487b7100000000000000000000000000000000000000000000000000000000600052601160045260246000fd5b60006200113b8262000a0f565b91507fffffffffffffffffffffffffffffffffffffffffffffffffffffffffffffffff820362001170576200116f620010ff565b5b600182019050919050565b6000620011888262000a0f565b9150620011958362000a0f565b9250828203905081811115620011b057620011af620010ff565b5b92915050565b7f4e487b7100000000000000000000000000000000000000000000000000000000600052603260045260246000fd5b6000608082019050818103600083015262001201818762000cc5565b9050620012126020830186620009e1565b818103604083015262001226818562000cc5565b9050620012376060830184620009e1565b95945050505050565b7f4e487b7100000000000000000000000000000000000000000000000000000000600052605160045260246000fdfe60806040523480156200001157600080fd5b506040516200190b3803806200190b83398181016040528101906200003791906200041a565b80600073ffffffffffffffffffffffffffffffffffffffff168173ffffffffffffffffffffffffffffffffffffffff1603620000ad5760006040517f1e4fbdf7000000000000000000000000000000000000000000000000000000008152600401620000a49190620004bc565b60405180910390fd5b620000be816200012360201b60201c565b50836001819055508260029081620000d791906200071a565b5081600360006101000a81548173ffffffffffffffffffffffffffffffffffffffff021916908373ffffffffffffffffffffffffffffffffffffffff1602179055505050505062000801565b60008060009054906101000a900473ffffffffffffffffffffffffffffffffffffffff169050816000806101000a81548173ffffffffffffffffffffffffffffffffffffffff021916908373ffffffffffffffffffffffffffffffffffffffff1602179055508173ffffffffffffffffffffffffffffffffffffffff168173ffffffffffffffffffffffffffffffffffffffff167f8be0079c531659141344cd1fd0a4f28419497f9722a3daafe3b4186f6b6457e060405160405180910390a35050565b6000604051905090565b600080fd5b600080fd5b6000819050919050565b6200021081620001fb565b81146200021c57600080fd5b50565b600081519050620002308162000205565b92915050565b600080fd5b600080fd5b6000601f19601f8301169050919050565b7f4e487b7100000000000000000000000000000000000000000000000000000000600052604160045260246000fd5b6200028b8262000240565b810181811067ffffffffffffffff82111715620002ad57620002ac62000251565b5b80604052505050565b6000620002c2620001e7565b9050620002d0828262000280565b919050565b600067ffffffffffffffff821115620002f357620002f262000251565b5b620002fe8262000240565b9050602081019050919050565b60005b838110156200032b5780820151818401526020810190506200030e565b60008484015250505050565b60006200034e6200034884620002d5565b620002b6565b9050828152602081018484840111156200036d576200036c6200023b565b5b6200037a8482856200030b565b509392505050565b600082601f8301126200039a576200039962000236565b5b8151620003ac84826020860162000337565b91505092915050565b600073ffffffffffffffffffffffffffffffffffffffff82169050919050565b6000620003e282620003b5565b9050919050565b620003f481620003d5565b81146200040057600080fd5b50565b6000815190506200041481620003e9565b92915050565b60008060008060808587031215620004375762000436620001f1565b5b600062000447878288016200021f565b945050602085015167ffffffffffffffff8111156200046b576200046a620001f6565b5b620004798782880162000382565b93505060406200048c8782880162000403565b92505060606200049f8782880162000403565b91505092959194509250565b620004b681620003d5565b82525050565b6000602082019050620004d36000830184620004ab565b92915050565b600081519050919050565b7f4e487b7100000000000000000000000000000000000000000000000000000000600052602260045260246000fd5b600060028204905060018216806200052c57607f821691505b602082108103620005425762000541620004e4565b5b50919050565b60008190508160005260206000209050919050565b60006020601f8301049050919050565b600082821b905092915050565b600060088302620005ac7fffffffffffffffffffffffffffffffffffffffffffffffffffffffffffffffff826200056d565b620005b886836200056d565b95508019841693508086168417925050509392505050565b6000819050919050565b6000620005fb620005f5620005ef84620001fb565b620005d0565b620001fb565b9050919050565b6000819050919050565b6200061783620005da565b6200062f620006268262000602565b8484546200057a565b825550505050565b600090565b6200064662000637565b620006538184846200060c565b505050565b5b818110156200067b576200066f6000826200063c565b60018101905062000659565b5050565b601f821115620006ca57620006948162000548565b6200069f846200055d565b81016020851015620006af578190505b620006c7620006be856200055d565b83018262000658565b50505b505050565b600082821c905092915050565b6000620006ef60001984600802620006cf565b1980831691505092915050565b60006200070a8383620006dc565b9150826002028217905092915050565b6200072582620004d9565b67ffffffffffffffff81111562000741576200074062000251565b5b6200074d825462000513565b6200075a8282856200067f565b600060209050601f8311600181146200079257600084156200077d578287015190505b620007898582620006fc565b865550620007f9565b601f198416620007a28662000548565b60005b82811015620007cc57848901518255600182019150602085019450602081019050620007a5565b86831015620007ec5784890151620007e8601f891682620006dc565b8355505b6001600288020188555050505b505050505050565b6110fa80620008116000396000f3fe6080604052600436106100ab5760003560e01c80637410087311610064578063741008731461020a5780638da5cb5b14610247578063924e342e14610272578063af640d0f146102af578063b5106510146102da578063f2fde38b1461030357610107565b806306fdde031461010c578063155dd5ee1461013757806326224c641461016057806330f8ed691461019d5780636195ef61146101c8578063715018a6146101f357610107565b366101075734600560003373ffffffffffffffffffffffffffffffffffffffff1673ffffffffffffffffffffffffffffffffffffffff16815260200190815260200160002060008282546100ff9190610975565b925050819055005b600080fd5b34801561011857600080fd5b5061012161032c565b60405161012e9190610a39565b60405180910390f35b34801561014357600080fd5b5061015e60048036038101906101599190610a9b565b6103ba565b005b34801561016c57600080fd5b5061018760048036038101906101829190610b26565b61054a565b6040516101949190610b62565b60405180910390f35b3480156101a957600080fd5b506101b2610562565b6040516101bf9190610b62565b60405180910390f35b3480156101d457600080fd5b506101dd610572565b6040516101ea9190610bdc565b60405180910390f35b3480156101ff57600080fd5b50610208610598565b005b34801561021657600080fd5b50610231600480360381019061022c9190610a9b565b6105ac565b60405161023e9190610c06565b60405180910390f35b34801561025357600080fd5b5061025c6105df565b6040516102699190610c06565b60405180910390f35b34801561027e57600080fd5b5061029960048036038101906102949190610b26565b610608565b6040516102a69190610b62565b60405180910390f35b3480156102bb57600080fd5b506102c4610651565b6040516102d19190610b62565b60405180910390f35b3480156102e657600080fd5b5061030160048036038101906102fc9190610d92565b610657565b005b34801561030f57600080fd5b5061032a60048036038101906103259190610b26565b610763565b005b6002805461033990610e4c565b80601f016020809104026020016040519081016040528092919081815260200182805461036590610e4c565b80156103b25780601f10610387576101008083540402835291602001916103b2565b820191906000526020600020905b81548152906001019060200180831161039557829003601f168201915b505050505081565b6103c26107e9565b80600560003373ffffffffffffffffffffffffffffffffffffffff1673ffffffffffffffffffffffffffffffffffffffff168152602001908152602001600020541015610444576040517f08c379a000000000000000000000000000000000000000000000000000000000815260040161043b90610ec9565b60405180910390fd5b80600560003373ffffffffffffffffffffffffffffffffffffffff1673ffffffffffffffffffffffffffffffffffffffff16815260200190815260200160002060008282546104939190610ee9565b9250508190555060003373ffffffffffffffffffffffffffffffffffffffff16826040516104c090610f4e565b60006040518083038185875af1925050503d80600081146104fd576040519150601f19603f3d011682016040523d82523d6000602084013e610502565b606091505b5050905080610546576040517f08c379a000000000000000000000000000000000000000000000000000000000815260040161053d90610faf565b60405180910390fd5b5050565b60056020528060005260406000206000915090505481565b600061056c6107e9565b47905090565b600360009054906101000a900473ffffffffffffffffffffffffffffffffffffffff1681565b6105a06107e9565b6105aa6000610870565b565b60046020528060005260406000206000915054906101000a900473ffffffffffffffffffffffffffffffffffffffff1681565b60008060009054906101000a900473ffffffffffffffffffffffffffffffffffffffff16905090565b6000600560003373ffffffffffffffffffffffffffffffffffffffff1673ffffffffffffffffffffffffffffffffffffffff168152602001908152602001600020549050919050565b60015481565b61065f6107e9565b6000600360009054906101000a900473ffffffffffffffffffffffffffffffffffffffff1673ffffffffffffffffffffffffffffffffffffffff1663d31a35cc85858530336040518663ffffffff1660e01b81526004016106c4959493929190611021565b6020604051808303816000875af11580156106e3573d6000803e3d6000fd5b505050506040513d601f19601f820116820180604052508101906107079190611097565b90508060046000600154815260200190815260200160002060006101000a81548173ffffffffffffffffffffffffffffffffffffffff021916908373ffffffffffffffffffffffffffffffffffffffff16021790555050505050565b61076b6107e9565b600073ffffffffffffffffffffffffffffffffffffffff168173ffffffffffffffffffffffffffffffffffffffff16036107dd5760006040517f1e4fbdf70000000000000000000000000000000000000000000000000000000081526004016107d49190610c06565b60405180910390fd5b6107e681610870565b50565b6107f1610934565b73ffffffffffffffffffffffffffffffffffffffff1661080f6105df565b73ffffffffffffffffffffffffffffffffffffffff161461086e57610832610934565b6040517f118cdaa70000000000000000000000000000000000000000000000000000000081526004016108659190610c06565b60405180910390fd5b565b60008060009054906101000a900473ffffffffffffffffffffffffffffffffffffffff169050816000806101000a81548173ffffffffffffffffffffffffffffffffffffffff021916908373ffffffffffffffffffffffffffffffffffffffff1602179055508173ffffffffffffffffffffffffffffffffffffffff168173ffffffffffffffffffffffffffffffffffffffff167f8be0079c531659141344cd1fd0a4f28419497f9722a3daafe3b4186f6b6457e060405160405180910390a35050565b600033905090565b6000819050919050565b7f4e487b7100000000000000000000000000000000000000000000000000000000600052601160045260246000fd5b60006109808261093c565b915061098b8361093c565b92508282019050808211156109a3576109a2610946565b5b92915050565b600081519050919050565b600082825260208201905092915050565b60005b838110156109e35780820151818401526020810190506109c8565b60008484015250505050565b6000601f19601f8301169050919050565b6000610a0b826109a9565b610a1581856109b4565b9350610a258185602086016109c5565b610a2e816109ef565b840191505092915050565b60006020820190508181036000830152610a538184610a00565b905092915050565b6000604051905090565b600080fd5b600080fd5b610a788161093c565b8114610a8357600080fd5b50565b600081359050610a9581610a6f565b92915050565b600060208284031215610ab157610ab0610a65565b5b6000610abf84828501610a86565b91505092915050565b600073ffffffffffffffffffffffffffffffffffffffff82169050919050565b6000610af382610ac8565b9050919050565b610b0381610ae8565b8114610b0e57600080fd5b50565b600081359050610b2081610afa565b92915050565b600060208284031215610b3c57610b3b610a65565b5b6000610b4a84828501610b11565b91505092915050565b610b5c8161093c565b82525050565b6000602082019050610b776000830184610b53565b92915050565b6000819050919050565b6000610ba2610b9d610b9884610ac8565b610b7d565b610ac8565b9050919050565b6000610bb482610b87565b9050919050565b6000610bc682610ba9565b9050919050565b610bd681610bbb565b82525050565b6000602082019050610bf16000830184610bcd565b92915050565b610c0081610ae8565b82525050565b6000602082019050610c1b6000830184610bf7565b92915050565b600080fd5b600080fd5b7f4e487b7100000000000000000000000000000000000000000000000000000000600052604160045260246000fd5b610c63826109ef565b810181811067ffffffffffffffff82111715610c8257610c81610c2b565b5b80604052505050565b6000610c95610a5b565b9050610ca18282610c5a565b919050565b600067ffffffffffffffff821115610cc157610cc0610c2b565b5b610cca826109ef565b9050602081019050919050565b82818337600083830152505050565b6000610cf9610cf484610ca6565b610c8b565b905082815260208101848484011115610d1557610d14610c26565b5b610d20848285610cd7565b509392505050565b600082601f830112610d3d57610d3c610c21565b5b8135610d4d848260208601610ce6565b91505092915050565b600063ffffffff82169050919050565b610d6f81610d56565b8114610d7a57600080fd5b50565b600081359050610d8c81610d66565b92915050565b600080600060608486031215610dab57610daa610a65565b5b600084013567ffffffffffffffff811115610dc957610dc8610a6a565b5b610dd586828701610d28565b935050602084013567ffffffffffffffff811115610df657610df5610a6a565b5b610e0286828701610d28565b9250506040610e1386828701610d7d565b9150509250925092565b7f4e487b7100000000000000000000000000000000000000000000000000000000600052602260045260246000fd5b60006002820490506001821680610e6457607f821691505b602082108103610e7757610e76610e1d565b5b50919050565b7f696e73756666696369656e742062616c616e6365000000000000000000000000600082015250565b6000610eb36014836109b4565b9150610ebe82610e7d565b602082019050919050565b60006020820190508181036000830152610ee281610ea6565b9050919050565b6000610ef48261093c565b9150610eff8361093c565b9250828203905081811115610f1757610f16610946565b5b92915050565b600081905092915050565b50565b6000610f38600083610f1d565b9150610f4382610f28565b600082019050919050565b6000610f5982610f2b565b9150819050919050565b7f5769746864726177206661696c65640000000000000000000000000000000000600082015250565b6000610f99600f836109b4565b9150610fa482610f63565b602082019050919050565b60006020820190508181036000830152610fc881610f8c565b9050919050565b6000610fea610fe5610fe084610d56565b610b7d565b61093c565b9050919050565b610ffa81610fcf565b82525050565b600061100b82610ac8565b9050919050565b61101b81611000565b82525050565b600060a082019050818103600083015261103b8188610a00565b9050818103602083015261104f8187610a00565b905061105e6040830186610ff1565b61106b6060830185611012565b6110786080830184610bf7565b9695505050505050565b60008151905061109181610afa565b92915050565b6000602082840312156110ad576110ac610a65565b5b60006110bb84828501611082565b9150509291505056fea2646970667358221220b6bae4685fa56cbeb7595374d50e6c82d70bcf86b0f151d1bbd80a9e4c77119664736f6c634300081800335472616e7366657272696e672066726f6d2025732077746968206e616d6520257320616e6420616374696f6e666163746f7279416464726573733a2020257320a26469706673582212206662dfc028d13da1f982ac96ad9df8f9b44529b00768cd2147f0cf419aabf08664736f6c63430008180033",
  "linkReferences": {},
  "deployedLinkReferences": {}
}