{
  "_format": "hh-sol-artifact-1",
  "contractName": "Fundraising",
  "sourceName": "contracts/FundRaising.sol",
  "abi": [
    {
      "anonymous": false,
      "inputs": [
        {
          "indexed": true,
          "internalType": "uint256",
          "name": "campaignId",
          "type": "uint256"
        },
        {
          "indexed": false,
          "internalType": "address",
          "name": "campaignAddress",
          "type": "address"
        },
        {
          "indexed": false,
          "internalType": "string",
          "name": "description",
          "type": "string"
        },
        {
          "indexed": false,
          "internalType": "address",
          "name": "organizationAddress",
          "type": "address"
        },
        {
          "indexed": false,
          "internalType": "uint256",
          "name": "duration",
          "type": "uint256"
        },
        {
          "indexed": false,
          "internalType": "uint256",
          "name": "targetAmount",
          "type": "uint256"
        }
      ],
      "name": "CampaignCreated",
      "type": "event"
    },
    {
      "anonymous": false,
      "inputs": [
        {
          "indexed": true,
          "internalType": "uint256",
          "name": "campaignId",
          "type": "uint256"
        },
        {
          "indexed": false,
          "internalType": "bool",
          "name": "successful",
          "type": "bool"
        }
      ],
      "name": "CampaignEnded",
      "type": "event"
    },
    {
      "anonymous": false,
      "inputs": [
        {
          "indexed": true,
          "internalType": "uint256",
          "name": "campaignId",
          "type": "uint256"
        },
        {
          "indexed": false,
          "internalType": "address",
          "name": "contributor",
          "type": "address"
        },
        {
          "indexed": false,
          "internalType": "uint256",
          "name": "amount",
          "type": "uint256"
        }
      ],
      "name": "Contributed",
      "type": "event"
    },
    {
      "anonymous": false,
      "inputs": [
        {
          "indexed": true,
          "internalType": "uint256",
          "name": "campaignId",
          "type": "uint256"
        }
      ],
      "name": "ContributionsRefunded",
      "type": "event"
    },
    {
      "inputs": [
        {
          "internalType": "uint256",
          "name": "",
          "type": "uint256"
        }
      ],
      "name": "campaigns",
      "outputs": [
        {
          "internalType": "address",
          "name": "",
          "type": "address"
        }
      ],
      "stateMutability": "view",
      "type": "function"
    },
    {
      "inputs": [
        {
          "internalType": "string",
          "name": "description",
          "type": "string"
        },
        {
          "internalType": "address",
          "name": "_organizationAddress",
          "type": "address"
        },
        {
          "internalType": "address payable",
          "name": "_actionAddress",
          "type": "address"
        },
        {
          "internalType": "uint256",
          "name": "duration",
          "type": "uint256"
        },
        {
          "internalType": "uint256",
          "name": "amount",
          "type": "uint256"
        }
      ],
      "name": "createCampaign",
      "outputs": [],
      "stateMutability": "nonpayable",
      "type": "function"
    },
    {
      "inputs": [
        {
          "internalType": "address",
          "name": "_organizationAddress",
          "type": "address"
        }
      ],
      "name": "getCampaignsByOrganization",
      "outputs": [
        {
          "components": [
            {
              "internalType": "uint256",
              "name": "id",
              "type": "uint256"
            },
            {
              "internalType": "address",
              "name": "campaignAddress",
              "type": "address"
            },
            {
              "internalType": "string",
              "name": "description",
              "type": "string"
            },
            {
              "internalType": "address",
              "name": "organizationAddress",
              "type": "address"
            },
            {
              "internalType": "address",
              "name": "actionAddress",
              "type": "address"
            },
            {
              "internalType": "uint256",
              "name": "totalAmount",
              "type": "uint256"
            },
            {
              "internalType": "uint256",
              "name": "targetAmount",
              "type": "uint256"
            },
            {
              "internalType": "uint256",
              "name": "startTime",
              "type": "uint256"
            },
            {
              "internalType": "uint256",
              "name": "duration",
              "type": "uint256"
            },
            {
              "internalType": "address",
              "name": "creator",
              "type": "address"
            },
            {
              "internalType": "address[]",
              "name": "contributors",
              "type": "address[]"
            }
          ],
          "internalType": "struct Fundraising.CampaignInfo[]",
          "name": "",
          "type": "tuple[]"
        }
      ],
      "stateMutability": "view",
      "type": "function"
    },
    {
      "inputs": [
        {
          "internalType": "address",
          "name": "",
          "type": "address"
        },
        {
          "internalType": "uint256",
          "name": "",
          "type": "uint256"
        }
      ],
      "name": "organizationCampaigns",
      "outputs": [
        {
          "internalType": "uint256",
          "name": "",
          "type": "uint256"
        }
      ],
      "stateMutability": "view",
      "type": "function"
    }
  ],
  "bytecode": "0x6080604052600160005534801561001557600080fd5b50613526806100256000396000f3fe60806040523480156200001157600080fd5b5060043610620000525760003560e01c8063141961bc14620000575780631967be01146200008d5780638e29385b14620000c3578063c1530fec14620000e3575b600080fd5b6200007560048036038101906200006f919062000dc3565b62000119565b60405162000084919062000e3a565b60405180910390f35b620000ab6004803603810190620000a5919062000e88565b6200014c565b604051620000ba91906200120f565b60405180910390f35b620000e16004803603810190620000db9190620013c9565b620009ce565b005b620001016004803603810190620000fb919062001470565b62000c82565b604051620001109190620014c8565b60405180910390f35b60016020528060005260406000206000915054906101000a900473ffffffffffffffffffffffffffffffffffffffff1681565b60606000600260008473ffffffffffffffffffffffffffffffffffffffff1673ffffffffffffffffffffffffffffffffffffffff168152602001908152602001600020805480602002602001604051908101604052809291908181526020018280548015620001db57602002820191906000526020600020905b815481526020019060010190808311620001c6575b505050505090506000805b8251811015620002dd576000600160008584815181106200020c576200020b620014e5565b5b6020026020010151815260200190815260200160002060009054906101000a900473ffffffffffffffffffffffffffffffffffffffff1690508073ffffffffffffffffffffffffffffffffffffffff166302fb0c5e6040518163ffffffff1660e01b8152600401602060405180830381865afa15801562000291573d6000803e3d6000fd5b505050506040513d601f19601f82011682018060405250810190620002b7919062001551565b15620002ce578280620002ca90620015b2565b9350505b508080600101915050620001e6565b5060008167ffffffffffffffff811115620002fd57620002fc6200123d565b5b6040519080825280602002602001820160405280156200033a57816020015b6200032662000cb4565b8152602001906001900390816200031c5790505b5090506000805b8451811015620009c157600060016000878481518110620003675762000366620014e5565b5b6020026020010151815260200190815260200160002060009054906101000a900473ffffffffffffffffffffffffffffffffffffffff1690508073ffffffffffffffffffffffffffffffffffffffff166302fb0c5e6040518163ffffffff1660e01b8152600401602060405180830381865afa158015620003ec573d6000803e3d6000fd5b505050506040513d601f19601f8201168201806040525081019062000412919062001551565b15620009b2576040518061016001604052808273ffffffffffffffffffffffffffffffffffffffff1663af640d0f6040518163ffffffff1660e01b8152600401602060405180830381865afa15801562000470573d6000803e3d6000fd5b505050506040513d601f19601f8201168201806040525081019062000496919062001616565b815260200160016000898681518110620004b557620004b4620014e5565b5b6020026020010151815260200190815260200160002060009054906101000a900473ffffffffffffffffffffffffffffffffffffffff1673ffffffffffffffffffffffffffffffffffffffff1681526020018273ffffffffffffffffffffffffffffffffffffffff16637284e4166040518163ffffffff1660e01b8152600401600060405180830381865afa15801562000553573d6000803e3d6000fd5b505050506040513d6000823e3d601f19601f820116820180604052508101906200057e9190620016c6565b81526020018273ffffffffffffffffffffffffffffffffffffffff16630db703686040518163ffffffff1660e01b8152600401602060405180830381865afa158015620005cf573d6000803e3d6000fd5b505050506040513d601f19601f82011682018060405250810190620005f591906200172e565b73ffffffffffffffffffffffffffffffffffffffff1681526020018273ffffffffffffffffffffffffffffffffffffffff1663ddf14b226040518163ffffffff1660e01b8152600401602060405180830381865afa1580156200065c573d6000803e3d6000fd5b505050506040513d601f19601f8201168201806040525081019062000682919062001777565b73ffffffffffffffffffffffffffffffffffffffff1681526020018273ffffffffffffffffffffffffffffffffffffffff16631a39d8ef6040518163ffffffff1660e01b8152600401602060405180830381865afa158015620006e9573d6000803e3d6000fd5b505050506040513d601f19601f820116820180604052508101906200070f919062001616565b81526020018273ffffffffffffffffffffffffffffffffffffffff1663953b8fb86040518163ffffffff1660e01b8152600401602060405180830381865afa15801562000760573d6000803e3d6000fd5b505050506040513d601f19601f8201168201806040525081019062000786919062001616565b81526020018273ffffffffffffffffffffffffffffffffffffffff166378e979256040518163ffffffff1660e01b8152600401602060405180830381865afa158015620007d7573d6000803e3d6000fd5b505050506040513d601f19601f82011682018060405250810190620007fd919062001616565b81526020018273ffffffffffffffffffffffffffffffffffffffff16630fb5a6b46040518163ffffffff1660e01b8152600401602060405180830381865afa1580156200084e573d6000803e3d6000fd5b505050506040513d601f19601f8201168201806040525081019062000874919062001616565b81526020018273ffffffffffffffffffffffffffffffffffffffff16630ee2cb106040518163ffffffff1660e01b8152600401602060405180830381865afa158015620008c5573d6000803e3d6000fd5b505050506040513d601f19601f82011682018060405250810190620008eb91906200172e565b73ffffffffffffffffffffffffffffffffffffffff1681526020018273ffffffffffffffffffffffffffffffffffffffff1663af157c196040518163ffffffff1660e01b8152600401600060405180830381865afa15801562000952573d6000803e3d6000fd5b505050506040513d6000823e3d601f19601f820116820180604052508101906200097d919062001884565b815250848481518110620009965762000995620014e5565b5b60200260200101819052508280620009ae90620015b2565b9350505b50808060010191505062000341565b5081945050505050919050565b60008473ffffffffffffffffffffffffffffffffffffffff166370a08231336040518263ffffffff1660e01b815260040162000a0b919062000e3a565b602060405180830381865afa15801562000a29573d6000803e3d6000fd5b505050506040513d601f19601f8201168201806040525081019062000a4f919062001616565b1162000a92576040517f08c379a000000000000000000000000000000000000000000000000000000000815260040162000a89906200195c565b60405180910390fd5b6000818473ffffffffffffffffffffffffffffffffffffffff1663a7cc53f56040518163ffffffff1660e01b8152600401602060405180830381865afa15801562000ae1573d6000803e3d6000fd5b505050506040513d601f19601f8201168201806040525081019062000b07919062001616565b62000b1391906200197e565b9050600080548787878542893360405162000b2e9062000d66565b62000b4198979695949392919062001a1b565b604051809103906000f08015801562000b5e573d6000803e3d6000fd5b50905080600160008054815260200190815260200160002060006101000a81548173ffffffffffffffffffffffffffffffffffffffff021916908373ffffffffffffffffffffffffffffffffffffffff160217905550600260008773ffffffffffffffffffffffffffffffffffffffff1673ffffffffffffffffffffffffffffffffffffffff16815260200190815260200160002060005490806001815401808255809150506001900390600052602060002001600090919091909150556000547fc74a328a6f93110f65f64cfd1ce4f9246b69c9b4ccb1024b98974c6b96a55728828989888760405162000c5895949392919062001ab0565b60405180910390a260008081548092919062000c7490620015b2565b919050555050505050505050565b6002602052816000526040600020818154811062000c9f57600080fd5b90600052602060002001600091509150505481565b60405180610160016040528060008152602001600073ffffffffffffffffffffffffffffffffffffffff16815260200160608152602001600073ffffffffffffffffffffffffffffffffffffffff168152602001600073ffffffffffffffffffffffffffffffffffffffff16815260200160008152602001600081526020016000815260200160008152602001600073ffffffffffffffffffffffffffffffffffffffff168152602001606081525090565b6119dc8062001b1583390190565b6000604051905090565b600080fd5b600080fd5b6000819050919050565b62000d9d8162000d88565b811462000da957600080fd5b50565b60008135905062000dbd8162000d92565b92915050565b60006020828403121562000ddc5762000ddb62000d7e565b5b600062000dec8482850162000dac565b91505092915050565b600073ffffffffffffffffffffffffffffffffffffffff82169050919050565b600062000e228262000df5565b9050919050565b62000e348162000e15565b82525050565b600060208201905062000e51600083018462000e29565b92915050565b62000e628162000e15565b811462000e6e57600080fd5b50565b60008135905062000e828162000e57565b92915050565b60006020828403121562000ea15762000ea062000d7e565b5b600062000eb18482850162000e71565b91505092915050565b600081519050919050565b600082825260208201905092915050565b6000819050602082019050919050565b62000ef18162000d88565b82525050565b62000f028162000e15565b82525050565b600081519050919050565b600082825260208201905092915050565b60005b8381101562000f4457808201518184015260208101905062000f27565b60008484015250505050565b6000601f19601f8301169050919050565b600062000f6e8262000f08565b62000f7a818562000f13565b935062000f8c81856020860162000f24565b62000f978162000f50565b840191505092915050565b600081519050919050565b600082825260208201905092915050565b6000819050602082019050919050565b600062000fdc838362000ef7565b60208301905092915050565b6000602082019050919050565b6000620010028262000fa2565b6200100e818562000fad565b93506200101b8362000fbe565b8060005b838110156200105257815162001036888262000fce565b9750620010438362000fe8565b9250506001810190506200101f565b5085935050505092915050565b6000610160830160008301516200107a600086018262000ee6565b5060208301516200108f602086018262000ef7565b5060408301518482036040860152620010a9828262000f61565b9150506060830151620010c0606086018262000ef7565b506080830151620010d5608086018262000ef7565b5060a0830151620010ea60a086018262000ee6565b5060c0830151620010ff60c086018262000ee6565b5060e08301516200111460e086018262000ee6565b506101008301516200112b61010086018262000ee6565b506101208301516200114261012086018262000ef7565b506101408301518482036101408601526200115e828262000ff5565b9150508091505092915050565b60006200117983836200105f565b905092915050565b6000602082019050919050565b60006200119b8262000eba565b620011a7818562000ec5565b935083602082028501620011bb8562000ed6565b8060005b85811015620011fd5784840389528151620011db85826200116b565b9450620011e88362001181565b925060208a01995050600181019050620011bf565b50829750879550505050505092915050565b600060208201905081810360008301526200122b81846200118e565b905092915050565b600080fd5b600080fd5b7f4e487b7100000000000000000000000000000000000000000000000000000000600052604160045260246000fd5b620012778262000f50565b810181811067ffffffffffffffff821117156200129957620012986200123d565b5b80604052505050565b6000620012ae62000d74565b9050620012bc82826200126c565b919050565b600067ffffffffffffffff821115620012df57620012de6200123d565b5b620012ea8262000f50565b9050602081019050919050565b82818337600083830152505050565b60006200131d6200131784620012c1565b620012a2565b9050828152602081018484840111156200133c576200133b62001238565b5b62001349848285620012f7565b509392505050565b600082601f83011262001369576200136862001233565b5b81356200137b84826020860162001306565b91505092915050565b6000620013918262000df5565b9050919050565b620013a38162001384565b8114620013af57600080fd5b50565b600081359050620013c38162001398565b92915050565b600080600080600060a08688031215620013e857620013e762000d7e565b5b600086013567ffffffffffffffff81111562001409576200140862000d83565b5b620014178882890162001351565b95505060206200142a8882890162000e71565b94505060406200143d88828901620013b2565b9350506060620014508882890162000dac565b9250506080620014638882890162000dac565b9150509295509295909350565b600080604083850312156200148a576200148962000d7e565b5b60006200149a8582860162000e71565b9250506020620014ad8582860162000dac565b9150509250929050565b620014c28162000d88565b82525050565b6000602082019050620014df6000830184620014b7565b92915050565b7f4e487b7100000000000000000000000000000000000000000000000000000000600052603260045260246000fd5b60008115159050919050565b6200152b8162001514565b81146200153757600080fd5b50565b6000815190506200154b8162001520565b92915050565b6000602082840312156200156a576200156962000d7e565b5b60006200157a848285016200153a565b91505092915050565b7f4e487b7100000000000000000000000000000000000000000000000000000000600052601160045260246000fd5b6000620015bf8262000d88565b91507fffffffffffffffffffffffffffffffffffffffffffffffffffffffffffffffff8203620015f457620015f362001583565b5b600182019050919050565b600081519050620016108162000d92565b92915050565b6000602082840312156200162f576200162e62000d7e565b5b60006200163f84828501620015ff565b91505092915050565b60006200165f6200165984620012c1565b620012a2565b9050828152602081018484840111156200167e576200167d62001238565b5b6200168b84828562000f24565b509392505050565b600082601f830112620016ab57620016aa62001233565b5b8151620016bd84826020860162001648565b91505092915050565b600060208284031215620016df57620016de62000d7e565b5b600082015167ffffffffffffffff8111156200170057620016ff62000d83565b5b6200170e8482850162001693565b91505092915050565b600081519050620017288162000e57565b92915050565b60006020828403121562001747576200174662000d7e565b5b6000620017578482850162001717565b91505092915050565b600081519050620017718162001398565b92915050565b60006020828403121562001790576200178f62000d7e565b5b6000620017a08482850162001760565b91505092915050565b600067ffffffffffffffff821115620017c757620017c66200123d565b5b602082029050602081019050919050565b600080fd5b6000620017f4620017ee84620017a9565b620012a2565b905080838252602082019050602084028301858111156200181a5762001819620017d8565b5b835b8181101562001847578062001832888262001717565b8452602084019350506020810190506200181c565b5050509392505050565b600082601f83011262001869576200186862001233565b5b81516200187b848260208601620017dd565b91505092915050565b6000602082840312156200189d576200189c62000d7e565b5b600082015167ffffffffffffffff811115620018be57620018bd62000d83565b5b620018cc8482850162001851565b91505092915050565b600082825260208201905092915050565b7f43616c6c657220646f6573206e6f7420686f6c6420616e206f7267616e697a6160008201527f74696f6e204e4654000000000000000000000000000000000000000000000000602082015250565b600062001944602883620018d5565b91506200195182620018e6565b604082019050919050565b60006020820190508181036000830152620019778162001935565b9050919050565b60006200198b8262000d88565b9150620019988362000d88565b9250828202620019a88162000d88565b91508282048414831517620019c257620019c162001583565b5b5092915050565b6000620019d68262000f08565b620019e28185620018d5565b9350620019f481856020860162000f24565b620019ff8162000f50565b840191505092915050565b62001a158162001384565b82525050565b60006101008201905062001a33600083018b620014b7565b818103602083015262001a47818a620019c9565b905062001a58604083018962000e29565b62001a67606083018862001a0a565b62001a766080830187620014b7565b62001a8560a0830186620014b7565b62001a9460c0830185620014b7565b62001aa360e083018462000e29565b9998505050505050505050565b600060a08201905062001ac7600083018862000e29565b818103602083015262001adb8187620019c9565b905062001aec604083018662000e29565b62001afb6060830185620014b7565b62001b0a6080830184620014b7565b969550505050505056fe60806040523480156200001157600080fd5b50604051620019dc380380620019dc8339818101604052810190620000379190620003c9565b8760008190555086600190816200004f9190620006f2565b5085600260006101000a81548173ffffffffffffffffffffffffffffffffffffffff021916908373ffffffffffffffffffffffffffffffffffffffff16021790555084600360006101000a81548173ffffffffffffffffffffffffffffffffffffffff021916908373ffffffffffffffffffffffffffffffffffffffff16021790555083600581905550826006819055508160078190555080600860006101000a81548173ffffffffffffffffffffffffffffffffffffffff021916908373ffffffffffffffffffffffffffffffffffffffff1602179055506001600b60006101000a81548160ff0219169083151502179055505050505050505050620007d9565b6000604051905090565b600080fd5b600080fd5b6000819050919050565b6200017a8162000165565b81146200018657600080fd5b50565b6000815190506200019a816200016f565b92915050565b600080fd5b600080fd5b6000601f19601f8301169050919050565b7f4e487b7100000000000000000000000000000000000000000000000000000000600052604160045260246000fd5b620001f582620001aa565b810181811067ffffffffffffffff82111715620002175762000216620001bb565b5b80604052505050565b60006200022c62000151565b90506200023a8282620001ea565b919050565b600067ffffffffffffffff8211156200025d576200025c620001bb565b5b6200026882620001aa565b9050602081019050919050565b60005b838110156200029557808201518184015260208101905062000278565b60008484015250505050565b6000620002b8620002b2846200023f565b62000220565b905082815260208101848484011115620002d757620002d6620001a5565b5b620002e484828562000275565b509392505050565b600082601f830112620003045762000303620001a0565b5b815162000316848260208601620002a1565b91505092915050565b600073ffffffffffffffffffffffffffffffffffffffff82169050919050565b60006200034c826200031f565b9050919050565b6200035e816200033f565b81146200036a57600080fd5b50565b6000815190506200037e8162000353565b92915050565b600062000391826200031f565b9050919050565b620003a38162000384565b8114620003af57600080fd5b50565b600081519050620003c38162000398565b92915050565b600080600080600080600080610100898b031215620003ed57620003ec6200015b565b5b6000620003fd8b828c0162000189565b985050602089015167ffffffffffffffff81111562000421576200042062000160565b5b6200042f8b828c01620002ec565b9750506040620004428b828c016200036d565b9650506060620004558b828c01620003b2565b9550506080620004688b828c0162000189565b94505060a06200047b8b828c0162000189565b93505060c06200048e8b828c0162000189565b92505060e0620004a18b828c016200036d565b9150509295985092959890939650565b600081519050919050565b7f4e487b7100000000000000000000000000000000000000000000000000000000600052602260045260246000fd5b600060028204905060018216806200050457607f821691505b6020821081036200051a5762000519620004bc565b5b50919050565b60008190508160005260206000209050919050565b60006020601f8301049050919050565b600082821b905092915050565b600060088302620005847fffffffffffffffffffffffffffffffffffffffffffffffffffffffffffffffff8262000545565b62000590868362000545565b95508019841693508086168417925050509392505050565b6000819050919050565b6000620005d3620005cd620005c78462000165565b620005a8565b62000165565b9050919050565b6000819050919050565b620005ef83620005b2565b62000607620005fe82620005da565b84845462000552565b825550505050565b600090565b6200061e6200060f565b6200062b818484620005e4565b505050565b5b8181101562000653576200064760008262000614565b60018101905062000631565b5050565b601f821115620006a2576200066c8162000520565b620006778462000535565b8101602085101562000687578190505b6200069f620006968562000535565b83018262000630565b50505b505050565b600082821c905092915050565b6000620006c760001984600802620006a7565b1980831691505092915050565b6000620006e28383620006b4565b9150826002028217905092915050565b620006fd82620004b1565b67ffffffffffffffff811115620007195762000718620001bb565b5b620007258254620004eb565b6200073282828562000657565b600060209050601f8311600181146200076a576000841562000755578287015190505b620007618582620006d4565b865550620007d1565b601f1984166200077a8662000520565b60005b82811015620007a4578489015182556001820191506020850194506020810190506200077d565b86831015620007c45784890151620007c0601f891682620006b4565b8355505b6001600288020188555050505b505050505050565b6111f380620007e96000396000f3fe6080604052600436106100f75760003560e01c806342e94c901161008a578063953b8fb811610059578063953b8fb81461049a578063af157c19146104c5578063af640d0f146104f0578063ddf14b221461051b5761026f565b806342e94c90146103f057806371aac7f91461042d5780637284e4161461044457806378e979251461046f5761026f565b80630fb5a6b4116100c65780630fb5a6b4146103205780631a39d8ef1461034b5780633cb5d100146103765780633f19d043146103b35761026f565b806302d05d3f1461027457806302fb0c5e1461029f5780630db70368146102ca5780630ee2cb10146102f55761026f565b3661026f5760075460065461010c9190610b9a565b42111561014e576040517f08c379a000000000000000000000000000000000000000000000000000000000815260040161014590610c2b565b60405180910390fd5b34600960003373ffffffffffffffffffffffffffffffffffffffff1673ffffffffffffffffffffffffffffffffffffffff168152602001908152602001600020600082825461019d9190610b9a565b9250508190555034600460008282546101b69190610b9a565b92505081905550600a339080600181540180825580915050600190039060005260206000200160009091909190916101000a81548173ffffffffffffffffffffffffffffffffffffffff021916908373ffffffffffffffffffffffffffffffffffffffff1602179055507f62722348256371b5147820d6cad90c40fd2da1ccee18c3ed52c0bca5a61dbbab3334604051610251929190610c9b565b60405180910390a16005546004541061026d5761026c610546565b5b005b600080fd5b34801561028057600080fd5b506102896106ec565b6040516102969190610cc4565b60405180910390f35b3480156102ab57600080fd5b506102b4610712565b6040516102c19190610cfa565b60405180910390f35b3480156102d657600080fd5b506102df610725565b6040516102ec9190610cc4565b60405180910390f35b34801561030157600080fd5b5061030a61074b565b6040516103179190610cc4565b60405180910390f35b34801561032c57600080fd5b50610335610775565b6040516103429190610d15565b60405180910390f35b34801561035757600080fd5b5061036061077b565b60405161036d9190610d15565b60405180910390f35b34801561038257600080fd5b5061039d60048036038101906103989190610d61565b610781565b6040516103aa9190610cc4565b60405180910390f35b3480156103bf57600080fd5b506103da60048036038101906103d59190610dba565b6107c0565b6040516103e79190610d15565b60405180910390f35b3480156103fc57600080fd5b5061041760048036038101906104129190610dba565b610809565b6040516104249190610d15565b60405180910390f35b34801561043957600080fd5b50610442610546565b005b34801561045057600080fd5b50610459610821565b6040516104669190610e66565b60405180910390f35b34801561047b57600080fd5b506104846108af565b6040516104919190610d15565b60405180910390f35b3480156104a657600080fd5b506104af6108b5565b6040516104bc9190610d15565b60405180910390f35b3480156104d157600080fd5b506104da6108bb565b6040516104e79190610f46565b60405180910390f35b3480156104fc57600080fd5b50610505610949565b6040516105129190610d15565b60405180910390f35b34801561052757600080fd5b5061053061094f565b60405161053d9190610f89565b60405180910390f35b6007546006546105569190610b9a565b421180610567575060055460045410155b6105a6576040517f08c379a000000000000000000000000000000000000000000000000000000000815260040161059d90610ff0565b60405180910390fd5b60006005546004541015905080156106a9576000600360009054906101000a900473ffffffffffffffffffffffffffffffffffffffff1673ffffffffffffffffffffffffffffffffffffffff1660045460405161060290611041565b60006040518083038185875af1925050503d806000811461063f576040519150601f19603f3d011682016040523d82523d6000602084013e610644565b606091505b5050905080610688576040517f08c379a000000000000000000000000000000000000000000000000000000000815260040161067f906110a2565b60405180910390fd5b6000600b60006101000a81548160ff021916908315150217905550506106b2565b6106b1610975565b5b7f816dfe87ba5698a187c7e35e80b0ed9fb430befe75fb29bca588267bb5f70ea7816040516106e19190610cfa565b60405180910390a150565b600860009054906101000a900473ffffffffffffffffffffffffffffffffffffffff1681565b600b60009054906101000a900460ff1681565b600260009054906101000a900473ffffffffffffffffffffffffffffffffffffffff1681565b6000600860009054906101000a900473ffffffffffffffffffffffffffffffffffffffff16905090565b60075481565b60045481565b600a818154811061079157600080fd5b906000526020600020016000915054906101000a900473ffffffffffffffffffffffffffffffffffffffff1681565b6000600960008373ffffffffffffffffffffffffffffffffffffffff1673ffffffffffffffffffffffffffffffffffffffff168152602001908152602001600020549050919050565b60096020528060005260406000206000915090505481565b6001805461082e906110f1565b80601f016020809104026020016040519081016040528092919081815260200182805461085a906110f1565b80156108a75780601f1061087c576101008083540402835291602001916108a7565b820191906000526020600020905b81548152906001019060200180831161088a57829003601f168201915b505050505081565b60065481565b60055481565b6060600a80548060200260200160405190810160405280929190818152602001828054801561093f57602002820191906000526020600020905b8160009054906101000a900473ffffffffffffffffffffffffffffffffffffffff1673ffffffffffffffffffffffffffffffffffffffff16815260200190600101908083116108f5575b5050505050905090565b60005481565b600360009054906101000a900473ffffffffffffffffffffffffffffffffffffffff1681565b60005b600a80549050811015610b17576000600a828154811061099b5761099a611122565b5b9060005260206000200160009054906101000a900473ffffffffffffffffffffffffffffffffffffffff1690506000600960008373ffffffffffffffffffffffffffffffffffffffff1673ffffffffffffffffffffffffffffffffffffffff1681526020019081526020016000205490506000811115610b08576000600960008473ffffffffffffffffffffffffffffffffffffffff1673ffffffffffffffffffffffffffffffffffffffff1681526020019081526020016000208190555060008273ffffffffffffffffffffffffffffffffffffffff1682604051610a8090611041565b60006040518083038185875af1925050503d8060008114610abd576040519150601f19603f3d011682016040523d82523d6000602084013e610ac2565b606091505b5050905080610b06576040517f08c379a0000000000000000000000000000000000000000000000000000000008152600401610afd9061119d565b60405180910390fd5b505b50508080600101915050610978565b506000600b60006101000a81548160ff0219169083151502179055507fe00163d787b83a583863ec985b5e3acbbb59f1660cd2d00d382fb6e58049f93b60405160405180910390a1565b6000819050919050565b7f4e487b7100000000000000000000000000000000000000000000000000000000600052601160045260246000fd5b6000610ba582610b61565b9150610bb083610b61565b9250828201905080821115610bc857610bc7610b6b565b5b92915050565b600082825260208201905092915050565b7f46756e6472616973696e6720706572696f642068617320656e64656400000000600082015250565b6000610c15601c83610bce565b9150610c2082610bdf565b602082019050919050565b60006020820190508181036000830152610c4481610c08565b9050919050565b600073ffffffffffffffffffffffffffffffffffffffff82169050919050565b6000610c7682610c4b565b9050919050565b610c8681610c6b565b82525050565b610c9581610b61565b82525050565b6000604082019050610cb06000830185610c7d565b610cbd6020830184610c8c565b9392505050565b6000602082019050610cd96000830184610c7d565b92915050565b60008115159050919050565b610cf481610cdf565b82525050565b6000602082019050610d0f6000830184610ceb565b92915050565b6000602082019050610d2a6000830184610c8c565b92915050565b600080fd5b610d3e81610b61565b8114610d4957600080fd5b50565b600081359050610d5b81610d35565b92915050565b600060208284031215610d7757610d76610d30565b5b6000610d8584828501610d4c565b91505092915050565b610d9781610c6b565b8114610da257600080fd5b50565b600081359050610db481610d8e565b92915050565b600060208284031215610dd057610dcf610d30565b5b6000610dde84828501610da5565b91505092915050565b600081519050919050565b60005b83811015610e10578082015181840152602081019050610df5565b60008484015250505050565b6000601f19601f8301169050919050565b6000610e3882610de7565b610e428185610bce565b9350610e52818560208601610df2565b610e5b81610e1c565b840191505092915050565b60006020820190508181036000830152610e808184610e2d565b905092915050565b600081519050919050565b600082825260208201905092915050565b6000819050602082019050919050565b610ebd81610c6b565b82525050565b6000610ecf8383610eb4565b60208301905092915050565b6000602082019050919050565b6000610ef382610e88565b610efd8185610e93565b9350610f0883610ea4565b8060005b83811015610f39578151610f208882610ec3565b9750610f2b83610edb565b925050600181019050610f0c565b5085935050505092915050565b60006020820190508181036000830152610f608184610ee8565b905092915050565b6000610f7382610c4b565b9050919050565b610f8381610f68565b82525050565b6000602082019050610f9e6000830184610f7a565b92915050565b7f46756e6472616973696e6720706572696f6420686173206e6f7420656e646564600082015250565b6000610fda602083610bce565b9150610fe582610fa4565b602082019050919050565b6000602082019050818103600083015261100981610fcd565b9050919050565b600081905092915050565b50565b600061102b600083611010565b91506110368261101b565b600082019050919050565b600061104c8261101e565b9150819050919050565b7f5472616e73666572206661696c65640000000000000000000000000000000000600082015250565b600061108c600f83610bce565b915061109782611056565b602082019050919050565b600060208201905081810360008301526110bb8161107f565b9050919050565b7f4e487b7100000000000000000000000000000000000000000000000000000000600052602260045260246000fd5b6000600282049050600182168061110957607f821691505b60208210810361111c5761111b6110c2565b5b50919050565b7f4e487b7100000000000000000000000000000000000000000000000000000000600052603260045260246000fd5b7f526566756e64206661696c656400000000000000000000000000000000000000600082015250565b6000611187600d83610bce565b915061119282611151565b602082019050919050565b600060208201905081810360008301526111b68161117a565b905091905056fea264697066735822122066f981f37a3cd90ac944f048f13ec579f7b2b4a434c6aafef166344712b28ac464736f6c63430008180033a2646970667358221220e4a8a3b2bf281311993b0487b8db038d8630c56be4d04803fe90faf92f9360f464736f6c63430008180033",
  "linkReferences": {},
  "deployedLinkReferences": {}
}