{
  "_format": "hh-sol-artifact-1",
  "contractName": "Fundraising",
  "sourceName": "contracts/FundRaising.sol",
  "abi": [
    {
      "anonymous": false,
      "inputs": [
        {
          "indexed": true,
          "internalType": "uint256",
          "name": "campaignId",
          "type": "uint256"
        },
        {
          "indexed": false,
          "internalType": "address",
          "name": "campaignAddress",
          "type": "address"
        },
        {
          "indexed": false,
          "internalType": "string",
          "name": "description",
          "type": "string"
        },
        {
          "indexed": false,
          "internalType": "address",
          "name": "organizationAddress",
          "type": "address"
        },
        {
          "indexed": false,
          "internalType": "uint256",
          "name": "duration",
          "type": "uint256"
        },
        {
          "indexed": false,
          "internalType": "uint256",
          "name": "targetAmount",
          "type": "uint256"
        }
      ],
      "name": "CampaignCreated",
      "type": "event"
    },
    {
      "anonymous": false,
      "inputs": [
        {
          "indexed": true,
          "internalType": "uint256",
          "name": "campaignId",
          "type": "uint256"
        },
        {
          "indexed": false,
          "internalType": "bool",
          "name": "successful",
          "type": "bool"
        }
      ],
      "name": "CampaignEnded",
      "type": "event"
    },
    {
      "anonymous": false,
      "inputs": [
        {
          "indexed": true,
          "internalType": "uint256",
          "name": "campaignId",
          "type": "uint256"
        },
        {
          "indexed": false,
          "internalType": "address",
          "name": "contributor",
          "type": "address"
        },
        {
          "indexed": false,
          "internalType": "uint256",
          "name": "amount",
          "type": "uint256"
        }
      ],
      "name": "Contributed",
      "type": "event"
    },
    {
      "anonymous": false,
      "inputs": [
        {
          "indexed": true,
          "internalType": "uint256",
          "name": "campaignId",
          "type": "uint256"
        }
      ],
      "name": "ContributionsRefunded",
      "type": "event"
    },
    {
      "inputs": [
        {
          "internalType": "uint256",
          "name": "",
          "type": "uint256"
        }
      ],
      "name": "campaigns",
      "outputs": [
        {
          "internalType": "address",
          "name": "",
          "type": "address"
        }
      ],
      "stateMutability": "view",
      "type": "function"
    },
    {
      "inputs": [
        {
          "internalType": "string",
          "name": "description",
          "type": "string"
        },
        {
          "internalType": "address",
          "name": "_organizationAddress",
          "type": "address"
        },
        {
          "internalType": "address payable",
          "name": "_actionAddress",
          "type": "address"
        },
        {
          "internalType": "uint256",
          "name": "duration",
          "type": "uint256"
        },
        {
          "internalType": "uint256",
          "name": "amount",
          "type": "uint256"
        }
      ],
      "name": "createCampaign",
      "outputs": [],
      "stateMutability": "nonpayable",
      "type": "function"
    },
    {
      "inputs": [
        {
          "internalType": "address",
          "name": "_organizationAddress",
          "type": "address"
        }
      ],
      "name": "getCampaignsByOrganization",
      "outputs": [
        {
          "components": [
            {
              "internalType": "uint256",
              "name": "id",
              "type": "uint256"
            },
            {
              "internalType": "address",
              "name": "campaignAddress",
              "type": "address"
            },
            {
              "internalType": "string",
              "name": "description",
              "type": "string"
            },
            {
              "internalType": "address",
              "name": "organizationAddress",
              "type": "address"
            },
            {
              "internalType": "address",
              "name": "actionAddress",
              "type": "address"
            },
            {
              "internalType": "uint256",
              "name": "totalAmount",
              "type": "uint256"
            },
            {
              "internalType": "uint256",
              "name": "targetAmount",
              "type": "uint256"
            },
            {
              "internalType": "uint256",
              "name": "startTime",
              "type": "uint256"
            },
            {
              "internalType": "uint256",
              "name": "duration",
              "type": "uint256"
            },
            {
              "internalType": "address[]",
              "name": "contributors",
              "type": "address[]"
            }
          ],
          "internalType": "struct Fundraising.CampaignInfo[]",
          "name": "",
          "type": "tuple[]"
        }
      ],
      "stateMutability": "view",
      "type": "function"
    },
    {
      "inputs": [
        {
          "internalType": "address",
          "name": "",
          "type": "address"
        },
        {
          "internalType": "uint256",
          "name": "",
          "type": "uint256"
        }
      ],
      "name": "organizationCampaigns",
      "outputs": [
        {
          "internalType": "uint256",
          "name": "",
          "type": "uint256"
        }
      ],
      "stateMutability": "view",
      "type": "function"
    }
  ],
  "bytecode": "0x6080604052600160005534801561001557600080fd5b5061333e806100256000396000f3fe60806040523480156200001157600080fd5b5060043610620000525760003560e01c8063141961bc14620000575780631967be01146200008d5780638e29385b14620000c3578063c1530fec14620000e3575b600080fd5b6200007560048036038101906200006f919062000d17565b62000119565b60405162000084919062000d8e565b60405180910390f35b620000ab6004803603810190620000a5919062000ddc565b6200014c565b604051620000ba91906200114c565b60405180910390f35b620000e16004803603810190620000db919062001306565b62000941565b005b620001016004803603810190620000fb9190620013ad565b62000bf3565b60405162000110919062001405565b60405180910390f35b60016020528060005260406000206000915054906101000a900473ffffffffffffffffffffffffffffffffffffffff1681565b60606000600260008473ffffffffffffffffffffffffffffffffffffffff1673ffffffffffffffffffffffffffffffffffffffff168152602001908152602001600020805480602002602001604051908101604052809291908181526020018280548015620001db57602002820191906000526020600020905b815481526020019060010190808311620001c6575b505050505090506000805b8251811015620002dd576000600160008584815181106200020c576200020b62001422565b5b6020026020010151815260200190815260200160002060009054906101000a900473ffffffffffffffffffffffffffffffffffffffff1690508073ffffffffffffffffffffffffffffffffffffffff166302fb0c5e6040518163ffffffff1660e01b8152600401602060405180830381865afa15801562000291573d6000803e3d6000fd5b505050506040513d601f19601f82011682018060405250810190620002b791906200148e565b15620002ce578280620002ca90620014ef565b9350505b508080600101915050620001e6565b5060008167ffffffffffffffff811115620002fd57620002fc6200117a565b5b6040519080825280602002602001820160405280156200033a57816020015b6200032662000c25565b8152602001906001900390816200031c5790505b5090506000805b8451811015620009345760006001600087848151811062000367576200036662001422565b5b6020026020010151815260200190815260200160002060009054906101000a900473ffffffffffffffffffffffffffffffffffffffff1690508073ffffffffffffffffffffffffffffffffffffffff166302fb0c5e6040518163ffffffff1660e01b8152600401602060405180830381865afa158015620003ec573d6000803e3d6000fd5b505050506040513d601f19601f820116820180604052508101906200041291906200148e565b1562000925576040518061014001604052808273ffffffffffffffffffffffffffffffffffffffff1663af640d0f6040518163ffffffff1660e01b8152600401602060405180830381865afa15801562000470573d6000803e3d6000fd5b505050506040513d601f19601f8201168201806040525081019062000496919062001553565b815260200160016000898681518110620004b557620004b462001422565b5b6020026020010151815260200190815260200160002060009054906101000a900473ffffffffffffffffffffffffffffffffffffffff1673ffffffffffffffffffffffffffffffffffffffff1681526020018273ffffffffffffffffffffffffffffffffffffffff16637284e4166040518163ffffffff1660e01b8152600401600060405180830381865afa15801562000553573d6000803e3d6000fd5b505050506040513d6000823e3d601f19601f820116820180604052508101906200057e919062001603565b81526020018273ffffffffffffffffffffffffffffffffffffffff16630db703686040518163ffffffff1660e01b8152600401602060405180830381865afa158015620005cf573d6000803e3d6000fd5b505050506040513d601f19601f82011682018060405250810190620005f591906200166b565b73ffffffffffffffffffffffffffffffffffffffff1681526020018273ffffffffffffffffffffffffffffffffffffffff1663ddf14b226040518163ffffffff1660e01b8152600401602060405180830381865afa1580156200065c573d6000803e3d6000fd5b505050506040513d601f19601f82011682018060405250810190620006829190620016b4565b73ffffffffffffffffffffffffffffffffffffffff1681526020018273ffffffffffffffffffffffffffffffffffffffff16631a39d8ef6040518163ffffffff1660e01b8152600401602060405180830381865afa158015620006e9573d6000803e3d6000fd5b505050506040513d601f19601f820116820180604052508101906200070f919062001553565b81526020018273ffffffffffffffffffffffffffffffffffffffff1663953b8fb86040518163ffffffff1660e01b8152600401602060405180830381865afa15801562000760573d6000803e3d6000fd5b505050506040513d601f19601f8201168201806040525081019062000786919062001553565b81526020018273ffffffffffffffffffffffffffffffffffffffff166378e979256040518163ffffffff1660e01b8152600401602060405180830381865afa158015620007d7573d6000803e3d6000fd5b505050506040513d601f19601f82011682018060405250810190620007fd919062001553565b81526020018273ffffffffffffffffffffffffffffffffffffffff16630fb5a6b46040518163ffffffff1660e01b8152600401602060405180830381865afa1580156200084e573d6000803e3d6000fd5b505050506040513d601f19601f8201168201806040525081019062000874919062001553565b81526020018273ffffffffffffffffffffffffffffffffffffffff1663af157c196040518163ffffffff1660e01b8152600401600060405180830381865afa158015620008c5573d6000803e3d6000fd5b505050506040513d6000823e3d601f19601f82011682018060405250810190620008f09190620017c1565b81525084848151811062000909576200090862001422565b5b602002602001018190525082806200092190620014ef565b9350505b50808060010191505062000341565b5081945050505050919050565b60008473ffffffffffffffffffffffffffffffffffffffff166370a08231336040518263ffffffff1660e01b81526004016200097e919062000d8e565b602060405180830381865afa1580156200099c573d6000803e3d6000fd5b505050506040513d601f19601f82011682018060405250810190620009c2919062001553565b1162000a05576040517f08c379a0000000000000000000000000000000000000000000000000000000008152600401620009fc9062001899565b60405180910390fd5b6000818473ffffffffffffffffffffffffffffffffffffffff1663a7cc53f56040518163ffffffff1660e01b8152600401602060405180830381865afa15801562000a54573d6000803e3d6000fd5b505050506040513d601f19601f8201168201806040525081019062000a7a919062001553565b62000a869190620018bb565b90506000805487878785428960405162000aa09062000cba565b62000ab2979695949392919062001958565b604051809103906000f08015801562000acf573d6000803e3d6000fd5b50905080600160008054815260200190815260200160002060006101000a81548173ffffffffffffffffffffffffffffffffffffffff021916908373ffffffffffffffffffffffffffffffffffffffff160217905550600260008773ffffffffffffffffffffffffffffffffffffffff1673ffffffffffffffffffffffffffffffffffffffff16815260200190815260200160002060005490806001815401808255809150506001900390600052602060002001600090919091909150556000547fc74a328a6f93110f65f64cfd1ce4f9246b69c9b4ccb1024b98974c6b96a55728828989888760405162000bc9959493929190620019dc565b60405180910390a260008081548092919062000be590620014ef565b919050555050505050505050565b6002602052816000526040600020818154811062000c1057600080fd5b90600052602060002001600091509150505481565b60405180610140016040528060008152602001600073ffffffffffffffffffffffffffffffffffffffff16815260200160608152602001600073ffffffffffffffffffffffffffffffffffffffff168152602001600073ffffffffffffffffffffffffffffffffffffffff16815260200160008152602001600081526020016000815260200160008152602001606081525090565b6118c88062001a4183390190565b6000604051905090565b600080fd5b600080fd5b6000819050919050565b62000cf18162000cdc565b811462000cfd57600080fd5b50565b60008135905062000d118162000ce6565b92915050565b60006020828403121562000d305762000d2f62000cd2565b5b600062000d408482850162000d00565b91505092915050565b600073ffffffffffffffffffffffffffffffffffffffff82169050919050565b600062000d768262000d49565b9050919050565b62000d888162000d69565b82525050565b600060208201905062000da5600083018462000d7d565b92915050565b62000db68162000d69565b811462000dc257600080fd5b50565b60008135905062000dd68162000dab565b92915050565b60006020828403121562000df55762000df462000cd2565b5b600062000e058482850162000dc5565b91505092915050565b600081519050919050565b600082825260208201905092915050565b6000819050602082019050919050565b62000e458162000cdc565b82525050565b62000e568162000d69565b82525050565b600081519050919050565b600082825260208201905092915050565b60005b8381101562000e9857808201518184015260208101905062000e7b565b60008484015250505050565b6000601f19601f8301169050919050565b600062000ec28262000e5c565b62000ece818562000e67565b935062000ee081856020860162000e78565b62000eeb8162000ea4565b840191505092915050565b600081519050919050565b600082825260208201905092915050565b6000819050602082019050919050565b600062000f30838362000e4b565b60208301905092915050565b6000602082019050919050565b600062000f568262000ef6565b62000f62818562000f01565b935062000f6f8362000f12565b8060005b8381101562000fa657815162000f8a888262000f22565b975062000f978362000f3c565b92505060018101905062000f73565b5085935050505092915050565b60006101408301600083015162000fce600086018262000e3a565b50602083015162000fe3602086018262000e4b565b506040830151848203604086015262000ffd828262000eb5565b915050606083015162001014606086018262000e4b565b50608083015162001029608086018262000e4b565b5060a08301516200103e60a086018262000e3a565b5060c08301516200105360c086018262000e3a565b5060e08301516200106860e086018262000e3a565b506101008301516200107f61010086018262000e3a565b506101208301518482036101208601526200109b828262000f49565b9150508091505092915050565b6000620010b6838362000fb3565b905092915050565b6000602082019050919050565b6000620010d88262000e0e565b620010e4818562000e19565b935083602082028501620010f88562000e2a565b8060005b858110156200113a5784840389528151620011188582620010a8565b94506200112583620010be565b925060208a01995050600181019050620010fc565b50829750879550505050505092915050565b60006020820190508181036000830152620011688184620010cb565b905092915050565b600080fd5b600080fd5b7f4e487b7100000000000000000000000000000000000000000000000000000000600052604160045260246000fd5b620011b48262000ea4565b810181811067ffffffffffffffff82111715620011d657620011d56200117a565b5b80604052505050565b6000620011eb62000cc8565b9050620011f98282620011a9565b919050565b600067ffffffffffffffff8211156200121c576200121b6200117a565b5b620012278262000ea4565b9050602081019050919050565b82818337600083830152505050565b60006200125a6200125484620011fe565b620011df565b90508281526020810184848401111562001279576200127862001175565b5b6200128684828562001234565b509392505050565b600082601f830112620012a657620012a562001170565b5b8135620012b884826020860162001243565b91505092915050565b6000620012ce8262000d49565b9050919050565b620012e081620012c1565b8114620012ec57600080fd5b50565b6000813590506200130081620012d5565b92915050565b600080600080600060a0868803121562001325576200132462000cd2565b5b600086013567ffffffffffffffff81111562001346576200134562000cd7565b5b62001354888289016200128e565b9550506020620013678882890162000dc5565b94505060406200137a88828901620012ef565b93505060606200138d8882890162000d00565b9250506080620013a08882890162000d00565b9150509295509295909350565b60008060408385031215620013c757620013c662000cd2565b5b6000620013d78582860162000dc5565b9250506020620013ea8582860162000d00565b9150509250929050565b620013ff8162000cdc565b82525050565b60006020820190506200141c6000830184620013f4565b92915050565b7f4e487b7100000000000000000000000000000000000000000000000000000000600052603260045260246000fd5b60008115159050919050565b620014688162001451565b81146200147457600080fd5b50565b60008151905062001488816200145d565b92915050565b600060208284031215620014a757620014a662000cd2565b5b6000620014b78482850162001477565b91505092915050565b7f4e487b7100000000000000000000000000000000000000000000000000000000600052601160045260246000fd5b6000620014fc8262000cdc565b91507fffffffffffffffffffffffffffffffffffffffffffffffffffffffffffffffff8203620015315762001530620014c0565b5b600182019050919050565b6000815190506200154d8162000ce6565b92915050565b6000602082840312156200156c576200156b62000cd2565b5b60006200157c848285016200153c565b91505092915050565b60006200159c6200159684620011fe565b620011df565b905082815260208101848484011115620015bb57620015ba62001175565b5b620015c884828562000e78565b509392505050565b600082601f830112620015e857620015e762001170565b5b8151620015fa84826020860162001585565b91505092915050565b6000602082840312156200161c576200161b62000cd2565b5b600082015167ffffffffffffffff8111156200163d576200163c62000cd7565b5b6200164b84828501620015d0565b91505092915050565b600081519050620016658162000dab565b92915050565b60006020828403121562001684576200168362000cd2565b5b6000620016948482850162001654565b91505092915050565b600081519050620016ae81620012d5565b92915050565b600060208284031215620016cd57620016cc62000cd2565b5b6000620016dd848285016200169d565b91505092915050565b600067ffffffffffffffff8211156200170457620017036200117a565b5b602082029050602081019050919050565b600080fd5b6000620017316200172b84620016e6565b620011df565b9050808382526020820190506020840283018581111562001757576200175662001715565b5b835b818110156200178457806200176f888262001654565b84526020840193505060208101905062001759565b5050509392505050565b600082601f830112620017a657620017a562001170565b5b8151620017b88482602086016200171a565b91505092915050565b600060208284031215620017da57620017d962000cd2565b5b600082015167ffffffffffffffff811115620017fb57620017fa62000cd7565b5b62001809848285016200178e565b91505092915050565b600082825260208201905092915050565b7f43616c6c657220646f6573206e6f7420686f6c6420616e206f7267616e697a6160008201527f74696f6e204e4654000000000000000000000000000000000000000000000000602082015250565b60006200188160288362001812565b91506200188e8262001823565b604082019050919050565b60006020820190508181036000830152620018b48162001872565b9050919050565b6000620018c88262000cdc565b9150620018d58362000cdc565b9250828202620018e58162000cdc565b91508282048414831517620018ff57620018fe620014c0565b5b5092915050565b6000620019138262000e5c565b6200191f818562001812565b93506200193181856020860162000e78565b6200193c8162000ea4565b840191505092915050565b6200195281620012c1565b82525050565b600060e0820190506200196f600083018a620013f4565b818103602083015262001983818962001906565b905062001994604083018862000d7d565b620019a3606083018762001947565b620019b26080830186620013f4565b620019c160a0830185620013f4565b620019d060c0830184620013f4565b98975050505050505050565b600060a082019050620019f3600083018862000d7d565b818103602083015262001a07818762001906565b905062001a18604083018662000d7d565b62001a276060830185620013f4565b62001a366080830184620013f4565b969550505050505056fe60806040523480156200001157600080fd5b50604051620018c8380380620018c8833981810160405281019062000037919062000387565b8660008190555085600190816200004f91906200069a565b5084600260006101000a81548173ffffffffffffffffffffffffffffffffffffffff021916908373ffffffffffffffffffffffffffffffffffffffff16021790555083600360006101000a81548173ffffffffffffffffffffffffffffffffffffffff021916908373ffffffffffffffffffffffffffffffffffffffff1602179055508260058190555081600681905550806007819055506001600a60006101000a81548160ff0219169083151502179055505050505050505062000781565b6000604051905090565b600080fd5b600080fd5b6000819050919050565b620001388162000123565b81146200014457600080fd5b50565b60008151905062000158816200012d565b92915050565b600080fd5b600080fd5b6000601f19601f8301169050919050565b7f4e487b7100000000000000000000000000000000000000000000000000000000600052604160045260246000fd5b620001b38262000168565b810181811067ffffffffffffffff82111715620001d557620001d462000179565b5b80604052505050565b6000620001ea6200010f565b9050620001f88282620001a8565b919050565b600067ffffffffffffffff8211156200021b576200021a62000179565b5b620002268262000168565b9050602081019050919050565b60005b838110156200025357808201518184015260208101905062000236565b60008484015250505050565b6000620002766200027084620001fd565b620001de565b90508281526020810184848401111562000295576200029462000163565b5b620002a284828562000233565b509392505050565b600082601f830112620002c257620002c16200015e565b5b8151620002d48482602086016200025f565b91505092915050565b600073ffffffffffffffffffffffffffffffffffffffff82169050919050565b60006200030a82620002dd565b9050919050565b6200031c81620002fd565b81146200032857600080fd5b50565b6000815190506200033c8162000311565b92915050565b60006200034f82620002dd565b9050919050565b620003618162000342565b81146200036d57600080fd5b50565b600081519050620003818162000356565b92915050565b600080600080600080600060e0888a031215620003a957620003a862000119565b5b6000620003b98a828b0162000147565b975050602088015167ffffffffffffffff811115620003dd57620003dc6200011e565b5b620003eb8a828b01620002aa565b9650506040620003fe8a828b016200032b565b9550506060620004118a828b0162000370565b9450506080620004248a828b0162000147565b93505060a0620004378a828b0162000147565b92505060c06200044a8a828b0162000147565b91505092959891949750929550565b600081519050919050565b7f4e487b7100000000000000000000000000000000000000000000000000000000600052602260045260246000fd5b60006002820490506001821680620004ac57607f821691505b602082108103620004c257620004c162000464565b5b50919050565b60008190508160005260206000209050919050565b60006020601f8301049050919050565b600082821b905092915050565b6000600883026200052c7fffffffffffffffffffffffffffffffffffffffffffffffffffffffffffffffff82620004ed565b620005388683620004ed565b95508019841693508086168417925050509392505050565b6000819050919050565b60006200057b620005756200056f8462000123565b62000550565b62000123565b9050919050565b6000819050919050565b62000597836200055a565b620005af620005a68262000582565b848454620004fa565b825550505050565b600090565b620005c6620005b7565b620005d38184846200058c565b505050565b5b81811015620005fb57620005ef600082620005bc565b600181019050620005d9565b5050565b601f8211156200064a576200061481620004c8565b6200061f84620004dd565b810160208510156200062f578190505b620006476200063e85620004dd565b830182620005d8565b50505b505050565b600082821c905092915050565b60006200066f600019846008026200064f565b1980831691505092915050565b60006200068a83836200065c565b9150826002028217905092915050565b620006a58262000459565b67ffffffffffffffff811115620006c157620006c062000179565b5b620006cd825462000493565b620006da828285620005ff565b600060209050601f831160018114620007125760008415620006fd578287015190505b6200070985826200067c565b86555062000779565b601f1984166200072286620004c8565b60005b828110156200074c5784890151825560018201915060208501945060208101905062000725565b868310156200076c578489015162000768601f8916826200065c565b8355505b6001600288020188555050505b505050505050565b61113780620007916000396000f3fe6080604052600436106100e15760003560e01c806371aac7f91161007f578063953b8fb811610059578063953b8fb81461042e578063af157c1914610459578063af640d0f14610484578063ddf14b22146104af57610259565b806371aac7f9146103c15780637284e416146103d857806378e979251461040357610259565b80631a39d8ef116100bb5780631a39d8ef146102df5780633cb5d1001461030a5780633f19d0431461034757806342e94c901461038457610259565b806302fb0c5e1461025e5780630db70368146102895780630fb5a6b4146102b457610259565b36610259576007546006546100f69190610ade565b421115610138576040517f08c379a000000000000000000000000000000000000000000000000000000000815260040161012f90610b6f565b60405180910390fd5b34600860003373ffffffffffffffffffffffffffffffffffffffff1673ffffffffffffffffffffffffffffffffffffffff16815260200190815260200160002060008282546101879190610ade565b9250508190555034600460008282546101a09190610ade565b925050819055506009339080600181540180825580915050600190039060005260206000200160009091909190916101000a81548173ffffffffffffffffffffffffffffffffffffffff021916908373ffffffffffffffffffffffffffffffffffffffff1602179055507f62722348256371b5147820d6cad90c40fd2da1ccee18c3ed52c0bca5a61dbbab333460405161023b929190610bdf565b60405180910390a160055460045410610257576102566104da565b5b005b600080fd5b34801561026a57600080fd5b50610273610680565b6040516102809190610c23565b60405180910390f35b34801561029557600080fd5b5061029e610693565b6040516102ab9190610c3e565b60405180910390f35b3480156102c057600080fd5b506102c96106b9565b6040516102d69190610c59565b60405180910390f35b3480156102eb57600080fd5b506102f46106bf565b6040516103019190610c59565b60405180910390f35b34801561031657600080fd5b50610331600480360381019061032c9190610ca5565b6106c5565b60405161033e9190610c3e565b60405180910390f35b34801561035357600080fd5b5061036e60048036038101906103699190610cfe565b610704565b60405161037b9190610c59565b60405180910390f35b34801561039057600080fd5b506103ab60048036038101906103a69190610cfe565b61074d565b6040516103b89190610c59565b60405180910390f35b3480156103cd57600080fd5b506103d66104da565b005b3480156103e457600080fd5b506103ed610765565b6040516103fa9190610daa565b60405180910390f35b34801561040f57600080fd5b506104186107f3565b6040516104259190610c59565b60405180910390f35b34801561043a57600080fd5b506104436107f9565b6040516104509190610c59565b60405180910390f35b34801561046557600080fd5b5061046e6107ff565b60405161047b9190610e8a565b60405180910390f35b34801561049057600080fd5b5061049961088d565b6040516104a69190610c59565b60405180910390f35b3480156104bb57600080fd5b506104c4610893565b6040516104d19190610ecd565b60405180910390f35b6007546006546104ea9190610ade565b4211806104fb575060055460045410155b61053a576040517f08c379a000000000000000000000000000000000000000000000000000000000815260040161053190610f34565b60405180910390fd5b600060055460045410159050801561063d576000600360009054906101000a900473ffffffffffffffffffffffffffffffffffffffff1673ffffffffffffffffffffffffffffffffffffffff1660045460405161059690610f85565b60006040518083038185875af1925050503d80600081146105d3576040519150601f19603f3d011682016040523d82523d6000602084013e6105d8565b606091505b505090508061061c576040517f08c379a000000000000000000000000000000000000000000000000000000000815260040161061390610fe6565b60405180910390fd5b6000600a60006101000a81548160ff02191690831515021790555050610646565b6106456108b9565b5b7f816dfe87ba5698a187c7e35e80b0ed9fb430befe75fb29bca588267bb5f70ea7816040516106759190610c23565b60405180910390a150565b600a60009054906101000a900460ff1681565b600260009054906101000a900473ffffffffffffffffffffffffffffffffffffffff1681565b60075481565b60045481565b600981815481106106d557600080fd5b906000526020600020016000915054906101000a900473ffffffffffffffffffffffffffffffffffffffff1681565b6000600860008373ffffffffffffffffffffffffffffffffffffffff1673ffffffffffffffffffffffffffffffffffffffff168152602001908152602001600020549050919050565b60086020528060005260406000206000915090505481565b6001805461077290611035565b80601f016020809104026020016040519081016040528092919081815260200182805461079e90611035565b80156107eb5780601f106107c0576101008083540402835291602001916107eb565b820191906000526020600020905b8154815290600101906020018083116107ce57829003601f168201915b505050505081565b60065481565b60055481565b6060600980548060200260200160405190810160405280929190818152602001828054801561088357602002820191906000526020600020905b8160009054906101000a900473ffffffffffffffffffffffffffffffffffffffff1673ffffffffffffffffffffffffffffffffffffffff1681526020019060010190808311610839575b5050505050905090565b60005481565b600360009054906101000a900473ffffffffffffffffffffffffffffffffffffffff1681565b60005b600980549050811015610a76576000600982815481106108df576108de611066565b5b9060005260206000200160009054906101000a900473ffffffffffffffffffffffffffffffffffffffff1690506000600860008373ffffffffffffffffffffffffffffffffffffffff1673ffffffffffffffffffffffffffffffffffffffff1681526020019081526020016000205490506000811115610a67576000600860008473ffffffffffffffffffffffffffffffffffffffff1673ffffffffffffffffffffffffffffffffffffffff1681526020019081526020016000208190555060008273ffffffffffffffffffffffffffffffffffffffff16826040516109c490610f85565b60006040518083038185875af1925050503d8060008114610a01576040519150601f19603f3d011682016040523d82523d6000602084013e610a06565b606091505b5050905080610a4a576040517f08c379a0000000000000000000000000000000000000000000000000000000008152600401610a41906110e1565b60405180910390fd5b6000600a60006101000a81548160ff021916908315150217905550505b505080806001019150506108bc565b507fe00163d787b83a583863ec985b5e3acbbb59f1660cd2d00d382fb6e58049f93b60405160405180910390a1565b6000819050919050565b7f4e487b7100000000000000000000000000000000000000000000000000000000600052601160045260246000fd5b6000610ae982610aa5565b9150610af483610aa5565b9250828201905080821115610b0c57610b0b610aaf565b5b92915050565b600082825260208201905092915050565b7f46756e6472616973696e6720706572696f642068617320656e64656400000000600082015250565b6000610b59601c83610b12565b9150610b6482610b23565b602082019050919050565b60006020820190508181036000830152610b8881610b4c565b9050919050565b600073ffffffffffffffffffffffffffffffffffffffff82169050919050565b6000610bba82610b8f565b9050919050565b610bca81610baf565b82525050565b610bd981610aa5565b82525050565b6000604082019050610bf46000830185610bc1565b610c016020830184610bd0565b9392505050565b60008115159050919050565b610c1d81610c08565b82525050565b6000602082019050610c386000830184610c14565b92915050565b6000602082019050610c536000830184610bc1565b92915050565b6000602082019050610c6e6000830184610bd0565b92915050565b600080fd5b610c8281610aa5565b8114610c8d57600080fd5b50565b600081359050610c9f81610c79565b92915050565b600060208284031215610cbb57610cba610c74565b5b6000610cc984828501610c90565b91505092915050565b610cdb81610baf565b8114610ce657600080fd5b50565b600081359050610cf881610cd2565b92915050565b600060208284031215610d1457610d13610c74565b5b6000610d2284828501610ce9565b91505092915050565b600081519050919050565b60005b83811015610d54578082015181840152602081019050610d39565b60008484015250505050565b6000601f19601f8301169050919050565b6000610d7c82610d2b565b610d868185610b12565b9350610d96818560208601610d36565b610d9f81610d60565b840191505092915050565b60006020820190508181036000830152610dc48184610d71565b905092915050565b600081519050919050565b600082825260208201905092915050565b6000819050602082019050919050565b610e0181610baf565b82525050565b6000610e138383610df8565b60208301905092915050565b6000602082019050919050565b6000610e3782610dcc565b610e418185610dd7565b9350610e4c83610de8565b8060005b83811015610e7d578151610e648882610e07565b9750610e6f83610e1f565b925050600181019050610e50565b5085935050505092915050565b60006020820190508181036000830152610ea48184610e2c565b905092915050565b6000610eb782610b8f565b9050919050565b610ec781610eac565b82525050565b6000602082019050610ee26000830184610ebe565b92915050565b7f46756e6472616973696e6720706572696f6420686173206e6f7420656e646564600082015250565b6000610f1e602083610b12565b9150610f2982610ee8565b602082019050919050565b60006020820190508181036000830152610f4d81610f11565b9050919050565b600081905092915050565b50565b6000610f6f600083610f54565b9150610f7a82610f5f565b600082019050919050565b6000610f9082610f62565b9150819050919050565b7f5472616e73666572206661696c65640000000000000000000000000000000000600082015250565b6000610fd0600f83610b12565b9150610fdb82610f9a565b602082019050919050565b60006020820190508181036000830152610fff81610fc3565b9050919050565b7f4e487b7100000000000000000000000000000000000000000000000000000000600052602260045260246000fd5b6000600282049050600182168061104d57607f821691505b6020821081036110605761105f611006565b5b50919050565b7f4e487b7100000000000000000000000000000000000000000000000000000000600052603260045260246000fd5b7f526566756e64206661696c656400000000000000000000000000000000000000600082015250565b60006110cb600d83610b12565b91506110d682611095565b602082019050919050565b600060208201905081810360008301526110fa816110be565b905091905056fea26469706673582212200ab1fddb40304c34bddf26e024baa7774f98dc3488a6ba210cb9cabaab4c7d3264736f6c63430008180033a264697066735822122091126693450d47d4e72e35be771636c01d5a7ae6da68462aae920e1421d24bdf64736f6c63430008180033",
  "linkReferences": {},
  "deployedLinkReferences": {}
}