{
  "_format": "hh-sol-artifact-1",
  "contractName": "OrganizationFactory",
  "sourceName": "contracts/OrganizationFactory.sol",
  "abi": [
    {
      "anonymous": false,
      "inputs": [
        {
          "indexed": true,
          "internalType": "uint256",
          "name": "organizationId",
          "type": "uint256"
        },
        {
          "indexed": false,
          "internalType": "address",
          "name": "adminNFTAddress",
          "type": "address"
        },
        {
          "indexed": false,
          "internalType": "address",
          "name": "creator",
          "type": "address"
        }
      ],
      "name": "AdminNFTMinted",
      "type": "event"
    },
    {
      "anonymous": false,
      "inputs": [
        {
          "indexed": true,
          "internalType": "uint256",
          "name": "organizationId",
          "type": "uint256"
        },
        {
          "indexed": false,
          "internalType": "string",
          "name": "name",
          "type": "string"
        },
        {
          "indexed": false,
          "internalType": "address",
          "name": "creator",
          "type": "address"
        }
      ],
      "name": "OrganizationCreated",
      "type": "event"
    },
    {
      "inputs": [
        {
          "internalType": "address",
          "name": "_nftAddress",
          "type": "address"
        }
      ],
      "name": "addOrganization",
      "outputs": [],
      "stateMutability": "nonpayable",
      "type": "function"
    },
    {
      "inputs": [
        {
          "internalType": "string",
          "name": "name",
          "type": "string"
        }
      ],
      "name": "createOrganization",
      "outputs": [
        {
          "internalType": "address",
          "name": "",
          "type": "address"
        }
      ],
      "stateMutability": "nonpayable",
      "type": "function"
    },
    {
      "inputs": [],
      "name": "getOrganizations",
      "outputs": [
        {
          "components": [
            {
              "internalType": "uint256",
              "name": "id",
              "type": "uint256"
            },
            {
              "internalType": "string",
              "name": "name",
              "type": "string"
            },
            {
              "internalType": "address",
              "name": "creator",
              "type": "address"
            },
            {
              "internalType": "address",
              "name": "NFTAddress",
              "type": "address"
            }
          ],
          "internalType": "struct OrganizationFactory.OrganizationInfo[]",
          "name": "",
          "type": "tuple[]"
        }
      ],
      "stateMutability": "view",
      "type": "function"
    }
  ],
  "bytecode": "0x6080604052600160005534801561001557600080fd5b50615547806100256000396000f3fe60806040523480156200001157600080fd5b5060043610620000465760003560e01c80636427acca146200004b5780639754a3a81462000081578063d68287df14620000a3575b600080fd5b620000696004803603810190620000639190620009b5565b620000c3565b60405162000078919062000a4b565b60405180910390f35b6200008b620003e4565b6040516200009a919062000c58565b60405180910390f35b620000c16004803603810190620000bb919062000cad565b620005d2565b005b600080600080815480929190620000da9062000d0e565b9190505590506000838433604051620000f39062000831565b620001019392919062000dad565b604051809103906000f0801580156200011e573d6000803e3d6000fd5b5090506000600160008373ffffffffffffffffffffffffffffffffffffffff1673ffffffffffffffffffffffffffffffffffffffff1681526020019081526020016000209050828160000181905550848160010190816200018091906200102e565b50338160020160006101000a81548173ffffffffffffffffffffffffffffffffffffffff021916908373ffffffffffffffffffffffffffffffffffffffff160217905550818160030160006101000a81548173ffffffffffffffffffffffffffffffffffffffff021916908373ffffffffffffffffffffffffffffffffffffffff160217905550600260003373ffffffffffffffffffffffffffffffffffffffff1673ffffffffffffffffffffffffffffffffffffffff16815260200190815260200160002081908060018154018082558091505060019003906000526020600020906004020160009091909190915060008201548160000155600182018160010190816200029091906200112d565b506002820160009054906101000a900473ffffffffffffffffffffffffffffffffffffffff168160020160006101000a81548173ffffffffffffffffffffffffffffffffffffffff021916908373ffffffffffffffffffffffffffffffffffffffff1602179055506003820160009054906101000a900473ffffffffffffffffffffffffffffffffffffffff168160030160006101000a81548173ffffffffffffffffffffffffffffffffffffffff021916908373ffffffffffffffffffffffffffffffffffffffff1602179055505050827f922a324c596e3ff0b7475d8ad6ee962a1313f05ff06e1437d9f5c47b6a9bb9248633604051620003959291906200122e565b60405180910390a2827f174e53856900c115bb3d9417cf548640cf1ef730c3e5ef9ac5954ac05e7a1e708333604051620003d192919062001262565b60405180910390a2819350505050919050565b6060600260003373ffffffffffffffffffffffffffffffffffffffff1673ffffffffffffffffffffffffffffffffffffffff168152602001908152602001600020805480602002602001604051908101604052809291908181526020016000905b82821015620005c9578382906000526020600020906004020160405180608001604052908160008201548152602001600182018054620004859062000e27565b80601f0160208091040260200160405190810160405280929190818152602001828054620004b39062000e27565b8015620005045780601f10620004d85761010080835404028352916020019162000504565b820191906000526020600020905b815481529060010190602001808311620004e657829003601f168201915b505050505081526020016002820160009054906101000a900473ffffffffffffffffffffffffffffffffffffffff1673ffffffffffffffffffffffffffffffffffffffff1673ffffffffffffffffffffffffffffffffffffffff1681526020016003820160009054906101000a900473ffffffffffffffffffffffffffffffffffffffff1673ffffffffffffffffffffffffffffffffffffffff1673ffffffffffffffffffffffffffffffffffffffff16815250508152602001906001019062000445565b50505050905090565b60008173ffffffffffffffffffffffffffffffffffffffff166370a08231336040518263ffffffff1660e01b81526004016200060f919062000a4b565b602060405180830381865afa1580156200062d573d6000803e3d6000fd5b505050506040513d601f19601f82011682018060405250810190620006539190620012c0565b1162000696576040517f08c379a00000000000000000000000000000000000000000000000000000000081526004016200068d9062001368565b60405180910390fd5b600260003373ffffffffffffffffffffffffffffffffffffffff1673ffffffffffffffffffffffffffffffffffffffff168152602001908152602001600020600160008373ffffffffffffffffffffffffffffffffffffffff1673ffffffffffffffffffffffffffffffffffffffff168152602001908152602001600020908060018154018082558091505060019003906000526020600020906004020160009091909190915060008201548160000155600182018160010190816200075d91906200112d565b506002820160009054906101000a900473ffffffffffffffffffffffffffffffffffffffff168160020160006101000a81548173ffffffffffffffffffffffffffffffffffffffff021916908373ffffffffffffffffffffffffffffffffffffffff1602179055506003820160009054906101000a900473ffffffffffffffffffffffffffffffffffffffff168160030160006101000a81548173ffffffffffffffffffffffffffffffffffffffff021916908373ffffffffffffffffffffffffffffffffffffffff160217905550505050565b614187806200138b83390190565b6000604051905090565b600080fd5b600080fd5b600080fd5b600080fd5b6000601f19601f8301169050919050565b7f4e487b7100000000000000000000000000000000000000000000000000000000600052604160045260246000fd5b620008a8826200085d565b810181811067ffffffffffffffff82111715620008ca57620008c96200086e565b5b80604052505050565b6000620008df6200083f565b9050620008ed82826200089d565b919050565b600067ffffffffffffffff82111562000910576200090f6200086e565b5b6200091b826200085d565b9050602081019050919050565b82818337600083830152505050565b60006200094e6200094884620008f2565b620008d3565b9050828152602081018484840111156200096d576200096c62000858565b5b6200097a84828562000928565b509392505050565b600082601f8301126200099a576200099962000853565b5b8135620009ac84826020860162000937565b91505092915050565b600060208284031215620009ce57620009cd62000849565b5b600082013567ffffffffffffffff811115620009ef57620009ee6200084e565b5b620009fd8482850162000982565b91505092915050565b600073ffffffffffffffffffffffffffffffffffffffff82169050919050565b600062000a338262000a06565b9050919050565b62000a458162000a26565b82525050565b600060208201905062000a62600083018462000a3a565b92915050565b600081519050919050565b600082825260208201905092915050565b6000819050602082019050919050565b6000819050919050565b62000aa98162000a94565b82525050565b600081519050919050565b600082825260208201905092915050565b60005b8381101562000aeb57808201518184015260208101905062000ace565b60008484015250505050565b600062000b048262000aaf565b62000b10818562000aba565b935062000b2281856020860162000acb565b62000b2d816200085d565b840191505092915050565b62000b438162000a26565b82525050565b600060808301600083015162000b63600086018262000a9e565b506020830151848203602086015262000b7d828262000af7565b915050604083015162000b94604086018262000b38565b50606083015162000ba9606086018262000b38565b508091505092915050565b600062000bc2838362000b49565b905092915050565b6000602082019050919050565b600062000be48262000a68565b62000bf0818562000a73565b93508360208202850162000c048562000a84565b8060005b8581101562000c46578484038952815162000c24858262000bb4565b945062000c318362000bca565b925060208a0199505060018101905062000c08565b50829750879550505050505092915050565b6000602082019050818103600083015262000c74818462000bd7565b905092915050565b62000c878162000a26565b811462000c9357600080fd5b50565b60008135905062000ca78162000c7c565b92915050565b60006020828403121562000cc65762000cc562000849565b5b600062000cd68482850162000c96565b91505092915050565b7f4e487b7100000000000000000000000000000000000000000000000000000000600052601160045260246000fd5b600062000d1b8262000a94565b91507fffffffffffffffffffffffffffffffffffffffffffffffffffffffffffffffff820362000d505762000d4f62000cdf565b5b600182019050919050565b600082825260208201905092915050565b600062000d798262000aaf565b62000d85818562000d5b565b935062000d9781856020860162000acb565b62000da2816200085d565b840191505092915050565b6000606082019050818103600083015262000dc9818662000d6c565b9050818103602083015262000ddf818562000d6c565b905062000df0604083018462000a3a565b949350505050565b7f4e487b7100000000000000000000000000000000000000000000000000000000600052602260045260246000fd5b6000600282049050600182168062000e4057607f821691505b60208210810362000e565762000e5562000df8565b5b50919050565b60008190508160005260206000209050919050565b60006020601f8301049050919050565b600082821b905092915050565b60006008830262000ec07fffffffffffffffffffffffffffffffffffffffffffffffffffffffffffffffff8262000e81565b62000ecc868362000e81565b95508019841693508086168417925050509392505050565b6000819050919050565b600062000f0f62000f0962000f038462000a94565b62000ee4565b62000a94565b9050919050565b6000819050919050565b62000f2b8362000eee565b62000f4362000f3a8262000f16565b84845462000e8e565b825550505050565b600090565b62000f5a62000f4b565b62000f6781848462000f20565b505050565b5b8181101562000f8f5762000f8360008262000f50565b60018101905062000f6d565b5050565b601f82111562000fde5762000fa88162000e5c565b62000fb38462000e71565b8101602085101562000fc3578190505b62000fdb62000fd28562000e71565b83018262000f6c565b50505b505050565b600082821c905092915050565b6000620010036000198460080262000fe3565b1980831691505092915050565b60006200101e838362000ff0565b9150826002028217905092915050565b620010398262000aaf565b67ffffffffffffffff8111156200105557620010546200086e565b5b62001061825462000e27565b6200106e82828562000f93565b600060209050601f831160018114620010a6576000841562001091578287015190505b6200109d858262001010565b8655506200110d565b601f198416620010b68662000e5c565b60005b82811015620010e057848901518255600182019150602085019450602081019050620010b9565b86831015620011005784890151620010fc601f89168262000ff0565b8355505b6001600288020188555050505b505050505050565b600081549050620011268162000e27565b9050919050565b8181036200113d5750506200122c565b620011488262001115565b67ffffffffffffffff8111156200116457620011636200086e565b5b62001170825462000e27565b6200117d82828562000f93565b6000601f831160018114620011b157600084156200119c578287015490505b620011a8858262001010565b86555062001225565b601f198416620011c18762000e5c565b9650620011ce8662000e5c565b60005b82811015620011f857848901548255600182019150600185019450602081019050620011d1565b8683101562001218578489015462001214601f89168262000ff0565b8355505b6001600288020188555050505b5050505050505b565b600060408201905081810360008301526200124a818562000d6c565b90506200125b602083018462000a3a565b9392505050565b600060408201905062001279600083018562000a3a565b62001288602083018462000a3a565b9392505050565b6200129a8162000a94565b8114620012a657600080fd5b50565b600081519050620012ba816200128f565b92915050565b600060208284031215620012d957620012d862000849565b5b6000620012e984828501620012a9565b91505092915050565b7f596f752068617665206e6f2061636365737320746f2074686973204f7267616e60008201527f697a6174696f6e00000000000000000000000000000000000000000000000000602082015250565b60006200135060278362000d5b565b91506200135d82620012f2565b604082019050919050565b60006020820190508181036000830152620013838162001341565b905091905056fe60806040526001600a553480156200001657600080fd5b50604051620041873803806200418783398181016040528101906200003c91906200128c565b828281600090816200004f919062001571565b50806001908162000061919062001571565b5050506200007881600a54620000c260201b60201c565b6000600b6000600a54815260200190815260200160002060006101000a81548160ff02191690836001811115620000b457620000b362001658565b5b021790555050505062001918565b620000e4828260405180602001604052806000815250620000e860201b60201c565b5050565b620000fa83836200011460201b60201c565b6200010f60008484846200021b60201b60201c565b505050565b600073ffffffffffffffffffffffffffffffffffffffff168273ffffffffffffffffffffffffffffffffffffffff1603620001895760006040517f64a0ae9200000000000000000000000000000000000000000000000000000000815260040162000180919062001698565b60405180910390fd5b60006200019f83836000620003e960201b60201c565b9050600073ffffffffffffffffffffffffffffffffffffffff168173ffffffffffffffffffffffffffffffffffffffff1614620002165760006040517f73c6ac6e0000000000000000000000000000000000000000000000000000000081526004016200020d919062001698565b60405180910390fd5b505050565b60008373ffffffffffffffffffffffffffffffffffffffff163b1115620003e3578273ffffffffffffffffffffffffffffffffffffffff1663150b7a02620002686200040760201b60201c565b8685856040518563ffffffff1660e01b81526004016200028c949392919062001723565b6020604051808303816000875af1925050508015620002cb57506040513d601f19601f82011682018060405250810190620002c89190620017d4565b60015b62000355573d8060008114620002fe576040519150601f19603f3d011682016040523d82523d6000602084013e62000303565b606091505b5060008151036200034d57836040517f64a0ae9200000000000000000000000000000000000000000000000000000000815260040162000344919062001698565b60405180910390fd5b805181602001fd5b63150b7a0260e01b7bffffffffffffffffffffffffffffffffffffffffffffffffffffffff1916817bffffffffffffffffffffffffffffffffffffffffffffffffffffffff191614620003e157836040517f64a0ae92000000000000000000000000000000000000000000000000000000008152600401620003d8919062001698565b60405180910390fd5b505b50505050565b6000620003fe8484846200040f60201b60201c565b90509392505050565b600033905090565b600080620004258585856200055a60201b60201c565b9050600073ffffffffffffffffffffffffffffffffffffffff168173ffffffffffffffffffffffffffffffffffffffff160362000473576200046d846200078f60201b60201c565b620004bb565b8473ffffffffffffffffffffffffffffffffffffffff168173ffffffffffffffffffffffffffffffffffffffff1614620004ba57620004b98185620007d860201b60201c565b5b5b600073ffffffffffffffffffffffffffffffffffffffff168573ffffffffffffffffffffffffffffffffffffffff1603620005075762000501846200094260201b60201c565b6200054f565b8473ffffffffffffffffffffffffffffffffffffffff168173ffffffffffffffffffffffffffffffffffffffff16146200054e576200054d858562000a1e60201b60201c565b5b5b809150509392505050565b6000806200056e8462000ab360201b60201c565b9050600073ffffffffffffffffffffffffffffffffffffffff168373ffffffffffffffffffffffffffffffffffffffff1614620005b957620005b881848662000af060201b60201c565b5b600073ffffffffffffffffffffffffffffffffffffffff168173ffffffffffffffffffffffffffffffffffffffff161462000653576200060460008560008062000bc260201b60201c565b6001600360008373ffffffffffffffffffffffffffffffffffffffff1673ffffffffffffffffffffffffffffffffffffffff168152602001908152602001600020600082825403925050819055505b600073ffffffffffffffffffffffffffffffffffffffff168573ffffffffffffffffffffffffffffffffffffffff1614620006d7576001600360008773ffffffffffffffffffffffffffffffffffffffff1673ffffffffffffffffffffffffffffffffffffffff168152602001908152602001600020600082825401925050819055505b846002600086815260200190815260200160002060006101000a81548173ffffffffffffffffffffffffffffffffffffffff021916908373ffffffffffffffffffffffffffffffffffffffff160217905550838573ffffffffffffffffffffffffffffffffffffffff168273ffffffffffffffffffffffffffffffffffffffff167fddf252ad1be2c89b69c2b068fc378daa952ba7f163c4a11628f55a4df523b3ef60405160405180910390a4809150509392505050565b6008805490506009600083815260200190815260200160002081905550600881908060018154018082558091505060019003906000526020600020016000909190919091505550565b6000620007eb8362000d9f60201b60201c565b9050600060076000848152602001908152602001600020549050818114620008d1576000600660008673ffffffffffffffffffffffffffffffffffffffff1673ffffffffffffffffffffffffffffffffffffffff168152602001908152602001600020600084815260200190815260200160002054905080600660008773ffffffffffffffffffffffffffffffffffffffff1673ffffffffffffffffffffffffffffffffffffffff168152602001908152602001600020600084815260200190815260200160002081905550816007600083815260200190815260200160002081905550505b6007600084815260200190815260200160002060009055600660008573ffffffffffffffffffffffffffffffffffffffff1673ffffffffffffffffffffffffffffffffffffffff16815260200190815260200160002060008381526020019081526020016000206000905550505050565b6000600160088054905062000958919062001835565b90506000600960008481526020019081526020016000205490506000600883815481106200098b576200098a62001870565b5b906000526020600020015490508060088381548110620009b057620009af62001870565b5b90600052602060002001819055508160096000838152602001908152602001600020819055506009600085815260200190815260200160002060009055600880548062000a025762000a016200189f565b5b6001900381819060005260206000200160009055905550505050565b6000600162000a338462000d9f60201b60201c565b62000a3f919062001835565b905081600660008573ffffffffffffffffffffffffffffffffffffffff1673ffffffffffffffffffffffffffffffffffffffff168152602001908152602001600020600083815260200190815260200160002081905550806007600084815260200190815260200160002081905550505050565b60006002600083815260200190815260200160002060009054906101000a900473ffffffffffffffffffffffffffffffffffffffff169050919050565b62000b0383838362000e5c60201b60201c565b62000bbd57600073ffffffffffffffffffffffffffffffffffffffff168373ffffffffffffffffffffffffffffffffffffffff160362000b7c57806040517f7e27328900000000000000000000000000000000000000000000000000000000815260040162000b739190620018ce565b60405180910390fd5b81816040517f177e802f00000000000000000000000000000000000000000000000000000000815260040162000bb4929190620018eb565b60405180910390fd5b505050565b808062000bfc5750600073ffffffffffffffffffffffffffffffffffffffff168273ffffffffffffffffffffffffffffffffffffffff1614155b1562000d4757600062000c158462000f3060201b60201c565b9050600073ffffffffffffffffffffffffffffffffffffffff168373ffffffffffffffffffffffffffffffffffffffff161415801562000c8157508273ffffffffffffffffffffffffffffffffffffffff168173ffffffffffffffffffffffffffffffffffffffff1614155b801562000c9d575062000c9b818462000fc360201b60201c565b155b1562000ce257826040517fa9fbf51f00000000000000000000000000000000000000000000000000000000815260040162000cd9919062001698565b60405180910390fd5b811562000d4557838573ffffffffffffffffffffffffffffffffffffffff168273ffffffffffffffffffffffffffffffffffffffff167f8c5be1e5ebec7d5bd14f71427d1e84f3dd0314c0f7b2291e5b200ac8c7c3b92560405160405180910390a45b505b836004600085815260200190815260200160002060006101000a81548173ffffffffffffffffffffffffffffffffffffffff021916908373ffffffffffffffffffffffffffffffffffffffff16021790555050505050565b60008073ffffffffffffffffffffffffffffffffffffffff168273ffffffffffffffffffffffffffffffffffffffff160362000e155760006040517f89c62b6400000000000000000000000000000000000000000000000000000000815260040162000e0c919062001698565b60405180910390fd5b600360008373ffffffffffffffffffffffffffffffffffffffff1673ffffffffffffffffffffffffffffffffffffffff168152602001908152602001600020549050919050565b60008073ffffffffffffffffffffffffffffffffffffffff168373ffffffffffffffffffffffffffffffffffffffff161415801562000f2757508273ffffffffffffffffffffffffffffffffffffffff168473ffffffffffffffffffffffffffffffffffffffff16148062000edf575062000ede848462000fc360201b60201c565b5b8062000f2657508273ffffffffffffffffffffffffffffffffffffffff1662000f0e836200105760201b60201c565b73ffffffffffffffffffffffffffffffffffffffff16145b5b90509392505050565b60008062000f448362000ab360201b60201c565b9050600073ffffffffffffffffffffffffffffffffffffffff168173ffffffffffffffffffffffffffffffffffffffff160362000fba57826040517f7e27328900000000000000000000000000000000000000000000000000000000815260040162000fb19190620018ce565b60405180910390fd5b80915050919050565b6000600560008473ffffffffffffffffffffffffffffffffffffffff1673ffffffffffffffffffffffffffffffffffffffff16815260200190815260200160002060008373ffffffffffffffffffffffffffffffffffffffff1673ffffffffffffffffffffffffffffffffffffffff16815260200190815260200160002060009054906101000a900460ff16905092915050565b60006004600083815260200190815260200160002060009054906101000a900473ffffffffffffffffffffffffffffffffffffffff169050919050565b6000604051905090565b600080fd5b600080fd5b600080fd5b600080fd5b6000601f19601f8301169050919050565b7f4e487b7100000000000000000000000000000000000000000000000000000000600052604160045260246000fd5b620010fd82620010b2565b810181811067ffffffffffffffff821117156200111f576200111e620010c3565b5b80604052505050565b60006200113462001094565b9050620011428282620010f2565b919050565b600067ffffffffffffffff821115620011655762001164620010c3565b5b6200117082620010b2565b9050602081019050919050565b60005b838110156200119d57808201518184015260208101905062001180565b60008484015250505050565b6000620011c0620011ba8462001147565b62001128565b905082815260208101848484011115620011df57620011de620010ad565b5b620011ec8482856200117d565b509392505050565b600082601f8301126200120c576200120b620010a8565b5b81516200121e848260208601620011a9565b91505092915050565b600073ffffffffffffffffffffffffffffffffffffffff82169050919050565b6000620012548262001227565b9050919050565b620012668162001247565b81146200127257600080fd5b50565b60008151905062001286816200125b565b92915050565b600080600060608486031215620012a857620012a76200109e565b5b600084015167ffffffffffffffff811115620012c957620012c8620010a3565b5b620012d786828701620011f4565b935050602084015167ffffffffffffffff811115620012fb57620012fa620010a3565b5b6200130986828701620011f4565b92505060406200131c8682870162001275565b9150509250925092565b600081519050919050565b7f4e487b7100000000000000000000000000000000000000000000000000000000600052602260045260246000fd5b600060028204905060018216806200137957607f821691505b6020821081036200138f576200138e62001331565b5b50919050565b60008190508160005260206000209050919050565b60006020601f8301049050919050565b600082821b905092915050565b600060088302620013f97fffffffffffffffffffffffffffffffffffffffffffffffffffffffffffffffff82620013ba565b620014058683620013ba565b95508019841693508086168417925050509392505050565b6000819050919050565b6000819050919050565b6000620014526200144c62001446846200141d565b62001427565b6200141d565b9050919050565b6000819050919050565b6200146e8362001431565b620014866200147d8262001459565b848454620013c7565b825550505050565b600090565b6200149d6200148e565b620014aa81848462001463565b505050565b5b81811015620014d257620014c660008262001493565b600181019050620014b0565b5050565b601f8211156200152157620014eb8162001395565b620014f684620013aa565b8101602085101562001506578190505b6200151e6200151585620013aa565b830182620014af565b50505b505050565b600082821c905092915050565b6000620015466000198460080262001526565b1980831691505092915050565b600062001561838362001533565b9150826002028217905092915050565b6200157c8262001326565b67ffffffffffffffff811115620015985762001597620010c3565b5b620015a4825462001360565b620015b1828285620014d6565b600060209050601f831160018114620015e95760008415620015d4578287015190505b620015e0858262001553565b86555062001650565b601f198416620015f98662001395565b60005b828110156200162357848901518255600182019150602085019450602081019050620015fc565b868310156200164357848901516200163f601f89168262001533565b8355505b6001600288020188555050505b505050505050565b7f4e487b7100000000000000000000000000000000000000000000000000000000600052602160045260246000fd5b620016928162001247565b82525050565b6000602082019050620016af600083018462001687565b92915050565b620016c0816200141d565b82525050565b600081519050919050565b600082825260208201905092915050565b6000620016ef82620016c6565b620016fb8185620016d1565b93506200170d8185602086016200117d565b6200171881620010b2565b840191505092915050565b60006080820190506200173a600083018762001687565b62001749602083018662001687565b620017586040830185620016b5565b81810360608301526200176c8184620016e2565b905095945050505050565b60007fffffffff0000000000000000000000000000000000000000000000000000000082169050919050565b620017ae8162001777565b8114620017ba57600080fd5b50565b600081519050620017ce81620017a3565b92915050565b600060208284031215620017ed57620017ec6200109e565b5b6000620017fd84828501620017bd565b91505092915050565b7f4e487b7100000000000000000000000000000000000000000000000000000000600052601160045260246000fd5b600062001842826200141d565b91506200184f836200141d565b92508282039050818111156200186a576200186962001806565b5b92915050565b7f4e487b7100000000000000000000000000000000000000000000000000000000600052603260045260246000fd5b7f4e487b7100000000000000000000000000000000000000000000000000000000600052603160045260246000fd5b6000602082019050620018e56000830184620016b5565b92915050565b600060408201905062001902600083018562001687565b620019116020830184620016b5565b9392505050565b61285f80620019286000396000f3fe608060405234801561001057600080fd5b506004361061012c5760003560e01c806342966c68116100ad57806395d89b411161007157806395d89b4114610367578063a22cb46514610385578063b88d4fde146103a1578063c87b56dd146103bd578063e985e9c5146103ed5761012c565b806342966c681461029f5780634f6ccce7146102bb5780636352211e146102eb578063691562a01461031b57806370a08231146103375761012c565b806323b872dd116100f457806323b872dd146101e957806324d7806c146102055780632f745c591461023557806330bdb3511461026557806342842e0e146102835761012c565b806301ffc9a71461013157806306fdde0314610161578063081812fc1461017f578063095ea7b3146101af57806318160ddd146101cb575b600080fd5b61014b60048036038101906101469190611eb4565b61041d565b6040516101589190611efc565b60405180910390f35b61016961042f565b6040516101769190611fa7565b60405180910390f35b61019960048036038101906101949190611fff565b6104c1565b6040516101a6919061206d565b60405180910390f35b6101c960048036038101906101c491906120b4565b6104dd565b005b6101d36104f3565b6040516101e09190612103565b60405180910390f35b61020360048036038101906101fe919061211e565b610500565b005b61021f600480360381019061021a9190612171565b610602565b60405161022c9190611efc565b60405180910390f35b61024f600480360381019061024a91906120b4565b61069b565b60405161025c9190612103565b60405180910390f35b61026d610744565b60405161027a9190612103565b60405180910390f35b61029d6004803603810190610298919061211e565b610753565b005b6102b960048036038101906102b49190611fff565b610773565b005b6102d560048036038101906102d09190611fff565b61078a565b6040516102e29190612103565b60405180910390f35b61030560048036038101906103009190611fff565b610800565b604051610312919061206d565b60405180910390f35b610335600480360381019061033091906121c3565b610812565b005b610351600480360381019061034c9190612171565b6108bc565b60405161035e9190612103565b60405180910390f35b61036f610976565b60405161037c9190611fa7565b60405180910390f35b61039f600480360381019061039a919061222f565b610a08565b005b6103bb60048036038101906103b691906123a4565b610a1e565b005b6103d760048036038101906103d29190611fff565b610a3b565b6040516103e49190611fa7565b60405180910390f35b61040760048036038101906104029190612427565b610aa4565b6040516104149190611efc565b60405180910390f35b600061042882610b38565b9050919050565b60606000805461043e90612496565b80601f016020809104026020016040519081016040528092919081815260200182805461046a90612496565b80156104b75780601f1061048c576101008083540402835291602001916104b7565b820191906000526020600020905b81548152906001019060200180831161049a57829003601f168201915b5050505050905090565b60006104cc82610bb2565b506104d682610c3a565b9050919050565b6104ef82826104ea610c77565b610c7f565b5050565b6000600880549050905090565b600073ffffffffffffffffffffffffffffffffffffffff168273ffffffffffffffffffffffffffffffffffffffff16036105725760006040517f64a0ae92000000000000000000000000000000000000000000000000000000008152600401610569919061206d565b60405180910390fd5b60006105868383610581610c77565b610c91565b90508373ffffffffffffffffffffffffffffffffffffffff168173ffffffffffffffffffffffffffffffffffffffff16146105fc578382826040517f64283d7b0000000000000000000000000000000000000000000000000000000081526004016105f3939291906124c7565b60405180910390fd5b50505050565b60008061060e836108bc565b905060005b8181101561068f576000610627858361069b565b90506000600181111561063d5761063c6124fe565b5b600b600083815260200190815260200160002060009054906101000a900460ff1660018111156106705761066f6124fe565b5b036106815760019350505050610696565b508080600101915050610613565b5060009150505b919050565b60006106a6836108bc565b82106106eb5782826040517fa57d13dc0000000000000000000000000000000000000000000000000000000081526004016106e292919061252d565b60405180910390fd5b600660008473ffffffffffffffffffffffffffffffffffffffff1673ffffffffffffffffffffffffffffffffffffffff168152602001908152602001600020600083815260200190815260200160002054905092915050565b600061074e6104f3565b905090565b61076e83838360405180602001604052806000815250610a1e565b505050565b610786600082610781610c77565b610c91565b5050565b60006107946104f3565b82106107da576000826040517fa57d13dc0000000000000000000000000000000000000000000000000000000081526004016107d192919061252d565b60405180910390fd5b600882815481106107ee576107ed612556565b5b90600052602060002001549050919050565b600061080b82610bb2565b9050919050565b61081b33610602565b61085a576040517f08c379a0000000000000000000000000000000000000000000000000000000008152600401610851906125d1565b60405180910390fd5b6001600a546108699190612620565b600a8190555061087b82600a54610ca7565b80600b6000600a54815260200190815260200160002060006101000a81548160ff021916908360018111156108b3576108b26124fe565b5b02179055505050565b60008073ffffffffffffffffffffffffffffffffffffffff168273ffffffffffffffffffffffffffffffffffffffff160361092f5760006040517f89c62b64000000000000000000000000000000000000000000000000000000008152600401610926919061206d565b60405180910390fd5b600360008373ffffffffffffffffffffffffffffffffffffffff1673ffffffffffffffffffffffffffffffffffffffff168152602001908152602001600020549050919050565b60606001805461098590612496565b80601f01602080910402602001604051908101604052809291908181526020018280546109b190612496565b80156109fe5780601f106109d3576101008083540402835291602001916109fe565b820191906000526020600020905b8154815290600101906020018083116109e157829003601f168201915b5050505050905090565b610a1a610a13610c77565b8383610cc5565b5050565b610a29848484610500565b610a3584848484610e34565b50505050565b6060610a4682610bb2565b506000610a51610feb565b90506000815111610a715760405180602001604052806000815250610a9c565b80610a7b84611002565b604051602001610a8c929190612690565b6040516020818303038152906040525b915050919050565b6000600560008473ffffffffffffffffffffffffffffffffffffffff1673ffffffffffffffffffffffffffffffffffffffff16815260200190815260200160002060008373ffffffffffffffffffffffffffffffffffffffff1673ffffffffffffffffffffffffffffffffffffffff16815260200190815260200160002060009054906101000a900460ff16905092915050565b60007f780e9d63000000000000000000000000000000000000000000000000000000007bffffffffffffffffffffffffffffffffffffffffffffffffffffffff1916827bffffffffffffffffffffffffffffffffffffffffffffffffffffffff19161480610bab5750610baa826110d0565b5b9050919050565b600080610bbe836111b2565b9050600073ffffffffffffffffffffffffffffffffffffffff168173ffffffffffffffffffffffffffffffffffffffff1603610c3157826040517f7e273289000000000000000000000000000000000000000000000000000000008152600401610c289190612103565b60405180910390fd5b80915050919050565b60006004600083815260200190815260200160002060009054906101000a900473ffffffffffffffffffffffffffffffffffffffff169050919050565b600033905090565b610c8c83838360016111ef565b505050565b6000610c9e8484846113b4565b90509392505050565b610cc18282604051806020016040528060008152506114d1565b5050565b600073ffffffffffffffffffffffffffffffffffffffff168273ffffffffffffffffffffffffffffffffffffffff1603610d3657816040517f5b08ba18000000000000000000000000000000000000000000000000000000008152600401610d2d919061206d565b60405180910390fd5b80600560008573ffffffffffffffffffffffffffffffffffffffff1673ffffffffffffffffffffffffffffffffffffffff16815260200190815260200160002060008473ffffffffffffffffffffffffffffffffffffffff1673ffffffffffffffffffffffffffffffffffffffff16815260200190815260200160002060006101000a81548160ff0219169083151502179055508173ffffffffffffffffffffffffffffffffffffffff168373ffffffffffffffffffffffffffffffffffffffff167f17307eab39ab6107e8899845ad3d59bd9653f200f220920489ca2b5937696c3183604051610e279190611efc565b60405180910390a3505050565b60008373ffffffffffffffffffffffffffffffffffffffff163b1115610fe5578273ffffffffffffffffffffffffffffffffffffffff1663150b7a02610e78610c77565b8685856040518563ffffffff1660e01b8152600401610e9a9493929190612709565b6020604051808303816000875af1925050508015610ed657506040513d601f19601f82011682018060405250810190610ed3919061276a565b60015b610f5a573d8060008114610f06576040519150601f19603f3d011682016040523d82523d6000602084013e610f0b565b606091505b506000815103610f5257836040517f64a0ae92000000000000000000000000000000000000000000000000000000008152600401610f49919061206d565b60405180910390fd5b805181602001fd5b63150b7a0260e01b7bffffffffffffffffffffffffffffffffffffffffffffffffffffffff1916817bffffffffffffffffffffffffffffffffffffffffffffffffffffffff191614610fe357836040517f64a0ae92000000000000000000000000000000000000000000000000000000008152600401610fda919061206d565b60405180910390fd5b505b50505050565b606060405180602001604052806000815250905090565b606060006001611011846114ed565b01905060008167ffffffffffffffff8111156110305761102f612279565b5b6040519080825280601f01601f1916602001820160405280156110625781602001600182028036833780820191505090505b509050600082602001820190505b6001156110c5578080600190039150507f3031323334353637383961626364656600000000000000000000000000000000600a86061a8153600a85816110b9576110b8612797565b5b04945060008503611070575b819350505050919050565b60007f80ac58cd000000000000000000000000000000000000000000000000000000007bffffffffffffffffffffffffffffffffffffffffffffffffffffffff1916827bffffffffffffffffffffffffffffffffffffffffffffffffffffffff1916148061119b57507f5b5e139f000000000000000000000000000000000000000000000000000000007bffffffffffffffffffffffffffffffffffffffffffffffffffffffff1916827bffffffffffffffffffffffffffffffffffffffffffffffffffffffff1916145b806111ab57506111aa82611640565b5b9050919050565b60006002600083815260200190815260200160002060009054906101000a900473ffffffffffffffffffffffffffffffffffffffff169050919050565b80806112285750600073ffffffffffffffffffffffffffffffffffffffff168273ffffffffffffffffffffffffffffffffffffffff1614155b1561135c57600061123884610bb2565b9050600073ffffffffffffffffffffffffffffffffffffffff168373ffffffffffffffffffffffffffffffffffffffff16141580156112a357508273ffffffffffffffffffffffffffffffffffffffff168173ffffffffffffffffffffffffffffffffffffffff1614155b80156112b657506112b48184610aa4565b155b156112f857826040517fa9fbf51f0000000000000000000000000000000000000000000000000000000081526004016112ef919061206d565b60405180910390fd5b811561135a57838573ffffffffffffffffffffffffffffffffffffffff168273ffffffffffffffffffffffffffffffffffffffff167f8c5be1e5ebec7d5bd14f71427d1e84f3dd0314c0f7b2291e5b200ac8c7c3b92560405160405180910390a45b505b836004600085815260200190815260200160002060006101000a81548173ffffffffffffffffffffffffffffffffffffffff021916908373ffffffffffffffffffffffffffffffffffffffff16021790555050505050565b6000806113c28585856116aa565b9050600073ffffffffffffffffffffffffffffffffffffffff168173ffffffffffffffffffffffffffffffffffffffff160361140657611401846118c4565b611445565b8473ffffffffffffffffffffffffffffffffffffffff168173ffffffffffffffffffffffffffffffffffffffff161461144457611443818561190d565b5b5b600073ffffffffffffffffffffffffffffffffffffffff168573ffffffffffffffffffffffffffffffffffffffff16036114875761148284611a6e565b6114c6565b8473ffffffffffffffffffffffffffffffffffffffff168173ffffffffffffffffffffffffffffffffffffffff16146114c5576114c48585611b3f565b5b5b809150509392505050565b6114db8383611bca565b6114e86000848484610e34565b505050565b600080600090507a184f03e93ff9f4daa797ed6e38ed64bf6a1f010000000000000000831061154b577a184f03e93ff9f4daa797ed6e38ed64bf6a1f010000000000000000838161154157611540612797565b5b0492506040810190505b6d04ee2d6d415b85acef81000000008310611588576d04ee2d6d415b85acef8100000000838161157e5761157d612797565b5b0492506020810190505b662386f26fc1000083106115b757662386f26fc1000083816115ad576115ac612797565b5b0492506010810190505b6305f5e10083106115e0576305f5e10083816115d6576115d5612797565b5b0492506008810190505b61271083106116055761271083816115fb576115fa612797565b5b0492506004810190505b60648310611628576064838161161e5761161d612797565b5b0492506002810190505b600a8310611637576001810190505b80915050919050565b60007f01ffc9a7000000000000000000000000000000000000000000000000000000007bffffffffffffffffffffffffffffffffffffffffffffffffffffffff1916827bffffffffffffffffffffffffffffffffffffffffffffffffffffffff1916149050919050565b6000806116b6846111b2565b9050600073ffffffffffffffffffffffffffffffffffffffff168373ffffffffffffffffffffffffffffffffffffffff16146116f8576116f7818486611cc3565b5b600073ffffffffffffffffffffffffffffffffffffffff168173ffffffffffffffffffffffffffffffffffffffff16146117895761173a6000856000806111ef565b6001600360008373ffffffffffffffffffffffffffffffffffffffff1673ffffffffffffffffffffffffffffffffffffffff168152602001908152602001600020600082825403925050819055505b600073ffffffffffffffffffffffffffffffffffffffff168573ffffffffffffffffffffffffffffffffffffffff161461180c576001600360008773ffffffffffffffffffffffffffffffffffffffff1673ffffffffffffffffffffffffffffffffffffffff168152602001908152602001600020600082825401925050819055505b846002600086815260200190815260200160002060006101000a81548173ffffffffffffffffffffffffffffffffffffffff021916908373ffffffffffffffffffffffffffffffffffffffff160217905550838573ffffffffffffffffffffffffffffffffffffffff168273ffffffffffffffffffffffffffffffffffffffff167fddf252ad1be2c89b69c2b068fc378daa952ba7f163c4a11628f55a4df523b3ef60405160405180910390a4809150509392505050565b6008805490506009600083815260200190815260200160002081905550600881908060018154018082558091505060019003906000526020600020016000909190919091505550565b6000611918836108bc565b90506000600760008481526020019081526020016000205490508181146119fd576000600660008673ffffffffffffffffffffffffffffffffffffffff1673ffffffffffffffffffffffffffffffffffffffff168152602001908152602001600020600084815260200190815260200160002054905080600660008773ffffffffffffffffffffffffffffffffffffffff1673ffffffffffffffffffffffffffffffffffffffff168152602001908152602001600020600084815260200190815260200160002081905550816007600083815260200190815260200160002081905550505b6007600084815260200190815260200160002060009055600660008573ffffffffffffffffffffffffffffffffffffffff1673ffffffffffffffffffffffffffffffffffffffff16815260200190815260200160002060008381526020019081526020016000206000905550505050565b60006001600880549050611a8291906127c6565b9050600060096000848152602001908152602001600020549050600060088381548110611ab257611ab1612556565b5b906000526020600020015490508060088381548110611ad457611ad3612556565b5b906000526020600020018190555081600960008381526020019081526020016000208190555060096000858152602001908152602001600020600090556008805480611b2357611b226127fa565b5b6001900381819060005260206000200160009055905550505050565b60006001611b4c846108bc565b611b5691906127c6565b905081600660008573ffffffffffffffffffffffffffffffffffffffff1673ffffffffffffffffffffffffffffffffffffffff168152602001908152602001600020600083815260200190815260200160002081905550806007600084815260200190815260200160002081905550505050565b600073ffffffffffffffffffffffffffffffffffffffff168273ffffffffffffffffffffffffffffffffffffffff1603611c3c5760006040517f64a0ae92000000000000000000000000000000000000000000000000000000008152600401611c33919061206d565b60405180910390fd5b6000611c4a83836000610c91565b9050600073ffffffffffffffffffffffffffffffffffffffff168173ffffffffffffffffffffffffffffffffffffffff1614611cbe5760006040517f73c6ac6e000000000000000000000000000000000000000000000000000000008152600401611cb5919061206d565b60405180910390fd5b505050565b611cce838383611d87565b611d8257600073ffffffffffffffffffffffffffffffffffffffff168373ffffffffffffffffffffffffffffffffffffffff1603611d4357806040517f7e273289000000000000000000000000000000000000000000000000000000008152600401611d3a9190612103565b60405180910390fd5b81816040517f177e802f000000000000000000000000000000000000000000000000000000008152600401611d7992919061252d565b60405180910390fd5b505050565b60008073ffffffffffffffffffffffffffffffffffffffff168373ffffffffffffffffffffffffffffffffffffffff1614158015611e3f57508273ffffffffffffffffffffffffffffffffffffffff168473ffffffffffffffffffffffffffffffffffffffff161480611e005750611dff8484610aa4565b5b80611e3e57508273ffffffffffffffffffffffffffffffffffffffff16611e2683610c3a565b73ffffffffffffffffffffffffffffffffffffffff16145b5b90509392505050565b6000604051905090565b600080fd5b600080fd5b60007fffffffff0000000000000000000000000000000000000000000000000000000082169050919050565b611e9181611e5c565b8114611e9c57600080fd5b50565b600081359050611eae81611e88565b92915050565b600060208284031215611eca57611ec9611e52565b5b6000611ed884828501611e9f565b91505092915050565b60008115159050919050565b611ef681611ee1565b82525050565b6000602082019050611f116000830184611eed565b92915050565b600081519050919050565b600082825260208201905092915050565b60005b83811015611f51578082015181840152602081019050611f36565b60008484015250505050565b6000601f19601f8301169050919050565b6000611f7982611f17565b611f838185611f22565b9350611f93818560208601611f33565b611f9c81611f5d565b840191505092915050565b60006020820190508181036000830152611fc18184611f6e565b905092915050565b6000819050919050565b611fdc81611fc9565b8114611fe757600080fd5b50565b600081359050611ff981611fd3565b92915050565b60006020828403121561201557612014611e52565b5b600061202384828501611fea565b91505092915050565b600073ffffffffffffffffffffffffffffffffffffffff82169050919050565b60006120578261202c565b9050919050565b6120678161204c565b82525050565b6000602082019050612082600083018461205e565b92915050565b6120918161204c565b811461209c57600080fd5b50565b6000813590506120ae81612088565b92915050565b600080604083850312156120cb576120ca611e52565b5b60006120d98582860161209f565b92505060206120ea85828601611fea565b9150509250929050565b6120fd81611fc9565b82525050565b600060208201905061211860008301846120f4565b92915050565b60008060006060848603121561213757612136611e52565b5b60006121458682870161209f565b93505060206121568682870161209f565b925050604061216786828701611fea565b9150509250925092565b60006020828403121561218757612186611e52565b5b60006121958482850161209f565b91505092915050565b600281106121ab57600080fd5b50565b6000813590506121bd8161219e565b92915050565b600080604083850312156121da576121d9611e52565b5b60006121e88582860161209f565b92505060206121f9858286016121ae565b9150509250929050565b61220c81611ee1565b811461221757600080fd5b50565b60008135905061222981612203565b92915050565b6000806040838503121561224657612245611e52565b5b60006122548582860161209f565b92505060206122658582860161221a565b9150509250929050565b600080fd5b600080fd5b7f4e487b7100000000000000000000000000000000000000000000000000000000600052604160045260246000fd5b6122b182611f5d565b810181811067ffffffffffffffff821117156122d0576122cf612279565b5b80604052505050565b60006122e3611e48565b90506122ef82826122a8565b919050565b600067ffffffffffffffff82111561230f5761230e612279565b5b61231882611f5d565b9050602081019050919050565b82818337600083830152505050565b6000612347612342846122f4565b6122d9565b90508281526020810184848401111561236357612362612274565b5b61236e848285612325565b509392505050565b600082601f83011261238b5761238a61226f565b5b813561239b848260208601612334565b91505092915050565b600080600080608085870312156123be576123bd611e52565b5b60006123cc8782880161209f565b94505060206123dd8782880161209f565b93505060406123ee87828801611fea565b925050606085013567ffffffffffffffff81111561240f5761240e611e57565b5b61241b87828801612376565b91505092959194509250565b6000806040838503121561243e5761243d611e52565b5b600061244c8582860161209f565b925050602061245d8582860161209f565b9150509250929050565b7f4e487b7100000000000000000000000000000000000000000000000000000000600052602260045260246000fd5b600060028204905060018216806124ae57607f821691505b6020821081036124c1576124c0612467565b5b50919050565b60006060820190506124dc600083018661205e565b6124e960208301856120f4565b6124f6604083018461205e565b949350505050565b7f4e487b7100000000000000000000000000000000000000000000000000000000600052602160045260246000fd5b6000604082019050612542600083018561205e565b61254f60208301846120f4565b9392505050565b7f4e487b7100000000000000000000000000000000000000000000000000000000600052603260045260246000fd5b7f6e6f204e4654202d3e206e6f7420617574686f72697a65640000000000000000600082015250565b60006125bb601883611f22565b91506125c682612585565b602082019050919050565b600060208201905081810360008301526125ea816125ae565b9050919050565b7f4e487b7100000000000000000000000000000000000000000000000000000000600052601160045260246000fd5b600061262b82611fc9565b915061263683611fc9565b925082820190508082111561264e5761264d6125f1565b5b92915050565b600081905092915050565b600061266a82611f17565b6126748185612654565b9350612684818560208601611f33565b80840191505092915050565b600061269c828561265f565b91506126a8828461265f565b91508190509392505050565b600081519050919050565b600082825260208201905092915050565b60006126db826126b4565b6126e581856126bf565b93506126f5818560208601611f33565b6126fe81611f5d565b840191505092915050565b600060808201905061271e600083018761205e565b61272b602083018661205e565b61273860408301856120f4565b818103606083015261274a81846126d0565b905095945050505050565b60008151905061276481611e88565b92915050565b6000602082840312156127805761277f611e52565b5b600061278e84828501612755565b91505092915050565b7f4e487b7100000000000000000000000000000000000000000000000000000000600052601260045260246000fd5b60006127d182611fc9565b91506127dc83611fc9565b92508282039050818111156127f4576127f36125f1565b5b92915050565b7f4e487b7100000000000000000000000000000000000000000000000000000000600052603160045260246000fdfea26469706673582212203e48bdcc8f4f4653b4de8687e274d68122ab83b2c6b30091e1ff49e59c24e21a64736f6c63430008180033a2646970667358221220cc4372627b0a7b86c54b209f8d40802a9fca22604615e0507e5cc37e307b3ef464736f6c63430008180033",
  "linkReferences": {},
  "deployedLinkReferences": {}
}