{
  "_format": "hh-sol-artifact-1",
  "contractName": "OrganizationFactory",
  "sourceName": "contracts/OrganizationFactory.sol",
  "abi": [
    {
      "anonymous": false,
      "inputs": [
        {
          "indexed": true,
          "internalType": "uint256",
          "name": "organizationId",
          "type": "uint256"
        },
        {
          "indexed": false,
          "internalType": "address",
          "name": "adminNFTAddress",
          "type": "address"
        },
        {
          "indexed": false,
          "internalType": "address",
          "name": "creator",
          "type": "address"
        }
      ],
      "name": "AdminNFTMinted",
      "type": "event"
    },
    {
      "anonymous": false,
      "inputs": [
        {
          "indexed": true,
          "internalType": "uint256",
          "name": "organizationId",
          "type": "uint256"
        },
        {
          "indexed": false,
          "internalType": "string",
          "name": "name",
          "type": "string"
        },
        {
          "indexed": false,
          "internalType": "address",
          "name": "creator",
          "type": "address"
        }
      ],
      "name": "OrganizationCreated",
      "type": "event"
    },
    {
      "inputs": [
        {
          "internalType": "address",
          "name": "_nftAddress",
          "type": "address"
        }
      ],
      "name": "addOrganization",
      "outputs": [],
      "stateMutability": "nonpayable",
      "type": "function"
    },
    {
      "inputs": [
        {
          "internalType": "string",
          "name": "name",
          "type": "string"
        }
      ],
      "name": "createOrganization",
      "outputs": [
        {
          "internalType": "address",
          "name": "",
          "type": "address"
        }
      ],
      "stateMutability": "nonpayable",
      "type": "function"
    },
    {
      "inputs": [],
      "name": "getOrganizations",
      "outputs": [
        {
          "components": [
            {
              "internalType": "uint256",
              "name": "id",
              "type": "uint256"
            },
            {
              "internalType": "string",
              "name": "name",
              "type": "string"
            },
            {
              "internalType": "address",
              "name": "creator",
              "type": "address"
            },
            {
              "internalType": "address",
              "name": "NFTAddress",
              "type": "address"
            }
          ],
          "internalType": "struct OrganizationFactory.OrganizationInfo[]",
          "name": "",
          "type": "tuple[]"
        }
      ],
      "stateMutability": "view",
      "type": "function"
    }
  ],
  "bytecode": "0x6080604052600160005534801561001557600080fd5b5061550f806100256000396000f3fe60806040523480156200001157600080fd5b5060043610620000465760003560e01c80636427acca146200004b5780639754a3a81462000081578063d68287df14620000a3575b600080fd5b620000696004803603810190620000639190620009b5565b620000c3565b60405162000078919062000a4b565b60405180910390f35b6200008b620003e4565b6040516200009a919062000c58565b60405180910390f35b620000c16004803603810190620000bb919062000cad565b620005d2565b005b600080600080815480929190620000da9062000d0e565b9190505590506000838433604051620000f39062000831565b620001019392919062000dad565b604051809103906000f0801580156200011e573d6000803e3d6000fd5b5090506000600160008373ffffffffffffffffffffffffffffffffffffffff1673ffffffffffffffffffffffffffffffffffffffff1681526020019081526020016000209050828160000181905550848160010190816200018091906200102e565b50338160020160006101000a81548173ffffffffffffffffffffffffffffffffffffffff021916908373ffffffffffffffffffffffffffffffffffffffff160217905550818160030160006101000a81548173ffffffffffffffffffffffffffffffffffffffff021916908373ffffffffffffffffffffffffffffffffffffffff160217905550600260003373ffffffffffffffffffffffffffffffffffffffff1673ffffffffffffffffffffffffffffffffffffffff16815260200190815260200160002081908060018154018082558091505060019003906000526020600020906004020160009091909190915060008201548160000155600182018160010190816200029091906200112d565b506002820160009054906101000a900473ffffffffffffffffffffffffffffffffffffffff168160020160006101000a81548173ffffffffffffffffffffffffffffffffffffffff021916908373ffffffffffffffffffffffffffffffffffffffff1602179055506003820160009054906101000a900473ffffffffffffffffffffffffffffffffffffffff168160030160006101000a81548173ffffffffffffffffffffffffffffffffffffffff021916908373ffffffffffffffffffffffffffffffffffffffff1602179055505050827f922a324c596e3ff0b7475d8ad6ee962a1313f05ff06e1437d9f5c47b6a9bb9248633604051620003959291906200122e565b60405180910390a2827f174e53856900c115bb3d9417cf548640cf1ef730c3e5ef9ac5954ac05e7a1e708333604051620003d192919062001262565b60405180910390a2819350505050919050565b6060600260003373ffffffffffffffffffffffffffffffffffffffff1673ffffffffffffffffffffffffffffffffffffffff168152602001908152602001600020805480602002602001604051908101604052809291908181526020016000905b82821015620005c9578382906000526020600020906004020160405180608001604052908160008201548152602001600182018054620004859062000e27565b80601f0160208091040260200160405190810160405280929190818152602001828054620004b39062000e27565b8015620005045780601f10620004d85761010080835404028352916020019162000504565b820191906000526020600020905b815481529060010190602001808311620004e657829003601f168201915b505050505081526020016002820160009054906101000a900473ffffffffffffffffffffffffffffffffffffffff1673ffffffffffffffffffffffffffffffffffffffff1673ffffffffffffffffffffffffffffffffffffffff1681526020016003820160009054906101000a900473ffffffffffffffffffffffffffffffffffffffff1673ffffffffffffffffffffffffffffffffffffffff1673ffffffffffffffffffffffffffffffffffffffff16815250508152602001906001019062000445565b50505050905090565b60008173ffffffffffffffffffffffffffffffffffffffff166370a08231336040518263ffffffff1660e01b81526004016200060f919062000a4b565b602060405180830381865afa1580156200062d573d6000803e3d6000fd5b505050506040513d601f19601f82011682018060405250810190620006539190620012c0565b1162000696576040517f08c379a00000000000000000000000000000000000000000000000000000000081526004016200068d9062001368565b60405180910390fd5b600260003373ffffffffffffffffffffffffffffffffffffffff1673ffffffffffffffffffffffffffffffffffffffff168152602001908152602001600020600160008373ffffffffffffffffffffffffffffffffffffffff1673ffffffffffffffffffffffffffffffffffffffff168152602001908152602001600020908060018154018082558091505060019003906000526020600020906004020160009091909190915060008201548160000155600182018160010190816200075d91906200112d565b506002820160009054906101000a900473ffffffffffffffffffffffffffffffffffffffff168160020160006101000a81548173ffffffffffffffffffffffffffffffffffffffff021916908373ffffffffffffffffffffffffffffffffffffffff1602179055506003820160009054906101000a900473ffffffffffffffffffffffffffffffffffffffff168160030160006101000a81548173ffffffffffffffffffffffffffffffffffffffff021916908373ffffffffffffffffffffffffffffffffffffffff160217905550505050565b61414f806200138b83390190565b6000604051905090565b600080fd5b600080fd5b600080fd5b600080fd5b6000601f19601f8301169050919050565b7f4e487b7100000000000000000000000000000000000000000000000000000000600052604160045260246000fd5b620008a8826200085d565b810181811067ffffffffffffffff82111715620008ca57620008c96200086e565b5b80604052505050565b6000620008df6200083f565b9050620008ed82826200089d565b919050565b600067ffffffffffffffff82111562000910576200090f6200086e565b5b6200091b826200085d565b9050602081019050919050565b82818337600083830152505050565b60006200094e6200094884620008f2565b620008d3565b9050828152602081018484840111156200096d576200096c62000858565b5b6200097a84828562000928565b509392505050565b600082601f8301126200099a576200099962000853565b5b8135620009ac84826020860162000937565b91505092915050565b600060208284031215620009ce57620009cd62000849565b5b600082013567ffffffffffffffff811115620009ef57620009ee6200084e565b5b620009fd8482850162000982565b91505092915050565b600073ffffffffffffffffffffffffffffffffffffffff82169050919050565b600062000a338262000a06565b9050919050565b62000a458162000a26565b82525050565b600060208201905062000a62600083018462000a3a565b92915050565b600081519050919050565b600082825260208201905092915050565b6000819050602082019050919050565b6000819050919050565b62000aa98162000a94565b82525050565b600081519050919050565b600082825260208201905092915050565b60005b8381101562000aeb57808201518184015260208101905062000ace565b60008484015250505050565b600062000b048262000aaf565b62000b10818562000aba565b935062000b2281856020860162000acb565b62000b2d816200085d565b840191505092915050565b62000b438162000a26565b82525050565b600060808301600083015162000b63600086018262000a9e565b506020830151848203602086015262000b7d828262000af7565b915050604083015162000b94604086018262000b38565b50606083015162000ba9606086018262000b38565b508091505092915050565b600062000bc2838362000b49565b905092915050565b6000602082019050919050565b600062000be48262000a68565b62000bf0818562000a73565b93508360208202850162000c048562000a84565b8060005b8581101562000c46578484038952815162000c24858262000bb4565b945062000c318362000bca565b925060208a0199505060018101905062000c08565b50829750879550505050505092915050565b6000602082019050818103600083015262000c74818462000bd7565b905092915050565b62000c878162000a26565b811462000c9357600080fd5b50565b60008135905062000ca78162000c7c565b92915050565b60006020828403121562000cc65762000cc562000849565b5b600062000cd68482850162000c96565b91505092915050565b7f4e487b7100000000000000000000000000000000000000000000000000000000600052601160045260246000fd5b600062000d1b8262000a94565b91507fffffffffffffffffffffffffffffffffffffffffffffffffffffffffffffffff820362000d505762000d4f62000cdf565b5b600182019050919050565b600082825260208201905092915050565b600062000d798262000aaf565b62000d85818562000d5b565b935062000d9781856020860162000acb565b62000da2816200085d565b840191505092915050565b6000606082019050818103600083015262000dc9818662000d6c565b9050818103602083015262000ddf818562000d6c565b905062000df0604083018462000a3a565b949350505050565b7f4e487b7100000000000000000000000000000000000000000000000000000000600052602260045260246000fd5b6000600282049050600182168062000e4057607f821691505b60208210810362000e565762000e5562000df8565b5b50919050565b60008190508160005260206000209050919050565b60006020601f8301049050919050565b600082821b905092915050565b60006008830262000ec07fffffffffffffffffffffffffffffffffffffffffffffffffffffffffffffffff8262000e81565b62000ecc868362000e81565b95508019841693508086168417925050509392505050565b6000819050919050565b600062000f0f62000f0962000f038462000a94565b62000ee4565b62000a94565b9050919050565b6000819050919050565b62000f2b8362000eee565b62000f4362000f3a8262000f16565b84845462000e8e565b825550505050565b600090565b62000f5a62000f4b565b62000f6781848462000f20565b505050565b5b8181101562000f8f5762000f8360008262000f50565b60018101905062000f6d565b5050565b601f82111562000fde5762000fa88162000e5c565b62000fb38462000e71565b8101602085101562000fc3578190505b62000fdb62000fd28562000e71565b83018262000f6c565b50505b505050565b600082821c905092915050565b6000620010036000198460080262000fe3565b1980831691505092915050565b60006200101e838362000ff0565b9150826002028217905092915050565b620010398262000aaf565b67ffffffffffffffff8111156200105557620010546200086e565b5b62001061825462000e27565b6200106e82828562000f93565b600060209050601f831160018114620010a6576000841562001091578287015190505b6200109d858262001010565b8655506200110d565b601f198416620010b68662000e5c565b60005b82811015620010e057848901518255600182019150602085019450602081019050620010b9565b86831015620011005784890151620010fc601f89168262000ff0565b8355505b6001600288020188555050505b505050505050565b600081549050620011268162000e27565b9050919050565b8181036200113d5750506200122c565b620011488262001115565b67ffffffffffffffff8111156200116457620011636200086e565b5b62001170825462000e27565b6200117d82828562000f93565b6000601f831160018114620011b157600084156200119c578287015490505b620011a8858262001010565b86555062001225565b601f198416620011c18762000e5c565b9650620011ce8662000e5c565b60005b82811015620011f857848901548255600182019150600185019450602081019050620011d1565b8683101562001218578489015462001214601f89168262000ff0565b8355505b6001600288020188555050505b5050505050505b565b600060408201905081810360008301526200124a818562000d6c565b90506200125b602083018462000a3a565b9392505050565b600060408201905062001279600083018562000a3a565b62001288602083018462000a3a565b9392505050565b6200129a8162000a94565b8114620012a657600080fd5b50565b600081519050620012ba816200128f565b92915050565b600060208284031215620012d957620012d862000849565b5b6000620012e984828501620012a9565b91505092915050565b7f596f752068617665206e6f2061636365737320746f2074686973204f7267616e60008201527f697a6174696f6e00000000000000000000000000000000000000000000000000602082015250565b60006200135060278362000d5b565b91506200135d82620012f2565b604082019050919050565b60006020820190508181036000830152620013838162001341565b905091905056fe60806040526001600a553480156200001657600080fd5b506040516200414f3803806200414f83398181016040528101906200003c91906200128c565b828281600090816200004f919062001571565b50806001908162000061919062001571565b5050506200007881600a54620000c260201b60201c565b6000600b6000600a54815260200190815260200160002060006101000a81548160ff02191690836001811115620000b457620000b362001658565b5b021790555050505062001918565b620000e4828260405180602001604052806000815250620000e860201b60201c565b5050565b620000fa83836200011460201b60201c565b6200010f60008484846200021b60201b60201c565b505050565b600073ffffffffffffffffffffffffffffffffffffffff168273ffffffffffffffffffffffffffffffffffffffff1603620001895760006040517f64a0ae9200000000000000000000000000000000000000000000000000000000815260040162000180919062001698565b60405180910390fd5b60006200019f83836000620003e960201b60201c565b9050600073ffffffffffffffffffffffffffffffffffffffff168173ffffffffffffffffffffffffffffffffffffffff1614620002165760006040517f73c6ac6e0000000000000000000000000000000000000000000000000000000081526004016200020d919062001698565b60405180910390fd5b505050565b60008373ffffffffffffffffffffffffffffffffffffffff163b1115620003e3578273ffffffffffffffffffffffffffffffffffffffff1663150b7a02620002686200040760201b60201c565b8685856040518563ffffffff1660e01b81526004016200028c949392919062001723565b6020604051808303816000875af1925050508015620002cb57506040513d601f19601f82011682018060405250810190620002c89190620017d4565b60015b62000355573d8060008114620002fe576040519150601f19603f3d011682016040523d82523d6000602084013e62000303565b606091505b5060008151036200034d57836040517f64a0ae9200000000000000000000000000000000000000000000000000000000815260040162000344919062001698565b60405180910390fd5b805181602001fd5b63150b7a0260e01b7bffffffffffffffffffffffffffffffffffffffffffffffffffffffff1916817bffffffffffffffffffffffffffffffffffffffffffffffffffffffff191614620003e157836040517f64a0ae92000000000000000000000000000000000000000000000000000000008152600401620003d8919062001698565b60405180910390fd5b505b50505050565b6000620003fe8484846200040f60201b60201c565b90509392505050565b600033905090565b600080620004258585856200055a60201b60201c565b9050600073ffffffffffffffffffffffffffffffffffffffff168173ffffffffffffffffffffffffffffffffffffffff160362000473576200046d846200078f60201b60201c565b620004bb565b8473ffffffffffffffffffffffffffffffffffffffff168173ffffffffffffffffffffffffffffffffffffffff1614620004ba57620004b98185620007d860201b60201c565b5b5b600073ffffffffffffffffffffffffffffffffffffffff168573ffffffffffffffffffffffffffffffffffffffff1603620005075762000501846200094260201b60201c565b6200054f565b8473ffffffffffffffffffffffffffffffffffffffff168173ffffffffffffffffffffffffffffffffffffffff16146200054e576200054d858562000a1e60201b60201c565b5b5b809150509392505050565b6000806200056e8462000ab360201b60201c565b9050600073ffffffffffffffffffffffffffffffffffffffff168373ffffffffffffffffffffffffffffffffffffffff1614620005b957620005b881848662000af060201b60201c565b5b600073ffffffffffffffffffffffffffffffffffffffff168173ffffffffffffffffffffffffffffffffffffffff161462000653576200060460008560008062000bc260201b60201c565b6001600360008373ffffffffffffffffffffffffffffffffffffffff1673ffffffffffffffffffffffffffffffffffffffff168152602001908152602001600020600082825403925050819055505b600073ffffffffffffffffffffffffffffffffffffffff168573ffffffffffffffffffffffffffffffffffffffff1614620006d7576001600360008773ffffffffffffffffffffffffffffffffffffffff1673ffffffffffffffffffffffffffffffffffffffff168152602001908152602001600020600082825401925050819055505b846002600086815260200190815260200160002060006101000a81548173ffffffffffffffffffffffffffffffffffffffff021916908373ffffffffffffffffffffffffffffffffffffffff160217905550838573ffffffffffffffffffffffffffffffffffffffff168273ffffffffffffffffffffffffffffffffffffffff167fddf252ad1be2c89b69c2b068fc378daa952ba7f163c4a11628f55a4df523b3ef60405160405180910390a4809150509392505050565b6008805490506009600083815260200190815260200160002081905550600881908060018154018082558091505060019003906000526020600020016000909190919091505550565b6000620007eb8362000d9f60201b60201c565b9050600060076000848152602001908152602001600020549050818114620008d1576000600660008673ffffffffffffffffffffffffffffffffffffffff1673ffffffffffffffffffffffffffffffffffffffff168152602001908152602001600020600084815260200190815260200160002054905080600660008773ffffffffffffffffffffffffffffffffffffffff1673ffffffffffffffffffffffffffffffffffffffff168152602001908152602001600020600084815260200190815260200160002081905550816007600083815260200190815260200160002081905550505b6007600084815260200190815260200160002060009055600660008573ffffffffffffffffffffffffffffffffffffffff1673ffffffffffffffffffffffffffffffffffffffff16815260200190815260200160002060008381526020019081526020016000206000905550505050565b6000600160088054905062000958919062001835565b90506000600960008481526020019081526020016000205490506000600883815481106200098b576200098a62001870565b5b906000526020600020015490508060088381548110620009b057620009af62001870565b5b90600052602060002001819055508160096000838152602001908152602001600020819055506009600085815260200190815260200160002060009055600880548062000a025762000a016200189f565b5b6001900381819060005260206000200160009055905550505050565b6000600162000a338462000d9f60201b60201c565b62000a3f919062001835565b905081600660008573ffffffffffffffffffffffffffffffffffffffff1673ffffffffffffffffffffffffffffffffffffffff168152602001908152602001600020600083815260200190815260200160002081905550806007600084815260200190815260200160002081905550505050565b60006002600083815260200190815260200160002060009054906101000a900473ffffffffffffffffffffffffffffffffffffffff169050919050565b62000b0383838362000e5c60201b60201c565b62000bbd57600073ffffffffffffffffffffffffffffffffffffffff168373ffffffffffffffffffffffffffffffffffffffff160362000b7c57806040517f7e27328900000000000000000000000000000000000000000000000000000000815260040162000b739190620018ce565b60405180910390fd5b81816040517f177e802f00000000000000000000000000000000000000000000000000000000815260040162000bb4929190620018eb565b60405180910390fd5b505050565b808062000bfc5750600073ffffffffffffffffffffffffffffffffffffffff168273ffffffffffffffffffffffffffffffffffffffff1614155b1562000d4757600062000c158462000f3060201b60201c565b9050600073ffffffffffffffffffffffffffffffffffffffff168373ffffffffffffffffffffffffffffffffffffffff161415801562000c8157508273ffffffffffffffffffffffffffffffffffffffff168173ffffffffffffffffffffffffffffffffffffffff1614155b801562000c9d575062000c9b818462000fc360201b60201c565b155b1562000ce257826040517fa9fbf51f00000000000000000000000000000000000000000000000000000000815260040162000cd9919062001698565b60405180910390fd5b811562000d4557838573ffffffffffffffffffffffffffffffffffffffff168273ffffffffffffffffffffffffffffffffffffffff167f8c5be1e5ebec7d5bd14f71427d1e84f3dd0314c0f7b2291e5b200ac8c7c3b92560405160405180910390a45b505b836004600085815260200190815260200160002060006101000a81548173ffffffffffffffffffffffffffffffffffffffff021916908373ffffffffffffffffffffffffffffffffffffffff16021790555050505050565b60008073ffffffffffffffffffffffffffffffffffffffff168273ffffffffffffffffffffffffffffffffffffffff160362000e155760006040517f89c62b6400000000000000000000000000000000000000000000000000000000815260040162000e0c919062001698565b60405180910390fd5b600360008373ffffffffffffffffffffffffffffffffffffffff1673ffffffffffffffffffffffffffffffffffffffff168152602001908152602001600020549050919050565b60008073ffffffffffffffffffffffffffffffffffffffff168373ffffffffffffffffffffffffffffffffffffffff161415801562000f2757508273ffffffffffffffffffffffffffffffffffffffff168473ffffffffffffffffffffffffffffffffffffffff16148062000edf575062000ede848462000fc360201b60201c565b5b8062000f2657508273ffffffffffffffffffffffffffffffffffffffff1662000f0e836200105760201b60201c565b73ffffffffffffffffffffffffffffffffffffffff16145b5b90509392505050565b60008062000f448362000ab360201b60201c565b9050600073ffffffffffffffffffffffffffffffffffffffff168173ffffffffffffffffffffffffffffffffffffffff160362000fba57826040517f7e27328900000000000000000000000000000000000000000000000000000000815260040162000fb19190620018ce565b60405180910390fd5b80915050919050565b6000600560008473ffffffffffffffffffffffffffffffffffffffff1673ffffffffffffffffffffffffffffffffffffffff16815260200190815260200160002060008373ffffffffffffffffffffffffffffffffffffffff1673ffffffffffffffffffffffffffffffffffffffff16815260200190815260200160002060009054906101000a900460ff16905092915050565b60006004600083815260200190815260200160002060009054906101000a900473ffffffffffffffffffffffffffffffffffffffff169050919050565b6000604051905090565b600080fd5b600080fd5b600080fd5b600080fd5b6000601f19601f8301169050919050565b7f4e487b7100000000000000000000000000000000000000000000000000000000600052604160045260246000fd5b620010fd82620010b2565b810181811067ffffffffffffffff821117156200111f576200111e620010c3565b5b80604052505050565b60006200113462001094565b9050620011428282620010f2565b919050565b600067ffffffffffffffff821115620011655762001164620010c3565b5b6200117082620010b2565b9050602081019050919050565b60005b838110156200119d57808201518184015260208101905062001180565b60008484015250505050565b6000620011c0620011ba8462001147565b62001128565b905082815260208101848484011115620011df57620011de620010ad565b5b620011ec8482856200117d565b509392505050565b600082601f8301126200120c576200120b620010a8565b5b81516200121e848260208601620011a9565b91505092915050565b600073ffffffffffffffffffffffffffffffffffffffff82169050919050565b6000620012548262001227565b9050919050565b620012668162001247565b81146200127257600080fd5b50565b60008151905062001286816200125b565b92915050565b600080600060608486031215620012a857620012a76200109e565b5b600084015167ffffffffffffffff811115620012c957620012c8620010a3565b5b620012d786828701620011f4565b935050602084015167ffffffffffffffff811115620012fb57620012fa620010a3565b5b6200130986828701620011f4565b92505060406200131c8682870162001275565b9150509250925092565b600081519050919050565b7f4e487b7100000000000000000000000000000000000000000000000000000000600052602260045260246000fd5b600060028204905060018216806200137957607f821691505b6020821081036200138f576200138e62001331565b5b50919050565b60008190508160005260206000209050919050565b60006020601f8301049050919050565b600082821b905092915050565b600060088302620013f97fffffffffffffffffffffffffffffffffffffffffffffffffffffffffffffffff82620013ba565b620014058683620013ba565b95508019841693508086168417925050509392505050565b6000819050919050565b6000819050919050565b6000620014526200144c62001446846200141d565b62001427565b6200141d565b9050919050565b6000819050919050565b6200146e8362001431565b620014866200147d8262001459565b848454620013c7565b825550505050565b600090565b6200149d6200148e565b620014aa81848462001463565b505050565b5b81811015620014d257620014c660008262001493565b600181019050620014b0565b5050565b601f8211156200152157620014eb8162001395565b620014f684620013aa565b8101602085101562001506578190505b6200151e6200151585620013aa565b830182620014af565b50505b505050565b600082821c905092915050565b6000620015466000198460080262001526565b1980831691505092915050565b600062001561838362001533565b9150826002028217905092915050565b6200157c8262001326565b67ffffffffffffffff811115620015985762001597620010c3565b5b620015a4825462001360565b620015b1828285620014d6565b600060209050601f831160018114620015e95760008415620015d4578287015190505b620015e0858262001553565b86555062001650565b601f198416620015f98662001395565b60005b828110156200162357848901518255600182019150602085019450602081019050620015fc565b868310156200164357848901516200163f601f89168262001533565b8355505b6001600288020188555050505b505050505050565b7f4e487b7100000000000000000000000000000000000000000000000000000000600052602160045260246000fd5b620016928162001247565b82525050565b6000602082019050620016af600083018462001687565b92915050565b620016c0816200141d565b82525050565b600081519050919050565b600082825260208201905092915050565b6000620016ef82620016c6565b620016fb8185620016d1565b93506200170d8185602086016200117d565b6200171881620010b2565b840191505092915050565b60006080820190506200173a600083018762001687565b62001749602083018662001687565b620017586040830185620016b5565b81810360608301526200176c8184620016e2565b905095945050505050565b60007fffffffff0000000000000000000000000000000000000000000000000000000082169050919050565b620017ae8162001777565b8114620017ba57600080fd5b50565b600081519050620017ce81620017a3565b92915050565b600060208284031215620017ed57620017ec6200109e565b5b6000620017fd84828501620017bd565b91505092915050565b7f4e487b7100000000000000000000000000000000000000000000000000000000600052601160045260246000fd5b600062001842826200141d565b91506200184f836200141d565b92508282039050818111156200186a576200186962001806565b5b92915050565b7f4e487b7100000000000000000000000000000000000000000000000000000000600052603260045260246000fd5b7f4e487b7100000000000000000000000000000000000000000000000000000000600052603160045260246000fd5b6000602082019050620018e56000830184620016b5565b92915050565b600060408201905062001902600083018562001687565b620019116020830184620016b5565b9392505050565b61282780620019286000396000f3fe608060405234801561001057600080fd5b50600436106101215760003560e01c806342966c68116100ad57806395d89b411161007157806395d89b411461033e578063a22cb4651461035c578063b88d4fde14610378578063c87b56dd14610394578063e985e9c5146103c457610121565b806342966c68146102765780634f6ccce7146102925780636352211e146102c2578063691562a0146102f257806370a082311461030e57610121565b806318160ddd116100f457806318160ddd146101c057806323b872dd146101de57806324d7806c146101fa5780632f745c591461022a57806342842e0e1461025a57610121565b806301ffc9a71461012657806306fdde0314610156578063081812fc14610174578063095ea7b3146101a4575b600080fd5b610140600480360381019061013b9190611e7c565b6103f4565b60405161014d9190611ec4565b60405180910390f35b61015e610406565b60405161016b9190611f6f565b60405180910390f35b61018e60048036038101906101899190611fc7565b610498565b60405161019b9190612035565b60405180910390f35b6101be60048036038101906101b9919061207c565b6104b4565b005b6101c86104ca565b6040516101d591906120cb565b60405180910390f35b6101f860048036038101906101f391906120e6565b6104d7565b005b610214600480360381019061020f9190612139565b6105d9565b6040516102219190611ec4565b60405180910390f35b610244600480360381019061023f919061207c565b610672565b60405161025191906120cb565b60405180910390f35b610274600480360381019061026f91906120e6565b61071b565b005b610290600480360381019061028b9190611fc7565b61073b565b005b6102ac60048036038101906102a79190611fc7565b610752565b6040516102b991906120cb565b60405180910390f35b6102dc60048036038101906102d79190611fc7565b6107c8565b6040516102e99190612035565b60405180910390f35b61030c6004803603810190610307919061218b565b6107da565b005b61032860048036038101906103239190612139565b610884565b60405161033591906120cb565b60405180910390f35b61034661093e565b6040516103539190611f6f565b60405180910390f35b610376600480360381019061037191906121f7565b6109d0565b005b610392600480360381019061038d919061236c565b6109e6565b005b6103ae60048036038101906103a99190611fc7565b610a03565b6040516103bb9190611f6f565b60405180910390f35b6103de60048036038101906103d991906123ef565b610a6c565b6040516103eb9190611ec4565b60405180910390f35b60006103ff82610b00565b9050919050565b6060600080546104159061245e565b80601f01602080910402602001604051908101604052809291908181526020018280546104419061245e565b801561048e5780601f106104635761010080835404028352916020019161048e565b820191906000526020600020905b81548152906001019060200180831161047157829003601f168201915b5050505050905090565b60006104a382610b7a565b506104ad82610c02565b9050919050565b6104c682826104c1610c3f565b610c47565b5050565b6000600880549050905090565b600073ffffffffffffffffffffffffffffffffffffffff168273ffffffffffffffffffffffffffffffffffffffff16036105495760006040517f64a0ae920000000000000000000000000000000000000000000000000000000081526004016105409190612035565b60405180910390fd5b600061055d8383610558610c3f565b610c59565b90508373ffffffffffffffffffffffffffffffffffffffff168173ffffffffffffffffffffffffffffffffffffffff16146105d3578382826040517f64283d7b0000000000000000000000000000000000000000000000000000000081526004016105ca9392919061248f565b60405180910390fd5b50505050565b6000806105e583610884565b905060005b818110156106665760006105fe8583610672565b905060006001811115610614576106136124c6565b5b600b600083815260200190815260200160002060009054906101000a900460ff166001811115610647576106466124c6565b5b03610658576001935050505061066d565b5080806001019150506105ea565b5060009150505b919050565b600061067d83610884565b82106106c25782826040517fa57d13dc0000000000000000000000000000000000000000000000000000000081526004016106b99291906124f5565b60405180910390fd5b600660008473ffffffffffffffffffffffffffffffffffffffff1673ffffffffffffffffffffffffffffffffffffffff168152602001908152602001600020600083815260200190815260200160002054905092915050565b610736838383604051806020016040528060008152506109e6565b505050565b61074e600082610749610c3f565b610c59565b5050565b600061075c6104ca565b82106107a2576000826040517fa57d13dc0000000000000000000000000000000000000000000000000000000081526004016107999291906124f5565b60405180910390fd5b600882815481106107b6576107b561251e565b5b90600052602060002001549050919050565b60006107d382610b7a565b9050919050565b6107e3336105d9565b610822576040517f08c379a000000000000000000000000000000000000000000000000000000000815260040161081990612599565b60405180910390fd5b6001600a5461083191906125e8565b600a8190555061084382600a54610c6f565b80600b6000600a54815260200190815260200160002060006101000a81548160ff0219169083600181111561087b5761087a6124c6565b5b02179055505050565b60008073ffffffffffffffffffffffffffffffffffffffff168273ffffffffffffffffffffffffffffffffffffffff16036108f75760006040517f89c62b640000000000000000000000000000000000000000000000000000000081526004016108ee9190612035565b60405180910390fd5b600360008373ffffffffffffffffffffffffffffffffffffffff1673ffffffffffffffffffffffffffffffffffffffff168152602001908152602001600020549050919050565b60606001805461094d9061245e565b80601f01602080910402602001604051908101604052809291908181526020018280546109799061245e565b80156109c65780601f1061099b576101008083540402835291602001916109c6565b820191906000526020600020905b8154815290600101906020018083116109a957829003601f168201915b5050505050905090565b6109e26109db610c3f565b8383610c8d565b5050565b6109f18484846104d7565b6109fd84848484610dfc565b50505050565b6060610a0e82610b7a565b506000610a19610fb3565b90506000815111610a395760405180602001604052806000815250610a64565b80610a4384610fca565b604051602001610a54929190612658565b6040516020818303038152906040525b915050919050565b6000600560008473ffffffffffffffffffffffffffffffffffffffff1673ffffffffffffffffffffffffffffffffffffffff16815260200190815260200160002060008373ffffffffffffffffffffffffffffffffffffffff1673ffffffffffffffffffffffffffffffffffffffff16815260200190815260200160002060009054906101000a900460ff16905092915050565b60007f780e9d63000000000000000000000000000000000000000000000000000000007bffffffffffffffffffffffffffffffffffffffffffffffffffffffff1916827bffffffffffffffffffffffffffffffffffffffffffffffffffffffff19161480610b735750610b7282611098565b5b9050919050565b600080610b868361117a565b9050600073ffffffffffffffffffffffffffffffffffffffff168173ffffffffffffffffffffffffffffffffffffffff1603610bf957826040517f7e273289000000000000000000000000000000000000000000000000000000008152600401610bf091906120cb565b60405180910390fd5b80915050919050565b60006004600083815260200190815260200160002060009054906101000a900473ffffffffffffffffffffffffffffffffffffffff169050919050565b600033905090565b610c5483838360016111b7565b505050565b6000610c6684848461137c565b90509392505050565b610c89828260405180602001604052806000815250611499565b5050565b600073ffffffffffffffffffffffffffffffffffffffff168273ffffffffffffffffffffffffffffffffffffffff1603610cfe57816040517f5b08ba18000000000000000000000000000000000000000000000000000000008152600401610cf59190612035565b60405180910390fd5b80600560008573ffffffffffffffffffffffffffffffffffffffff1673ffffffffffffffffffffffffffffffffffffffff16815260200190815260200160002060008473ffffffffffffffffffffffffffffffffffffffff1673ffffffffffffffffffffffffffffffffffffffff16815260200190815260200160002060006101000a81548160ff0219169083151502179055508173ffffffffffffffffffffffffffffffffffffffff168373ffffffffffffffffffffffffffffffffffffffff167f17307eab39ab6107e8899845ad3d59bd9653f200f220920489ca2b5937696c3183604051610def9190611ec4565b60405180910390a3505050565b60008373ffffffffffffffffffffffffffffffffffffffff163b1115610fad578273ffffffffffffffffffffffffffffffffffffffff1663150b7a02610e40610c3f565b8685856040518563ffffffff1660e01b8152600401610e6294939291906126d1565b6020604051808303816000875af1925050508015610e9e57506040513d601f19601f82011682018060405250810190610e9b9190612732565b60015b610f22573d8060008114610ece576040519150601f19603f3d011682016040523d82523d6000602084013e610ed3565b606091505b506000815103610f1a57836040517f64a0ae92000000000000000000000000000000000000000000000000000000008152600401610f119190612035565b60405180910390fd5b805181602001fd5b63150b7a0260e01b7bffffffffffffffffffffffffffffffffffffffffffffffffffffffff1916817bffffffffffffffffffffffffffffffffffffffffffffffffffffffff191614610fab57836040517f64a0ae92000000000000000000000000000000000000000000000000000000008152600401610fa29190612035565b60405180910390fd5b505b50505050565b606060405180602001604052806000815250905090565b606060006001610fd9846114b5565b01905060008167ffffffffffffffff811115610ff857610ff7612241565b5b6040519080825280601f01601f19166020018201604052801561102a5781602001600182028036833780820191505090505b509050600082602001820190505b60011561108d578080600190039150507f3031323334353637383961626364656600000000000000000000000000000000600a86061a8153600a85816110815761108061275f565b5b04945060008503611038575b819350505050919050565b60007f80ac58cd000000000000000000000000000000000000000000000000000000007bffffffffffffffffffffffffffffffffffffffffffffffffffffffff1916827bffffffffffffffffffffffffffffffffffffffffffffffffffffffff1916148061116357507f5b5e139f000000000000000000000000000000000000000000000000000000007bffffffffffffffffffffffffffffffffffffffffffffffffffffffff1916827bffffffffffffffffffffffffffffffffffffffffffffffffffffffff1916145b80611173575061117282611608565b5b9050919050565b60006002600083815260200190815260200160002060009054906101000a900473ffffffffffffffffffffffffffffffffffffffff169050919050565b80806111f05750600073ffffffffffffffffffffffffffffffffffffffff168273ffffffffffffffffffffffffffffffffffffffff1614155b1561132457600061120084610b7a565b9050600073ffffffffffffffffffffffffffffffffffffffff168373ffffffffffffffffffffffffffffffffffffffff161415801561126b57508273ffffffffffffffffffffffffffffffffffffffff168173ffffffffffffffffffffffffffffffffffffffff1614155b801561127e575061127c8184610a6c565b155b156112c057826040517fa9fbf51f0000000000000000000000000000000000000000000000000000000081526004016112b79190612035565b60405180910390fd5b811561132257838573ffffffffffffffffffffffffffffffffffffffff168273ffffffffffffffffffffffffffffffffffffffff167f8c5be1e5ebec7d5bd14f71427d1e84f3dd0314c0f7b2291e5b200ac8c7c3b92560405160405180910390a45b505b836004600085815260200190815260200160002060006101000a81548173ffffffffffffffffffffffffffffffffffffffff021916908373ffffffffffffffffffffffffffffffffffffffff16021790555050505050565b60008061138a858585611672565b9050600073ffffffffffffffffffffffffffffffffffffffff168173ffffffffffffffffffffffffffffffffffffffff16036113ce576113c98461188c565b61140d565b8473ffffffffffffffffffffffffffffffffffffffff168173ffffffffffffffffffffffffffffffffffffffff161461140c5761140b81856118d5565b5b5b600073ffffffffffffffffffffffffffffffffffffffff168573ffffffffffffffffffffffffffffffffffffffff160361144f5761144a84611a36565b61148e565b8473ffffffffffffffffffffffffffffffffffffffff168173ffffffffffffffffffffffffffffffffffffffff161461148d5761148c8585611b07565b5b5b809150509392505050565b6114a38383611b92565b6114b06000848484610dfc565b505050565b600080600090507a184f03e93ff9f4daa797ed6e38ed64bf6a1f0100000000000000008310611513577a184f03e93ff9f4daa797ed6e38ed64bf6a1f01000000000000000083816115095761150861275f565b5b0492506040810190505b6d04ee2d6d415b85acef81000000008310611550576d04ee2d6d415b85acef810000000083816115465761154561275f565b5b0492506020810190505b662386f26fc10000831061157f57662386f26fc1000083816115755761157461275f565b5b0492506010810190505b6305f5e10083106115a8576305f5e100838161159e5761159d61275f565b5b0492506008810190505b61271083106115cd5761271083816115c3576115c261275f565b5b0492506004810190505b606483106115f057606483816115e6576115e561275f565b5b0492506002810190505b600a83106115ff576001810190505b80915050919050565b60007f01ffc9a7000000000000000000000000000000000000000000000000000000007bffffffffffffffffffffffffffffffffffffffffffffffffffffffff1916827bffffffffffffffffffffffffffffffffffffffffffffffffffffffff1916149050919050565b60008061167e8461117a565b9050600073ffffffffffffffffffffffffffffffffffffffff168373ffffffffffffffffffffffffffffffffffffffff16146116c0576116bf818486611c8b565b5b600073ffffffffffffffffffffffffffffffffffffffff168173ffffffffffffffffffffffffffffffffffffffff1614611751576117026000856000806111b7565b6001600360008373ffffffffffffffffffffffffffffffffffffffff1673ffffffffffffffffffffffffffffffffffffffff168152602001908152602001600020600082825403925050819055505b600073ffffffffffffffffffffffffffffffffffffffff168573ffffffffffffffffffffffffffffffffffffffff16146117d4576001600360008773ffffffffffffffffffffffffffffffffffffffff1673ffffffffffffffffffffffffffffffffffffffff168152602001908152602001600020600082825401925050819055505b846002600086815260200190815260200160002060006101000a81548173ffffffffffffffffffffffffffffffffffffffff021916908373ffffffffffffffffffffffffffffffffffffffff160217905550838573ffffffffffffffffffffffffffffffffffffffff168273ffffffffffffffffffffffffffffffffffffffff167fddf252ad1be2c89b69c2b068fc378daa952ba7f163c4a11628f55a4df523b3ef60405160405180910390a4809150509392505050565b6008805490506009600083815260200190815260200160002081905550600881908060018154018082558091505060019003906000526020600020016000909190919091505550565b60006118e083610884565b90506000600760008481526020019081526020016000205490508181146119c5576000600660008673ffffffffffffffffffffffffffffffffffffffff1673ffffffffffffffffffffffffffffffffffffffff168152602001908152602001600020600084815260200190815260200160002054905080600660008773ffffffffffffffffffffffffffffffffffffffff1673ffffffffffffffffffffffffffffffffffffffff168152602001908152602001600020600084815260200190815260200160002081905550816007600083815260200190815260200160002081905550505b6007600084815260200190815260200160002060009055600660008573ffffffffffffffffffffffffffffffffffffffff1673ffffffffffffffffffffffffffffffffffffffff16815260200190815260200160002060008381526020019081526020016000206000905550505050565b60006001600880549050611a4a919061278e565b9050600060096000848152602001908152602001600020549050600060088381548110611a7a57611a7961251e565b5b906000526020600020015490508060088381548110611a9c57611a9b61251e565b5b906000526020600020018190555081600960008381526020019081526020016000208190555060096000858152602001908152602001600020600090556008805480611aeb57611aea6127c2565b5b6001900381819060005260206000200160009055905550505050565b60006001611b1484610884565b611b1e919061278e565b905081600660008573ffffffffffffffffffffffffffffffffffffffff1673ffffffffffffffffffffffffffffffffffffffff168152602001908152602001600020600083815260200190815260200160002081905550806007600084815260200190815260200160002081905550505050565b600073ffffffffffffffffffffffffffffffffffffffff168273ffffffffffffffffffffffffffffffffffffffff1603611c045760006040517f64a0ae92000000000000000000000000000000000000000000000000000000008152600401611bfb9190612035565b60405180910390fd5b6000611c1283836000610c59565b9050600073ffffffffffffffffffffffffffffffffffffffff168173ffffffffffffffffffffffffffffffffffffffff1614611c865760006040517f73c6ac6e000000000000000000000000000000000000000000000000000000008152600401611c7d9190612035565b60405180910390fd5b505050565b611c96838383611d4f565b611d4a57600073ffffffffffffffffffffffffffffffffffffffff168373ffffffffffffffffffffffffffffffffffffffff1603611d0b57806040517f7e273289000000000000000000000000000000000000000000000000000000008152600401611d0291906120cb565b60405180910390fd5b81816040517f177e802f000000000000000000000000000000000000000000000000000000008152600401611d419291906124f5565b60405180910390fd5b505050565b60008073ffffffffffffffffffffffffffffffffffffffff168373ffffffffffffffffffffffffffffffffffffffff1614158015611e0757508273ffffffffffffffffffffffffffffffffffffffff168473ffffffffffffffffffffffffffffffffffffffff161480611dc85750611dc78484610a6c565b5b80611e0657508273ffffffffffffffffffffffffffffffffffffffff16611dee83610c02565b73ffffffffffffffffffffffffffffffffffffffff16145b5b90509392505050565b6000604051905090565b600080fd5b600080fd5b60007fffffffff0000000000000000000000000000000000000000000000000000000082169050919050565b611e5981611e24565b8114611e6457600080fd5b50565b600081359050611e7681611e50565b92915050565b600060208284031215611e9257611e91611e1a565b5b6000611ea084828501611e67565b91505092915050565b60008115159050919050565b611ebe81611ea9565b82525050565b6000602082019050611ed96000830184611eb5565b92915050565b600081519050919050565b600082825260208201905092915050565b60005b83811015611f19578082015181840152602081019050611efe565b60008484015250505050565b6000601f19601f8301169050919050565b6000611f4182611edf565b611f4b8185611eea565b9350611f5b818560208601611efb565b611f6481611f25565b840191505092915050565b60006020820190508181036000830152611f898184611f36565b905092915050565b6000819050919050565b611fa481611f91565b8114611faf57600080fd5b50565b600081359050611fc181611f9b565b92915050565b600060208284031215611fdd57611fdc611e1a565b5b6000611feb84828501611fb2565b91505092915050565b600073ffffffffffffffffffffffffffffffffffffffff82169050919050565b600061201f82611ff4565b9050919050565b61202f81612014565b82525050565b600060208201905061204a6000830184612026565b92915050565b61205981612014565b811461206457600080fd5b50565b60008135905061207681612050565b92915050565b6000806040838503121561209357612092611e1a565b5b60006120a185828601612067565b92505060206120b285828601611fb2565b9150509250929050565b6120c581611f91565b82525050565b60006020820190506120e060008301846120bc565b92915050565b6000806000606084860312156120ff576120fe611e1a565b5b600061210d86828701612067565b935050602061211e86828701612067565b925050604061212f86828701611fb2565b9150509250925092565b60006020828403121561214f5761214e611e1a565b5b600061215d84828501612067565b91505092915050565b6002811061217357600080fd5b50565b60008135905061218581612166565b92915050565b600080604083850312156121a2576121a1611e1a565b5b60006121b085828601612067565b92505060206121c185828601612176565b9150509250929050565b6121d481611ea9565b81146121df57600080fd5b50565b6000813590506121f1816121cb565b92915050565b6000806040838503121561220e5761220d611e1a565b5b600061221c85828601612067565b925050602061222d858286016121e2565b9150509250929050565b600080fd5b600080fd5b7f4e487b7100000000000000000000000000000000000000000000000000000000600052604160045260246000fd5b61227982611f25565b810181811067ffffffffffffffff8211171561229857612297612241565b5b80604052505050565b60006122ab611e10565b90506122b78282612270565b919050565b600067ffffffffffffffff8211156122d7576122d6612241565b5b6122e082611f25565b9050602081019050919050565b82818337600083830152505050565b600061230f61230a846122bc565b6122a1565b90508281526020810184848401111561232b5761232a61223c565b5b6123368482856122ed565b509392505050565b600082601f83011261235357612352612237565b5b81356123638482602086016122fc565b91505092915050565b6000806000806080858703121561238657612385611e1a565b5b600061239487828801612067565b94505060206123a587828801612067565b93505060406123b687828801611fb2565b925050606085013567ffffffffffffffff8111156123d7576123d6611e1f565b5b6123e38782880161233e565b91505092959194509250565b6000806040838503121561240657612405611e1a565b5b600061241485828601612067565b925050602061242585828601612067565b9150509250929050565b7f4e487b7100000000000000000000000000000000000000000000000000000000600052602260045260246000fd5b6000600282049050600182168061247657607f821691505b6020821081036124895761248861242f565b5b50919050565b60006060820190506124a46000830186612026565b6124b160208301856120bc565b6124be6040830184612026565b949350505050565b7f4e487b7100000000000000000000000000000000000000000000000000000000600052602160045260246000fd5b600060408201905061250a6000830185612026565b61251760208301846120bc565b9392505050565b7f4e487b7100000000000000000000000000000000000000000000000000000000600052603260045260246000fd5b7f6e6f204e4654202d3e206e6f7420617574686f72697a65640000000000000000600082015250565b6000612583601883611eea565b915061258e8261254d565b602082019050919050565b600060208201905081810360008301526125b281612576565b9050919050565b7f4e487b7100000000000000000000000000000000000000000000000000000000600052601160045260246000fd5b60006125f382611f91565b91506125fe83611f91565b9250828201905080821115612616576126156125b9565b5b92915050565b600081905092915050565b600061263282611edf565b61263c818561261c565b935061264c818560208601611efb565b80840191505092915050565b60006126648285612627565b91506126708284612627565b91508190509392505050565b600081519050919050565b600082825260208201905092915050565b60006126a38261267c565b6126ad8185612687565b93506126bd818560208601611efb565b6126c681611f25565b840191505092915050565b60006080820190506126e66000830187612026565b6126f36020830186612026565b61270060408301856120bc565b81810360608301526127128184612698565b905095945050505050565b60008151905061272c81611e50565b92915050565b60006020828403121561274857612747611e1a565b5b60006127568482850161271d565b91505092915050565b7f4e487b7100000000000000000000000000000000000000000000000000000000600052601260045260246000fd5b600061279982611f91565b91506127a483611f91565b92508282039050818111156127bc576127bb6125b9565b5b92915050565b7f4e487b7100000000000000000000000000000000000000000000000000000000600052603160045260246000fdfea264697066735822122086f9e9b4f2337269594316360183c8946eabf5638a903638c1469d8e0d9c427064736f6c63430008180033a264697066735822122030191398b1716db34cd21f048354950e8d6ec068d2f83941125677ecf7b3197064736f6c63430008180033",
  "linkReferences": {},
  "deployedLinkReferences": {}
}