{
  "_format": "hh-sol-artifact-1",
  "contractName": "UsernameRegistry",
  "sourceName": "contracts/UsernameRegistry.sol",
  "abi": [
    {
      "anonymous": false,
      "inputs": [
        {
          "indexed": true,
          "internalType": "address",
          "name": "user",
          "type": "address"
        },
        {
          "indexed": false,
          "internalType": "string",
          "name": "username",
          "type": "string"
        }
      ],
      "name": "UsernameCreated",
      "type": "event"
    },
    {
      "anonymous": false,
      "inputs": [
        {
          "indexed": true,
          "internalType": "address",
          "name": "user",
          "type": "address"
        },
        {
          "indexed": false,
          "internalType": "string",
          "name": "newUsername",
          "type": "string"
        }
      ],
      "name": "UsernameUpdated",
      "type": "event"
    },
    {
      "inputs": [
        {
          "internalType": "string",
          "name": "username",
          "type": "string"
        }
      ],
      "name": "createUsername",
      "outputs": [],
      "stateMutability": "nonpayable",
      "type": "function"
    },
    {
      "inputs": [
        {
          "internalType": "address",
          "name": "user",
          "type": "address"
        }
      ],
      "name": "getUsername",
      "outputs": [
        {
          "internalType": "string",
          "name": "",
          "type": "string"
        }
      ],
      "stateMutability": "view",
      "type": "function"
    },
    {
      "inputs": [
        {
          "internalType": "string",
          "name": "newUsername",
          "type": "string"
        }
      ],
      "name": "updateUsername",
      "outputs": [],
      "stateMutability": "nonpayable",
      "type": "function"
    }
  ],
  "bytecode": "0x608060405234801561001057600080fd5b50610bf7806100206000396000f3fe608060405234801561001057600080fd5b50600436106100415760003560e01c80636c45752814610046578063c96cea7014610062578063ce43c0321461007e575b600080fd5b610060600480360381019061005b91906105b4565b6100ae565b005b61007c600480360381019061007791906105b4565b61021c565b005b6100986004803603810190610093919061065b565b61038a565b6040516100a59190610707565b60405180910390f35b60008060003373ffffffffffffffffffffffffffffffffffffffff1673ffffffffffffffffffffffffffffffffffffffff16815260200190815260200160002080546100f990610758565b90501461013b576040517f08c379a0000000000000000000000000000000000000000000000000000000008152600401610132906107d5565b60405180910390fd5b600081511161017f576040517f08c379a000000000000000000000000000000000000000000000000000000000815260040161017690610841565b60405180910390fd5b806000803373ffffffffffffffffffffffffffffffffffffffff1673ffffffffffffffffffffffffffffffffffffffff16815260200190815260200160002090816101ca9190610a17565b503373ffffffffffffffffffffffffffffffffffffffff167fbb0683d071351a713fdf26dc33730dd74c6870a258cbdb407c360bdb959b8c75826040516102119190610707565b60405180910390a250565b60008060003373ffffffffffffffffffffffffffffffffffffffff1673ffffffffffffffffffffffffffffffffffffffff168152602001908152602001600020805461026790610758565b9050116102a9576040517f08c379a00000000000000000000000000000000000000000000000000000000081526004016102a090610b35565b60405180910390fd5b60008151116102ed576040517f08c379a00000000000000000000000000000000000000000000000000000000081526004016102e490610ba1565b60405180910390fd5b806000803373ffffffffffffffffffffffffffffffffffffffff1673ffffffffffffffffffffffffffffffffffffffff16815260200190815260200160002090816103389190610a17565b503373ffffffffffffffffffffffffffffffffffffffff167f1af4cc3acb57f067d1d582e3932be6692a4c9a31d8b3a8567dfc1c340a02d5348260405161037f9190610707565b60405180910390a250565b60606000808373ffffffffffffffffffffffffffffffffffffffff1673ffffffffffffffffffffffffffffffffffffffff16815260200190815260200160002080546103d590610758565b80601f016020809104026020016040519081016040528092919081815260200182805461040190610758565b801561044e5780601f106104235761010080835404028352916020019161044e565b820191906000526020600020905b81548152906001019060200180831161043157829003601f168201915b50505050509050919050565b6000604051905090565b600080fd5b600080fd5b600080fd5b600080fd5b6000601f19601f8301169050919050565b7f4e487b7100000000000000000000000000000000000000000000000000000000600052604160045260246000fd5b6104c182610478565b810181811067ffffffffffffffff821117156104e0576104df610489565b5b80604052505050565b60006104f361045a565b90506104ff82826104b8565b919050565b600067ffffffffffffffff82111561051f5761051e610489565b5b61052882610478565b9050602081019050919050565b82818337600083830152505050565b600061055761055284610504565b6104e9565b90508281526020810184848401111561057357610572610473565b5b61057e848285610535565b509392505050565b600082601f83011261059b5761059a61046e565b5b81356105ab848260208601610544565b91505092915050565b6000602082840312156105ca576105c9610464565b5b600082013567ffffffffffffffff8111156105e8576105e7610469565b5b6105f484828501610586565b91505092915050565b600073ffffffffffffffffffffffffffffffffffffffff82169050919050565b6000610628826105fd565b9050919050565b6106388161061d565b811461064357600080fd5b50565b6000813590506106558161062f565b92915050565b60006020828403121561067157610670610464565b5b600061067f84828501610646565b91505092915050565b600081519050919050565b600082825260208201905092915050565b60005b838110156106c25780820151818401526020810190506106a7565b60008484015250505050565b60006106d982610688565b6106e38185610693565b93506106f38185602086016106a4565b6106fc81610478565b840191505092915050565b6000602082019050818103600083015261072181846106ce565b905092915050565b7f4e487b7100000000000000000000000000000000000000000000000000000000600052602260045260246000fd5b6000600282049050600182168061077057607f821691505b60208210810361078357610782610729565b5b50919050565b7f557365726e616d6520616c726561647920657869737473000000000000000000600082015250565b60006107bf601783610693565b91506107ca82610789565b602082019050919050565b600060208201905081810360008301526107ee816107b2565b9050919050565b7f557365726e616d652063616e6e6f7420626520656d7074790000000000000000600082015250565b600061082b601883610693565b9150610836826107f5565b602082019050919050565b6000602082019050818103600083015261085a8161081e565b9050919050565b60008190508160005260206000209050919050565b60006020601f8301049050919050565b600082821b905092915050565b6000600883026108c37fffffffffffffffffffffffffffffffffffffffffffffffffffffffffffffffff82610886565b6108cd8683610886565b95508019841693508086168417925050509392505050565b6000819050919050565b6000819050919050565b600061091461090f61090a846108e5565b6108ef565b6108e5565b9050919050565b6000819050919050565b61092e836108f9565b61094261093a8261091b565b848454610893565b825550505050565b600090565b61095761094a565b610962818484610925565b505050565b5b818110156109865761097b60008261094f565b600181019050610968565b5050565b601f8211156109cb5761099c81610861565b6109a584610876565b810160208510156109b4578190505b6109c86109c085610876565b830182610967565b50505b505050565b600082821c905092915050565b60006109ee600019846008026109d0565b1980831691505092915050565b6000610a0783836109dd565b9150826002028217905092915050565b610a2082610688565b67ffffffffffffffff811115610a3957610a38610489565b5b610a438254610758565b610a4e82828561098a565b600060209050601f831160018114610a815760008415610a6f578287015190505b610a7985826109fb565b865550610ae1565b601f198416610a8f86610861565b60005b82811015610ab757848901518255600182019150602085019450602081019050610a92565b86831015610ad45784890151610ad0601f8916826109dd565b8355505b6001600288020188555050505b505050505050565b7f557365726e616d6520646f6573206e6f74206578697374000000000000000000600082015250565b6000610b1f601783610693565b9150610b2a82610ae9565b602082019050919050565b60006020820190508181036000830152610b4e81610b12565b9050919050565b7f4e657720757365726e616d652063616e6e6f7420626520656d70747900000000600082015250565b6000610b8b601c83610693565b9150610b9682610b55565b602082019050919050565b60006020820190508181036000830152610bba81610b7e565b905091905056fea26469706673582212200e4acf0f75509a4cf61d237db83cf86a42231f083cad0ff8d2a3ab6d7025e2c764736f6c63430008180033",
  "linkReferences": {},
  "deployedLinkReferences": {}
}