{
  "_format": "hh-sol-artifact-1",
  "contractName": "Voting",
  "sourceName": "contracts/Voting.sol",
  "abi": [
    {
      "anonymous": false,
      "inputs": [
        {
          "indexed": true,
          "internalType": "uint256",
          "name": "proposalId",
          "type": "uint256"
        },
        {
          "indexed": false,
          "internalType": "string",
          "name": "description",
          "type": "string"
        },
        {
          "indexed": false,
          "internalType": "address",
          "name": "organizationAddress",
          "type": "address"
        },
        {
          "indexed": false,
          "internalType": "uint256",
          "name": "duration",
          "type": "uint256"
        }
      ],
      "name": "ProposalCreated",
      "type": "event"
    },
    {
      "anonymous": false,
      "inputs": [
        {
          "indexed": true,
          "internalType": "uint256",
          "name": "proposalId",
          "type": "uint256"
        },
        {
          "indexed": false,
          "internalType": "bool",
          "name": "approved",
          "type": "bool"
        }
      ],
      "name": "VoteEnded",
      "type": "event"
    },
    {
      "anonymous": false,
      "inputs": [
        {
          "indexed": true,
          "internalType": "uint256",
          "name": "proposalId",
          "type": "uint256"
        },
        {
          "indexed": false,
          "internalType": "address",
          "name": "voter",
          "type": "address"
        },
        {
          "indexed": false,
          "internalType": "bool",
          "name": "approve",
          "type": "bool"
        }
      ],
      "name": "Voted",
      "type": "event"
    },
    {
      "anonymous": false,
      "inputs": [
        {
          "indexed": true,
          "internalType": "uint256",
          "name": "proposalId",
          "type": "uint256"
        }
      ],
      "name": "VotesRefunded",
      "type": "event"
    },
    {
      "inputs": [
        {
          "internalType": "string",
          "name": "description",
          "type": "string"
        },
        {
          "internalType": "address",
          "name": "_organizationAddress",
          "type": "address"
        },
        {
          "internalType": "address payable",
          "name": "_actionAddress",
          "type": "address"
        },
        {
          "internalType": "uint256",
          "name": "duration",
          "type": "uint256"
        }
      ],
      "name": "createProposal",
      "outputs": [],
      "stateMutability": "nonpayable",
      "type": "function"
    },
    {
      "inputs": [
        {
          "internalType": "uint256",
          "name": "proposalId",
          "type": "uint256"
        }
      ],
      "name": "endVote",
      "outputs": [],
      "stateMutability": "nonpayable",
      "type": "function"
    },
    {
      "inputs": [
        {
          "internalType": "address",
          "name": "_organizationAddress",
          "type": "address"
        }
      ],
      "name": "getProposalsByOrganization",
      "outputs": [
        {
          "components": [
            {
              "internalType": "string",
              "name": "description",
              "type": "string"
            },
            {
              "internalType": "address",
              "name": "organizationAddress",
              "type": "address"
            },
            {
              "internalType": "address",
              "name": "actionAddress",
              "type": "address"
            },
            {
              "internalType": "uint256",
              "name": "yesVotes",
              "type": "uint256"
            },
            {
              "internalType": "uint256",
              "name": "noVotes",
              "type": "uint256"
            },
            {
              "internalType": "uint256",
              "name": "startTime",
              "type": "uint256"
            },
            {
              "internalType": "uint256",
              "name": "duration",
              "type": "uint256"
            },
            {
              "internalType": "uint256",
              "name": "pricePerVote",
              "type": "uint256"
            },
            {
              "internalType": "address[]",
              "name": "voters",
              "type": "address[]"
            }
          ],
          "internalType": "struct Voting.ProposalInfo[]",
          "name": "",
          "type": "tuple[]"
        }
      ],
      "stateMutability": "view",
      "type": "function"
    },
    {
      "inputs": [
        {
          "internalType": "uint256",
          "name": "proposalId",
          "type": "uint256"
        },
        {
          "internalType": "address",
          "name": "voter",
          "type": "address"
        }
      ],
      "name": "getSentAmount",
      "outputs": [
        {
          "internalType": "uint256",
          "name": "",
          "type": "uint256"
        }
      ],
      "stateMutability": "view",
      "type": "function"
    },
    {
      "inputs": [
        {
          "internalType": "address",
          "name": "",
          "type": "address"
        },
        {
          "internalType": "uint256",
          "name": "",
          "type": "uint256"
        }
      ],
      "name": "organizationProposals",
      "outputs": [
        {
          "internalType": "uint256",
          "name": "",
          "type": "uint256"
        }
      ],
      "stateMutability": "view",
      "type": "function"
    },
    {
      "inputs": [
        {
          "internalType": "uint256",
          "name": "",
          "type": "uint256"
        }
      ],
      "name": "proposals",
      "outputs": [
        {
          "internalType": "string",
          "name": "description",
          "type": "string"
        },
        {
          "internalType": "address",
          "name": "organizationAddress",
          "type": "address"
        },
        {
          "internalType": "address payable",
          "name": "actionAddress",
          "type": "address"
        },
        {
          "internalType": "uint256",
          "name": "yesVotes",
          "type": "uint256"
        },
        {
          "internalType": "uint256",
          "name": "noVotes",
          "type": "uint256"
        },
        {
          "internalType": "uint256",
          "name": "startTime",
          "type": "uint256"
        },
        {
          "internalType": "uint256",
          "name": "duration",
          "type": "uint256"
        },
        {
          "internalType": "uint256",
          "name": "pricePerVote",
          "type": "uint256"
        }
      ],
      "stateMutability": "view",
      "type": "function"
    },
    {
      "inputs": [
        {
          "internalType": "uint256",
          "name": "proposalId",
          "type": "uint256"
        },
        {
          "internalType": "bool",
          "name": "approve",
          "type": "bool"
        }
      ],
      "name": "vote",
      "outputs": [],
      "stateMutability": "payable",
      "type": "function"
    },
    {
      "inputs": [
        {
          "internalType": "uint256",
          "name": "",
          "type": "uint256"
        },
        {
          "internalType": "address",
          "name": "",
          "type": "address"
        }
      ],
      "name": "votesSent",
      "outputs": [
        {
          "internalType": "uint256",
          "name": "",
          "type": "uint256"
        }
      ],
      "stateMutability": "view",
      "type": "function"
    }
  ],
  "bytecode": "0x6080604052600160005534801561001557600080fd5b50612500806100256000396000f3fe60806040526004361061007b5760003560e01c8063865df0ad1161004e578063865df0ad14610167578063c9d27afe14610190578063ec410bc5146101ac578063ef03a4b6146101e95761007b565b8063013cf08b14610080578063134386e7146100c457806350d2ddf9146101015780635edf9ee41461012a575b600080fd5b34801561008c57600080fd5b506100a760048036038101906100a2919061149a565b610226565b6040516100bb9897969594939291906115c8565b60405180910390f35b3480156100d057600080fd5b506100eb60048036038101906100e69190611679565b610336565b6040516100f8919061194b565b60405180910390f35b34801561010d57600080fd5b5061012860048036038101906101239190611ace565b610673565b005b34801561013657600080fd5b50610151600480360381019061014c9190611b51565b6109ab565b60405161015e9190611b91565b60405180910390f35b34801561017357600080fd5b5061018e6004803603810190610189919061149a565b610a06565b005b6101aa60048036038101906101a59190611be4565b610ce8565b005b3480156101b857600080fd5b506101d360048036038101906101ce9190611c24565b61109e565b6040516101e09190611b91565b60405180910390f35b3480156101f557600080fd5b50610210600480360381019061020b9190611b51565b6110cf565b60405161021d9190611b91565b60405180910390f35b600160205280600052604060002060009150905080600001805461024990611c93565b80601f016020809104026020016040519081016040528092919081815260200182805461027590611c93565b80156102c25780601f10610297576101008083540402835291602001916102c2565b820191906000526020600020905b8154815290600101906020018083116102a557829003601f168201915b5050505050908060010160009054906101000a900473ffffffffffffffffffffffffffffffffffffffff16908060020160009054906101000a900473ffffffffffffffffffffffffffffffffffffffff16908060030154908060040154908060050154908060060154908060070154905088565b60606000600260008473ffffffffffffffffffffffffffffffffffffffff1673ffffffffffffffffffffffffffffffffffffffff1681526020019081526020016000208054806020026020016040519081016040528092919081815260200182805480156103c357602002820191906000526020600020905b8154815260200190600101908083116103af575b505050505090506000815167ffffffffffffffff8111156103e7576103e6611977565b5b60405190808252806020026020018201604052801561042057816020015b61040d61135a565b8152602001906001900390816104055790505b50905060005b82518110156106685760006001600085848151811061044857610447611cc4565b5b60200260200101518152602001908152602001600020905060405180610120016040528082600001805461047b90611c93565b80601f01602080910402602001604051908101604052809291908181526020018280546104a790611c93565b80156104f45780601f106104c9576101008083540402835291602001916104f4565b820191906000526020600020905b8154815290600101906020018083116104d757829003601f168201915b505050505081526020018260010160009054906101000a900473ffffffffffffffffffffffffffffffffffffffff1673ffffffffffffffffffffffffffffffffffffffff1681526020018260020160009054906101000a900473ffffffffffffffffffffffffffffffffffffffff1673ffffffffffffffffffffffffffffffffffffffff16815260200182600301548152602001826004015481526020018260050154815260200182600601548152602001826007015481526020018260090180548060200260200160405190810160405280929190818152602001828054801561063457602002820191906000526020600020905b8160009054906101000a900473ffffffffffffffffffffffffffffffffffffffff1673ffffffffffffffffffffffffffffffffffffffff16815260200190600101908083116105ea575b505050505081525083838151811061064f5761064e611cc4565b5b6020026020010181905250508080600101915050610426565b508092505050919050565b60008373ffffffffffffffffffffffffffffffffffffffff166370a08231336040518263ffffffff1660e01b81526004016106ae9190611cf3565b602060405180830381865afa1580156106cb573d6000803e3d6000fd5b505050506040513d601f19601f820116820180604052508101906106ef9190611d23565b1161072f576040517f08c379a000000000000000000000000000000000000000000000000000000000815260040161072690611dc2565b60405180910390fd5b600060016000805481526020019081526020016000209050848160000190816107589190611f8e565b50838160010160006101000a81548173ffffffffffffffffffffffffffffffffffffffff021916908373ffffffffffffffffffffffffffffffffffffffff160217905550428160050181905550818160060181905550828160020160006101000a81548173ffffffffffffffffffffffffffffffffffffffff021916908373ffffffffffffffffffffffffffffffffffffffff16021790555060008473ffffffffffffffffffffffffffffffffffffffff166330bdb3516040518163ffffffff1660e01b8152600401602060405180830381865afa15801561083e573d6000803e3d6000fd5b505050506040513d601f19601f820116820180604052508101906108629190611d23565b9050808473ffffffffffffffffffffffffffffffffffffffff1663a7cc53f56040518163ffffffff1660e01b8152600401602060405180830381865afa1580156108b0573d6000803e3d6000fd5b505050506040513d601f19601f820116820180604052508101906108d49190611d23565b6108de91906120be565b8260070181905550600260008673ffffffffffffffffffffffffffffffffffffffff1673ffffffffffffffffffffffffffffffffffffffff16815260200190815260200160002060005490806001815401808255809150506001900390600052602060002001600090919091909150556000547f9cc3d9dd626042cdefb76484b91708c3207b637214b44f20111c893548d9c85f878786604051610984939291906120ef565b60405180910390a260008081548092919061099e9061212d565b9190505550505050505050565b60006003600084815260200190815260200160002060008373ffffffffffffffffffffffffffffffffffffffff1673ffffffffffffffffffffffffffffffffffffffff16815260200190815260200160002054905092915050565b600060016000838152602001908152602001600020905080600601548160050154610a319190612175565b4211610a72576040517f08c379a0000000000000000000000000000000000000000000000000000000008152600401610a69906121f5565b60405180910390fd5b6000816004015482600301541190508015610bf55760008260020160009054906101000a900473ffffffffffffffffffffffffffffffffffffffff1673ffffffffffffffffffffffffffffffffffffffff1663a7cc53f56040518163ffffffff1660e01b8152600401602060405180830381865afa158015610af8573d6000803e3d6000fd5b505050506040513d601f19601f82011682018060405250810190610b1c9190611d23565b905060008360020160009054906101000a900473ffffffffffffffffffffffffffffffffffffffff1673ffffffffffffffffffffffffffffffffffffffff1682604051610b6890612246565b60006040518083038185875af1925050503d8060008114610ba5576040519150601f19603f3d011682016040523d82523d6000602084013e610baa565b606091505b5050905080610bee576040517f08c379a0000000000000000000000000000000000000000000000000000000008152600401610be5906122a7565b60405180910390fd5b5050610bff565b610bfe836110f4565b5b827f629e5812f1b28daac81294d20cc130becdfda80b23ebd449b85634c9fb26fc4b82604051610c2f91906122d6565b60405180910390a26001600084815260200190815260200160002060008082016000610c5b91906113d2565b6001820160006101000a81549073ffffffffffffffffffffffffffffffffffffffff02191690556002820160006101000a81549073ffffffffffffffffffffffffffffffffffffffff021916905560038201600090556004820160009055600582016000905560068201600090556007820160009055600982016000610ce19190611412565b5050505050565b600060016000848152602001908152602001600020905080600601548160050154610d139190612175565b421115610d55576040517f08c379a0000000000000000000000000000000000000000000000000000000008152600401610d4c9061233d565b60405180910390fd5b8060080160003373ffffffffffffffffffffffffffffffffffffffff1673ffffffffffffffffffffffffffffffffffffffff16815260200190815260200160002060009054906101000a900460ff1615610de4576040517f08c379a0000000000000000000000000000000000000000000000000000000008152600401610ddb906123a9565b60405180910390fd5b60008160010160009054906101000a900473ffffffffffffffffffffffffffffffffffffffff1673ffffffffffffffffffffffffffffffffffffffff166370a08231336040518263ffffffff1660e01b8152600401610e439190611cf3565b602060405180830381865afa158015610e60573d6000803e3d6000fd5b505050506040513d601f19601f82011682018060405250810190610e849190611d23565b11610ec4576040517f08c379a0000000000000000000000000000000000000000000000000000000008152600401610ebb90611dc2565b60405180910390fd5b8060070154341015610f0b576040517f08c379a0000000000000000000000000000000000000000000000000000000008152600401610f0290612415565b60405180910390fd5b346003600085815260200190815260200160002060003373ffffffffffffffffffffffffffffffffffffffff1673ffffffffffffffffffffffffffffffffffffffff1681526020019081526020016000208190555080600901339080600181540180825580915050600190039060005260206000200160009091909190916101000a81548173ffffffffffffffffffffffffffffffffffffffff021916908373ffffffffffffffffffffffffffffffffffffffff1602179055508115610fea57806003016000815480929190610fe09061212d565b9190505550611005565b806004016000815480929190610fff9061212d565b91905055505b60018160080160003373ffffffffffffffffffffffffffffffffffffffff1673ffffffffffffffffffffffffffffffffffffffff16815260200190815260200160002060006101000a81548160ff021916908315150217905550827ff2913dbe661ee2acc4a046d8fbcdc792373bda34c41c6086484b5345e5785e5f3384604051611091929190612435565b60405180910390a2505050565b600260205281600052604060002081815481106110ba57600080fd5b90600052602060002001600091509150505481565b6003602052816000526040600020602052806000526040600020600091509150505481565b60006001600083815260200190815260200160002090508060060154816005015461111f9190612175565b4211611160576040517f08c379a0000000000000000000000000000000000000000000000000000000008152600401611157906121f5565b60405180910390fd5b60005b816009018054905081101561132857600082600901828154811061118a57611189611cc4565b5b9060005260206000200160009054906101000a900473ffffffffffffffffffffffffffffffffffffffff16905060006003600086815260200190815260200160002060008373ffffffffffffffffffffffffffffffffffffffff1673ffffffffffffffffffffffffffffffffffffffff16815260200190815260200160002054905060008111156113195760006003600087815260200190815260200160002060008473ffffffffffffffffffffffffffffffffffffffff1673ffffffffffffffffffffffffffffffffffffffff1681526020019081526020016000208190555060008273ffffffffffffffffffffffffffffffffffffffff168260405161129190612246565b60006040518083038185875af1925050503d80600081146112ce576040519150601f19603f3d011682016040523d82523d6000602084013e6112d3565b606091505b5050905080611317576040517f08c379a000000000000000000000000000000000000000000000000000000000815260040161130e906124aa565b60405180910390fd5b505b50508080600101915050611163565b50817f25780236cf5ec1e042742d5091a6c8b412707776b818effb9071a65092bba08260405160405180910390a25050565b60405180610120016040528060608152602001600073ffffffffffffffffffffffffffffffffffffffff168152602001600073ffffffffffffffffffffffffffffffffffffffff1681526020016000815260200160008152602001600081526020016000815260200160008152602001606081525090565b5080546113de90611c93565b6000825580601f106113f0575061140f565b601f01602090049060005260206000209081019061140e9190611433565b5b50565b50805460008255906000526020600020908101906114309190611433565b50565b5b8082111561144c576000816000905550600101611434565b5090565b6000604051905090565b600080fd5b600080fd5b6000819050919050565b61147781611464565b811461148257600080fd5b50565b6000813590506114948161146e565b92915050565b6000602082840312156114b0576114af61145a565b5b60006114be84828501611485565b91505092915050565b600081519050919050565b600082825260208201905092915050565b60005b838110156115015780820151818401526020810190506114e6565b60008484015250505050565b6000601f19601f8301169050919050565b6000611529826114c7565b61153381856114d2565b93506115438185602086016114e3565b61154c8161150d565b840191505092915050565b600073ffffffffffffffffffffffffffffffffffffffff82169050919050565b600061158282611557565b9050919050565b61159281611577565b82525050565b60006115a382611557565b9050919050565b6115b381611598565b82525050565b6115c281611464565b82525050565b60006101008201905081810360008301526115e3818b61151e565b90506115f2602083018a611589565b6115ff60408301896115aa565b61160c60608301886115b9565b61161960808301876115b9565b61162660a08301866115b9565b61163360c08301856115b9565b61164060e08301846115b9565b9998505050505050505050565b61165681611577565b811461166157600080fd5b50565b6000813590506116738161164d565b92915050565b60006020828403121561168f5761168e61145a565b5b600061169d84828501611664565b91505092915050565b600081519050919050565b600082825260208201905092915050565b6000819050602082019050919050565b600082825260208201905092915050565b60006116ee826114c7565b6116f881856116d2565b93506117088185602086016114e3565b6117118161150d565b840191505092915050565b61172581611577565b82525050565b61173481611464565b82525050565b600081519050919050565b600082825260208201905092915050565b6000819050602082019050919050565b6000611772838361171c565b60208301905092915050565b6000602082019050919050565b60006117968261173a565b6117a08185611745565b93506117ab83611756565b8060005b838110156117dc5781516117c38882611766565b97506117ce8361177e565b9250506001810190506117af565b5085935050505092915050565b600061012083016000830151848203600086015261180782826116e3565b915050602083015161181c602086018261171c565b50604083015161182f604086018261171c565b506060830151611842606086018261172b565b506080830151611855608086018261172b565b5060a083015161186860a086018261172b565b5060c083015161187b60c086018261172b565b5060e083015161188e60e086018261172b565b506101008301518482036101008601526118a8828261178b565b9150508091505092915050565b60006118c183836117e9565b905092915050565b6000602082019050919050565b60006118e1826116a6565b6118eb81856116b1565b9350836020820285016118fd856116c2565b8060005b85811015611939578484038952815161191a85826118b5565b9450611925836118c9565b925060208a01995050600181019050611901565b50829750879550505050505092915050565b6000602082019050818103600083015261196581846118d6565b905092915050565b600080fd5b600080fd5b7f4e487b7100000000000000000000000000000000000000000000000000000000600052604160045260246000fd5b6119af8261150d565b810181811067ffffffffffffffff821117156119ce576119cd611977565b5b80604052505050565b60006119e1611450565b90506119ed82826119a6565b919050565b600067ffffffffffffffff821115611a0d57611a0c611977565b5b611a168261150d565b9050602081019050919050565b82818337600083830152505050565b6000611a45611a40846119f2565b6119d7565b905082815260208101848484011115611a6157611a60611972565b5b611a6c848285611a23565b509392505050565b600082601f830112611a8957611a8861196d565b5b8135611a99848260208601611a32565b91505092915050565b611aab81611598565b8114611ab657600080fd5b50565b600081359050611ac881611aa2565b92915050565b60008060008060808587031215611ae857611ae761145a565b5b600085013567ffffffffffffffff811115611b0657611b0561145f565b5b611b1287828801611a74565b9450506020611b2387828801611664565b9350506040611b3487828801611ab9565b9250506060611b4587828801611485565b91505092959194509250565b60008060408385031215611b6857611b6761145a565b5b6000611b7685828601611485565b9250506020611b8785828601611664565b9150509250929050565b6000602082019050611ba660008301846115b9565b92915050565b60008115159050919050565b611bc181611bac565b8114611bcc57600080fd5b50565b600081359050611bde81611bb8565b92915050565b60008060408385031215611bfb57611bfa61145a565b5b6000611c0985828601611485565b9250506020611c1a85828601611bcf565b9150509250929050565b60008060408385031215611c3b57611c3a61145a565b5b6000611c4985828601611664565b9250506020611c5a85828601611485565b9150509250929050565b7f4e487b7100000000000000000000000000000000000000000000000000000000600052602260045260246000fd5b60006002820490506001821680611cab57607f821691505b602082108103611cbe57611cbd611c64565b5b50919050565b7f4e487b7100000000000000000000000000000000000000000000000000000000600052603260045260246000fd5b6000602082019050611d086000830184611589565b92915050565b600081519050611d1d8161146e565b92915050565b600060208284031215611d3957611d3861145a565b5b6000611d4784828501611d0e565b91505092915050565b7f43616c6c657220646f6573206e6f7420686f6c6420616e206f7267616e697a6160008201527f74696f6e204e4654000000000000000000000000000000000000000000000000602082015250565b6000611dac6028836114d2565b9150611db782611d50565b604082019050919050565b60006020820190508181036000830152611ddb81611d9f565b9050919050565b60008190508160005260206000209050919050565b60006020601f8301049050919050565b600082821b905092915050565b600060088302611e447fffffffffffffffffffffffffffffffffffffffffffffffffffffffffffffffff82611e07565b611e4e8683611e07565b95508019841693508086168417925050509392505050565b6000819050919050565b6000611e8b611e86611e8184611464565b611e66565b611464565b9050919050565b6000819050919050565b611ea583611e70565b611eb9611eb182611e92565b848454611e14565b825550505050565b600090565b611ece611ec1565b611ed9818484611e9c565b505050565b5b81811015611efd57611ef2600082611ec6565b600181019050611edf565b5050565b601f821115611f4257611f1381611de2565b611f1c84611df7565b81016020851015611f2b578190505b611f3f611f3785611df7565b830182611ede565b50505b505050565b600082821c905092915050565b6000611f6560001984600802611f47565b1980831691505092915050565b6000611f7e8383611f54565b9150826002028217905092915050565b611f97826114c7565b67ffffffffffffffff811115611fb057611faf611977565b5b611fba8254611c93565b611fc5828285611f01565b600060209050601f831160018114611ff85760008415611fe6578287015190505b611ff08582611f72565b865550612058565b601f19841661200686611de2565b60005b8281101561202e57848901518255600182019150602085019450602081019050612009565b8683101561204b5784890151612047601f891682611f54565b8355505b6001600288020188555050505b505050505050565b7f4e487b7100000000000000000000000000000000000000000000000000000000600052601260045260246000fd5b7f4e487b7100000000000000000000000000000000000000000000000000000000600052601160045260246000fd5b60006120c982611464565b91506120d483611464565b9250826120e4576120e3612060565b5b828204905092915050565b60006060820190508181036000830152612109818661151e565b90506121186020830185611589565b61212560408301846115b9565b949350505050565b600061213882611464565b91507fffffffffffffffffffffffffffffffffffffffffffffffffffffffffffffffff820361216a5761216961208f565b5b600182019050919050565b600061218082611464565b915061218b83611464565b92508282019050808211156121a3576121a261208f565b5b92915050565b7f566f74696e6720706572696f6420686173206e6f7420656e6465640000000000600082015250565b60006121df601b836114d2565b91506121ea826121a9565b602082019050919050565b6000602082019050818103600083015261220e816121d2565b9050919050565b600081905092915050565b50565b6000612230600083612215565b915061223b82612220565b600082019050919050565b600061225182612223565b9150819050919050565b7f416374696f6e2063616c6c206661696c65640000000000000000000000000000600082015250565b60006122916012836114d2565b915061229c8261225b565b602082019050919050565b600060208201905081810360008301526122c081612284565b9050919050565b6122d081611bac565b82525050565b60006020820190506122eb60008301846122c7565b92915050565b7f566f74696e6720706572696f642068617320656e646564000000000000000000600082015250565b60006123276017836114d2565b9150612332826122f1565b602082019050919050565b600060208201905081810360008301526123568161231a565b9050919050565b7f557365722068617320616c726561647920766f74656400000000000000000000600082015250565b60006123936016836114d2565b915061239e8261235d565b602082019050919050565b600060208201905081810360008301526123c281612386565b9050919050565b7f5468652073656e7420616d6f756e74206973206e6f7420656e6f756768000000600082015250565b60006123ff601d836114d2565b915061240a826123c9565b602082019050919050565b6000602082019050818103600083015261242e816123f2565b9050919050565b600060408201905061244a6000830185611589565b61245760208301846122c7565b9392505050565b7f526566756e64206661696c656400000000000000000000000000000000000000600082015250565b6000612494600d836114d2565b915061249f8261245e565b602082019050919050565b600060208201905081810360008301526124c381612487565b905091905056fea2646970667358221220ae8e7cdd97a50ee471b38ed4b77e01502f9fe4ad6ba432a27bed00c8b798064664736f6c63430008180033",
  "linkReferences": {},
  "deployedLinkReferences": {}
}